:0D005F00E582900001F090000274A0F09086
:0C006C000000E0FA600690000274A1F0B1
:0E007800900001E0FA24F8501E8A037C00C0BC
:0A00860003C00474E3C0E07418C066
:0E009000E07480C0E0121028E58124FBF581A9
:01009E00223F
:0E009F00EA2AFA900002E0FB4AF012014E90AD
:0900AD000002E0FAF58202017E76
:0C00B600E582900005F0900004E0FA9054
:0A00C2000000E4F08A8212005F9053
:0A00CC000003E0FAF58212017E90B5
:0A00D6000005E0FAF58212017E0237
:0200E000015DC0
:0C00E200E582900007F0900006E0FA9024
:0E00EE000000E4F08A82C00212005FD002908F
:0E00FC000007E0FBF582C00212017ED002C0B8
:0E010A0002120153D0029000007401F08A82AC
:0B01180012005F1201C9AA82C002128F
:0E0123000173D002C00212015DD0028A822256
:030131000201497F
:0E18E3000D0A496E76616C696420626C6F6359
:0C18F1006B206E756D626572202564002E
:020134007A6FE0
:06013600EA60031A80FAE2
:01013C0022A0
:06013D00120134D29122F0
:06014300120134C29122FA
:05014900D29002013D0F
:05014E00C29002014314
:0A015300D29012013DC29002014358
:0B015D00120143C29012013DD290221B
:0B016800C29012013D120143D2902210
:0B017300D29012013D120143D29022F5
:08017E00E582900008F07A0010
:03018600BA0800B4
:0E018900502A900008E0FB20E704C29080029C
:02019700D29004
:0E019900C00212013DD002C002120143D0028A
:0E01A700900008E025E0FB900008F00A80D1EF
:0D01B500D29012013DE4A29033FAC0021274
:0701C2000143D0028A8222F2
:0701C900900009E4F07A0048
:0301D000BA08006A
:0D01D300502CC00212013DD0023090089067
:0701E0000009E0FB4401F0FF
:0301E700BA070054
:0D01EA00500B900009E025E0FB900009F0AB
:0A01F700C002120143D0020A80CFBB
:07020100900009E0F58222E4
:0E020800E58290000AF0C294C2959018FDE4C1
:0E02160093FA740193FB90000AE0FC8A828B3D
:0302240083F02242
:0E022700E58290000BF0C294D2959018FDE491
:0E02350093FA740193FB90000BE0FC8A828B1D
:0302430083F02223
:0E024600E58290000CF090000CE0FA74F05A83
:0E025400FBC4540F25E0FB90193F93CBA393FE
:0E026200FC8B82C002120303D00253020FEA8B
:0D0270002AFA90193F93CAA393FB8A8202D9
:02027D00030379
:04027F00D294C295BE
:0E0283009018FDE493FA740193FB8A828B833A
:06029100E0FA20E7ED2277
:0902970012027F758201020208C7
:0E02A000E58290000DF090000DE0FA247F50F2
:0202AE0001222B
:0E02B000C00212027FD002C294C2959018FDC7
:0E02BE00E493FB740193FC4302808B828C83DB
:0302CC00EAF02233
:0E02CF00E58290000FF090000FE0FA24FC4052
:0A02DD000990000EE0FB24F0500130
:0102E70022F4
:0A02E800EAC454F024FFFAE43418CD
:0E02F200FCEB2AF582E43CF583E493FAF582F6
:030300000202A056
:0A030300E582900010F012027F90D6
:09030D000010E0FAF5820202275B
:0E031600AAF0AB83E582900011F0A3EBF0A3F8
:0D032400EAF0900011E0FAA3E0FBA3E0FC7A
:0D0331008A828B838CF01218C7FD700122A8
:0E033E008D82C002C003C004120303D004D09D
:08034C0003D0020ABA00010B04
:0E035400900011EAF0A3EBF0A3ECF0C002C0A1
:0E03620003C00412027FD004D003D002D29454
:0E037000C2959018FDE493FD740193FE8D82FA
:0C037E008E83E0FD53057FBD1002800F50
:05038A00BD24028034D7
:05038F00BD5002801AC0
:05039400BD649A803FEA
:0E039900758240C002C003C0041202A0D0044E
:0703A700D003D00202033174
:0E03AE00758210C002C003C0041202A0D00469
:0703BC00D003D0020203315F
:0E03C300758250C002C003C0041202A0D00414
:0703D100D003D0020203314A
:0103D8002202
:0A03D90012027F758238120208122A
:0803E300027F75820F0202087F
:0A03EB0012027F758201120208124F
:0B03F500027F90000EE4F07582001201
:0904000002CF90195F75F0800233
:020409000316D8
:0218FD0000E009
:0E18FF00000102030405060708090A0B0C0D80
:0E190D000E0F404142434445464748494A4B6D
:0E191B004C4D4E4F10111213141516171819BB
:0E1929001A1B1C1D1E1F505152535455565769
:0819370058595A5B5C5D5E5FCC
:0E193F00300031003200330034003500360035
:0E194D003700380039004100420043004400DA
:04195B0045004600FD
:0E195F006162636465666768696A6B6C6E6FCF
:0E196D00707172737475767778797A313233CF
:0E197B003435363738396162636465666768F3
:0E198900696A6B6C6D6E6F7071727374757637
:0E1997007778797A313233343536373839384B
:0819A5003736353433323100CE
:03000000020003F8
:03005C0002040B90
:05040B001209C180FE92
:07041000438E0C9000002256
:0A04170074ADC0E07419C0E07480F9
:0C042100C0E012102815811581158174AF
:0A042D00BFC0E07419C0E07480C085
:0C043700E012102815811581158174ADAC
:0B044300C0E07419C0E07480C0E0123B
:0C044E00102815811581158174CCC0E0C8
:0C045A007419C0E07480C0E01210281576
:0A046600811581158174EAC0E0746D
:0C04700019C0E07480C0E0121028158153
:0A047C00158115817410C0E0741A98
:0E048600C0E07480C0E01210281581158115A9
:0A049400817437C0E0741AC0E074F0
:0D049E0080C0E012102815811581158174B1
:0A04AB0061C0E0741AC0E07480C064
:0C04B500E0121028158115811581748655
:0B04C100C0E0741AC0E07480C0E012BC
:0C04CC00102815811581158174ADC0E069
:0C04D800741AC0E07480C0E012102815F7
:0A04E400811581158174D7C0E07402
:0C04EE001AC0E07480C0E01210281581D4
:0504FA001581158122AF
:0E04FF00AAF0AB83E582900017F0A3EBF0A308
:0A050D00EAF07403C0E0741BC0E0C4
:0E0517007480C0E012102815811581158190A6
:0E0525000014E0FAA3E0FBA3E0FC900001C08C
:0E05330002C003C004120A0DAD82AE83D004D4
:0E054100D003D0028A828B838CF0ED120F69FA
:0E054F008A828B838CF01218C7FD24F850436B
:0B055D00C002C003C004742DC0E07495
:0C0568001BC0E07480C0E0121028158158
:0E05740015811581D004D003D002900001C083
:0E05820002C003C004120A0DAD82AE83D00485
:0E059000D003D0028A828B838CF0ED120F69AB
:02059E0080AF2C
:0A05A0007460C0E0741BC0E07480BA
:0E05AA00C0E0121028158115811581900017F0
:0E05B800E0FAA3E0FBA3E0FCC002C003C00415
:0E05C600120B32AD82D004D003D0028A828B99
:0705D400838CF0ED020F69BA
:0E05DB00E58290001AF090001AE0FABA43038D
:0305E9000207D234
:0605EC00BA44030207EB14
:0405F200BA470122E1
:0605F600BA48030209BE31
:0605FC00BA4C03020716D1
:06060200BA52030206A338
:05060800BA5702800159
:01060D0022CA
:0A060E007487C0E0741BC0E0748024
:0E061800C0E012102815811581158190001484
:0A062600741BF0A37400F0A374002D
:0B063000F090001D75F0001204FF7434
:0A063B009EC0E0741BC0E07480C094
:0E064500E0121028158115811581120B32AAC2
:0C0653008290001DE0FB90001BE0FC907A
:0E065F000003EBF0900004ECF08A82C002125F
:0C066D0000B6D00290001DE0FB7C009065
:0E067900001BE0FD7E007F00C003C004C00532
:0B068700C006C002C00774C9C0E074C8
:0C0692001BC0E07480C0E0121028E5815D
:05069E0024F7F58122A4
:0A06A30074FAC0E0741BC0E074801C
:0E06AD00C0E0121028158115811581900014EF
:0A06BB00741BF0A37400F0A3740098
:0B06C500F090001D75F0001204FF9083
:0A06D000001DE0FA90001BE0FB9013
:0B06DA000006F08A821200E2AA829063
:0E06E500001DE0FB7C0090001BE0FD7E007F0E
:0E06F30000C003C004C005C006C002C00774EA
:0A07010013C0E0741CC0E07480C057
:0B070B00E0121028E58124F7F58122A0
:0A0716007403C0E0741BC0E074809F
:0E072000C0E01210281581158115819000147B
:0A072E00741BF0A37400F0A3740024
:0B073800F090001D75F0001204FF900F
:0A074300001DE0FA90001BE0FB909F
:0D074D000006F08A821200E2AA82C0027447
:0A075A003AC0E0741CC0E07480C0D7
:0D076400E0121028158115811581D002903A
:0E0771000001C002120A0DAB82AC83D00290D0
:0E077F00000EE4F08B82C0021202CFD0029076
:0E078D00001BE02430FBF582C002120303D0F3
:0E079B000290001DE0FBF582C002120246D063
:0E07A90002901C5475F080C002120316D0029C
:0A07B7008A821202467457C0E074F3
:0C07C1001CC0E07480C0E01210281581FC
:0507CD001581158122D9
:0807D2001202977469C0E07483
:0C07DA001CC0E07480C0E01210281581E3
:0507E6001581158122C0
:0A07EB007482C0E0741CC0E074804A
:0C07F500C0E012102815811581158174D8
:0A080100A5C0E0741CC0E07480C0C4
:0E080B00E012102815811581158190001474DB
:0A0819001BF0A37400F0A37400F0BC
:0A08230090001D75F0001204FF7430
:0A082D00CCC0E0741CC0E07480C071
:0E083700E012102815811581158190001474AF
:0A0845001CF0A37400F0A37400F08F
:0A084F0090001E75F0001204FF90E7
:0E085900001BE0FA8A037A0090001DE0FC7D8F
:0E086700004202ED420390001FEAF0A3EBF006
:0E08750090001CE0FC8C057C0090001EE0FE54
:0E0883007F004204EF4205900021ECF0A3ED4F
:0C089100F0C3EC9AED9B501674F1C0E02F
:0C089D00741CC0E07480C0E0121028152C
:0608A9008115811581227A
:0A08AF00742EC0E0741DC0E07480D8
:0E08B900C0E0121028158115811581900021D4
:0908C700E0FAA3E0FB8A048B05B2
:0E08D00090001FE0FEA3E0FFC3EC9EED9F50E2
:0208DE000122F5
:0E08E000C002C003C004C005C006C007C006A9
:0A08EE00C0077431C0E0741DC0E0C3
:0E08F8007480C0E0121028E58124FBF581D049
:0D09060007D006D005D004D003D002780041
:03091300B8100019
:0E0916005076C004C0058E017C00900006EFF4
:0E092400F08982C002C003C005C006C007C033
:0E093200001200E2AC82D000D007D006D00543
:0E094000D003D0027D00C002C003C004C00579
:0C094E00C006C007C000C004C00574361D
:0B095A00C0E0741DC0E07480C0E0121B
:0E0965001028E58124FBF581D000D007D006D4
:0D097300D005D004D003D0020EBE00010F4D
:0E098000C3EA9EEB9FD005D00440030880859B
:0E098E0090001FEEF0A3EFF0C002C003C00403
:0A099C00C005742EC0E0741DC0E019
:0E09A6007480C0E0121028158115811581D0D3
:0A09B40005D004D003D0020208D0E1
:0309BE0002041719
:0709C100120E0812013112B1
:0709C80003D9D293120417BA
:0E09CF00120A03AA82BA0D0A75820AC0021229
:0409DD0009F1D0024A
:0E09E1008A82C0021209F1D0028A821205DB5E
:0209EF0080DEA8
:0E19AD000D0A2A2A2A2A2A2A2A2A2A2A2A2A1D
:0419BB002A2A2A00AA
:0D19BF000D0A202020204D656E750D0A00D8
:0E19CC000D0A50726573732027482720746F30
:0E19DA002073686F772074686973206D656EE6
:0219E800750088
:0E19EA000D0A50726573732027572720746F03
:0E19F800207772697465206120627974652021
:0A1A0600746F20454550524F4D000B
:0E1A10000D0A50726573732027522720746FE1
:0E1A1E00207265616420612062797465206623
:0B1A2C00726F6D20454550524F4D0079
:0E1A37000D0A507265737320274C2720746FC0
:0E1A450020646973706C617920454550524FE2
:0E1A53004D2064617461206F6E204C4344008E
:0E1A61000D0A50726573732027432720746F9F
:0E1A6F0020636C65617220746865204C4344EE
:091A7D0020646973706C6179004A
:0E1A86000D0A50726573732027442720746F79
:0E1A940020646F2061204865782044756D70D5
:0B1AA200206F6620454550524F4D005C
:0E1AAD000D0A50726573732027592720746F3D
:0E1ABB0020726561642074686520636F6E742C
:0E1AC900656E7473206F6620444452414D00D8
:0E1AD7000D0A50726573732027472720746F25
:0E1AE50020726561642074686520636F6E7402
:0E1AF300656E7473206F6620434752414D0D9F
:021B01000A00D8
:0E1B03000D0A456E74657220616E20454550D6
:0E1B1100524F4D20626C6F636B206E756D62DB
:0E1B1F0065722066726F6D20302D373A2000FF
:0E1B2D000D0A494E56414C49443A20456E740B
:0E1B3B00657220616E20454550524F4D20626C
:0E1B49006C6F636B206E756D62657220667244
:091B57006F6D20302D373A20009B
:0E1B60000D0A456E74657220616E2045455079
:0E1B6E00524F4D20576F72642061646472659F
:0B1B7C00737320696E206865783A00E2
:0E1B87000D0A57726974696E6720746F2045ED
:091B95004550524F4D2E2E2E003A
:0E1B9E000D0A456E74657220612062797465CF
:0E1BAC00206F66206461746120746F20777270
:0E1BBA0069746520746F20454550524F4D3AB6
:011BC800001C
:0E1BC9000D0A57726F746520255820746F2026
:0E1BD700626C6F636B2025642061646472652C
:0E1BE5007373203078255820696E20454550D6
:071BF300524F4D210D0A00C5
:0E1BFA000D0A52656164696E672066726F6D38
:0B1C080020454550524F4D2E2E2E005F
:0E1C13000D0A526561642025582066726F6DBF
:0E1C210020626C6F636B202564206164647226
:0B1C2F0065737320307825580D0A0003
:0E1C3A000D0A456E746572204C434420726F93
:0C1C4800772066726F6D20302D333A005B
:031C54003A200033
:0E1C57000D0A57726F746520746F204C434461
:041C6500210D0A0043
:0E1C69000D0A4C434420446973706C6179206D
:0B1C7700436C6561726564210D0A007A
:0E1C82000D0A506572666F726D696E672061A3
:0E1C90006E20454550524F4D20646174612016
:071C9E0064756D700D0A0072
:0E1CA5000D0A456E74657220746865207374B4
:0E1CB300617274696E6720626C6F636B2061F2
:0B1CC1006E6420616464726573730040
:0E1CCC000D0A456E7465722074686520656EA1
:0E1CDA0064696E6720626C6F636B20616E64DC
:091CE800206164647265737300ED
:0E1CF1000D0A496E76616C696420616464724C
:0E1CFF0065737365732E20456E642061646406
:0E1D0D0072657373206D7573742062652061BA
:0E1D1B00667465722073746172742061646472
:051D29007265737300F8
:031D2E000D0A009B
:051D310025783A2000B6
:041D360025782000EC
:0609F100E582900023F0F6
:0C09F7003099FD900023E0F599C2992290
:050A030010980280FBC9
:050A0800AA998A822278
:0E0A0D00AA83E582900024F0A3EAF090003165
:0E0A1B00E4F0A3F0900024E0FAA3E0FBC37423
:0E0A29000A9A74808BF063F08095F050197477
:0A0A37003AC0E0741DC0E07480C0F6
:0E0A4100E012102815811581158190FFFF220B
:0E0A4F00900031E0FCA3E0FDC3EC9AED648062
:0C0A5D008BF063F08095F04003020B1555
:0E0A6900C002C003C004C005120A03AE82D052
:0E0A770005D004D003D0028E82C002C003C09E
:0E0A850004C005C0061209F1D006D005D00449
:0A0A9300D003D002BE0D03020B15C4
:0E0A9D00BE0812EC24FFFFED34FFF89000318C
:070AAB00EFF0A3E8F0809DCD
:050AB200BE710280038B
:030AB700BE510429
:040ABA0090FFFE2289
:0D0ABE008E82C002C003C004C005C0061235
:0E0ACB000E19E582D006D005D004D003D0026B
:0A0AD900601AEC2426F582ED3400CB
:0E0AE300F583EEF090003174012CF0E43DA399
:040AF100F0020A4FB6
:0A0AF500C002C003746CC0E0741D61
:0E0AFF00C0E07480C0E012102815811581152A
:080B0D0081D003D002020A4F5F
:0C0B1500900031E0FAA3E0FBEA2426F592
:0C0B210082EB3400F583E4F090002675B0
:050B2D00F000020E368D
:0C0B3200900036E4F0A3F0900039E4F0ED
:0E0B3E00900036E0FAA3E0FBC3EA9402EB64F9
:080B4C008094804003020C803C
:0E0B5400C002C003120A03AC82D003D0028C90
:0E0B620082C002C003C0041209F1D004D00307
:0E0B7000D002BC0D2CEA4B700C900034E4F067
:070B7E00900035F0020C802D
:080B8500BA0105BB0002800368
:030B8D00020C80D7
:0A0B9000900034E0FD900035F09075
:070B9A000034E4F0020C80BE
:0E0BA100BC0813EA24FFFDEB34FFFE90003683
:080BAF00EDF0A3EEF0020B3E95
:0E0BB7008C82C002C003C004120E19E582D069
:0C0BC50004D003D002601AEA2434F58248
:0C0BD100EB3400F583ECF090003674016A
:090BDD002AF0E43BA3F0020B3EF8
:0E0BE6008C82C004120FBFE582D004700D8C0B
:0C0BF40082C004120FA2E582D0046068E9
:0E0C0000C3EC648094C1400B74C68CF063F0AA
:050C0E008095F0501379
:0E0C1300C3EC648094E1404D74E68CF063F015
:050C21008095F0404247
:0C0C2600900036E0FAA3E0FBEA2434FA68
:0C0C3200EB3400FB8C82C002C003C00445
:0E0C3E00120FA2E582D004D003D0026006742B
:050C4C00DF5CFD8002E9
:020C51008C0510
:0E0C53008A828B83EDF0900036E02401F0A33E
:070C6100E03400F0020B3E3D
:0A0C68007496C0E0741DC0E07480B3
:0E0C7200C0E0121028158115811581020B3E7D
:090C8000900038E4F07A007B00DA
:0E0C8900C3EA9402EB648094804003020D44A1
:0A0C9700EA2434F582EB3400F58303
:0E0CA100E0FC900033F08C82C002C003C0045F
:0E0CAF00120E19E582D004D003D0026009ECC9
:080CBD0024D0900039F0803AC8
:0E0CC500C3EC648094E1401474E68CF063F09C
:0E0CD3008095F0400990003974A92CF0801E25
:0E0CE100900033E0FCC3648094C1401274C6DE
:0E0CEF008CF063F08095F0400790003974C9D6
:020CFD002CF0D9
:0E0CFF007401C39AFCE49BFDCC25E0CC33CC01
:0E0D0D0025E0CC33FD900039E0FE8CF005F0BF
:060D1B00AC067D0080061D
:060D2100EC2CFCED33FD9B
:0E0D2700D5F0F7900038E0FE7F00EC2EFCEDDA
:0C0D35003FFD900038ECF00ABA00010B02
:030D4100020C8918
:070D4400900038E0F5822267
:0E0D4B00AAF0AB83E58290003CF0A3EBF0A38E
:0E0D5900EAF0120A03AA8290003FEAF08A82B2
:0C0D67001209F190003AE0FAA3E0FB90C2
:080D7300003CE0F508A3E0F5E7
:090D7B0009A3E0F50A7F007800ED
:0A0D840090003FE0F9B90D02805D18
:0E0D8E00C3EF9AE864808BF063F08095F0501C
:0B0D9C004EC002C003EF2508FAE83546
:0A0DA70009FBAC0A8A828B838CF0F2
:0E0DB100E9120F69C003C007C000120A03AAAE
:0E0DBF0082D000D007D00390003FEAF08A8275
:0E0DCD00C002C003C007C0001209F1D000D060
:0A0DDB0007D003D0020FBF0001088B
:060DE500D003D00280994A
:0E0DEB0090003CE0FAA3E0FBA3E0FCEF2AFF3F
:0D0DF900E83BF88C058F8288838DF0E402C2
:020E06000F6972
:0E0E0800759850758920758DFD758BFDD28E05
:030E1600D299224C
:0E1D3A0053657269616C5F676574496E74650C
:0E1D480067657228293A204572726F722E204C
:0E1D56004D61785F4C656E67746820746F6F26
:081D6400206C617267652E001E
:0E1D6C000D0A496E76616C69642063686172CD
:0E1D7A0061637465722E20456E746572206F71
:0E1D88006E6C79206469676974732E0D0A0011
:0E1D96000D0A496E76616C69642063686172A3
:0E1DA40061637465722E20456E746572206F47
:0E1DB2006E6C792068657820636861726163E9
:081DC000746572732E0D0A0018
:06003200E478FFF6D8FDA2
:0E0E1900E582900040F0900040E0FABA300010
:0B0E27004009EA24C640047582012245
:040E320075820022A3
:0E0E3600AAF0AB83E582900041F0A3EBF0A39D
:0E0E4400EAF07A007B00900041E0FCA3E0FDA4
:030E5200A3E0FE1C
:0E0E55008C828D838EF01218C7FF6039C37433
:0E0E6300B98FF063F08095F04007EF64809443
:030E7100B0502658
:0E0E74008C828D838EF01218C7FFBF2D028076
:010E82001758
:050E8300BF2B028012EC
:050E88000CBC00010D8F
:0D0E8D00900041ECF0A3EDF0A3EEF080BB6F
:0E0E9A00900041ECF0A3EDF0A3EEF08C828D01
:0C0EA800838EF01218C7FFE4BF2D010478
:080EB400F888017003BF2B0E4A
:0E0EBC0090004174012CF0E43DA3F0A3EEF091
:0B0ECA00900041E0FCA3E0FDA3E0FE6F
:0E0ED5008C828D838EF01218C7FF6068C3EF09
:0E0EE300648094B0406074B98FF063F0809525
:0E0EF100F04055C001900045740AF0E4A3F0F3
:0E0EFF008A828B83C004C005C006C007C001F4
:080F0D00120F8285820B85831F
:0C0F15000CD001D007D006D005D004EFAE
:0E0F21003395E0F8EF24D0FFE834FFF8EF2519
:0A0F2F000BFAE8350CFB0CBC0001C6
:010F39000DAA
:0E0F3A00900041ECF0A3EDF0A3EEF0D00180AA
:010F48008C1C
:0E0F4900900041ECF0A3EDF0A3EEF0E960099A
:090F5700C3E49AFCE49BFD800454
:040F60008A048B056F
:050F64008C828D832248
:080010007900E94400601B7A4D
:0500180000901DD378EB
:03001D007675A055
:0A00200000E493F2A308B800020503
:08002A00A0D9F4DAF275A0FF81
:0E0F690020F71030F6118883A88220F507F6D5
:050F7700A88375830052
:010F7C002252
:030F7D00F280F708
:020F8000F0225D
:0E0F8200AA83AB828BF0900045E0A4F8A9F0A2
:0E0F90008AF0E0A429F98BF0A3E0A429F583F0
:040F9E008882222201
:080038007800E84400600A7939
:030040000075A0A8
:0600430000E4F309D8FC03
:080049007876E84400600C79B0
:0B00510001900000E4F0A3D8FCD9FAF5
:0E0FA200E582900047F0900047E0FABA610047
:0B0FB0004009EA2485400475820122FC
:040FBB007582002219
:0E0FBF00E582900048F0900048E0FABA410048
:0B0FCD004009EA24A5400475820122BF
:040FD80075820022FC
:080FDC00C012858112AA8212E5
:050FE40009F1D012220A
:0E0FE900AAF0AB83E58290004AF0A3EBF0A3E0
:0E0FF700EAF090004AE0FAA3E0FBA3E0FC90D1
:0E1005000049E0FD90005DE4F0A3F0A3F09040
:0E1013000060EAF0A3EBF0A3ECF0900063EDB8
:07102100F0900FDC02114109
:06102800C012858112E5F3
:0C102E001224FBFA90005DE4F0A3F0A394
:0C103A00F0E51224FBF8900060E6F008DE
:0D104600A3E6F008A3E6F0900063EAF09046
:0A1053000FDC121141AA82AB83D01A
:02105D0012225D
:0C105F00E582900059F0900059E0FA90F2
:0E106B00004FE0C0E0A3E0C0E0A3E0C0E074EE
:081079008DC0E07410C0E0908E
:0C108100004DE0C0E0A3E0C0E08A822245
:0E108D00158115811581900057E0FAA3E0FB54
:0C109B0090005774012AF0E43BA3F022FF
:0E10A700E58290005AF090005AE0FA74302A68
:0C10B500FA24C6500A74072AFA3000031F
:0310C100430220C7
:0510C4008A8202105FAA
:0E10C900E58290005BF090005BE0FAC4540FEB
:0E10D700FBF582C0021210A7D00253020F8A4E
:0410E500820210A7CC
:0E10E900E58290005CF0900052E0FAA3E0FB7C
:0E10F700A3E0FCA3E0FD900056E0FE90005C3C
:04110500E0FF78206F
:0E110900EE2EFEED235401F94206EA2AFAEB1F
:0E11170033FBEC33FCED33FDC3EE9F4007EEDF
:06112500C39FFE4302011E
:0E112B00D8DC900052EAF0A3EBF0A3ECF0A3A6
:08113900EDF0900056EEF022EB
:0E114100AA83E582900064F0A3EAF0900064B7
:0E114F00E0FAA3E0FB90004DEAF0A3EBF09075
:0E115D00005DE0FAA3E0FBA3E0FC90004FEA87
:0E116B00F0A3EBF0A3ECF0900057E4F0A3F03B
:0E117900900060E0FAA3E0FBA3E0FC8A828B0A
:0E118700838CF01218C7FD90006074012AF0EE
:0D119500E43BA3F0A3ECF0ED70030218683A
:0511A200BD25028003E1
:0311A700021860CB
:0511AA00C201C202C2F7
:0411AF0003C204C2B1
:0411B30005C206C2A9
:0411B70007C20890D3
:0911BB000066E4F0900067F0907A
:0E11C400006874FFF0900060E0FAA3E0FBA367
:0211D200E0FC3F
:0E11D4008A828B838CF01218C7FEA3AA82AB0E
:0D11E20083900060EAF0A3EBF0A3ECF09026
:0D11EF00006AEEF0BE25088E8212105F022D
:0211FC00117967
:0511FE008E07BF300068
:0E12030040498E07EF24C64042900068E0FF8D
:0E121100BFFF29C002C003C004900067E0FACE
:0E121F0075F00AA4FAEE24D09000672AF09031
:0D122D000067E0FAD004D003D002709BD21D
:03123A0002809798
:0E123D00EF75F00AA4FFEE24D09000682FF0A9
:03124B000211D4B9
:0E124E0090006AE0FEBE2E08900068E4F002F8
:02125C0011D4AB
:0E125E008E82C002C003C004C006120FA2E5BB
:0C126C008224FF9200D006D004D003D0F2
:0B1278000230000790006A74DF5EF097
:0A12830090006AE0FEBE20028055D4
:05128D00BE2B02804BA6
:05129200BE2D028041A9
:05129700BE4202804B85
:05129C00BE430280507A
:0612A100BE44030214D557
:0612A700BE46030214F72D
:0612AD00BE49030214D546
:0512B300BE4C02803476
:0612B800BE4F030214DF2B
:0612BE00BE5003021437CC
:0512C400BE5302804250
:0612C900BE55030214E70C
:0612CF00BE58030214EFFB
:0312D5000214FB05
:0512D800D2010211D457
:0512DD00D2030211D450
:0512E200D2040211D44A
:0512E700D2060211D443
:0512EC00D2070211D43D
:0E12F100900063E0FA24FEF8900063F086029D
:0C12FF00088603188A8212105F0215078F
:0E130B00900063E0FA24FDF8900063F0860283
:0E1319000886030886041818900052EAF0A314
:0E132700EBF0A3ECF0900052E0FAA3E0FBA381
:0E133500E0FC8A828B838CF0121874AA82ABC3
:0E13430083900068E0FBBBFF05900068EAF0B5
:0C135100200138900067E0FBC3EA9B50CD
:0D135D002E900067EBC39AF0900067E0FB54
:0D136A008B041B900067EBF0BC00028010AC
:0E137700758220C002C00312105FD003D002A6
:0213850080E303
:05138700900067EBF08F
:05138C00900068E0FD87
:0E139100C002900052E0FCA3E0FFA3E0FA8C43
:0E139F00828F838AF01218C7D00260538D042B
:0E13AD001DC374808CF063F08095F05044C036
:0A13BB0002900052E0F50DA3E0F5EA
:0813C5000EA3E0F50F740125F1
:0713CD000DFBE4350EFAAC44
:0C13D4000F900052EBF0A3EAF0A3ECF045
:0713E000850D82850E838557
:0C13E7000FF01218C7FAF582C002C00512
:0B13F30012105FD005D002D0028093E2
:0613FE00200103021507A7
:0D140400900067E0FBC3EA9B400302150760
:0C141100900067EBC39AF0900067E0FACF
:0E141D008A031A900067EAF0BB000302150272
:0C142B00758220C00212105FD00280E623
:0E143700900063E0FB24FDF8900063F0860354
:0E1445000886040886071818900052EBF0A3E2
:0E145300ECF0A3EFF0900054E0FB247F500873
:0814610090006A7443F0802042
:0D146900EB249F500890006A7450F080132F
:0D147600EB24BF500890006A7449F0800616
:0614830090006A7458F0AD
:0E14890090006AE0FBF582C00312105FD003F2
:0E14970075823AC00312105FD003758230C018
:0E14A5000312105FD003758278C00312105F2F
:0714B300D003BB4902800FCA
:0514BA00BB5002800A96
:0A14BF00900053E0FBF5821210C903
:0C14C900900052E0FBF5821210C9803246
:0A14D500D205900066740AF080282A
:0814DF009000667408F0802003
:0814E700900066740AF0801801
:0814EF009000667410F08010FB
:0414F700D208800C8B
:0714FB008E8212105F8005D4
:05150200900067EAF013
:0C15070030086B900063E0FA24FCF890C0
:0E1513000063F0860208860308860408860638
:0E152100181818900052EAF0A3EBF0A3ECF0BB
:0B152F00A3EEF090005274C8F0A3740B
:06153A001DF0A37480F017
:0E154000900052E0FBA3E0FCA3E0FD74012B41
:0E154E00FEE43CFF8D02900052EEF0A3EFF0A1
:0E155C00A3EAF08B828C838DF01218C7FA7010
:04156A0003021179EE
:07156E008A8212105F80CB9E
:0B157500900066E0FABA000302117952
:081580009000717470F0A37477
:0615880000F030064C905B
:0E158E000063E0FA14F8900063F08602EA337E
:0E159C0095E0FBFCFE900052EAF0A3EBF0A3FA
:0B15AA00ECF0A3EEF030050302164F3A
:0E15B500900052E0FAA3E0FBA3E0FCA3E0FEEE
:0E15C3007B007C007E00900052EAF0A3EBF06B
:0815D100A3ECF0A3EEF080761C
:0C15D90030072A900063E0FA24FCF89030
:0E15E5000063F0860208860308860408860666
:0E15F300181818900052EAF0A3EBF0A3ECF0E9
:05160100A3EEF080499A
:0E160600900063E0FA24FEF8900063F0860284
:0E16140008860318EB3395E0FCFE900052EAC6
:0C162200F0A3EBF0A3ECF0A3EEF0200529
:0E162E0020900052E0FAA3E0FBA3E0FCA3E052
:0E163C00FE7C007E00900052EAF0A3EBF0A3CB
:05164A00ECF0A3EEF03E
:0C164F0030053E900052E0FAA3E0FBA33F
:0E165B00E0FCA3E0FE30E72B900052E0FAA383
:0E166900E0FBA3E0FCA3E0FEC3E49AFAE49BDE
:0E167700FBE49CFCE49EFE900052EAF0A3EB24
:09168500F0A3ECF0A3EEF08002EA
:02168E00C20593
:08169000D209900066E0FC7530
:031698001070755A
:04169B0011007D00BD
:0E169F00900056E4F08C82C004C0051210E9E1
:0C16AD00D005D004200932C00490005683
:0A16B900E0FFC4FF85108285118355
:0A16C300E0FA4207851082851183CA
:0A16CD00EFF0151074FFB5100215C0
:0116D7001101
:0816D800900071E510F0A3E59C
:0616E00011F0D004800CA3
:0916E600900056E0FF851082859A
:0316EF001183F074
:0916F2000D900069EDF0B20990C1
:0E16FB000052E0FFA3E0FAA3E0FEA3E0FBEF45
:0C1709004A4E4B7091900071E510F0A367
:09171500E511F0900069EDF0907F
:0C171E000067E0FA70069000677401F0AC
:0A172A0020022720012474012DFA8B
:05173400900067E0FBDE
:0D173900C3EA9B5011758220C002C003124C
:09174600105FD003D0021B80EA01
:05174F00900067EBF0C3
:0A17540030051275822D12105F900F
:0B175E000067E0FA14900067F0802F95
:0C176900900069E0FA60283003127582DD
:0B1775002B12105F900067E0FA149048
:051780000067F080137A
:0A17850030041075822012105F90EE
:09178F000067E0FA14900067F015
:0917980020012F900069E0FA9095
:0417A1000067E0FB02
:0E17A5008B041B900067EBF0C3EA9C503630BB
:0617B30002047C308002FC
:0217B9007C2092
:0E17BB008C82C002C00312105FD003D00280E7
:0117C900DB44
:0E17CA00900067E0FA900069E0FCC39A5009B5
:0917D800900067EAC39CF0800C4C
:0717E100900067E4F08005B1
:0517E800900067EBF02A
:0D17ED00900071E0FAA3E0FB900069E0FCC1
:0A17FA008C061CEE6040B2092009C5
:06180400150ABA00010BF9
:0E180A008A828B83E0FEC4540FFE900056F0DD
:02181800800E40
:0E181A008A828B83E0FE53060F900056EEF09C
:0E182800900056E0FEF582C002C003C004121C
:0A18360010A7D004D003D00280BA3E
:06184000200103021179F2
:05184600900067E0FACC
:09184B008A031AEB700302117903
:0C185400758220C00212105FD00280EBF1
:081860008D8212105F02117964
:0C186800900057E0FAA3E08A82F583228A
:0B1DC8003C4E4F20464C4F41543E0063
:0E187400AAF0AB83E582900073F0A3EBF0A323
:0E188200EAF07A007B00900073E0FCA3E0FD2A
:03189000A3E0FED4
:0E1893008C828D838EF01218C7FFA3AC82AD3D
:0E18A10083900073ECF0A3EDF0A3EEF0EF6087
:0818AF00070ABA00DF0B80DC20
:0E18B700900073ECF0A3EDF0A3EEF08A828BAC
:0218C50083227C
:03000300758121E3
:0A000600120410E582600302040BEF
:0E18C70020F71430F6148883A88220F507E677
:0618D500A88375830022C8
:0318DB00E280F7B1
:0318DE00E493226E
:0218E100E02203
:00000001FF
