:07006E00900000E4F07A00AD
:03007500BA0800C6
:0A0078005023EA2400FBE43400FCEE
:0E0082008B828C83E0FD4305108B828C83ED16
:0D009000F04305018B828C83EDF00A80D8CF
:08009D009000137400F0A3743D
:0C00A50000F0A37400F07582000202520B
:0E00B100E582900008F0900008E0FAF5820267
:0200BF00094BEB
:0A00C100900009E4F090000AF090AE
:0800CB00000BF090000CF09016
:0900D300000DE4F090000EF09025
:0800DC00000FF0900010F07419
:0A00E40063C0E07431C0E07480C016
:0C00EE00E01228A815811581158174808E
:0B00FA00C0E07431C0E07480C0E01270
:0E01050028A8158115811581900001121DE5B5
:09011300AA82AB83900011EAF00E
:0C011C00900011E0FA24F850267480C016
:0C012800E07431C0E07480C0E01228A830
:0E013400158115811581900001121DE5AA822A
:09014200AB83900011EAF080D1BA
:0A014B00749DC0E07431C0E07480C0
:0D015500C0E01228A81581158115817A00DF
:03016200BA0800D8
:05016500400302022529
:04016A008A037C0088
:03016E00BC0500CD
:0501710040030202083A
:0E017600C002C003C004121DDBE582D004D01D
:0701840003D002900012F00D
:0A018B00900012E0FDBD3002801C60
:05019500BD31028017DE
:0E019A00C002C003C004121DDBE582D004D0F9
:0901A80003D002900012F080DA8D
:0E01B100900012E0FDF582C002C003C004C041
:0E01BF0005121DC9D005D004D003D002BD31F9
:0A01CD0036EB2409FDE43400FE8D3A
:0E01D700828E83E0FF8C0079007404C398F8D8
:0D01E500E499F988F005F0780179008006B2
:0601F200E828F8E933F9EA
:0C01F800D5F0F7E842078D828E83EFF00F
:040204000C02016E79
:0A020800C00274CDC0E07431C0E004
:0E0212007480C0E01228A8158115811581D0D6
:05022000020A02016268
:0A02250074D0C0E07431C0E07480B2
:0E022F00C0E01228A8158115811581900011DC
:0A023D00E0FA9000137409F0A374B6
:0B02470000F0A37400F08A8202025253
:0E025200E582900016F0900016E0FAC4035406
:0E026000F8FA900016F0C2AF1208BFE58290C7
:08026E0000D5F0D201D2AF125D
:0A0276000A3C900016E0FAF582122F
:0E028000081C900013E0FAA3E0FBA3E0FC7D55
:01028E00006F
:03028F00BD0800A7
:0E029200502AED2AFEE43BFF8C008E828F8303
:0E02A00088F0123147FEF582C002C003C00490
:0E02AE00C00512094BD005D004D003D0020DBC
:0202BC0080D1EF
:0B02BE009000D5E0FAF58212083A1219
:0902C9000A33C2AFC201D2AF2218
:0A02D200900017E4F0900018F0907F
:0802DC000019F090001AF090E7
:0902E400001BE4F090001CF090F6
:0802ED00001DF090001EF0124C
:0602F50008DC1225EF9069
:0C02FB000017741FF09000187410F090B1
:0C03070000197410F090001A7410F090AF
:0C031300001B7410F090001C7410F0909F
:0C031F00001D741FF090001E7410F09080
:07032B0000137417F0A37426
:0C03320000F0A37400F07582001202526B
:0E033E00900031740AF0758200120914758265
:0B034C000012094B900017741FF09086
:0C03570000187404F09000197404F09079
:0C036300001A7404F090001B7404F09069
:0C036F00001C7404F090001D7418F09045
:08037B00001EE4F09000137471
:0A03830017F0A37400F0A37400F05B
:0E038D00758201120252900031740BF07582DD
:0B039B000012091475820112094B903A
:0C03A6000017741FF09000187408F0900D
:0C03B20000197408F090001A7408F09014
:0C03BE00001B7408F090001C7408F09004
:0B03CA00001D7407F090001EE4F0908E
:0703D50000137417F0A3747C
:0C03DC0000F0A37400F0758202120252BF
:0E03E800900031740CF07582001209147582B9
:0B03F6000212094B900017741FF090DA
:0C04010000187401F09000197401F090D4
:0C040D00001A7401F090001B7401F090C4
:0C041900001C7401F090001D741FF09096
:09042500001E7401F09000137434
:0A042E0017F0A37400F0A37400F0AF
:0E043800758203120252900031740DF075822D
:0B0446000012091475820312094B908C
:0C04510000177410F09000187410F09068
:0C045D000019741FF090001A7410F09049
:0C046900001B7410F090001C7410F09048
:0C047500001D7410F090001E741FF09029
:0704810000137417F0A374CF
:0C04880000F0A37400F075820412025210
:0E049400900031740AF075820112091475820D
:0A04A2000412094B900017E4F090DB
:0A04AC000018F09000197418F09089
:0C04B600001A7404F090001B7404F09015
:0C04C200001C7404F090001D7404F09005
:0904CE00001E741FF0900013746D
:0A04D70017F0A37400F0A37400F006
:0E04E100758205120252900031740BF0758284
:0B04EF000112091475820512094B90E0
:0904FA000017E4F0900018F090E6
:0C05030000197407F090001A7408F090C2
:0C050F00001B7408F090001C7408F090B1
:0C051B00001D7408F090001E741FF0908A
:0705270000137417F0A37428
:0C052E0000F0A37400F075820612025267
:0E053A00900031740CF0758201120914758264
:0B0548000612094B9000177401F090A0
:0C05530000187401F0900019741FF09063
:0C055F00001A7401F090001B7401F09071
:0C056B00001C7401F090001D7401F09061
:09057700001E741FF090001374C3
:0A05800017F0A37400F0A37400F05C
:0E058A00758207120252900031740DF07582D6
:0A0598000112091475820702094BD5
:0E3163000D0A496E70757420612063757374D7
:0E3171006F6D206368617261637465720D0A90
:01317F00004F
:0E3180000D0A456E74657220616E20616464F4
:0E318E00726573732066726F6D20302D373AB4
:01319C000032
:0E319D000D0A456E7465722074686520746FAB
:0E31AB007020726F77202835206269747329B6
:0E31B900207573696E6720317320616E64208B
:0631C70030733A0D0A000E
:0331CD000D0A00E8
:0E31D0000D0A446F6E6520656E746572696E3F
:0931DE006720636F64650D0A00AF
:0D05A200E582900020F09001147403F090A9
:0405AF000020E0FA4E
:0E05B300900114E0FB601890001FE0FB601147
:0E05C1008A82C002120754E582D00290001F09
:0305CF00F080E1D8
:0C05D20090001FE0FA601774E7C0E074AE
:0C05DE0031C0E07480C0E01228A8158134
:0405EA0015811581E1
:0205EE0080FE8D
:0105F00022E8
:0D05F100E582900022F090002374A0F090AD
:0C05FE000021E0FA600690002374A1F0D8
:0E060A00900022E0FA24F8501E8A037C00C003
:0A06180003C004742DC0E07432C06A
:0E062200E07480C0E01228A8E58124FBF58179
:0106300022A7
:0E063100EA2AFA900023E0FB4AF01207249018
:0E063F000023E0FAF582C002120754AB82D00D
:0B064D000290001FEBF08A820205A261
:0C065800E582900026F0900025E0FA906A
:0A0664000021E4F08A821205F190F3
:0E066E000024E0FAF582C002120754AB82D0DD
:0C067C000290001FEBF08A821205A29091
:0E0688000026E0FAF582C002120754AB82D0C1
:0C0696000290001FEBF08A821205A20205
:0206A20007331C
:0C06A400E582900028F0900027E0FA901A
:0E06B0000021E4F08A82C0021205F1D002900F
:0E06BE000028E0FBF582C002C003120754AC16
:0E06CC0082D003D00290001FECF08B82C0029F
:0D06DA001205A2D002C002120729D0029022
:0B06E70000217401F08A821205F1125C
:0E06F200079FAA82C002120749D002C002125E
:070700000733D0028A8222B8
:0307070002071FC7
:0E31E7000D0A41636B206661696C65642033DC
:0E31F5002074696D65732E2053797374656DB7
:0E32030020726573657420726571756972655D
:0E321100642E20456E746572696E6720696ECA
:0E321F0066696E697465206C6F6F700D0A0031
:0E322D000D0A496E76616C696420626C6F63F5
:0C323B006B206E756D62657220256400CA
:013D6700005B
:02070A007A6F04
:06070C00EA60031A80FA06
:0107120022C4
:0607130012070AD2912238
:0607190012070AC2912242
:05071F00D29002071357
:05072400C2900207195C
:0A072900D290120713C290020719C4
:0B073300120719C290120713D2902287
:0B073E00C290120713120719D290227C
:0B074900D290120713120719D2902261
:08075400E582900029F07A0013
:03075C00BA0800D8
:0E075F00502A900029E0FB20E704C29080029F
:02076D00D29028
:0E076F00C002120713D002C002120719D002F6
:0E077D00900029E025E0FB900029F00A80D1D1
:0D078B00D290120713E4A29033FAC00212BC
:070798000719D0028A82223A
:07079F0090002AE4F07A004B
:0307A600BA08008E
:0D07A900502CC002120713D00230900890AF
:0707B600002AE0FB4401F002
:0307BD00BA070078
:0D07C000500B90002AE025E0FB90002AF08D
:0A07CD00C002120719D0020A80CF03
:0707D70090002AE0F58222E8
:0E07DE00E58290002BF0C294C295903247E461
:0E07EC0093FA740193FB90002BE0FC8A828B41
:0307FA0083F02267
:0E07FD00E58290002CF0C294D295903247E431
:0E080B0093FA740193FB90002CE0FC8A828B20
:0308190083F02247
:0A081C00E58290002DF01208A7906D
:0E082600002DE0FA543FF090002DE0FA43025E
:06083400408A820207DE8B
:0A083A00E58290002EF01208A7904E
:0E084400002EE0FA4480F090002EE0FAF582DB
:030852000207DEBC
:0E0855001208A7D294D295903247E493FA7419
:0B0863000193FB8A828B83E0F5822268
:0E086E00E58290002FF090002FE0FA74F05A0F
:0E087C00FBC4540F25E0FB90328993CBA3936D
:0E088A00FC8B82C00212094BD00253020FEA0F
:0D0898002AFA90328993CAA393FB8A820248
:0208A500094BFD
:0408A700D294C29590
:0E08AB00903247E493FA740193FB8A828B83A8
:0608B900E0FA20E7ED2249
:0E08BF001208A7D294C295903247E493FA74BF
:0E08CD000193FB8A828B83E0FA53027F8A82BA
:0108DB0022FA
:0908DC001208A77582010207DE73
:0E08E500E582900030F0900030E0FA247F5061
:0208F3000122E0
:0E08F500C0021208A7D002C294C295903247EA
:0E090300E493FB740193FC4302808B828C838F
:03091100EAF022E7
:0A091400E582900032F01208A7906F
:0E091E000032E0FA24FC4009900031E0FB2496
:03092C00F0500187
:01092F0022A5
:0A093000EAC454F02449FAE434321A
:0E093A00FCEB2AF582E43CF583E493FAF582A7
:030948000208E5BD
:0A094B00E582900033F01208A79037
:090955000033E0FAF5820207FD0F
:0E095E00AAF0AB83E582900034F0A3EBF0A387
:0D096C00EAF0900034E0FAA3E0FBA3E0FC09
:0D0979008A828B838CF0123147FD700122C1
:0E0986008D82C002C003C00412094BD004D001
:0809940003D0020ABA00010BB6
:0E099C00900034EAF0A3EBF0A3ECF0C002C030
:0E09AA0003C0041208A7D004D003D002D294D8
:0E09B800C295903247E493FD740193FE8D8248
:0C09C6008E83E0FD53057FBD1002800F02
:0509D200BD2402803489
:0509D700BD5002801A72
:0509DC00BD649A803F9C
:0E09E100758240C002C003C0041208E5D004B5
:0709EF00D003D002020979D8
:0E09F600758210C002C003C0041208E5D004D0
:070A0400D003D002020979C2
:0E0A0B00758250C002C003C0041208E5D0047A
:070A1900D003D002020979AD
:010A200022B3
:0A0A21001208A77582381207DE12D2
:080A2B0008A775820F0207DE27
:090A33001208A775820F0207DE0C
:090A3C001208A77582080207DE0A
:0A0A45001208A77582011207DE12E5
:0B0A4F0008A7900031E4F0758200124F
:090A5A0009149032A975F0800224
:020A6300095E2A
:0232470000E0A5
:0E324900000102030405060708090A0B0C0D1C
:0E3257000E0F404142434445464748494A4B0A
:0E3265004C4D4E4F1011121314151617181958
:0E3273001A1B1C1D1E1F505152535455565706
:0832810058595A5B5C5D5E5F69
:0E3289003000310032003300340035003600D2
:0E329700370038003900410042004300440077
:0432A500450046009A
:0E32A9006162636465666768696A6B6C6E6F6C
:0E32B700707172737475767778797A3132336C
:0E32C500343536373839616263646566676890
:0E32D300696A6B6C6D6E6F70717273747576D4
:0E32E1007778797A31323334353637383938E8
:0832EF0037363534333231006B
:0400000002000E32BA
:03000B0002227B53
:02006700C200D5
:03006B00020A6521
:050A6500121BFD80FEE4
:070A6A00438E0C90000022F6
:0E0A7100AAF0AB83E58290003AF0A3EBF0A36D
:0A0A7F00EAF074F7C0E07432C0E042
:0E0A89007480C0E01228A81581158115819097
:0E0A97000037E0FAA3E0FBA3E0FC900001C0F2
:0E0AA50002C003C004121DE5AD82AE83D00472
:0E0AB300D003D0028A828B838CF0ED1227E9EB
:0E0AC1008A828B838CF0123147FD24F850435B
:0B0ACF00C002C003C0047421C0E0742A
:0C0ADA0033C0E07480C0E01228A8158131
:0E0AE60015811581D004D003D002900001C00C
:0E0AF40002C003C004121DE5AD82AE83D00423
:0E0B0200D003D0028A828B838CF0ED1227E99B
:020B100080AFB4
:0A0B12007454C0E07433C0E0748036
:0E0B1C00C0E01228A815811581158190003ABD
:0E0B2A00E0FAA3E0FBA3E0FCC002C003C0049D
:0E0B3800121F10AD82D004D003D0028A828B2F
:070B4600838CF0ED0227E9AA
:0A0B4D00747BC0E07433C0E07480D4
:0C0B5700C0E01228A815811581158174DA
:0A0B630096C0E07433C0E07480C057
:0C0B6D00E01228A815811581158174ABD9
:0B0B7900C0E07433C0E07480C0E012E4
:0C0B840028A815811581158174CEC0E0F1
:0C0B90007433C0E07480C0E01228A81587
:0A0B9C00811581158174F1C0E07429
:0C0BA60033C0E07480C0E01228A8158164
:0A0BB200158115817419C0E0743438
:0E0BBC00C0E07480C0E01228A81581158115D4
:0A0BCA0081743BC0E07434C0E07495
:0D0BD40080C0E01228A8158115811581222E
:0E0BE100E58290003DF090003DE0FABA460338
:030BEF00020C9461
:060BF200BA4803020C9F4B
:050BF800BA4E02802648
:050BFD00BA5302802440
:050C0200BA5402800756
:060C0700BA7203020C9713
:010C0D0022C4
:0D0C0E0012006E9000317403F07582001228
:080C1B00091475820002094B67
:030C23000200C10B
:0A0C26007460C0E07434C0E0748014
:0E0C3000C0E01228A8158115811581900002E0
:0C0C3E00121DE5AA82AB8390003EEAF094
:0C0C4A0090003EE0FA24F850267460C0D0
:0C0C5600E07434C0E07480C0E01228A8F4
:0E0C6200158115811581900002121DE5AB82EF
:090C7000AC8390003EEBF080D152
:0A0C79008A821200B1747DC0E0749D
:0C0C830034C0E07480C0E01228A8158185
:050C8F00158115812212
:030C94000202D287
:080C9700900115E4F0021AB00F
:030C9F00020B4DF8
:0A0CA200749FC0E07434C0E0748059
:0C0CAC00C0E01228A81581158115817484
:0A0CB80096C0E07433C0E07480C001
:0C0CC200E01228A815811581158174AD81
:0B0CCE00C0E07434C0E07480C0E0128D
:0C0CD90028A815811581158174DBC0E08E
:0C0CE5007434C0E07480C0E01228A81530
:0A0CF100811581158174F9C0E074CB
:0C0CFB0034C0E07480C0E01228A815810D
:0A0D0700158115817414C0E07435E5
:0E0D1100C0E07480C0E01228A815811581157D
:0A0D1F0081742FC0E07435C0E07449
:0D0D290080C0E01228A81581158115817485
:0A0D36004AC0E07435C0E07480C0CC
:0C0D4000E01228A8158115811581746F40
:0B0D4C00C0E07435C0E07480C0E0120D
:0C0D570028A81581158115817499C0E051
:0C0D63007435C0E07480C0E01228A815B0
:0A0D6F008115811581743BC0E0740A
:0C0D790034C0E07480C0E01228A815818E
:050D850015811581221B
:0E0D8A00E58290003FF090003FE0FABA43038C
:030D9800020FC087
:060D9B00BA470302122119
:060DA100BA480302131220
:050DA700BA490280239F
:060DAC00BA5903020FE733
:060DB200BA6303020F18F2
:050DB800BA6702802A69
:060DBD00BA720302130AE2
:060DC300BA7303020F46A3
:050DC900BA780280363B
:010DCE002202
:0A0DCF0074C3C0E07435C0E0748006
:0E0DD900C0E01228A8158115811581020A219B
:0A0DE70074D8C0E07435C0E07480D9
:0E0DF100C0E01228A8158115811581121F106F
:050DFF00AA820208E5D4
:0A0E040074F9C0E07435C0E074809A
:0E0E0E00C0E01228A8158115811581900003FF
:0E0E1C00121DE5E5828583F0900040F0A3E50D
:020E2A00F0F0E6
:0E0E2C00900040E0FAA3E0FBC374039A7480C8
:0C0E3A008BF063F08095F0502A74F9C032
:0C0E4600E07435C0E07480C0E01228A801
:0E0E5200158115811581900003121DE5E582C2
:0D0E60008583F0900040F0A3E5F0F080BF26
:0A0E6D007411C0E07436C0E0748018
:0E0E7700C0E01228A815811581158190000396
:0E0E8500121DE5E5828583F0900042F0A3E5A2
:020E9300F0F07D
:0E0E9500900042E0FAA3E0FBC3740F9A748051
:0C0EA3008BF063F08095F0502A7411C0B1
:0C0EAF00E07436C0E07480C0E01228A897
:0E0EBB00158115811581900003121DE5E58259
:0D0EC9008583F0900042F0A3E5F0F080BFBB
:0E0ED600900040E0FCA3E0FD8C06900031EAA5
:0E0EE400F08E82C002C003C004C005120914C3
:0E0EF200D005D004D003D002C002C003C0045B
:0A0F0000C005742AC0E07436C0E09A
:0E0F0A007480C0E01228A8E58124F9F5812248
:0A0F18007453C0E07436C0E074802A
:0E0F2200C0E01228A8158115811581121DDB73
:0D0F3000AA8212094B1208BFAA82C0021249
:090F3D0025EFD0028A820208E5CA
:0A0F46007483C0E07436C0E07480CC
:0D0F5000C0E01228A81581158115817A00D6
:030F5D00BA640073
:0A0F60005044EA2444FBE43400FC92
:0E0F6A00C002C003C004121DDBAD82D004D053
:0E0F780003D0028B828C83EDF08D82C002C00C
:0E0F860003C004121DC9D004D003D0028B8218
:0E0F94008C83E0FDBD0D088B828C83E4F08021
:010FA200034B
:030FA3000A80B70A
:0A0FA60090004475F00012095E127D
:0E0FB00008BFAA82C0021225EFD0028A820278
:020FBE0008E544
:070FC0001208DC1225EF907E
:0B0FC7000031E4F07582001209147480
:0A0FD20095C0E07436C0E07480C0E2
:0B0FDC00E01228A81581158115812264
:0A0FE70074AEC0E07436C0E0748000
:0E0FF100C0E01228A81581158115817480C0FA
:0A0FFF00E0E4C0E074B1C0E0743615
:0E100900C0E07480C0E01228A8E58124FBF549
:07101700817A807B007C1050
:0E101E008A058D82C002C003C00412083AD0B9
:0E102C0004D003D002C002C003C00412085555
:0E103A00AD82D004D003D0027E00C002C003FD
:0B104800C004C005C00674B6C0E07410
:0C10530036C0E07480C0E01228A8E581DF
:0E105F0024FBF581D004D003D0020ABA0001B0
:01106D000B77
:0A106E00DCAE74AEC0E07436C0E0E2
:0E1078007480C0E01228A815811581158174BE
:0B108600C0C0E0E4C0E074B1C0E07442
:0C10910036C0E07480C0E01228A8E581A1
:0A109D0024FBF5817AC07B007C1073
:0E10A7008A058D82C002C003C00412083AD030
:0E10B50004D003D002C002C003C004120855CC
:0E10C300AD82D004D003D0027E00C002C00374
:0B10D100C004C005C00674B6C0E07487
:0C10DC0036C0E07480C0E01228A8E58156
:0E10E80024FBF581D004D003D0020ABA000127
:0110F6000BEE
:0A10F700DCAE74AEC0E07436C0E059
:0E1101007480C0E01228A81581158115817434
:0B110F0090C0E0E4C0E074B1C0E074E8
:0C111A0036C0E07480C0E01228A8E58117
:0A11260024FBF5817A907B007C1019
:0E1130008A058D82C002C003C00412083AD0A6
:0E113E0004D003D002C002C003C00412085542
:0E114C00AD82D004D003D0027E00C002C003EA
:0B115A00C004C005C00674B6C0E074FD
:0C11650036C0E07480C0E01228A8E581CC
:0E11710024FBF581D004D003D0020ABA00019D
:01117F000B64
:0A118000DCAE74AEC0E07436C0E0CF
:0E118A007480C0E01228A815811581158174AB
:0B119800D0C0E0E4C0E074B1C0E0741F
:0C11A30036C0E07480C0E01228A8E5818E
:0A11AF0024FBF5817AD07B007C1050
:0E11B9008A058D82C002C003C00412083AD01D
:0E11C70004D003D002C002C003C004120855B9
:0E11D500AD82D004D003D0027E00C002C00361
:0B11E300C004C005C00674B6C0E07474
:0C11EE0036C0E07480C0E01228A8E58143
:0E11FA0024FBF581D004D003D0020ABA000114
:011208000BDA
:0A120900DCAE74AEC0E07436C0E045
:0E1213007480C0E01228A81581158115812273
:0A12210074AEC0E07436C0E07480C3
:0E122B00C0E01228A8158115811581C2AF12EE
:0912390008BFE5829000D5F0D257
:0C12420001D2AF9000A87440F0E4A3F0CB
:0E124E009000A8E0FAA3E0FBC3EA9480EB94C2
:06125C000040030212F73E
:0C126200C002C003C002C00374B1C0E0B1
:0C126E007436C0E07480C0E01228A8E5CF
:0B127A008124FBF581D003D0027C1022
:0E1285008A058D82C002C003C00412081CD06E
:0E12930004D003D002C002C003C004120855EC
:0E12A100AD82D004D003D0027E00C002C00394
:0B12AF00C004C005C00674B6C0E074A7
:0C12BA0036C0E07480C0E01228A8E58176
:0E12C60024FBF581D004D003D0020ABA000147
:0112D4000B0E
:0C12D500DCAE9000A8EAF0A3EBF074AED1
:0B12E100C0E07436C0E07480C0E01272
:0B12EC0028A815811581158102124E03
:0D12F7009000D5E0FAF58212083AC2AFC2AD
:0613040001D2AF0225EF4B
:08130A00900115E4F0021AB095
:03131200020CA228
:0A13150074BAC0E07436C0E07480C2
:0C131F00C0E01228A8158115811581740A
:0A132B0096C0E07433C0E07480C087
:0C133500E01228A815811581158174CBE9
:0B134100C0E07436C0E07480C0E01211
:0C134C0028A815811581158174F1C0E0FE
:0C1358007436C0E07480C0E01228A815B4
:0A13640081158115817418C0E07432
:0C136E0037C0E07480C0E01228A8158190
:0A137A00158115817442C0E074373C
:0E138400C0E07480C0E01228A8158115811504
:0A13920081743BC0E07434C0E074C5
:0D139C0080C0E01228A8158115811581225E
:0E13A900E5829000AAF09000AAE0FABA440390
:0313B70002158795
:0613BA00BA4803021762AD
:0613C000BA4C030214E028
:0613C600BA520302146D8F
:0513CC00BA5702800782
:0613D100BA720302175A74
:0113D70022F3
:0A13D8007469C0E07437C0E074804F
:0E13E200C0E01228A8158115811581900037F2
:0A13F00074ABF0A37400F0A37400C6
:0B13FA00F09000AD75F000120A717455
:0A14050080C0E07437C0E07480C0BE
:0E140F00E01228A8158115811581121F10AA60
:0C141D00829000ADE0FB9000ABE0FC9082
:0E1429000024EBF0900025ECF08A82C0021245
:0C1437000658D0029000ADE0FB7C009055
:0E14430000ABE0FD7E007F00C003C004C005CA
:0B145100C006C002C00774ABC0E0740E
:0C145C0037C0E07480C0E01228A8E581D1
:0514680024F7F58122CC
:0A146D0074DCC0E07437C0E0748046
:0E147700C0E01228A81581158115819000375C
:0A14850074ABF0A37400F0A3740030
:0B148F00F09000AD75F000120A7190A3
:0A149A0000ADE0FA9000ABE0FB901B
:0B14A4000027F08A821206A4AA8290A2
:0E14AF0000ADE0FB7C009000ABE0FD7E007F16
:0E14BD0000C003C004C005C006C002C0077412
:0A14CB00F5C0E07437C0E07480C083
:0B14D500E01228A8E58124F7F5812231
:0814E00090003774ABF0A37417
:0C14E80000F0A37400F09000AD75F0005F
:0914F400120A719000ADE0FA90BB
:0B14FD0000ABE0FB900027F08A821299
:0B15080006A4AA82C002741CC0E0749C
:0C15130038C0E07480C0E01228A81581E8
:0E151F0015811581D002900001C002121DE559
:0E152D00AB82AC83D002900031E4F08B82C020
:0E153B0002120914D0029000ABE02430FBF540
:0E15490082C00212094BD0029000ADE0FBF50B
:0E15570082C00212086ED00290383675F08005
:0D156500C00212095ED0028A8212086E7464
:0A15720039C0E07438C0E07480C096
:0B157C00E01228A815811581158122BE
:0A158700744BC0E07438C0E07480BB
:0C159100C0E01228A81581158115817496
:0A159D006EC0E07438C0E07480C036
:0E15A700E01228A81581158115819000377477
:0A15B500ABF0A37400F0A37400F083
:0A15BF009000AD75F000120A71747F
:0A15C90095C0E07438C0E07480C0E3
:0E15D300E01228A8158115811581900037744B
:0A15E100ACF0A37400F0A37400F056
:0A15EB009000AE75F000120A719036
:0E15F50000ABE0FA8A037A009000ADE0FC7DC6
:0E160300004202ED42039000AFEAF0A3EBF0CC
:0E1611009000ACE0FC8C057C009000AEE0FE8A
:0E161F007F004204EF42059000B1ECF0A3ED15
:0C162D00F0C3EC9AED9B501674BAC0E0BC
:0C1639007438C0E07480C0E01228A815CE
:06164500811581158122D0
:0A164B0074AEC0E07436C0E0748095
:0E165500C0E01228A81581158115819000B102
:09166300E0FAA3E0FB8A048B0508
:0E166C009000AFE0FEA3E0FFC3EC9EED9F50A8
:02167A0001224B
:0E167C00C002C003C004C005C006C007C006FF
:0A168A00C00774B1C0E07436C0E080
:0E1694007480C0E01228A8E58124FBF581D007
:0D16A20007D006D005D004D003D002780098
:0316AF00B8100070
:0E16B2005076C004C0058E017C00900027EF2A
:0E16C000F08982C002C003C005C006C007C08A
:0E16CE00001206A4AC82D000D007D006D005D2
:0E16DC00D003D0027D00C002C003C004C005D0
:0C16EA00C006C007C000C004C00574B6F4
:0B16F600C0E07436C0E07480C0E01259
:0E17010028A8E58124FBF581D000D007D00692
:0D170F00D005D004D003D0020EBE00010FA3
:0E171C00C3EA9EEB9FD005D0044003088085F1
:0E172A009000AFEEF0A3EFF0C002C003C004C9
:0A173800C00574AEC0E07436C0E0D6
:0E1742007480C0E01228A8158115811581D091
:0A17500005D004D003D00202166C8D
:08175A00900115E4F0021AB041
:031762000213155A
:0A17650074F7C0E07438C0E074802F
:0C176F00C0E01228A815811581158174B6
:0A177B0096C0E07433C0E07480C033
:0C178500E01228A8158115811581740759
:0B179100C0E07439C0E07480C0E012BA
:0C179C0028A81581158115817425C0E076
:0C17A8007439C0E07480C0E01228A8155D
:0A17B4008115811581744AC0E074AC
:0C17BE0039C0E07480C0E01228A815813A
:0A17CA0015811581746EC0E07439BA
:0E17D400C0E07480C0E01228A81581158115B0
:0A17E200817490C0E07439C0E07417
:0D17EC0080C0E01228A815811581158174B8
:0A17F900B9C0E07439C0E07480C08C
:0C180300E01228A815811581158174D908
:0B180F00C0E07439C0E07480C0E0123B
:0C181A0028A8158115811581743BC0E0E1
:0C1826007434C0E07480C0E01228A815E3
:06183200811581158122E1
:0E183800E5829000B3F09000B3E0FABA4303EB
:031846000218E0A5
:06184900BA4403021987F6
:06184F00BA4503021A086D
:06185500BA4803021AADBF
:05185B00BA4E02805EA0
:05186000BA4F028041B7
:05186500BA53028024CB
:05186A00BA54028007E2
:06186F00BA7203021AA583
:011875002250
:0A18760074FAC0E07439C0E0748019
:0E188000C0E01228A81581158115810226529C
:0A188E00740FC0E0743AC0E07480EB
:0E189800C0E01228A815811581158102265680
:0A18A6007424C0E0743AC0E07480BE
:0E18B000C0E01228A815811581158102265A64
:0A18BE00743AC0E0743AC0E0748090
:0E18C800C0E01228A815811581158190000539
:0A18D600121DE5AA82AB830221F780
:0218E0007A008C
:0318E200BA030046
:0518E50040030219712F
:0A18EA00EA241FFBE43401FC8B82AA
:0C18F4008C83E0603BEA75F002A424D66F
:0C190000F582740035F0F583E0FBA3E0F5
:0E190C00FC8A057E00C002C003C004C005C0F6
:0A191A0006745BC0E0743AC0E0748C
:0E19240080C0E01228A8E58124F9F581D002E8
:021932008039FA
:0A193400EA75F002A424D6F58274CF
:0C193E000035F0F583E0FBA3E0FC8A0517
:0D194A007E00C002C003C004C005C00674CA
:0A19570074C0E0743AC0E07480C070
:0C196100E01228A8E58124F9F581D002ED
:04196D000A0218E270
:0A19710074AEC0E07436C0E074806C
:0C197B00C0E01228A815811581158122FA
:0A198700748EC0E0743AC0E0748072
:0E199100C0E01228A815811581158190000173
:0C199F00121DE5AA82AB839000B4EAF0B0
:0C19AB009000B4E0FA24FD5026748EC0B9
:0C19B700E0743AC0E07480C0E01228A880
:0E19C300158115811581900001121DE5AB8282
:0919D100AC839000B4EBF080D16E
:0C19DA008A037C00C002C003C00474BB80
:0B19E600C0E0743AC0E07480C0E01262
:0C19F10028A8E58124FBF581D002EA243F
:0A19FD001FF582E43401F583E4F0E5
:011A070022BC
:0A1A080074D1C0E0743AC0E07480AD
:0E1A1200C0E01228A8158115811581900001F1
:0C1A2000121DE5AA82AB839000B4EAF02E
:0C1A2C009000B4E0FA24FD502674D1C0F4
:0C1A3800E0743AC0E07480C0E01228A8FE
:0E1A4400158115811581900001121DE5AB8200
:091A5200AC839000B4EBF080D1EC
:0C1A5B008A037C00C002C003C00474FDBC
:0B1A6700C0E0743AC0E07480C0E012E0
:0E1A720028A8E58124FBF581D002EA75F00278
:0A1A8000A424D6F582740035F0F5B9
:0D1A8A0083E0FBA3E0FCBB0004BC000122D4
:0A1A9700EA241FF582E43401F58310
:041AA1007401F022BA
:081AA500900115E4F0021AB0F3
:031AAD00021765B8
:0A1AB0007412C0E0743BC0E07480C3
:0C1ABA00C0E01228A81581158115817468
:0A1AC60024C0E0743BC0E07480C04F
:0C1AD000E01228A8158115811581741200
:0B1ADC00C0E0743BC0E07480C0E0126A
:0C1AE70028A81581158115817431C0E01C
:0C1AF300743BC0E07480C0E01228A8150D
:0A1AFF0081158115817453C0E07455
:0C1B09003BC0E07480C0E01228A81581E9
:0A1B1500158115817479C0E0743B5E
:0E1B1F00C0E07480C0E01228A8158115811561
:0A1B2D008174A2C0E0743BC0E074B4
:0D1B370080C0E01228A81581158115817469
:0A1B4400CAC0E0743BC0E07480C02A
:0B1B4E00E01228A815811581158122E6
:0E1B5900E5829000B5F09000B5E0FABA4302C4
:021B67008029D3
:051B6900BA4502801BDB
:051B6E00BA47028028C7
:051B7300BA48028005E4
:051B7800BA4C298003B6
:031B7D00021AB099
:091B80009001157401F0020CA2A1
:091B89009001157402F00213151D
:091B92009001157403F0021765BF
:091B9B009001157404F0020B4DD9
:011BA400221E
:0E1BA500E5829000B6F0900115E0FA24FB40B6
:081BB30048EA2A2A901BBB73CB
:071BBB00021BCA021BD40249
:061BC2001BDE021BE8021D
:021BC8001BF20E
:0A1BCA009000B6E0FAF582021B5904
:0A1BD4009000B6E0FAF582020D8AD7
:0A1BDE009000B6E0FAF5820213A9A8
:0A1BE8009000B6E0FAF5820218380A
:0A1BF2009000B6E0FAF582020BE164
:011BFC0022C6
:071BFD001221E61207071296
:081C04000A21D293122673900D
:0C1C0C000115E4F0900031F07582001228
:051C18000914121AB0CE
:071C1D009000B7E4F07A002B
:031C2400BA030000
:051C27004003021D272F
:0A1C2C00EA2416FBE43401FC8B826D
:081C36008C83E07003021D1E07
:0C1C3E008A037C00C003C00474FAC0E0FC
:0C1C4A00743BC0E07480C0E01228A8E5E4
:0E1C56008124FBF581900031E4F075820012CC
:091C64000914903C3375F0801264
:071C6D00095E9000B7E0FBE7
:0E1C7400C003121DDBAC82D003BC4402803FD3
:0C1C82008B047D00C003C004C00574FA90
:0B1C8E00C0E0743BC0E07480C0E012B6
:0E1C990028A8E58124FBF581D003900031E4FA
:0E1CA700F0758200C003120914D003903C3384
:0C1CB50075F080C00312095ED00380B3FC
:0E1CC1009000B7E0FB8B047D00C003C004C0A0
:0A1CCF00057442C0E0743CC0E074EC
:0E1CD90080C0E01228A8E58124FBF581D0032D
:0E1CE700900031E4F0758200C003120914D0A1
:0E1CF50003903C5975F080C00312095ED003C5
:0A1D0300EB241FF582E43401F583A0
:0A1D0D00E4F0EB2416F582E4340143
:071D1700F583E4F0021C1D3E
:091D1E000A9000B7EAF0021C244F
:091D2700121DDBAA821000030268
:021D30001DABE9
:051D3200BA4402800329
:031D3700021C1D6E
:021D3A007B002C
:031D3C00BB0300E6
:051D3F004003021C1D21
:0A1D4400EB2416FCE43401FD8C8250
:0E1D4E008D83E060558B047D00C003C004C08F
:0A1D5C00057442C0E0743CC0E0745E
:0E1D660080C0E01228A8E58124FBF581D0039F
:0E1D7400900031E4F0758200C003120914D013
:0E1D820003903C5975F080C00312095ED00337
:0A1D9000EB241FF582E43401F58313
:0A1D9A00E4F0EB2416F582E43401B6
:041DA400F583E4F0EF
:031DA8000B80911C
:0D1DAB00BA0D0A75820AC002121DC9D002CD
:0E1DB8008A82C002121DC9D0028A82121BA5A7
:031DC600021C1DDF
:0E32F7000D0A456E74657220616E20454550CB
:0E330500524F4D20626C6F636B206E756D62CF
:0E33130065722066726F6D20302D373A2000F3
:0E3321000D0A494E56414C49443A20456E74FF
:0E332F00657220616E20454550524F4D206260
:0E333D006C6F636B206E756D62657220667238
:09334B006F6D20302D373A20008F
:0E3354000D0A456E74657220616E204545506D
:0E336200524F4D20576F726420616464726593
:0B337000737320696E206865783A00D6
:0E337B000D0A496E20437573746F6D20436810
:0D33890061726163746572204D6F646500B0
:0E3396000D0A50726573732027482720666F5A
:0733A400722068656C7000E7
:0E33AB000D0A50726573732027542720746F2B
:0E33B900207465737420746F20637573746FD5
:0733C7006D20636F646500D7
:0E33CE000D0A507265737320274E2720746F0E
:0E33DC00206164642061206E65772063686163
:0733EA00726163746572005B
:0E33F1000D0A50726573732027532720746FE6
:0E33FF00207072696E74206120637573746FA4
:0C340D006D206368617261637465720079
:0E3419000D0A50726573732027462720746FCA
:0E3427002064726177206120666C61672074FA
:063435006F204C4344002F
:0E343B000D0A50726573732027722720746F7C
:0E3449002072657475726E20746F206D61695B
:093457006E206D656E750D0A0012
:0E3460000D0A456E74657220616E2061646411
:0E346E00726573732066726F6D20302D373AD1
:01347C00004F
:0E347D000D0A57726F746520637573746F6D5E
:0E348B002063686172616374657220746F2043
:063499004C43440D0A0043
:0E349F000D0A496E204C4344204D6F646500B9
:0E34AD000D0A50726573732027492720746F33
:0E34BB0020496E6974204C43442E204D7573D9
:0E34C900742063616C6C2074686973206669FE
:0434D7007273740098
:0E34DB000D0A50726573732027672720746FE7
:0E34E9002073686F7720676F746F6164647280
:0234F7002000B3
:0E34F9000D0A50726573732027782720746FB8
:0D3507002073686F7720676F746F7879000C
:0E3514000D0A50726573732027632720746FB1
:0D3522002073686F77207075746368200057
:0E352F000D0A50726573732027732720746F86
:0D353D002073686F772070757473747200CE
:0E354A000D0A50726573732027432720746F9B
:0E35580020636C65617220746865204C4344EA
:0935660020646973706C61790046
:0E356F000D0A50726573732027592720746F60
:0E357D0020726561642074686520636F6E744F
:0E358B00656E7473206F6620444452414D00FB
:0E3599000D0A50726573732027472720746F48
:0E35A70020726561642074686520636F6E7425
:0E35B500656E7473206F6620434752414D00CF
:0E35C3000D0A496E697469616C697A696E67F8
:0735D100204C43440D0A00E9
:0E35D8000D0A456E74657220612068657820CA
:0E35E6006164647265737320746F20676F20D8
:0535F400746F0D0A00D8
:0E35F9000D0A456E746572206120726F772096
:0A36070066726F6D20302D333A001B
:0E3611000D0A456E746572206120636F6C2097
:0B361F0066726F6D20302D31353A00CF
:0E362A000D0A4D6F76656420637572736F72C2
:0E36380020746F206E6577206C6F636174697B
:0D3646006F6E202825642C2564290D0A00D4
:0E3653000D0A456E7465722061206368617215
:0E366100616374657220746F2070757420614F
:0E366F00742063757272656E742061646472FB
:06367D006573730D0A00E5
:0E3683000D456E746572206120737472696E5D
:04369100670D0A00B7
:0E3695000D0A4C434420446973706C61792027
:0B36A300436C6561726564210D0A0034
:0336AE000D0A0002
:0536B10025783A20001D
:0436B6002578200053
:0E36BA000D0A496E20454550524F4D204D6F70
:0336C80064650036
:0E36CB000D0A50726573732027572720746F05
:0E36D900207772697465206120627974652023
:0A36E700746F20454550524F4D000E
:0E36F1000D0A50726573732027522720746FE4
:0E36FF00207265616420612062797465206626
:0B370D00726F6D20454550524F4D007B
:0E3718000D0A507265737320274C2720746FC2
:0E37260020646973706C617920454550524FE4
:0E3734004D2064617461206F6E204C43440090
:0E3742000D0A50726573732027442720746FA0
:0E37500020646F2061204865782044756D70FC
:0B375E00206F6620454550524F4D0083
:0E3769000D0A57726974696E6720746F2045EF
:093777004550524F4D2E2E2E003C
:0E3780000D0A456E74657220612062797465D1
:0E378E00206F66206461746120746F20777272
:0E379C0069746520746F20454550524F4D3AB8
:0137AA00001E
:0E37AB000D0A57726F746520255820746F2028
:0E37B900626C6F636B2025642061646472652E
:0E37C7007373203078255820696E20454550D8
:0737D500524F4D210D0A00C7
:0E37DC000D0A52656164696E672066726F6D3A
:0B37EA0020454550524F4D2E2E2E0062
:0E37F5000D0A526561642025582066726F6DC2
:0E38030020626C6F636B202564206164647228
:0B38110065737320307825580D0A0005
:0E381C000D0A456E746572204C434420726F95
:0C382A00772066726F6D20302D333A005D
:033836003A200035
:0E3839000D0A57726F746520746F204C434463
:04384700210D0A0045
:0E384B000D0A506572666F726D696E672061BE
:0E3859006E20454550524F4D20646174612031
:0738670064756D700D0A008D
:0E386E000D0A456E74657220746865207374CF
:0E387C00617274696E6720626C6F636B20610D
:0B388A006E642061646472657373005B
:0E3895000D0A456E7465722074686520656EBC
:0E38A30064696E6720626C6F636B20616E64F7
:0938B10020616464726573730008
:0E38BA000D0A496E76616C6964206164647267
:0E38C80065737365732E20456E642061646421
:0E38D60072657373206D7573742062652061D6
:0E38E40066746572207374617274206164648E
:0538F200726573730014
:0E38F7000D0A496E20436C6F636B204D6F64A9
:0239050065005B
:0E3907000D0A50726573732027542720746FC9
:0E3915002073746F702074686520636C6F639C
:023923006B0037
:0E3925000D0A50726573732027532720746FAC
:0E3933002073746172742074686520636C6F79
:09394100636B20616761696E008F
:0E394A000D0A507265737320274F2720746F8B
:0E3958002072657365742074686520636C6F5F
:08396600636B20746F20300038
:0E396E000D0A507265737320274E2720746F68
:0E397C00206372656174652061206E6577209E
:06398A00616C61726D002A
:0E3990000D0A50726573732027432720746F51
:0E399E00207669657720636F756E7420666F02
:0D39AC0072206561636820616C61726D00BE
:0E39B9000D0A50726573732027442720746F27
:0E39C7002064697361626C6520616E20616C22
:0439D50061726D00AE
:0E39D9000D0A50726573732027452720746F06
:0E39E700207265656E61626C6520616E206104
:0539F5006C61726D0021
:0E39FA000D0A53746F7070696E6720746865F3
:073A080020636C6F636B008B
:0E3A0F000D0A5374617274696E6720746865E5
:073A1D0020636C6F636B0076
:0E3A24000D0A526573657474696E67207468CC
:083A32006520636C6F636B00FB
:0E3A3A000D0A456E74657220616C61726D201C
:0E3A480074696D6520696E207365636F6E642E
:053A5600733A0D0A00A7
:0E3A5B000D0A416C61726D2025643A202575BC
:0B3A6900203C456E61626C65643E000D
:0E3A74000D0A416C61726D2025643A202575A3
:0C3A8200203C44697361626C65643E0086
:0E3A8E000D0A456E74657220616E20616C61D8
:0E3A9C00726D206E756D6265722066726F6DC0
:0E3AAA0020302D3220746F2064697361626CCD
:033AB800653A006C
:0E3ABB000D0A416C61726D20256420646973F0
:083AC90061626C65640D0A00E6
:0E3AD1000D0A456E74657220616E20616C6195
:0E3ADF00726D206E756D6265722066726F6D7D
:0E3AED0020302D3220746F20656E61626C6592
:023AFB003A008F
:0E3AFD000D0A416C61726D20256420656E61BA
:073B0B00626C65640D0A0005
:0E3B12000D0A2A2A2A2A2A2A2A2A2A2A2A2A96
:043B20002A2A2A0023
:0D3B24000D0A202020204D656E750D0A0051
:0E3B31000D0A50726573732027482720746FA9
:0E3B3F002073686F77207468652068656C706D
:063B4D00206D656E75009D
:0E3B53000D0A507265737320274C2720746F83
:0E3B610020656E746572204C434420636F6EC5
:0A3B6F0074726F6C206D6F646500C6
:0E3B79000D0A50726573732027452720746F64
:0E3B870020656E74657220454550524F4D20EA
:0D3B9500636F6E74726F6C206D6F6465005D
:0E3BA2000D0A50726573732027432720746F3D
:0E3BB00020656E74657220436C6F636B20633A
:0C3BBE006F6E74726F6C206D6F64650098
:0E3BCA000D0A50726573732027472720746F11
:0E3BD80020656E74657220437573746F6D20E6
:0E3BE600436F646520636F6E74726F6C206DA8
:063BF4006F64650D0A007C
:0E3BFA000D0A416C61726D20256420676F69B1
:0E3C08006E67206F66662C20796F75206D75D3
:0E3C1600737420707265737320274427207426
:0E3C24006F2064697361626C652069740D0A1B
:013C32000091
:0E3C330044697361626C6520416C61726D21A1
:013C41000082
:0E3C42000D0A416C61726D2025642064697367
:093C500061626C6564210D0A003B
:0E3C590020202020202020202020202020209D
:013C6700005C
:013D6800005A
:033D690000000057
:061DC900E5829000B8F075
:0C1DCF003099FD9000B8E0F599C299220F
:051DDB0010980280FBDE
:051DE000AA998A82228D
:0E1DE500AA83E5829000B9F0A3EAF09000C650
:0E1DF300E4F0A3F09000B9E0FAA3E0FBC374A3
:0E1E01000A9A74808BF063F08095F05019748B
:0A1E0F0068C0E0743CC0E07480C0BD
:0E1E1900E01228A815811581158190FFFF2287
:0E1E27009000C6E0FCA3E0FDC3EC9AED6480E1
:0C1E35008BF063F08095F04003021EF378
:0E1E4100C002C003C004C005121DDBAE82D07B
:0E1E4F0005D004D003D0028E82C002C003C0B2
:0E1E5D0004C005C006121DC9D006D005D00471
:0E1E6B00D003D002BE0D0975820A121DC902F5
:021E79001EF356
:0E1E7B00BE0812EC24FFFFED34FFF89000C605
:071E8900EFF0A3E8F08097E1
:051E9000BE7102800399
:031E9500BE510437
:041E980090FFFE2297
:0D1E9C008E82C002C003C004C005C0061243
:0E1EA9002699E582D006D005D004D003D002E1
:0A1EB700601AEC24BBF582ED340044
:0E1EC100F583EEF09000C674012CF0E43DA312
:041ECF00F0021E27D8
:0A1ED300C002C003749AC0E0743C22
:0E1EDD00C0E07480C0E01228A81581158115A0
:081EEB0081D003D002021E2782
:0C1EF3009000C6E0FAA3E0FBEA24BBF577
:0C1EFF0082EB3400F583E4F09000BB752A
:051F0B00F0000226B603
:0C1F10009000CBE4F0A3F09000CEE4F0D1
:0E1F1C009000CBE0FAA3E0FBC3EA9402EB6472
:081F2A00809480400302205E58
:0E1F3200C002C003121DDBAC82D003D0028CB3
:0E1F400082C002C003C004121DC9D004D00329
:0E1F4E00D002BC0D2CEA4B700C9000C9E4F0E0
:071F5C009000CAF002205EB4
:081F6300BA0105BB0002800376
:031F6B0002205EF3
:0A1F6E009000C9E0FD9000CAF09059
:071F780000C9E4F002205E45
:0E1F7F00BC0813EA24FFFDEB34FFFE9000CBFC
:081F8D00EDF0A3EEF0021F1CB1
:0E1F95008C82C002C003C004122699E582D0DF
:0C1FA30004D003D002601AEA24C9F582C1
:0C1FAF00EB3400F583ECF09000CB7401E3
:091FBB002AF0E43BA3F0021F1C14
:0E1FC4008C82C00412283FE582D004700D8C80
:0C1FD20082C004122822E582D00460685E
:0E1FDE00C3EC648094C1400B74C68CF063F0B9
:051FEC008095F0501388
:0E1FF100C3EC648094E1404D74E68CF063F024
:051FFF008095F0404256
:0C2004009000CBE0FAA3E0FBEA24C9FA4C
:0C201000EB3400FB8C82C002C003C00453
:0E201C00122822E582D004D003D002600674A0
:05202A00DF5CFD8002F7
:02202F008C051E
:0E2031008A828B83EDF09000CBE02401F0A3B7
:07203F00E03400F0021F1C59
:0A20460074C4C0E0743CC0E0748074
:0E205000C0E01228A8158115811581021F1C01
:09205E009000CDE4F07A007B0053
:0E206700C3EA9402EB648094804003022122BD
:0A207500EA24C9F582EB3400F5837C
:0E207F00E0FC9000C8F08C82C002C003C004D8
:0E208D00122699E582D004D003D0026009EC3F
:08209B0024D09000CEF0803A41
:0E20A300C3EC648094E1401474E68CF063F0AA
:0E20B1008095F040099000CE74A92CF0801E9E
:0E20BF009000C8E0FCC3648094C1401274C657
:0E20CD008CF063F08095F040079000CE74C94F
:0220DB002CF0E7
:0E20DD007401C39AFCE49BFDCC25E0CC33CC0F
:0E20EB0025E0CC33FD9000CEE0FE8CF005F039
:0620F900AC067D0080062C
:0620FF00EC2CFCED33FDAA
:0E210500D5F0F79000CDE0FE7F00EC2EFCED53
:0C2113003FFD9000CDECF00ABA00010B7B
:03211F0002206734
:072122009000CDE0F58222E0
:0E212900AAF0AB83E5829000D1F0A3EBF0A307
:0E213700EAF0121DDBAA829000D4EAF08A8240
:0C214500121DC99000CFE0FAA3E0FB904F
:0821510000D1E0F508A3E0F560
:0921590009A3E0F50A7F007800FB
:0A2162009000D4E0F9B90D02805D91
:0E216C00C3EF9AE864808BF063F08095F0502A
:0B217A004EC002C003EF2508FAE83554
:0A21850009FBAC0A8A828B838CF000
:0E218F00E91227E9C003C007C000121DDBAA39
:0E219D0082D000D007D0039000D4EAF08A82EE
:0E21AB00C002C003C007C000121DC9D000D082
:0A21B90007D003D0020FBF00010899
:0621C300D003D002809958
:0E21C9009000D1E0FAA3E0FBA3E0FCEF2AFFB8
:0D21D700E83BF88C058F8288838DF0E402D0
:0221E40027E9E9
:0E21E600759850758920758DFD758BFDD28E14
:0321F400D299225B
:0E3C680053657269616C5F676574496E7465BF
:0E3C760067657228293A204572726F722E20FF
:0E3C84004D61785F4C656E67746820746F6FD9
:083C9200206C617267652E00D1
:0E3C9A000D0A496E76616C6964206368617280
:0E3CA80061637465722E20456E746572206F24
:0E3CB6006E6C79206469676974732E0D0A00C4
:0E3CC4000D0A496E76616C6964206368617256
:0E3CD20061637465722E20456E746572206FFA
:0E3CE0006E6C7920686578206368617261639C
:083CEE00746572732E0D0A00CB
:02006900C201D2
:0D21F700AA83E5829000DCF0A3EAF07A00F4
:03220400BA03001A
:0A2207005012EA241FFBE43401FC2E
:0A2211008B828C83E060030A80E9F1
:0A221B00BA031674F6C0E0743CC06C
:0E222500E07480C0E01228A815811581158193
:012233002288
:0A223400EA241FF582E43401F5836B
:0A223E007401F0EA2A24D6FBE43410
:0C22480000FC9000DCE0FDA3E0FE8B82B7
:0E2254008C83EDF0A3EEF07B00C005C006C049
:0A22620002C0037421C0E0743DC007
:0E226C00E07480C0E01228A8E58124F9F58115
:01227A002241
:0E227B00C0E0C0F0C082C083C002C003C00437
:0E228900C005C006C007C000C001C0D075D09F
:0B22970000C202900119E0FABA020038
:0C22A200500A90011974012AF00225CBAB
:0822AE00B2922001030223514A
:0D22B60090011AE0FA90011A74012AF090CC
:0922C300011AE0FABA0A028003D4
:0322CC00022542A6
:0B22CF0090011AE4F090011BE0FA906F
:0922DA00011B74012AF0D20290EC
:0922E300011BE0FABA0A028003B3
:0322EC0002254286
:0B22EF0090011BE4F090011CE0FA904D
:0E22FA00011C74012AF090011CE0FABA0602E1
:02230800800350
:03230A0002254267
:0B230D0090011CE4F090011DE0FA902C
:0E231800011D74012AF090011DE0FABA0A02BC
:02232600800332
:0323280002254249
:0B232B0090011DE4F090011EE0FA900C
:0E233600011E74012AF090011EE0FABA0A029C
:02234400800314
:032346000225422B
:0823490090011EE4F0022542A0
:0B2351001208BFAA8290011AE0FB9066
:0E235C00011A74012BF0900031740FF075829D
:0E236A0003C002120914D00290011AE0FB74A5
:0D237800302BFBF582C00212094BD0029001
:09238500011AE0FBBB0A0280030F
:03238E0002253DE8
:0E23910090011AE4F0900031740FF075820391
:0E239F00C002120914D00290011AE0FB743043
:0E23AD002BFBF582C00212094BD00290011BDF
:0C23BB00E0FB90011B74012BF0D202909B
:0E23C7000031740DF0758203C002120914D0AB
:0E23D5000290011BE0FB74302BFBF582C0026E
:0E23E30012094BD00290011BE0FBBB0A0280E6
:0123F10003E8
:0323F20002253D84
:0E23F50090011BE4F0900031740DF07582032E
:0E240300C002120914D00290011BE0FB7430DD
:0E2411002BFBF582C00212094BD00290011C79
:0E241F00E0FB90011C74012BF0900031740C56
:0E242D00F0758203C002120914D00290011C47
:0E243B00E0FB74302BFBF582C00212094BD07F
:0B2449000290011CE0FBBB06028003B8
:0324540002253D21
:0E24570090011CE4F0900031740CF0758203CB
:0E246500C002120914D00290011CE0FB74307A
:0E2473002BFBF582C00212094BD00290011D16
:0E248100E0FB90011D74012BF0900031740AF5
:0E248F00F0758203C002120914D00290011DE4
:0E249D00E0FB74302BFBF582C00212094BD01D
:0B24AB000290011DE0FBBB0A02800351
:0324B60002253DBF
:0E24B90090011DE4F0900031740AF07582036A
:0E24C700C002120914D00290011DE0FB743017
:0E24D5002BFBF582C00212094BD00290011EB3
:0E24E300E0FB90011E74012BF0900031740993
:0E24F100F0758203C002120914D00290011E81
:0E24FF00E0FB74302BFBF582C00212094BD0BB
:0E250D000290011EE0FBBB0A2790011EE4F0C5
:0E251B009000317409F0758203C00212091499
:0E252900D00290011EE0FB74302BFBF582C047
:062537000212094BD00264
:05253D008A821208E58E
:09254200900119E4F020020302EB
:02254B0025CB9E
:02254D007A0012
:03254F00BA0300CC
:0525520040030225CB4F
:0A255700EA241FFBE43401FC8B8230
:0B2561008C83E06061EA2416FBE43488
:0C256C0001FC8B828C83E07052EA2A2470
:0A257800D6FBE43400FC8B828C8358
:0A258200E0FDA3E0FE1DBDFF011EF9
:0E258C008B828C83EDF0A3EEF0ED4E702E20CE
:0C259A00011C900031E4F0758200C002CA
:0E25A600120914D002903D4D75F080C0021253
:0425B400095ED002EA
:0A25B800EA2416F582E43401F583ED
:0525C2007401F0D200DD
:0425C7000A02254F90
:0E25CB00758C87758AFF438810D0D0D001D060
:0E25D90000D007D006D005D004D003D002D029
:0825E70083D082D0F0D0E03275
:0E25EF00C2AF9000317409F075820312091416
:0E25FD0090011EE0FA74302AFAF58212094BA2
:0E260B0090011DE0FA74302AFAF58212094B94
:0E26190075823A12094B90011CE0FA74302AC7
:0E262700FAF58212094B90011BE0FA74302A7A
:0D263500FAF58212094B75822E12094B90A6
:0E264200011AE0FA74302AFAF58212094BD21E
:02265000AF22B7
:0426520053A8FD226A
:0426560043A88222F1
:0A265A0090011AE4F090011BF090CB
:08266400011CF090011DF09033
:07266C00011EE4F00225EF5E
:0E267300438901758C87758AFF43A882C29245
:0A268100900119E4F0900116F090AA
:08268B000117F0900118F01294
:06269300265A43881022C4
:0E3CF6000D0A416C6C20616C61726D7320626E
:0E3D04007573792C2063616E6E6F742063728C
:0E3D120065617465206E657720616C61726D6D
:013D200000A2
:0E3D21000D0A437265617465642061206E6551
:0E3D2F007720616C61726D20256420776974C5
:0E3D3D0068206475726174696F6E2025750DC3
:023D4B000A006C
:0E3D4D0044697361626C6520416C61726D2186
:013D5B000067
:013D6C000056
:013D6D000055
:013D6E000054
:013D6F000053
:013D70000052
:013D71000051
:033D72000000004E
:06003D00E478FFF6D8FD97
:0E269900E5829000DEF09000DEE0FABA30003C
:0B26A7004009EA24C6400475820122AD
:0426B200758200220B
:0E26B600AAF0AB83E5829000DFF0A3EBF0A367
:0E26C400EAF07A007B009000DFE0FCA3E0FD6E
:0326D200A3E0FE84
:0E26D5008C828D838EF0123147FF6039C37402
:0E26E300B98FF063F08095F04007EF648094AB
:0326F100B05026C0
:0E26F4008C828D838EF0123147FFBF2D028045
:0127020017BF
:05270300BF2B02801253
:052708000CBC00010DF6
:0D270D009000DFECF0A3EDF0A3EEF080BB38
:0E271A009000DFECF0A3EDF0A3EEF08C828DCA
:0C272800838EF0123147FFE4BF2D010446
:08273400F888017003BF2B0EB1
:0E273C009000DF74012CF0E43DA3F0A3EEF05A
:0B274A009000DFE0FCA3E0FDA3E0FE38
:0E2755008C828D838EF0123147FF6068C3EFD7
:0E276300648094B0406074B98FF063F080958C
:0E277100F04055C0019000E3740AF0E4A3F0BC
:0E277F008A828B83C004C005C006C007C0015B
:08278D0012280285820B8583EE
:0C2795000CD001D007D006D005D004EF16
:0E27A1003395E0F8EF24D0FFE834FFF8EF2581
:0A27AF000BFAE8350CFB0CBC00012E
:0127B9000D12
:0E27BA009000DFECF0A3EDF0A3EEF0D0018074
:0127C8008C84
:0E27C9009000DFECF0A3EDF0A3EEF0E9600964
:0927D700C3E49AFCE49BFD8004BC
:0427E0008A048B05D7
:0527E4008C828D8322B0
:08001B00790EE94400601B7A34
:0500230001903D67782B
:030028001475A0AC
:0A002B0001E493F2A308B8000205F7
:08003500A0D9F4DAF275A0FF76
:0E27E90020F71030F6118883A88220F507F63D
:0527F700A883758300BA
:0127FC0022BA
:0327FD00F280F770
:02280000F022C4
:0E280200AA83AB828BF09000E3E0A4F8A9F06B
:0E2810008AF0E0A429F98BF0A3E0A429F58357
:04281E008882222268
:080043007800E84400600A792E
:03004B000075A09D
:06004E0000E4F309D8FCF8
:080054007814E84401600C7906
:0B005C0002900000E4F0A3D8FCD9FAE9
:0E282200E5829000E5F09000E5E0FABA610072
:0B2830004009EA248540047582012263
:04283B007582002280
:0E283F00E5829000E6F09000E6E0FABA410073
:0B284D004009EA24A540047582012226
:042858007582002263
:08285C00C012858112AA82124C
:052864001DC9D0122285
:0E286900AAF0AB83E5829000E8F0A3EBF0A3A9
:0E287700EAF09000E8E0FAA3E0FBA3E0FC909A
:0E28850000E7E0FD9000FBE4F0A3F0A3F0906C
:0E28930000FEEAF0A3EBF0A3ECF0900101EDE3
:0728A100F090285C0229C140
:0628A800C012858112E55B
:0C28AE001224FBFA9000FBE4F0A3F0A35E
:0C28BA00F0E51224FBF89000FEE6F008A8
:0D28C600A3E6F008A3E6F0900101EAF0900F
:0A28D300285C1229C1AA82AB83D051
:0228DD001222C5
:0C28DF00E5829000F7F09000F7E0FA901E
:0E28EB0000EDE0C0E0A3E0C0E0A3E0C0E074B8
:0828F9000DC0E07429C0E0905D
:0C29010000EBE0C0E0A3E0C0E08A82220E
:0E290D001581158115819000F5E0FAA3E0FB1D
:0C291B009000F574012AF0E43BA3F022C8
:0E292700E5829000F8F09000F8E0FA74302A93
:0C293500FA24C6500A74072AFA30030383
:032941004302202E
:052944008A820228DF79
:0E294900E5829000F9F09000F9E0FAC4540F16
:0E295700FBF582C002122927D00253020F8A1C
:04296500820229279A
:0E296900E5829000FAF09000F0E0FAA3E0FBA7
:0E297700A3E0FCA3E0FD9000F4E0FE9000FA67
:04298500E0FF7820D7
:0E298900EE2EFEED235401F94206EA2AFAEB87
:0E29970033FBEC33FCED33FDC3EE9F4007EE47
:0629A500C39FFE43020186
:0E29AB00D8DC9000F0EAF0A3EBF0A3ECF0A370
:0829B900EDF09000F4EEF022B5
:0E29C100AA83E582900102F0A3EAF0900102E1
:0E29CF00E0FAA3E0FB9000EBEAF0A3EBF0903F
:0E29DD0000FBE0FAA3E0FBA3E0FC9000EDEAB3
:0E29EB00F0A3EBF0A3ECF09000F5E4F0A3F005
:0E29F9009000FEE0FAA3E0FBA3E0FC8A828BD4
:0E2A0700838CF0123147FD9000FE74012AF01E
:0D2A1500E43BA3F0A3ECF0ED70030230E809
:052A2200BD2502800348
:032A27000230E09A
:052A2A00C204C205C258
:042A2F0006C207C212
:042A330008C209C20A
:042A37000AC20B9034
:092A3B000104E4F0900105F090A3
:0E2A4400010674FFF09000FEE0FAA3E0FBA391
:022A5200E0FCA6
:0E2A54008A828B838CF0123147FEA3AA82ABDC
:0D2A6200839000FEEAF0A3EBF0A3ECF090EF
:0D2A6F000108EEF0BE25088E821228DF025D
:022A7C0029F936
:052A7E008E07BF3000CF
:0E2A830040498E07EF24C64042900106E0FF56
:0E2A9100BFFF29C002C003C004900105E0FA97
:0E2A9F0075F00AA4FAEE24D09001052AF090FA
:0D2AAD000105E0FAD004D003D002709BD2E6
:032ABA00058097FD
:0E2ABD00EF75F00AA4FFEE24D09001062FF072
:032ACB00022A5488
:0E2ACE00900108E0FEBE2E08900106E4F00222
:022ADC002A547A
:0E2ADE008E82C002C003C004C006122822E58A
:0C2AEC008224FF9203D006D004D003D057
:0B2AF8000230030790010874DF5EF05D
:0A2B0300900108E0FEBE200280559C
:052B0D00BE2B02804B0D
:052B1200BE2D02804110
:052B1700BE4202804BEC
:052B1C00BE43028050E1
:062B2100BE4403022D5525
:062B2700BE4603022D77FB
:062B2D00BE4903022D5514
:052B3300BE4C028034DD
:062B3800BE4F03022D5FF9
:062B3E00BE5003022CB79B
:052B4400BE53028042B7
:062B4900BE5503022D67DA
:062B4F00BE5803022D6FC9
:032B5500022D7BD3
:052B5800D204022A5422
:052B5D00D206022A541B
:052B6200D207022A5415
:052B6700D209022A540E
:052B6C00D20A022A5408
:0E2B7100900101E0FA24FEF8900101F08602C6
:0C2B7F00088603188A821228DF022D87C6
:0E2B8B00900101E0FA24FDF8900101F08602AD
:0E2B990008860308860418189000F0EAF0A3DE
:0E2BA700EBF0A3ECF09000F0E0FAA3E0FBA34B
:0E2BB500E0FC8A828B838CF01230F4AA82AB93
:0E2BC30083900106E0FBBBFF05900106EAF0DF
:0C2BD100200438900105E0FBC3EA9B5093
:0D2BDD002E900105EBC39AF0900105E0FB7E
:0D2BEA008B041B900105EBF0BC0002801075
:0E2BF700758220C002C0031228DFD003D00276
:022C050080E36A
:052C0700900105EBF057
:052C0C00900106E0FD4F
:0E2C1100C0029000F0E0FCA3E0FFA3E0FA8C0C
:0E2C1F00828F838AF0123147D00260538D04F9
:0E2C2D001DC374808CF063F08095F05044C09D
:0A2C3B00029000F0E0F50DA3E0F5B3
:082C45000EA3E0F50F74012558
:072C4D000DFBE4350EFAACAB
:0C2C54000F9000F0EBF0A3EAF0A3ECF00E
:072C6000850D82850E8385BE
:0C2C67000FF0123147FAF582C002C005E0
:0B2C73001228DFD005D002D0028093B1
:062C7E00200403022D8773
:0D2C8400900105E0FBC3EA9B4003022D8791
:0C2C9100900105EBC39AF0900105E0FAF9
:0E2C9D008A031A900105EAF0BB0003022D82A3
:0C2CAB00758220C0021228DFD00280E6F3
:0E2CB700900101E0FB24FDF8900101F086037E
:0E2CC50008860408860718189000F0EBF0A3AC
:0E2CD300ECF0A3EFF09000F2E0FB247F50083D
:082CE1009001087443F080200B
:0D2CE900EB249F50089001087450F08013F8
:0D2CF600EB24BF50089001087449F08006DF
:062D03009001087458F075
:0E2D0900900108E0FBF582C0031228DFD00322
:0E2D170075823AC0031228DFD003758230C0E7
:0E2D2500031228DFD003758278C0031228DF66
:072D3300D003BB4902800F31
:052D3A00BB5002800AFD
:0A2D3F009000F1E0FBF58212294933
:0C2D49009000F0E0FBF582122949803276
:0A2D5500D208900104740AF08028EF
:082D5F009001047408F08020CB
:082D6700900104740AF08018C9
:082D6F009001047410F08010C3
:042D7700D20B800CEF
:072D7B008E821228DF8005A3
:052D8200900105EAF0DC
:0C2D8700300B6B900101E0FA24FCF89086
:0E2D93000101F0860208860308860408860601
:0E2DA1001818189000F0EAF0A3EBF0A3ECF085
:0B2DAF00A3EEF09000F0745CF0A37441
:062DBA003DF0A37480F05F
:0E2DC0009000F0E0FBA3E0FCA3E0FD74012B0B
:0E2DCE00FEE43CFF8D029000F0EEF0A3EFF06B
:0E2DDC00A3EAF08B828C838DF0123147FA70DF
:042DEA00030229F9BE
:072DEE008A821228DF80CB6E
:0B2DF500900104E0FABA00030229F983
:082E000090010F740EF0A374A1
:062E080001F030094C90BE
:0E2E0E000101E0FA14F8900101F08602EA33A7
:0E2E1C0095E0FBFCFE9000F0EAF0A3EBF0A3C3
:0B2E2A00ECF0A3EEF0300803022ECF06
:0E2E35009000F0E0FAA3E0FBA3E0FCA3E0FEB7
:0E2E43007B007C007E009000F0EAF0A3EBF034
:082E5100A3ECF0A3EEF0807683
:0C2E5900300A2A900101E0FA24FCF890F5
:0E2E65000101F086020886030886040886062E
:0E2E73001818189000F0EAF0A3EBF0A3ECF0B2
:052E8100A3EEF0804902
:0E2E8600900101E0FA24FEF8900101F08602AE
:0E2E940008860318EB3395E0FCFE9000F0EA90
:0C2EA200F0A3EBF0A3ECF0A3EEF020088E
:0E2EAE00209000F0E0FAA3E0FBA3E0FCA3E01C
:0E2EBC00FE7C007E009000F0EAF0A3EBF0A395
:052ECA00ECF0A3EEF0A6
:0C2ECF0030083E9000F0E0FAA3E0FBA306
:0E2EDB00E0FCA3E0FE30E72B9000F0E0FAA34D
:0E2EE900E0FBA3E0FCA3E0FEC3E49AFAE49B46
:0E2EF700FBE49CFCE49EFE9000F0EAF0A3EBEE
:092F0500F0A3ECF0A3EEF0800251
:022F0E00C208F7
:082F1000D20C900104E0FC75F5
:032F1800100E7523
:042F1B0011017D0023
:0E2F1F009000F4E4F08C82C004C00512296911
:0C2F2D00D005D004200C32C0049000F449
:0A2F3900E0FFC4FF851082851183BC
:0A2F4300E0FA420785108285118331
:0A2F4D00EFF0151074FFB510021527
:012F57001168
:082F580090010FE510F0A3E564
:062F600011F0D004800C0A
:092F66009000F4E0FF8510828563
:032F6F001183F0DB
:092F72000D900107EDF0B20C9086
:0E2F7B0000F0E0FFA3E0FAA3E0FEA3E0FBEF0E
:0C2F89004A4E4B709190010FE510F0A330
:092F9500E511F0900107EDF09048
:0C2F9E000105E0FA70069001057401F0D6
:0A2FAA0020052720042474012DFAED
:052FB400900105E0FBA7
:0D2FB900C3EA9B5011758220C002C00312B4
:092FC60028DFD003D0021B80EAD1
:052FCF00900105EBF08C
:0A2FD40030081275822D1228DF90DC
:0B2FDE000105E0FA14900105F0802FBF
:0C2FE900900107E0FA60283006127582A3
:0B2FF5002B1228DF900105E0FA149079
:053000000105F0801342
:0A3005003007107582201228DF90BA
:09300F000105E0FA14900105F03E
:0930180020042F900107E0FA905A
:043021000105E0FBCA
:0E3025008B041B900105EBF0C3EA9C50363083
:0630330005047C30800260
:023039007C20F9
:0E303B008C82C002C0031228DFD003D00280B6
:01304900DBAB
:0E304A00900105E0FA900107E0FCC39A5009DE
:09305800900105EAC39CF0800C14
:07306100900105E4F0800579
:05306800900105EBF0F2
:0D306D0090010FE0FAA3E0FB900107E0FCEA
:0A307A008C061CEE6040B20C200C26
:06308400150ABA00010B61
:0E308A008A828B83E0FEC4540FFE9000F4F0A7
:02309800800EA8
:0E309A008A828B83E0FE53060F9000F4EEF066
:0E30A8009000F4E0FEF582C002C003C00412E6
:0A30B6002927D004D003D00280BA0D
:0630C0002004030229F9BF
:0530C600900105E0FA95
:0930CB008A031AEB70030229F9D3
:0C30D400758220C0021228DFD00280EBC1
:0830E0008D821228DF0229F99C
:0C30E8009000F5E0FAA3E08A82F5832254
:0B3D5C003C4E4F20464C4F41543E00AF
:0E30F400AAF0AB83E582900111F0A3EBF0A3EC
:0E310200EAF07A007B00900111E0FCA3E0FDF2
:03311000A3E0FE3B
:0E3113008C828D838EF0123147FFA3AC82AD0B
:0E31210083900111ECF0A3EDF0A3EEF0EF604F
:08312F00070ABA00DF0B80DC87
:0E313700900111ECF0A3EDF0A3EEF08A828B74
:023145008322E3
:03000E00758121D8
:0A001100120A6AE5826003020A6524
:0E31470020F71430F6148883A88220F507E6DE
:06315500A883758300222F
:03315B00E280F718
:03315E00E49322D5
:02316100E0226A
:00000001FF
