:0D005F00E582900001F090000274A0F09086
:0C006C000000E0FA600690000274A1F0B1
:0E007800900001E0FA24F8501E8A037C00C0BC
:0A00860003C00474F5C0E07415C057
:0E009000E07480C0E0120D3AE58124FBF5819A
:01009E00223F
:0E009F00EA2AFA900002E0FB4AF012014E90AD
:0900AD000002E0FAF58202017E76
:0C00B600E582900005F0900004E0FA9054
:0A00C2000000E4F08A8212005F9053
:0A00CC000003E0FAF58212017E90B5
:0A00D6000005E0FAF58212017E0237
:0200E000015DC0
:0C00E200E582900007F0900006E0FA9024
:0E00EE000000E4F08A82C00212005FD002908F
:0E00FC000007E0FBF582C00212017ED002C0B8
:0E010A0002120153D0029000007401F08A82AC
:0B01180012005F1201C9AA82C002128F
:0E0123000173D002C00212015DD0028A822256
:030131000201497F
:0E15F5000D0A496E76616C696420626C6F634A
:0C1603006B206E756D626572202564001E
:020134007A6FE0
:06013600EA60031A80FAE2
:01013C0022A0
:06013D00120134D29122F0
:06014300120134C29122FA
:05014900D29002013D0F
:05014E00C29002014314
:0A015300D29012013DC29002014358
:0B015D00120143C29012013DD290221B
:0B016800C29012013D120143D2902210
:0B017300D29012013D120143D29022F5
:08017E00E582900008F07A0010
:03018600BA0800B4
:0E018900502A900008E0FB20E704C29080029C
:02019700D29004
:0E019900C00212013DD002C002120143D0028A
:0E01A700900008E025E0FB900008F00A80D1EF
:0D01B500D29012013DE4A29033FAC0021274
:0701C2000143D0028A8222F2
:0701C900900009E4F07A0048
:0301D000BA08006A
:0D01D300502CC00212013DD0023090089067
:0701E0000009E0FB4401F0FF
:0301E700BA070054
:0D01EA00500B900009E025E0FB900009F0AB
:0A01F700C002120143D0020A80CFBB
:07020100900009E0F58222E4
:0E020800E58290000AF0C294C29590160FE4B1
:0E02160093FA740193FB90000AE0FC8A828B3D
:0302240083F02242
:0E022700E58290000BF0C294D29590160FE481
:0E02350093FA740193FB90000BE0FC8A828B1D
:0302430083F02223
:04024600D294C295F7
:0E024A0090160FE493FA740193FB8A828B8363
:06025800E0FA20E7ED22B0
:09025E0012024675820102020839
:0E026700E58290000CF090000CE0FA247F502D
:02027500012264
:0E027700C002120246D002C294C29590160F29
:0E028500E493FB740193FC4302808B828C8314
:03029300EAF0226C
:0E029600E58290000EF090000EE0FA24FC408D
:0A02A4000990000DE0FB24F050016A
:0102AE00222D
:0A02AF00EAC454F02411FAE43416F6
:0E02B900FCEB2AF582E43CF583E493FAF5822F
:0302C700020267C9
:0A02CA00E58290000FF0120246904A
:0902D400000FE0FAF58202022796
:0E02DD00AAF0AB83E582900010F0A3EBF0A333
:0D02EB00EAF0900010E0FAA3E0FBA3E0FCB5
:0D02F8008A828B838CF01215D9FD700122D3
:0E0305008D82C002C003C0041202CAD004D010
:0803130003D0020ABA00010B3D
:0E031B00900010EAF0A3EBF0A3ECF0C002C0DB
:0E03290003C004120246D004D003D002D294C6
:0E033700C29590160FE493FD740193FE8D8223
:0C0345008E83E0FD53057FBD1002800F89
:05035100BD2402803410
:05035600BD5002801AF9
:05035B00BD649A803F23
:0E036000758240C002C003C004120267D004C0
:07036E00D003D0020202F8E7
:0E037500758210C002C003C004120267D004DB
:07038300D003D0020202F8D2
:0E038A00758250C002C003C004120267D00486
:07039800D003D0020202F8BD
:01039F00223B
:0A03A000120246758238120208129C
:0803AA00024675820F020208F1
:0A03B20012024675820112020812C1
:0B03BC00024690000DE4F07582001274
:0903C700029690165175F08002B7
:0203D00002DD4C
:02160F0000E0F9
:0E161100000102030405060708090A0B0C0D70
:0E161F000E0F404142434445464748494A4B5E
:0E162D004C4D4E4F10111213141516171819AC
:0E163B001A1B1C1D1E1F50515253545556575A
:0816490058595A5B5C5D5E5FBD
:0E1651006162636465666768696A6B6C6E6FE0
:0E165F00707172737475767778797A313233E0
:0E166D00343536373839616263646566676804
:0E167B00696A6B6C6D6E6F7071727374757648
:0E1689007778797A313233343536373839385C
:081697003736353433323100DF
:03000000020003F8
:03005C000203D2CA
:0503D2001206FD80FE93
:0703D700438E0C9000002290
:0A03DE00749FC0E07416C0E0748044
:0C03E800C0E0120D3A15811581158174DA
:0A03F400B1C0E07416C0E07480C0D0
:0C03FE00E0120D3A158115811581749FE5
:0B040A00C0E07416C0E07480C0E01277
:0C0415000D3A15811581158174BEC0E000
:0C0421007416C0E07480C0E0120D3A15A3
:0A042D00811581158174DCC0E074B4
:0C04370016C0E07480C0E0120D3A158180
:0A044300158115817402C0E07417E2
:0E044D00C0E07480C0E0120D3A1581158115D3
:0A045B00817429C0E07417C0E0743A
:0D04650080C0E0120D3A15811581158174DB
:0A04720053C0E07417C0E07480C0AE
:0C047C00E0120D3A15811581158174788D
:0B048800C0E07417C0E07480C0E012F8
:0C0493000D3A158115811581749FC0E0A1
:0C049F007417C0E07480C0E0120D3A1524
:0A04AB00811581158174C9C0E07449
:0C04B50017C0E07480C0E0120D3A158101
:0504C1001581158122E8
:0E04C600E582900013F0900013E0FABA4301B3
:0104D4002205
:0404D500BA44012202
:0404D900BA470122FB
:0604DD00BA48030206FA12
:0404E300BA4C0122EC
:0604E700BA5203020614E4
:0504ED00BA5702800176
:0104F20022E7
:0A04F30074F5C0E07417C0E07480D7
:0C04FD00C0E0120D3A15811581158174C4
:0A0509000CC0E07418C0E07480C05C
:0E051300E0120D3A158115811581900001123C
:0E0521000749E5828583F0900014F0A3E5F011
:01052F00F0DB
:0E053000900014E0FAA3E0FBC374079A7480F5
:0C053E008BF063F08095F0502A7436C0FA
:0C054A00E07418C0E07480C0E0120D3AAC
:0E055600158115811581900001120749E5827B
:0D0564008583F0900014F0A3E5F0F080BF57
:0A057100C002C0037469C0E07418F2
:0E057B00C0E07480C0E0120D3A1581158115A4
:0E05890081D003D002C002C00312086EAC8203
:0C059700D003D002C002C003C004749066
:0B05A300C0E07418C0E07480C0E012DB
:0E05AE000D3A158115811581D004D003D002BD
:0E05BC00C002C003C00412086EAD82D004D08D
:0E05CA0003D0028A06900003ECF0900004EECD
:0E05D800F08D82C002C003C004C0051200B640
:0E05E600D005D004D003D0027E007F00C004F8
:0C05F400C006C002C003C005C00774BBF5
:0B060000C0E07418C0E07480C0E0127D
:09060B000D3AE58124F7F5812286
:0A06140074ECC0E07418C0E07480BC
:0C061E00C0E0120D3A15811581158174A1
:0A062A000CC0E07418C0E07480C03A
:0E063400E0120D3A158115811581900001121A
:0E0642000749E5828583F0900014F0A3E5F0EF
:01065000F0B9
:0E065100900014E0FAA3E0FBC374079A7480D3
:0C065F008BF063F08095F0502A7436C0D8
:0C066B00E07418C0E07480C0E0120D3A8A
:0E067700158115811581900001120749E58259
:0D0685008583F0900014F0A3E5F0F080BF35
:0A069200C002C0037469C0E07418D0
:0E069C00C0E07480C0E0120D3A158115811582
:0E06AA0081D003D002C002C00312086EAC82E1
:0E06B800D003D002900006EAF08C82C002C08F
:0E06C60003C0041200E2AD82D004D003D002C3
:0E06D4007E007F00C004C006C002C003C00547
:0A06E200C0077405C0E07419C0E001
:0E06EC007480C0E0120D3AE58124F7F58122FA
:0306FA000203DE1A
:0706FD00120B1A1201311269
:0707040003A0D2931203DEF3
:0E070B0012073FAA82BA0D0A75820AC00212B6
:04071900072DD002D6
:0E071D008A82C00212072DD0028A821204C600
:02072B0080DE6E
:0E169F000D0A2A2A2A2A2A2A2A2A2A2A2A2A2E
:0416AD002A2A2A00BB
:0D16B1000D0A202020204D656E750D0A00E9
:0E16BE000D0A50726573732027482720746F41
:0E16CC002073686F772074686973206D656EF7
:0216DA00750099
:0E16DC000D0A50726573732027572720746F14
:0E16EA00207772697465206120627974652032
:0A16F800746F20454550524F4D001D
:0E1702000D0A50726573732027522720746FF2
:0E171000207265616420612062797465206634
:0B171E00726F6D20454550524F4D008A
:0E1729000D0A507265737320274C2720746FD1
:0E17370020646973706C617920454550524FF3
:0E1745004D2064617461206F6E204C4344009F
:0E1753000D0A50726573732027432720746FB0
:0E17610020636C65617220746865204C4344FF
:09176F0020646973706C6179005B
:0E1778000D0A50726573732027442720746F8A
:0E17860020646F2061204865782044756D70E6
:0B179400206F6620454550524F4D006D
:0E179F000D0A50726573732027592720746F4E
:0E17AD0020726561642074686520636F6E743D
:0E17BB00656E7473206F6620444452414D00E9
:0E17C9000D0A50726573732027472720746F36
:0E17D70020726561642074686520636F6E7413
:0E17E500656E7473206F6620434752414D0DB0
:0217F3000A00EA
:0E17F5000D0A57726974696E6720746F204583
:091803004550524F4D2E2E2E00CF
:0E180C000D0A456E74657220616E20454550D0
:0E181A00524F4D20626C6F636B206E756D62D5
:0E18280065722066726F6D20302D373A2000F9
:0E1836000D0A494E56414C49443A20456E7405
:0E184400657220616E20454550524F4D206266
:0E1852006C6F636B206E756D6265722066723E
:091860006F6D20302D373A200095
:0E1869000D0A456E74657220616E2045455073
:0E187700524F4D20576F726420616464726599
:0B188500737320696E206865783A00DC
:0E1890000D0A456E74657220612062797465E0
:0E189E00206F66206461746120746F20777281
:0E18AC0069746520746F20454550524F4D3AC7
:0118BA00002D
:0E18BB000D0A57726F746520255820746F2037
:0E18C900626C6F636B2025642061646472653D
:0E18D7007373203078255820696E20454550E7
:0718E500524F4D210D0A00D6
:0E18EC000D0A52656164696E672066726F6D49
:0B18FA0020454550524F4D2E2E2E0071
:0E1905000D0A526561642025582066726F6DD0
:0E19130020626C6F636B202564206164647237
:0B19210065737320307825580D0A0014
:06072D00E582900016F0C9
:0C0733003099FD900016E0F599C2992263
:05073F0010980280FB90
:05074400AA998A82223F
:0E074900AA83E582900017F0A3EAF090002446
:0E075700E4F0A3F0900017E0FAA3E0FBC374F7
:0E0765000A9A74808BF063F08095F05019743E
:0A0773002CC0E07419C0E07480C0CF
:0E077D00E0120D3A15811581158190FFFF22C3
:0E078B00900024E0FCA3E0FDC3EC9AED648036
:0C0799008BF063F08095F04003020851E3
:0E07A500C002C003C004C00512073FAE82D0E0
:0E07B30005D004D003D0028E82C002C003C065
:0E07C10004C005C00612072DD006D005D004D6
:0A07CF00D003D002BE0D0302085152
:0E07D900BE0812EC24FFFFED34FFF890002460
:0707E700EFF0A3E8F0809D94
:0507EE00BE7102800352
:0307F300BE5104F0
:0407F60090FFFE2250
:0D07FA008E82C002C003C004C005C00612FC
:0E0807000B2BE582D006D005D004D003D00222
:0A081500601AEC2419F582ED34009E
:0E081F00F583EEF090002474012CF0E43DA36C
:04082D00F002078B43
:0A083100C002C003745EC0E0741939
:0E083B00C0E07480C0E0120D3A1581158115E1
:0808490081D003D00202078BED
:0C085100900024E0FAA3E0FBEA2419F573
:0C085D0082EB3400F583E4F09000197584
:05086900F000020B4845
:0C086E00900029E4F0A3F090002CE4F0CE
:0E087A00900029E0FAA3E0FBC3EA9402EB64CD
:080888008094804003020992F4
:0E089000C002C00312073FAC82D003D0028C1E
:0E089E0082C002C003C00412072DD004D00394
:0808AC00D002BC0D0302099209
:0E08B400BC0812EA24FFFDEB34FFFE90002981
:0708C200EDF0A3EEF080B1A0
:0E08C9008C82C002C003C004120B2BE582D04B
:0C08D70004D003D002601AEA2427F58246
:0C08E300EB3400F583ECF0900029740168
:0908EF002AF0E43BA3F002087AB0
:0E08F8008C82C004120CD1E582D004700D8CED
:0C09060082C004120CB4E582D0046068CA
:0E091200C3EC648094C1400B74C68CF063F09B
:050920008095F050136A
:0E092500C3EC648094E1404D74E68CF063F006
:050933008095F0404238
:0C093800900029E0FAA3E0FBEA2427FA73
:0C094400EB3400FB8C82C002C003C00436
:0E095000120CB4E582D004D003D0026006740D
:05095E00DF5CFD8002DA
:020963008C0501
:0E0965008A828B83EDF0900029E02401F0A33C
:07097300E03400F002087AF5
:0A097A007486C0E07419C0E07480B8
:0E098400C0E0120D3A15811581158102087A26
:0909920090002BE4F07A007B00D8
:0E099B00C3EA9402EB648094804003020A5683
:0A09A900EA2427F582EB3400F58301
:0E09B300E0FC900026F08C82C002C003C0045D
:0E09C100120B2BE582D004D003D0026009ECAB
:0809CF0024D090002CF0803AC6
:0E09D700C3EC648094E1401474E68CF063F08D
:0E09E5008095F0400990002C74A92CF0801E23
:0E09F300900026E0FCC3648094C1401274C6DC
:0E0A01008CF063F08095F0400790002C74C9D3
:020A0F002CF0C9
:0E0A11007401C39AFCE49BFDCC25E0CC33CCF1
:0E0A1F0025E0CC33FD90002CE0FE8CF005F0BD
:060A2D00AC067D0080060E
:060A3300EC2CFCED33FD8C
:0E0A3900D5F0F790002BE0FE7F00EC2EFCEDD8
:0C0A47003FFD90002BECF00ABA00010B00
:030A530002099BFA
:070A560090002BE0F5822265
:0E0A5D00AAF0AB83E58290002FF0A3EBF0A38C
:0E0A6B00EAF012073FAA82900032EAF08A8277
:0C0A790012072D90002DE0FAA3E0FB9086
:080A8500002FE0F508A3E0F5E5
:090A8D0009A3E0F50A7F007800DE
:0A0A9600900032E0F9B90D02805D16
:0E0AA000C3EF9AE864808BF063F08095F0500D
:0B0AAE004EC002C003EF2508FAE83537
:0A0AB90009FBAC0A8A828B838CF0E3
:0E0AC300E9120C7BC003C007C00012073FAA57
:0E0AD10082D000D007D003900032EAF08A8273
:0E0ADF00C002C003C007C00012072DD000D017
:0A0AED0007D003D0020FBF0001087C
:060AF700D003D00280993B
:0E0AFD0090002FE0FAA3E0FBA3E0FCEF2AFF3D
:0D0B0B00E83BF88C058F8288838DF0E402B2
:020B18000C7B54
:0E0B1A00759850758920758DFD758BFDD28EF6
:030B2800D299223D
:0E192C0053657269616C5F676574496E74651E
:0E193A0067657228293A204572726F722E205E
:0E1948004D61785F4C656E67746820746F6F38
:08195600206C617267652E0030
:0E195E000D0A496E76616C69642063686172DF
:0E196C0061637465722E20456E746572206F83
:0C197A006E6C79206469676974732E003C
:0E1986000D0A496E76616C69642063686172B7
:0E19940061637465722E20456E746572206F5B
:0E19A2006E6C792068657820636861726163FD
:0619B000746572732E0045
:06003200E478FFF6D8FDA2
:0E0B2B00E582900033F0900033E0FABA30001B
:0B0B39004009EA24C640047582012236
:040B44007582002294
:0E0B4800AAF0AB83E582900034F0A3EBF0A39B
:0E0B5600EAF07A007B00900034E0FCA3E0FDA2
:030B6400A3E0FE0D
:0E0B67008C828D838EF01215D9FF6039C37415
:0E0B7500B98FF063F08095F04007EF64809434
:030B8300B0502649
:0E0B86008C828D838EF01215D9FFBF2D028058
:010B94001749
:050B9500BF2B028012DD
:050B9A000CBC00010D80
:0D0B9F00900034ECF0A3EDF0A3EEF080BB6D
:0E0BAC00900034ECF0A3EDF0A3EEF08C828DFF
:0C0BBA00838EF01215D9FFE4BF2D01045A
:080BC600F888017003BF2B0E3B
:0E0BCE0090003474012CF0E43DA3F0A3EEF08F
:0B0BDC00900034E0FCA3E0FDA3E0FE6D
:0E0BE7008C828D838EF01215D9FF6068C3EFEB
:0E0BF500648094B0406074B98FF063F0809516
:0E0C0300F04055C001900038740AF0E4A3F0F0
:0E0C11008A828B83C004C005C006C007C001E4
:080C1F00120C9485820B858301
:0C0C27000CD001D007D006D005D004EF9F
:0E0C33003395E0F8EF24D0FFE834FFF8EF250A
:0A0C41000BFAE8350CFB0CBC0001B7
:010C4B000D9B
:0E0C4C00900034ECF0A3EDF0A3EEF0D00180A8
:010C5A008C0D
:0E0C5B00900034ECF0A3EDF0A3EEF0E9600998
:090C6900C3E49AFCE49BFD800445
:040C72008A048B0560
:050C76008C828D832239
:080010007900E94400601B7A4D
:05001800009019C17801
:03001D006975A062
:0A00200000E493F2A308B800020503
:08002A00A0D9F4DAF275A0FF81
:0E0C7B0020F71030F6118883A88220F507F6C6
:050C8900A88375830043
:010C8E002243
:030C8F00F280F7F9
:020C9200F0224E
:0E0C9400AA83AB828BF0900038E0A4F8A9F0A0
:0E0CA2008AF0E0A429F98BF0A3E0A429F583E1
:040CB00088822222F2
:080038007800E84400600A7939
:030040000075A0A8
:0600430000E4F309D8FC03
:080049007869E84400600C79BD
:0B00510001900000E4F0A3D8FCD9FAF5
:0E0CB400E58290003AF090003AE0FABA610052
:0B0CC2004009EA2485400475820122ED
:040CCD00758200220A
:0E0CD100E58290003BF090003BE0FABA410053
:0B0CDF004009EA24A5400475820122B0
:040CEA0075820022ED
:080CEE00C012858112AA8212D6
:050CF600072DD01222C1
:0E0CFB00AAF0AB83E58290003DF0A3EBF0A3DE
:0E0D0900EAF090003DE0FAA3E0FBA3E0FC90CE
:0E0D1700003CE0FD900050E4F0A3F0A3F0904B
:0E0D25000053EAF0A3EBF0A3ECF0900056EDC3
:070D3300F0900CEE020E53DC
:060D3A00C012858112E5E4
:0C0D40001224FBFA900050E4F0A3F0A392
:0C0D4C00F0E51224FBF8900053E6F008DC
:0D0D5800A3E6F008A3E6F0900056EAF09044
:0A0D65000CEE120E53AA82AB83D0ED
:020D6F0012224E
:0C0D7100E58290004CF090004CE0FA90FD
:0E0D7D000042E0C0E0A3E0C0E0A3E0C0E074EC
:080D8B009FC0E0740DC0E09070
:0C0D93000040E0C0E0A3E0C0E08A822243
:0E0D9F0015811581158190004AE0FAA3E0FB52
:0C0DAD0090004A74012AF0E43BA3F022FD
:0E0DB900E58290004DF090004DE0FA74302A73
:0C0DC700FA24C6500A74072AFA30000310
:030DD300430220B8
:050DD6008A82020D718C
:0E0DDB00E58290004EF090004EE0FAC4540FF6
:0E0DE900FBF582C002120DB9D00253020F8A30
:040DF70082020DB9AE
:0E0DFB00E58290004FF0900045E0FAA3E0FB87
:0E0E0900A3E0FCA3E0FD900049E0FE90004F46
:040E1700E0FF782060
:0E0E1B00EE2EFEED235401F94206EA2AFAEB10
:0E0E290033FBEC33FCED33FDC3EE9F4007EED0
:060E3700C39FFE4302010F
:0E0E3D00D8DC900045EAF0A3EBF0A3ECF0A3A4
:080E4B00EDF0900049EEF022E9
:0E0E5300AA83E582900057F0A3EAF0900057C2
:0E0E6100E0FAA3E0FB900040EAF0A3EBF09073
:0E0E6F000050E0FAA3E0FBA3E0FC900042EA92
:0E0E7D00F0A3EBF0A3ECF090004AE4F0A3F039
:0E0E8B00900053E0FAA3E0FBA3E0FC8A828B08
:0E0E9900838CF01215D9FD90005374012AF0DD
:0D0EA700E43BA3F0A3ECF0ED700302157A1C
:050EB400BD25028003D2
:030EB900021572AD
:050EBC00C201C202C2E8
:040EC10003C204C2A2
:040EC50005C206C29A
:040EC90007C20890C4
:090ECD000059E4F090005AF09085
:0E0ED600005B74FFF0900053E0FAA3E0FBA372
:020EE400E0FC30
:0E0EE6008A828B838CF01215D9FEA3AA82ABF0
:0D0EF40083900053EAF0A3EBF0A3ECF09024
:0D0F0100005DEEF0BE25088E82120D71021B
:020F0E000E8B48
:050F10008E07BF300058
:0E0F150040498E07EF24C6404290005BE0FF8B
:0E0F2300BFFF29C002C003C00490005AE0FACC
:0E0F310075F00AA4FAEE24D090005A2AF0902F
:0D0F3F00005AE0FAD004D003D002709BD21B
:030F4C0002809789
:0E0F4F00EF75F00AA4FFEE24D090005B2FF0A7
:030F5D00020EE69B
:0E0F600090005DE0FEBE2E0890005BE4F00203
:020F6E000EE68D
:0E0F70008E82C002C003C004C006120CB4E59D
:0C0F7E008224FF9200D006D004D003D0E3
:0B0F8A000230000790005D74DF5EF095
:0A0F950090005DE0FEBE20028055D2
:050F9F00BE2B02804B97
:050FA400BE2D0280419A
:050FA900BE4202804B76
:050FAE00BE430280506B
:060FB300BE44030211E739
:060FB900BE46030212090E
:060FBF00BE49030211E728
:050FC500BE4C02803467
:060FCA00BE4F030211F10D
:060FD000BE5003021149AE
:050FD600BE5302804241
:060FDB00BE55030211F9EE
:060FE100BE5803021201DC
:030FE70002120DE6
:050FEA00D201020EE639
:050FEF00D203020EE632
:050FF400D204020EE62C
:050FF900D206020EE625
:050FFE00D207020EE61F
:0E100300900056E0FA24FEF8900056F08602A7
:0C101100088603188A82120D7102121961
:0E101D00900056E0FA24FDF8900056F086028E
:0E102B000886030886041818900045EAF0A312
:0E103900EBF0A3ECF0900045E0FAA3E0FBA37F
:0E104700E0FC8A828B838CF0121586AA82ABA5
:0E1055008390005BE0FBBBFF0590005BEAF0C0
:0C10630020013890005AE0FBC3EA9B50CB
:0D106F002E90005AEBC39AF090005AE0FB5F
:0D107C008B041B90005AEBF0BC00028010AA
:0E108900758220C002C003120D71D003D00288
:0210970080E3F4
:0510990090005AEBF08D
:05109E0090005BE0FD85
:0E10A300C002900045E0FCA3E0FFA3E0FA8C41
:0E10B100828F838AF01215D9D00260538D040D
:0E10BF001DC374808CF063F08095F05044C027
:0A10CD0002900045E0F50DA3E0F5E8
:0810D7000EA3E0F50F740125E2
:0710DF000DFBE4350EFAAC35
:0C10E6000F900045EBF0A3EAF0A3ECF043
:0710F200850D82850E838548
:0C10F9000FF01215D9FAF582C002C005F4
:0B110500120D71D005D002D0028093C3
:0611100020010302121988
:0D11160090005AE0FBC3EA9B40030212194F
:0C11230090005AEBC39AF090005AE0FADA
:0E112F008A031A90005AEAF0BB000302121461
:0C113D00758220C002120D71D00280E605
:0E114900900056E0FB24FDF8900056F086035F
:0E1157000886040886071818900045EBF0A3E0
:0E116500ECF0A3EFF0900047E0FB247F500871
:0811730090005D7443F0802040
:0D117B00EB249F500890005D7450F080132D
:0D118800EB24BF500890005D7449F0800614
:0611950090005D7458F0AB
:0E119B0090005DE0FBF582C003120D71D003E1
:0E11A90075823AC003120D71D003758230C0FA
:0E11B70003120D71D003758278C003120D7102
:0711C500D003BB4902800FBB
:0511CC00BB5002800A87
:0A11D100900046E0FBF582120DDBF2
:0C11DB00900045E0FBF582120DDB803235
:0A11E700D205900059740AF0802828
:0811F1009000597408F0802001
:0811F900900059740AF08018FF
:081201009000597410F08010F8
:04120900D208800C7B
:07120D008E82120D718005B5
:0512140090005AEAF011
:0C12190030086B900056E0FA24FCF890BE
:0E1225000056F0860208860308860408860636
:0E123300181818900045EAF0A3EBF0A3ECF0B9
:0B124100A3EEF090004574B6F0A3741B
:06124C0019F0A37480F00C
:0E125200900045E0FBA3E0FCA3E0FD74012B3F
:0E126000FEE43CFF8D02900045EEF0A3EFF09F
:0E126E00A3EAF08B828C838DF01215D9FA70F2
:04127C0003020E8BD0
:071280008A82120D7180CB80
:0B128700900059E0FABA0003020E8B41
:081292009000647463F0A37482
:06129A0000F030064C904C
:0E12A0000056E0FA14F8900056F08602EA3389
:0E12AE0095E0FBFCFE900045EAF0A3EBF0A3F8
:0B12BC00ECF0A3EEF03005030213611C
:0E12C700900045E0FAA3E0FBA3E0FCA3E0FEEC
:0E12D5007B007C007E00900045EAF0A3EBF069
:0812E300A3ECF0A3EEF080760D
:0C12EB0030072A900056E0FA24FCF8902E
:0E12F7000056F0860208860308860408860664
:0E130500181818900045EAF0A3EBF0A3ECF0E6
:05131300A3EEF080498B
:0E131800900056E0FA24FEF8900056F086028F
:0E13260008860318EB3395E0FCFE900045EAC4
:0C133400F0A3EBF0A3ECF0A3EEF020051A
:0E13400020900045E0FAA3E0FBA3E0FCA3E050
:0E134E00FE7C007E00900045EAF0A3EBF0A3C9
:05135C00ECF0A3EEF02F
:0C13610030053E900045E0FAA3E0FBA33D
:0E136D00E0FCA3E0FE30E72B900045E0FAA381
:0E137B00E0FBA3E0FCA3E0FEC3E49AFAE49BCF
:0E138900FBE49CFCE49EFE900045EAF0A3EB22
:09139700F0A3ECF0A3EEF08002DB
:0213A000C20584
:0813A200D209900059E0FC752E
:0313AA0010637558
:0413AD0011007D00AE
:0E13B100900049E4F08C82C004C005120DFBD0
:0C13BF00D005D004200932C00490004981
:0A13CB00E0FFC4FF85108285118346
:0A13D500E0FA4207851082851183BB
:0A13DF00EFF0151074FFB5100215B1
:0113E90011F2
:0813EA00900064E510F0A3E59A
:0613F20011F0D004800C94
:0913F800900049E0FF8510828598
:031401001183F064
:091404000D90005CEDF0B20990BE
:0E140D000045E0FFA3E0FAA3E0FEA3E0FBEF42
:0C141B004A4E4B7091900064E510F0A365
:09142700E511F090005CEDF0907D
:0C143000005AE0FA700690005A7401F0B7
:0A143C0020022720012474012DFA7C
:0514460090005AE0FBDC
:0D144B00C3EA9B5011758220C002C003123D
:091458000D71D003D0021B80EAE3
:0514610090005AEBF0C1
:0A14660030051275822D120D7190F1
:0B147000005AE0FA1490005AF0802FA0
:0C147B0090005CE0FA60283003127582DB
:0B1487002B120D7190005AE0FA149037
:05149200005AF0801378
:0A149700300410758220120D7190D0
:0914A100005AE0FA1490005AF020
:0914AA0020012F90005CE0FA9093
:0414B300005AE0FB00
:0E14B7008B041B90005AEBF0C3EA9C503630B9
:0614C50002047C308002ED
:0214CB007C2083
:0E14CD008C82C002C003120D71D003D00280C9
:0114DB00DB35
:0E14DC0090005AE0FA90005CE0FCC39A5009C0
:0914EA0090005AEAC39CF0800C4A
:0714F30090005AE4F08005AF
:0514FA0090005AEBF028
:0D14FF00900064E0FAA3E0FB90005CE0FCCC
:0A150C008C061CEE6040B2092009B5
:06151600150ABA00010BEA
:0E151C008A828B83E0FEC4540FFE900049F0DB
:02152A00800E31
:0E152C008A828B83E0FE53060F900049EEF09A
:0E153A00900049E0FEF582C002C003C004121A
:0A1548000DB9D004D003D00280BA20
:06155200200103020E8BD4
:0515580090005AE0FACA
:09155D008A031AEB7003020E8BE5
:0C156600758220C002120D71D00280EBD3
:081572008D82120D71020E8B37
:0C157A0090004AE0FAA3E08A82F5832288
:0B19B6003C4E4F20464C4F41543E0079
:0E158600AAF0AB83E582900066F0A3EBF0A321
:0E159400EAF07A007B00900066E0FCA3E0FD28
:0315A200A3E0FEC5
:0E15A5008C828D838EF01215D9FFA3AC82AD1F
:0E15B30083900066ECF0A3EDF0A3EEF0EF6085
:0815C100070ABA00DF0B80DC11
:0E15C900900066ECF0A3EDF0A3EEF08A828BAA
:0215D70083226D
:03000300758121E3
:0A0006001203D7E58260030203D263
:0E15D90020F71430F6148883A88220F507E668
:0615E700A88375830022B9
:0315ED00E280F7A2
:0315F000E493225F
:0215F300E022F4
:00000001FF
