:10005F00E582900001F090000274A0F0900000E0A3
:10006F00FA600690000274A1F0900001E0FA24F803
:10007F00501E8A037C00C003C00474BBC0E0741719
:10008F00C0E07480C0E0120F00E58124FBF58122EF
:10009F00EA2AFA900002E0FB4AF012014E900002A9
:1000AF00E0FAF58202017EE582900005F0900004EF
:1000BF00E0FA900000E4F08A8212005F900003E003
:1000CF00FAF58212017E900005E0FAF58212017EA8
:1000DF0002015DE582900007F0900006E0FA9000C3
:1000EF0000E4F08A82C00212005FD002900007E0A5
:1000FF00FBF582C00212017ED002C002120153D062
:10010F00029000007401F08A8212005F1201C9AAE6
:10011F0082C002120173D002C00212015DD0028AA6
:05012F008222020149DB
:1017BB000D0A496E76616C696420626C6F636B20F5
:0A17CB006E756D62657220256400E2
:100134007A6FEA60031A80FA22120134D2912212F1
:100144000134C29122D29002013DC290020143D2F5
:100154009012013DC290020143120143C290120168
:100164003DD29022C29012013D120143D29022D27C
:100174009012013D120143D29022E582900008F0D2
:100184007A00BA0800502A900008E0FB20E704C275
:10019400908002D290C00212013DD002C00212012E
:1001A40043D002900008E025E0FB900008F00A80AC
:1001B400D1D29012013DE4A29033FAC0021201435D
:1001C400D0028A8222900009E4F07A00BA08005032
:1001D4002CC00212013DD002309008900009E0FBCF
:1001E4004401F0BA0700500B900009E025E0FB90B1
:1001F4000009F0C002120143D0020A80CF90000926
:10020400E0F58222E58290000AF0C294C29590172C
:10021400D5E493FA740193FB90000AE0FC8A828B84
:1002240083F022E58290000BF0C294D2959017D50A
:10023400E493FA740193FB90000BE0FC8A828B83B5
:10024400F022E58290000CF090000CE0FA74F05A71
:10025400FBC4540F25E0FB90181793CBA393FC8B9E
:1002640082C002120303D00253020FEA2AFA901842
:100274001793CAA393FB8A82020303D294C2959074
:1002840017D5E493FA740193FB8A828B83E0FA20F6
:10029400E7ED2212027F758201020208E5829000D6
:1002A4000DF090000DE0FA247F500122C0021202EA
:1002B4007FD002C294C2959017D5E493FB74019346
:1002C400FC4302808B828C83EAF022E58290000F4B
:1002D400F090000FE0FA24FC400990000EE0FB24AB
:1002E400F0500122EAC454F024D7FAE43417FCEBAA
:1002F4002AF582E43CF583E493FAF5820202A0E550
:1003040082900010F012027F900010E0FAF5820251
:100314000227AAF0AB83E582900011F0A3EBF0A3CF
:10032400EAF0900011E0FAA3E0FBA3E0FC8A828BE0
:10033400838CF012179FFD7001228D82C002C003CE
:10034400C004120303D004D003D0020ABA00010B84
:10035400900011EAF0A3EBF0A3ECF0C002C003C0DC
:100364000412027FD004D003D002D294C295901715
:10037400D5E493FD740193FE8D828E83E0FD5305D5
:100384007FBD1002800FBD24028034BD5002801A4C
:10039400BD649A803F758240C002C003C00412024B
:1003A400A0D004D003D002020331758210C002C071
:1003B40003C0041202A0D004D003D002020331759A
:1003C4008250C002C003C0041202A0D004D003D0E3
:1003D400020203312212027F7582381202081202CD
:1003E4007F75820F02020812027F758201120208D1
:1003F40012027F90000EE4F07582001202CF901872
:070404003775F080020316BA
:1017D50000E0000102030405060708090A0B0C0DC9
:1017E5000E0F404142434445464748494A4B4C4DFC
:1017F5004E4F101112131415161718191A1B1C1D0C
:101805001E1F505152535455565758595A5B5C5DDB
:101815005E5F3000310032003300340035003600A1
:1018250037003800390041004200430044004500BC
:1018350046006162636465666768696A6B6C6E6FB2
:10184500707172737475767778797A31323334358D
:10185500363738396162636465666768696A6B6CD7
:101865006D6E6F707172737475767778797A3132BF
:101875003334353637383938373635343332310045
:03000000020003F8
:03005C0002040B90
:10040B0012089980FE438E0C900000227485C0E088
:10041B007418C0E07480C0E0120F001581158115AF
:10042B00817497C0E07418C0E07480C0E0120F00B4
:10043B001581158115817485C0E07418C0E0748036
:10044B00C0E0120F0015811581158174A4C0E074F2
:10045B0018C0E07480C0E0120F0015811581158162
:10046B0074C2C0E07418C0E07480C0E0120F0015B5
:10047B00811581158174E8C0E07418C0E07480C0E8
:10048B00E0120F00158115811581740FC0E07419EE
:10049B00C0E07480C0E0120F0015811581158174C6
:1004AB0039C0E07419C0E07480C0E0120F001581F0
:1004BB0015811581745EC0E07419C0E07480C0E0D2
:1004CB00120F001581158115817485C0E07419C058
:1004DB00E07480C0E0120F0015811581158174AF97
:1004EB00C0E07419C0E07480C0E0120F00158115D4
:1004FB0081158122E582900014F0900014E0FABA85
:10050B00430302087DBA440122BA470122BA4803C9
:10051B00020896BA4C03020737BA5203020651BAC5
:10052B00570280012274DBC0E07419C0E07480C0F4
:10053B00E0120F0015811581158174F2C0E074195A
:10054B00C0E07480C0E0120F0015811581158190F9
:10055B0000011208E5E5828583F0900015F0A3E514
:10056B00F0F0900015E0FAA3E0FBC374079A7480D7
:10057B008BF063F08095F0502A741CC0E0741AC0A5
:10058B00E07480C0E0120F00158115811581900079
:10059B00011208E5E5828583F0900015F0A3E5F0E4
:1005AB00F080BFC002C003744FC0E0741AC0E07487
:1005BB0080C0E0120F00158115811581D003D00288
:1005CB00C002C003120A0AAC82D003D002C002C020
:1005DB0003C0047476C0E0741AC0E07480C0E012EB
:1005EB000F00158115811581D004D003D002C002F4
:1005FB00C003C004120A0AAD82D004D003D0028A11
:10060B0006900003ECF0900004EEF08D82C002C067
:10061B0003C004C0051200B6D005D004D003D0022D
:10062B007E007F00C004C006C002C003C005C00727
:10063B0074A1C0E0741AC0E07480C0E0120F00E532
:10064B008124F7F5812274D2C0E0741AC0E0748063
:10065B00C0E0120F0015811581158174F2C0E07492
:10066B0019C0E07480C0E0120F001581158115814F
:10067B009000011208E5E5828583F0900015F0A348
:10068B00E5F0F0900015E0FAA3E0FBC374079A7451
:10069B00808BF063F08095F0502A741CC0E0741AC4
:1006AB00C0E07480C0E0120F001581158115819098
:1006BB0000011208E5E5828583F0900015F0A3E5B3
:1006CB00F0F080BFC002C003744FC0E0741AC0E0EA
:1006DB007480C0E0120F00158115811581D003D0F5
:1006EB0002C002C003120A0AAC82D003D0029000EF
:1006FB0006EAF08C82C002C003C0041200E2AD8295
:10070B00D004D003D0027E007F00C004C006C0021C
:10071B00C003C005C00774EBC0E0741AC0E074805E
:10072B00C0E0120F00E58124F7F5812274F2C0E0DE
:10073B007419C0E07480C0E0120F0015811581158B
:10074B00819000011208E5E5828583F0900015F099
:10075B00A3E5F0F0900015E0FAA3E0FBC374079A51
:10076B0074808BF063F08095F0502A741CC0E07499
:10077B001AC0E07480C0E0120F001581158115813D
:10078B009000011208E5E5828583F0900015F0A337
:10079B00E5F0F080BFC002C003744FC0E0741AC014
:1007AB00E07480C0E0120F00158115811581D00314
:1007BB00D002C002C003120A0AAC82D003D002904E
:1007CB000006EAF08C82C002C003C0041200E2AD46
:1007DB0082D004D003D002C002C003C004C0057491
:1007EB0012C0E0741BC0E07480C0E0120F001581D2
:1007FB0015811581D005D004D003D002900001C023
:10080B0002C003C004C0051208E5AE82AF83D00559
:10081B00D004D003D00290000EE4F08E82C002C050
:10082B0003C004C0051202CFD005D004D003D00200
:10083B0074302AFAF582C004C005120303D005D028
:10084B00048C82C005120246D005901B2C75F080DB
:10085B00C005120316D0058D82120246742FC0E01C
:10086B00741BC0E07480C0E0120F00158115811558
:10087B0081221202977441C0E0741BC0E07480C0E7
:10088B00E0120F0015811581158122020417120C3D
:10089B00E01201311203D9D2931204171208DBAA0A
:1008AB0082BA0D0A75820AC0021208C9D0028A8266
:0E08BB00C0021208C9D0028A821204FF80DE39
:101885000D0A2A2A2A2A2A2A2A2A2A2A2A2A2A2AF0
:101895002A000D0A202020204D656E750D0A000DC9
:1018A5000A50726573732027482720746F20736868
:1018B5006F772074686973206D656E75000D0A5029
:1018C500726573732027572720746F2077726974A8
:1018D500652061206279746520746F2045455052FA
:1018E5004F4D000D0A5072657373202752272074DF
:1018F5006F2072656164206120627974652066726B
:101905006F6D20454550524F4D000D0A507265735D
:101915007320274C2720746F20646973706C61797C
:1019250020454550524F4D2064617461206F6E20F3
:101935004C4344000D0A50726573732027432720DA
:10194500746F20636C65617220746865204C434434
:1019550020646973706C6179000D0A507265737348
:101965002027442720746F20646F20612048657804
:101975002044756D70206F6620454550524F4D00CF
:101985000D0A50726573732027592720746F2072D2
:101995006561642074686520636F6E74656E747329
:1019A500206F6620444452414D000D0A5072657304
:1019B500732027472720746F20726561642074683F
:1019C5006520636F6E74656E7473206F6620434780
:1019D50052414D0D0A000D0A57726974696E6720F0
:1019E500746F20454550524F4D2E2E2E000D0A4541
:1019F5006E74657220616E20454550524F4D2062D0
:101A05006C6F636B206E756D6265722066726F6DAB
:101A150020302D373A20000D0A494E56414C494495
:101A25003A20456E74657220616E20454550524FCF
:101A35004D20626C6F636B206E756D6265722066FA
:101A4500726F6D20302D373A20000D0A456E746592
:101A55007220616E20454550524F4D20576F72647C
:101A6500206164647265737320696E206865783AD5
:101A7500000D0A456E7465722061206279746520D7
:101A85006F66206461746120746F20777269746574
:101A950020746F20454550524F4D3A000D0A57723C
:101AA5006F746520255820746F20626C6F636B20FE
:101AB500256420616464726573732030782558202D
:101AC500696E20454550524F4D210D0A000D0A52B1
:101AD500656164696E672066726F6D204545505279
:101AE5004F4D2E2E2E000D0A52656164202558207B
:101AF50066726F6D20626C6F636B20256420616474
:101B0500647265737320307825580D0A000D0A45F7
:101B15006E746572204C434420726F772066726F35
:101B25006D20302D333A003A20000D0A57726F743C
:101B35006520746F204C4344210D0A000D0A4C4367
:101B45004420446973706C617920436C65617265EA
:051B550064210D0A00EF
:1008C900E582900017F03099FD900017E0F599C284
:1008D900992210980280FBAA998A8222AA83E5822A
:1008E900900018F0A3EAF0900025E4F0A3F090003E
:1008F90018E0FAA3E0FBC3740A9A74808BF063F0E2
:100909008095F05019745AC0E0741BC0E07480C01F
:10091900E0120F0015811581158190FFFF229000CB
:1009290025E0FCA3E0FDC3EC9AED64808BF063F055
:100939008095F040030209EDC002C003C004C00560
:100949001208DBAE82D005D004D003D0028E82C05B
:1009590002C003C004C005C0061208C9D006D005EC
:10096900D004D003D002BE0D030209EDBE0812EC7B
:1009790024FFFFED34FFF8900025EFF0A3E8F080A5
:100989009DBE71028003BE510490FFFE228E82C07B
:1009990002C003C004C005C006120CF1E582D006EE
:1009A900D005D004D003D002601AEC241AF582EDE8
:1009B9003400F583EEF090002574012CF0E43DA39A
:1009C900F0020927C002C003748CC0E0741BC0E0A8
:1009D9007480C0E0120F00158115811581D003D0F4
:1009E90002020927900025E0FAA3E0FBEA241AF5A0
:1009F90082EB3400F583E4F090001A75F000020DE3
:100A09000E90002AE4F0A3F090002DE4F090002A63
:100A1900E0FAA3E0FBC3EA9402EB6480948040030C
:100A2900020B58C002C0031208DBAC82D003D0020B
:100A39008C82C002C003C0041208C9D004D003D0FC
:100A490002BC0D2CEA4B700C900028E4F0900029B0
:100A5900F0020B58BA0105BB00028003020B589043
:100A69000028E0FD900029F0900028E4F0020B58DE
:100A7900BC0813EA24FFFDEB34FFFE90002AEDF0D9
:100A8900A3EEF0020A168C82C002C003C004120C45
:100A9900F1E582D004D003D002601AEA2428F58255
:100AA900EB3400F583ECF090002A74012AF0E43B62
:100AB900A3F0020A168C82C004120E97E582D004B4
:100AC900700D8C82C004120E7AE582D0046068C36E
:100AD900EC648094C1400B74C68CF063F08095F08F
:100AE9005013C3EC648094E1404D74E68CF063F0DC
:100AF9008095F0404290002AE0FAA3E0FBEA24281E
:100B0900FAEB3400FB8C82C002C003C004120E7AD7
:100B1900E582D004D003D002600674DF5CFD800258
:100B29008C058A828B83EDF090002AE02401F0A3E2
:100B3900E03400F0020A1674B6C0E0741BC0E07419
:100B490080C0E0120F00158115811581020A1690E7
:100B5900002CE4F07A007B00C3EA9402EB648094F1
:100B6900804003020C1CEA2428F582EB3400F5834B
:100B7900E0FC900027F08C82C002C003C004120C74
:100B8900F1E582D004D003D0026009EC24D09000B2
:100B99002DF0803AC3EC648094E1401474E68CF043
:100BA90063F08095F0400990002D74A92CF0801E07
:100BB900900027E0FCC3648094C1401274C68CF095
:100BC90063F08095F0400790002D74C92CF07401F2
:100BD900C39AFCE49BFDCC25E0CC33CC25E0CC3397
:100BE900FD90002DE0FE8CF005F0AC067D0080063E
:100BF900EC2CFCED33FDD5F0F790002CE0FE7F00E6
:100C0900EC2EFCED3FFD90002CECF00ABA00010B34
:100C1900020B6190002CE0F58222AAF0AB83E582F9
:100C2900900030F0A3EBF0A3EAF01208DBAA82905F
:100C39000033EAF08A821208C990002EE0FAA3E094
:100C4900FB900030E0F508A3E0F509A3E0F50A7F81
:100C5900007800900033E0F9B90D02805DC3EF9A86
:100C6900E864808BF063F08095F0504EC002C003B9
:100C7900EF2508FAE83509FBAC0A8A828B838CF0E8
:100C8900E9120E41C003C007C0001208DBAA82D0D6
:100C990000D007D003900033EAF08A82C002C00373
:100CA900C007C0001208C9D000D007D003D0020F76
:100CB900BF000108D003D0028099900030E0FAA368
:100CC900E0FBA3E0FCEF2AFFE83BF88C058F828864
:100CD900838DF0E4020E41759850758920758DFD5C
:080CE900758BFDD28ED2992219
:101B5A0053657269616C5F676574496E7465676520
:101B6A007228293A204572726F722E204D61785F71
:101B7A004C656E67746820746F6F206C617267655C
:101B8A002E000D0A496E76616C6964206368617281
:101B9A0061637465722E20456E746572206F6E6C77
:101BAA0079206469676974732E0D0A000D0A496EFB
:101BBA0076616C6964206368617261637465722E10
:101BCA0020456E746572206F6E6C79206865782086
:0E1BDA00636861726163746572732E0D0A0098
:06003200E478FFF6D8FDA2
:100CF100E582900034F0900034E0FABA3000400907
:100D0100EA24C640047582012275820022AAF0AB52
:100D110083E582900035F0A3EBF0A3EAF07A007B43
:100D210000900035E0FCA3E0FDA3E0FE8C828D8302
:100D31008EF012179FFF6039C374B98FF063F08092
:100D410095F04007EF648094B050268C828D838E9D
:100D5100F012179FFFBF2D028017BF2B0280120CCC
:100D6100BC00010D900035ECF0A3EDF0A3EEF08096
:100D7100BB900035ECF0A3EDF0A3EEF08C828D83F7
:100D81008EF012179FFFE4BF2D0104F88801700354
:100D9100BF2B0E90003574012CF0E43DA3F0A3EEBF
:100DA100F0900035E0FCA3E0FDA3E0FE8C828D8392
:100DB1008EF012179FFF6068C3EF648094B04060AB
:100DC10074B98FF063F08095F04055C001900039FF
:100DD100740AF0E4A3F08A828B83C004C005C006C4
:100DE100C007C001120E5A85820B85830CD001D039
:100DF10007D006D005D004EF3395E0F8EF24D0FFFB
:100E0100E834FFF8EF250BFAE8350CFB0CBC0001C8
:100E11000D900035ECF0A3EDF0A3EEF0D001808C45
:100E2100900035ECF0A3EDF0A3EEF0E96009C3E426
:100E31009AFCE49BFD80048A048B058C828D8322BD
:100010007900E94400601B7A00901BF3786A75A0B0
:1000200000E493F2A308B8000205A0D9F4DAF2754F
:02003000A0FF2F
:100E410020F71030F6118883A88220F507F6A883D1
:100E510075830022F280F7F022AA83AB828BF09097
:100E61000039E0A4F8A9F08AF0E0A429F98BF0A3F5
:090E7100E0A429F5838882222205
:100038007800E84400600A790075A000E4F309D864
:10004800FC786AE84400600C7901900000E4F0A3B1
:04005800D8FCD9FAFD
:100E7A00E58290003BF090003BE0FABA610040093D
:100E8A00EA248540047582012275820022E5829057
:100E9A00003CF090003CE0FABA41004009EA24A57F
:100EAA0040047582012275820022C012858112AA2D
:100EBA00821208C9D01222AAF0AB83E58290003EC2
:100ECA00F0A3EBF0A3EAF090003EE0FAA3E0FBA364
:100EDA00E0FC90003DE0FD900051E4F0A3F0A3F0A7
:100EEA00900054EAF0A3EBF0A3ECF0900057EDF079
:100EFA00900EB4021019C012858112E51224FBFA71
:100F0A00900051E4F0A3F0A3F0E51224FBF890005E
:100F1A0054E6F008A3E6F008A3E6F0900057EAF0DA
:100F2A00900EB4121019AA82AB83D01222E58290D5
:100F3A00004DF090004DE0FA900043E0C0E0A3E0DD
:100F4A00C0E0A3E0C0E07465C0E0740FC0E09000A8
:100F5A0041E0C0E0A3E0C0E08A8222158115811534
:100F6A008190004BE0FAA3E0FB90004B74012AF059
:100F7A00E43BA3F022E58290004EF090004EE0FAA6
:100F8A0074302AFA24C6500A74072AFA3000034336
:100F9A0002208A82020F37E58290004FF090004FBC
:100FAA00E0FAC4540FFBF582C002120F7FD002533D
:100FBA00020F8A82020F7FE582900050F09000466D
:100FCA00E0FAA3E0FBA3E0FCA3E0FD90004AE0FE08
:100FDA00900050E0FF7820EE2EFEED235401F942F6
:100FEA0006EA2AFAEB33FBEC33FCED33FDC3EE9F42
:100FFA004007EEC39FFE430201D8DC900046EAF0A8
:10100A00A3EBF0A3ECF0A3EDF090004AEEF022AAD5
:10101A0083E582900058F0A3EAF0900058E0FAA322
:10102A00E0FB900041EAF0A3EBF0900051E0FAA354
:10103A00E0FBA3E0FC900043EAF0A3EBF0A3ECF0A2
:10104A0090004BE4F0A3F0900054E0FAA3E0FBA375
:10105A00E0FC8A828B838CF012179FFD90005474F7
:10106A00012AF0E43BA3F0A3ECF0ED700302174071
:10107A00BD25028003021738C201C202C203C2049C
:10108A00C205C206C207C20890005AE4F090005B8B
:10109A00F090005C74FFF0900054E0FAA3E0FBA328
:1010AA00E0FC8A828B838CF012179FFEA3AA82AB84
:1010BA0083900054EAF0A3EBF0A3ECF090005EEE0C
:1010CA00F0BE25088E82120F370210518E07BF30EC
:1010DA000040498E07EF24C6404290005CE0FFBF03
:1010EA00FF29C002C003C00490005BE0FA75F00A51
:1010FA00A4FAEE24D090005B2AF090005BE0FAD0CC
:10110A0004D003D002709BD2028097EF75F00AA434
:10111A00FFEE24D090005C2FF00210AC90005EE04D
:10112A00FEBE2E0890005CE4F00210AC8E82C00273
:10113A00C003C004C006120E7AE58224FF9200D0D2
:10114A0006D004D003D00230000790005E74DF5E40
:10115A00F090005EE0FEBE20028055BE2B02804B5E
:10116A00BE2D028041BE4202804BBE43028050BE69
:10117A0044030213ADBE46030213CFBE4903021352
:10118A00ADBE4C028034BE4F030213B7BE500302F9
:10119A00130FBE53028042BE55030213BFBE58034B
:1011AA000213C70213D3D2010210ACD2030210AC4D
:1011BA00D2040210ACD2060210ACD2070210AC90D4
:1011CA000057E0FA24FEF8900057F08602088603DA
:1011DA00188A82120F370213DF900057E0FA24FDB3
:1011EA00F8900057F08602088603088604181890BB
:1011FA000046EAF0A3EBF0A3ECF0900046E0FAA375
:10120A00E0FBA3E0FC8A828B838CF012174CAA8243
:10121A00AB8390005CE0FBBBFF0590005CEAF0202A
:10122A00013890005BE0FBC3EA9B502E90005BEB19
:10123A00C39AF090005BE0FB8B041B90005BEBF021
:10124A00BC00028010758220C002C003120F37D082
:10125A0003D00280E390005BEBF090005CE0FDC0FD
:10126A0002900046E0FCA3E0FFA3E0FA8C828F83A1
:10127A008AF012179FD00260538D041DC374808CAC
:10128A00F063F08095F05044C002900046E0F50DFE
:10129A00A3E0F50EA3E0F50F7401250DFBE4350E6E
:1012AA00FAAC0F900046EBF0A3EAF0A3ECF0850D40
:1012BA0082850E83850FF012179FFAF582C002C04D
:1012CA0005120F37D005D002D00280932001030205
:1012DA0013DF90005BE0FBC3EA9B40030213DF903D
:1012EA00005BEBC39AF090005BE0FA8A031A900065
:1012FA005BEAF0BB00030213DA758220C002120F08
:10130A0037D00280E6900057E0FB24FDF8900057A2
:10131A00F086030886040886071818900046EBF042
:10132A00A3ECF0A3EFF0900048E0FB247F50089074
:10133A00005E7443F08020EB249F500890005E7496
:10134A0050F08013EB24BF500890005E7449F0807F
:10135A000690005E7458F090005EE0FBF582C003D0
:10136A00120F37D00375823AC003120F37D00375B4
:10137A008230C003120F37D003758278C003120F70
:10138A0037D003BB4902800FBB5002800A90004746
:10139A00E0FBF582120FA1900046E0FBF582120FE6
:1013AA00A18032D20590005A740AF0802890005A1F
:1013BA007408F0802090005A740AF0801890005A3D
:1013CA007410F08010D208800C8E82120F378005BC
:1013DA0090005BEAF030086B900057E0FA24FCF8C2
:1013EA00900057F0860208860308860408860618C5
:1013FA001818900046EAF0A3EBF0A3ECF0A3EEF085
:10140A0090004674E8F0A3741BF0A37480F0900077
:10141A0046E0FBA3E0FCA3E0FD74012BFEE43CFFE5
:10142A008D02900046EEF0A3EFF0A3EAF08B828CD7
:10143A00838DF012179FFA70030210518A82120FDD
:10144A003780CB90005AE0FABA000302105190009C
:10145A00657464F0A37400F030064C900057E0FA0B
:10146A0014F8900057F08602EA3395E0FBFCFE90F0
:10147A000046EAF0A3EBF0A3ECF0A3EEF03005038C
:10148A00021527900046E0FAA3E0FBA3E0FCA3E0E4
:10149A00FE7B007C007E00900046EAF0A3EBF0A3FE
:1014AA00ECF0A3EEF0807630072A900057E0FA2499
:1014BA00FCF8900057F0860208860308860408861E
:1014CA0006181818900046EAF0A3EBF0A3ECF0A374
:1014DA00EEF08049900057E0FA24FEF8900057F0A9
:1014EA00860208860318EB3395E0FCFE900046EA74
:1014FA00F0A3EBF0A3ECF0A3EEF020052090004659
:10150A00E0FAA3E0FBA3E0FCA3E0FE7C007E0090EF
:10151A000046EAF0A3EBF0A3ECF0A3EEF030053EB0
:10152A00900046E0FAA3E0FBA3E0FCA3E0FE30E76C
:10153A002B900046E0FAA3E0FBA3E0FCA3E0FEC385
:10154A00E49AFAE49BFBE49CFCE49EFE900046EAE3
:10155A00F0A3EBF0A3ECF0A3EEF08002C205D209EF
:10156A0090005AE0FC7510647511007D0090004AE5
:10157A00E4F08C82C004C005120FC1D005D004204B
:10158A000932C00490004AE0FFC4FF851082851129
:10159A0083E0FA4207851082851183EFF0151074F3
:1015AA00FFB510021511900065E510F0A3E511F0E2
:1015BA00D004800C90004AE0FF851082851183F0E8
:1015CA000D90005DEDF0B209900046E0FFA3E0FA4D
:1015DA00A3E0FEA3E0FBEF4A4E4B7091900065E555
:1015EA0010F0A3E511F090005DEDF090005BE0FAD9
:1015FA00700690005B7401F0200227200124740118
:10160A002DFA90005BE0FBC3EA9B5011758220C063
:10161A0002C003120F37D003D0021B80EA90005B8E
:10162A00EBF030051275822D120F3790005BE0FA4D
:10163A001490005BF0802F90005DE0FA6028300380
:10164A001275822B120F3790005BE0FA1490005B40
:10165A00F08013300410758220120F3790005BE07F
:10166A00FA1490005BF020012F90005DE0FA9000E0
:10167A005BE0FB8B041B90005BEBF0C3EA9C5036EB
:10168A003002047C3080027C208C82C002C00312AB
:10169A000F37D003D00280DB90005BE0FA90005D48
:1016AA00E0FCC39A500990005BEAC39CF0800C905E
:1016BA00005BE4F0800590005BEBF0900065E0FAD7
:1016CA00A3E0FB90005DE0FC8C061CEE6040B209D2
:1016DA002009150ABA00010B8A828B83E0FEC454E2
:1016EA000FFE90004AF0800E8A828B83E0FE53063A
:1016FA000F90004AEEF090004AE0FEF582C002C068
:10170A0003C004120F7FD004D003D00280BA200194
:10171A000302105190005BE0FA8A031AEB7003028D
:10172A001051758220C002120F37D00280EB8D82D1
:10173A00120F3702105190004BE0FAA3E08A82F5AB
:02174A008322F8
:0B1BE8003C4E4F20464C4F41543E0045
:10174C00AAF0AB83E582900067F0A3EBF0A3EAF07C
:10175C007A007B00900067E0FCA3E0FDA3E0FE8C28
:10176C00828D838EF012179FFFA3AC82AD83900005
:10177C0067ECF0A3EDF0A3EEF0EF60070ABA00DF20
:10178C000B80DC900067ECF0A3EDF0A3EEF08A8206
:03179C008B83221A
:0D000300758121120410E582600302040BD8
:10179F0020F71430F6148883A88220F507E6A88373
:0C17AF0075830022E280F7E49322E02220
:00000001FF
