:10005F00E582900001F090007A7403F0900001E0C7
:10006F00FA90007AE0FB6018900000E0FB60118AC4
:10007F0082C002120211E582D002900000F080E1EE
:10008F00900000E0FA601774BAC0E0741CC0E0740E
:10009F0080C0E01213FF15811581158180FE22E5C6
:1000AF0082900003F090000474A0F0900002E0FA38
:1000BF00600690000474A1F0900003E0FA24F85059
:1000CF001E8A037C00C003C0047400C0E0741DC00E
:1000DF00E07480C0E01213FFE58124FBF58122EA72
:1000EF002AFA900004E0FB4AF01201E1900004E0CC
:1000FF00FAF582C002120211AB82D002900000EB1F
:10010F00F08A8202005FE582900007F0900006E01F
:10011F00FA900002E4F08A821200AE900005E0FA35
:10012F00F582C002120211AB82D002900000EBF0F8
:10013F008A8212005F900007E0FAF582C002120275
:10014F0011AB82D002900000EBF08A8212005F02A6
:10015F0001F0E582900009F0900008E0FA900002AB
:10016F00E4F08A82C0021200AED002900009E0FBD8
:10017F00F582C002C003120211AC82D003D00290EC
:10018F000000ECF08B82C00212005FD002C002129E
:10019F0001E6D0029000027401F08A821200AE12C2
:1001AF00025CAA82C002120206D002C0021201F043
:0801BF00D0028A82220201DC59
:101CBA000D0A41636B206661696C65642033207488
:101CCA00696D65732E2053797374656D207265731F
:101CDA0065742072657175697265642E20456E742B
:101CEA006572696E6720696E66696E697465206CD3
:101CFA006F6F700D0A000D0A496E76616C69642077
:101D0A00626C6F636B206E756D626572202564006C
:0121F00000EE
:1001C7007A6FEA60031A80FA221201C7D2912212CB
:1001D70001C7C29122D2900201D0C2900201D6D2A9
:1001E700901201D0C2900201D61201D6C29012011C
:1001F700D0D29022C2901201D01201D6D29022D230
:10020700901201D01201D6D29022E58290000AF016
:100217007A00BA0800502A90000AE0FB20E704C2DF
:10022700908002D290C0021201D0D002C002120107
:10023700D6D00290000AE025E0FB90000AF00A8081
:10024700D1D2901201D0E4A29033FAC0021201D6A3
:10025700D0028A822290000BE4F07A00BA0800509C
:100267002CC0021201D0D00230900890000BE0FBA6
:100277004401F0BA0700500B90000BE025E0FB901B
:10028700000BF0C0021201D6D0020A80CF90000BFB
:10029700E0F58222E58290000CF0C294C295901D91
:1002A7001AE493FA740193FB90000CE0FC8A828BAA
:1002B70083F022E58290000DF0C294D295901D1A2A
:1002C700E493FA740193FB90000DE0FC8A828B8320
:1002D700F022E58290000EF012036490000EE0FA1F
:1002E70054C0F090000EE0FA4302408A8202029B5B
:1002F700E58290000FF012036490000FE0FA44804B
:10030700F090000FE0FAF58202029B120364D29488
:10031700D295901D1AE493FA740193FB8A828B831A
:10032700E0F58222E582900010F0900010E0FA7468
:10033700F05AFBC4540F25E0FB901D5C93CBA393AD
:10034700FC8B82C0021203E8D00253020FEA2AFA9A
:10035700901D5C93CAA393FB8A820203E8D294C2DE
:1003670095901D1AE493FA740193FB8A828B83E0BC
:10037700FA20E7ED2212036475820102029BE582EF
:10038700900011F0900011E0FA247F500122C00282
:10039700120364D002C294C295901D1AE493FB74B1
:1003A7000193FC4302808B828C83EAF022E58290E2
:1003B7000013F0900013E0FA24FC4009900012E0CB
:1003C700FB24F0500122EAC454F0241CFAE4341D43
:1003D700FCEB2AF582E43CF583E493FAF582020309
:1003E70085E582900014F0120364900014E0FAF59A
:1003F700820202BAAAF0AB83E582900015F0A3EB64
:10040700F0A3EAF0900015E0FAA3E0FBA3E0FC8A72
:10041700828B838CF0121C9EFD7001228D82C0029C
:10042700C003C0041203E8D004D003D0020ABA0004
:10043700010B900015EAF0A3EBF0A3ECF0C002C0AB
:1004470003C004120364D004D003D002D294C2952F
:10045700901D1AE493FD740193FE8D828E83E0FD57
:1004670053057FBD1002800FBD24028034BD5002AA
:10047700801ABD649A803F758240C002C003C004E1
:10048700120385D004D003D002020416758210C06F
:1004970002C003C004120385D004D003D0020204B3
:1004A70016758250C002C003C004120385D004D061
:1004B70003D0020204162212036475823812029BCB
:1004C70012036475820F02029B1203647582011284
:1004D700029B120364900012E4F07582001203B4C9
:0904E700901D7C75F0800203FBFE
:101D1A0000E0000102030405060708090A0B0C0D7E
:101D2A000E0F404142434445464748494A4B4C4DB1
:101D3A004E4F101112131415161718191A1B1C1DC1
:101D4A001E1F505152535455565758595A5B5C5D91
:101D5A005E5F300031003200330034003500360057
:101D6A003700380039004100420043004400450072
:101D7A0046006162636465666768696A6B6C6E6F68
:101D8A00707172737475767778797A313233343543
:101D9A00363738396162636465666768696A6B6C8D
:101DAA006D6E6F707172737475767778797A313275
:101DBA0033343536373839383736353433323100FB
:03000000020003F8
:03005C000204F0AB
:1004F000120D9880FE438E0C9000002274CAC0E05A
:10050000741DC0E07480C0E01213FF1581158115C1
:100510008174DCC0E0741DC0E07480C0E01213FF81
:1005200015811581158174CAC0E0741DC0E0748006
:10053000C0E01213FF15811581158174E9C0E074C4
:100540001DC0E07480C0E01213FF15811581158174
:100550007407C0E0741EC0E07480C0E01213FF1581
:100560008115811581742DC0E0741EC0E07480C0B7
:10057000E01213FF1581158115817454C0E0741EBB
:10058000C0E07480C0E01213FF15811581158174DD
:100590007EC0E0741EC0E07480C0E01213FF1581BD
:1005A0001581158174A3C0E0741EC0E07480C0E0A2
:1005B0001213FF15811581158174CAC0E0741EC025
:1005C000E07480C0E01213FF15811581158174F469
:1005D000C0E0741EC0E07480C0E01213FF158115E6
:1005E00081158122AAF0AB83E58290001BF0A3EB7A
:1005F000F0A3EAF07420C0E0741FC0E07480C0E093
:100600001213FF158115811581900018E0FAA3E0FF
:10061000FBA3E0FC900001C002C003C004120DE483
:10062000AD82AE83D004D003D0028A828B838CF05B
:10063000ED1213408A828B838CF0121C9EFD24F8ED
:100640005043C002C003C004744AC0E0741FC0E03D
:100650007480C0E01213FF158115811581D004D07C
:1006600003D002900001C002C003C004120DE4AD2B
:1006700082AE83D004D003D0028A828B838CF0EDCB
:1006800012134080AF747DC0E0741FC0E07480C05E
:10069000E01213FF15811581158190001BE0FAA36C
:1006A000E0FBA3E0FCC002C003C004120F09AD824E
:1006B000D004D003D0028A828B838CF0ED021340E9
:1006C000E58290001EF090001EE0FABA4303020893
:1006D000AABA44030208C3BA4703020CD0BA4803BB
:1006E000020D95BA4C03020803BA5203020790BAEE
:1006F00057028007BA5903020A962274A4C0E07414
:100700001FC0E07480C0E01213FF158115811581B0
:10071000900018741FF0A37400F0A37400F0900010
:100720002175F0001205E474BBC0E0741FC0E074D2
:1007300080C0E01213FF158115811581120F09AADF
:1007400082900021E0FB90001FE0FC900005EBF0A0
:10075000900006ECF08A82C002120115D0029000CF
:1007600021E0FB7C0090001FE0FD7E007F00C003C5
:10077000C004C005C006C002C00774E6C0E0741F14
:10078000C0E07480C0E01213FFE58124F7F58122F8
:100790007417C0E07420C0E07480C0E01213FF152D
:1007A0008115811581900018741FF0A37400F0A3C7
:1007B0007400F090002175F0001205E4900021E033
:1007C000FA90001FE0FB900008F08A82120161AAF3
:1007D00082900021E0FB7C0090001FE0FD7E007F06
:1007E00000C003C004C005C006C002C0077430C00A
:1007F000E07420C0E07480C0E01213FFE58124F7AC
:10080000F58122900018741FF0A37400F0A3740007
:10081000F090002175F0001205E4900021E0FA90BC
:10082000001FE0FB900008F08A82120161AA82C0DA
:10083000027457C0E07420C0E07480C0E01213FF5F
:10084000158115811581D002900001C002120DE4BE
:10085000AB82AC83D002900012E4F08B82C0021213
:1008600003B4D00290001FE02430FBF582C00212D6
:1008700003E8D002900021E0FBF582C00212032BB6
:10088000D00290207175F080C0021203FBD0028A62
:100890008212032B7474C0E07420C0E07480C0E046
:1008A0001213FF1581158115812212037C7486C0F5
:1008B000E07420C0E07480C0E01213FF1581158140
:1008C000158122749FC0E07420C0E07480C0E012E3
:1008D00013FF15811581158174C2C0E07420C0E03A
:1008E0007480C0E01213FF158115811581900018E6
:1008F000741FF0A37400F0A37400F090002175F051
:10090000001205E474E9C0E07420C0E07480C0E027
:100910001213FF1581158115819000187420F0A322
:100920007400F0A37400F090002275F0001205E44A
:1009300090001FE0FA8A037A00900021E0FC7D001D
:100940004202ED4203900023EAF0A3EBF090002076
:10095000E0FC8C057C00900022E0FE7F004204EF6A
:100960004205900025ECF0A3EDF0C3EC9AED9B500E
:1009700016740EC0E07421C0E07480C0E01213FF52
:1009800015811581158122744BC0E07421C0E0747B
:1009900080C0E01213FF158115811581900025E0BC
:1009A000FAA3E0FB8A048B05900023E0FEA3E0FF9E
:1009B000C3EC9EED9F500122C002C003C004C005DD
:1009C000C006C007C006C007744EC0E07421C0E076
:1009D0007480C0E01213FFE58124FBF581D007D0BD
:1009E00006D005D004D003D0027800B810005076AD
:1009F000C004C0058E017C00900008EFF08982C021
:100A000002C003C005C006C007C000120161AC826D
:100A1000D000D007D006D005D003D0027D00C002A0
:100A2000C003C004C005C006C007C000C004C005A4
:100A30007453C0E07421C0E07480C0E01213FFE57D
:100A40008124FBF581D000D007D006D005D004D09A
:100A500003D0020EBE00010FC3EA9EEB9FD005D06B
:100A6000044003088085900023EEF0A3EFF0C0025D
:100A7000C003C004C005744BC0E07421C0E07480A2
:100A8000C0E01213FF158115811581D005D004D067
:100A900003D0020209A8744BC0E07421C0E0748046
:100AA000C0E01213FF1581158115817480C0E0E448
:100AB000C0E0744EC0E07421C0E07480C0E0121346
:100AC000FFE58124FBF5817A807B007C108A058D0F
:100AD00082C002C003C0041202F7D004D003D002C7
:100AE000C002C003C004120312AD82D004D003D0F0
:100AF000027E00C002C003C004C005C0067453C01B
:100B0000E07421C0E07480C0E01213FFE58124FB93
:100B1000F581D004D003D0020ABA00010BDCAE7418
:100B20004BC0E07421C0E07480C0E01213FF158157
:100B30001581158174C0C0E0E4C0E0744EC0E0745B
:100B400021C0E07480C0E01213FFE58124FBF58131
:100B50007AC07B007C108A058D82C002C003C0046D
:100B60001202F7D004D003D002C002C003C00412A6
:100B70000312AD82D004D003D0027E00C002C003B5
:100B8000C004C005C0067453C0E07421C0E0748086
:100B9000C0E01213FFE58124FBF581D004D003D01F
:100BA000020ABA00010BDCAE744BC0E07421C0E055
:100BB0007480C0E01213FF1581158115817490C0F7
:100BC000E0E4C0E0744EC0E07421C0E07480C0E096
:100BD0001213FFE58124FBF5817A907B007C108A5B
:100BE000058D82C002C003C0041202F7D004D003F6
:100BF000D002C002C003C004120312AD82D004D0E0
:100C000003D0027E00C002C003C004C005C0067449
:100C100053C0E07421C0E07480C0E01213FFE5818E
:100C200024FBF581D004D003D0020ABA00010BDC0A
:100C3000AE744BC0E07421C0E07480C0E01213FFBA
:100C400015811581158174D0C0E0E4C0E0744EC0F8
:100C5000E07421C0E07480C0E01213FFE58124FB42
:100C6000F5817AD07B007C108A058D82C002C0039A
:100C7000C0041202F7D004D003D002C002C003C0E7
:100C800004120312AD82D004D003D0027E00C00251
:100C9000C003C004C005C0067453C0E07421C0E0A6
:100CA0007480C0E01213FFE58124FBF581D004D0ED
:100CB00003D0020ABA00010BDCAE744BC0E0742111
:100CC000C0E07480C0E01213FF15811581158122E8
:100CD000744BC0E07421C0E07480C0E01213FF15B3
:100CE00081158115819000237440F0E4A3F09000F9
:100CF00023E0FAA3E0FBC3EA9480EB9400400122D6
:100D0000C002C003C002C003744EC0E07421C0E042
:100D10007480C0E01213FFE58124FBF581D003D07D
:100D2000027C108A058D82C002C003C0041202D961
:100D3000D004D003D002C002C003C004120312AD1D
:100D400082D004D003D0027E00C002C003C004C021
:100D500005C0067453C0E07421C0E07480C0E01286
:100D600013FFE58124FBF581D004D003D0020ABA39
:100D700000010BDCAE900023EAF0A3EBF0744BC053
:100D8000E07421C0E07480C0E01213FF158115816A
:100D90001581020CEE0204FC1211DF1201C41204D0
:100DA000BED2931204FC120DDAAA82BA0D0A758221
:100DB0000AC002120DC8D0028A82C002120DC8D029
:080DC000028A821206C080DEE7
:101DCA000D0A2A2A2A2A2A2A2A2A2A2A2A2A2A2AA6
:101DDA002A000D0A202020204D656E750D0A000D7F
:101DEA000A50726573732027482720746F2073681E
:101DFA006F772074686973206D656E75000D0A50DF
:101E0A00726573732027572720746F20777269745D
:101E1A00652061206279746520746F2045455052AF
:101E2A004F4D000D0A507265737320275227207494
:101E3A006F20726561642061206279746520667220
:101E4A006F6D20454550524F4D000D0A5072657313
:101E5A007320274C2720746F20646973706C617932
:101E6A0020454550524F4D2064617461206F6E20A9
:101E7A004C4344000D0A5072657373202743272090
:101E8A00746F20636C65617220746865204C4344EA
:101E9A0020646973706C6179000D0A5072657373FE
:101EAA002027442720746F20646F206120486578BA
:101EBA002044756D70206F6620454550524F4D0085
:101ECA000D0A50726573732027592720746F207288
:101EDA006561642074686520636F6E74656E7473DF
:101EEA00206F6620444452414D000D0A50726573BA
:101EFA00732027472720746F2072656164207468F5
:101F0A006520636F6E74656E7473206F6620434735
:101F1A0052414D0D0A000D0A456E74657220616EBC
:101F2A0020454550524F4D20626C6F636B206E7591
:101F3A006D6265722066726F6D20302D373A20000F
:101F4A000D0A494E56414C49443A20456E74657211
:101F5A0020616E20454550524F4D20626C6F636B75
:101F6A00206E756D6265722066726F6D20302D3736
:101F7A003A20000D0A456E74657220616E2045454F
:101F8A0050524F4D20576F726420616464726573BA
:101F9A007320696E206865783A000D0A5772697471
:101FAA00696E6720746F20454550524F4D2E2E2E74
:101FBA00000D0A456E74657220612062797465208D
:101FCA006F66206461746120746F2077726974652A
:101FDA0020746F20454550524F4D3A000D0A5772F2
:101FEA006F746520255820746F20626C6F636B20B4
:101FFA0025642061646472657373203078255820E3
:10200A00696E20454550524F4D210D0A000D0A5266
:10201A00656164696E672066726F6D20454550522E
:10202A004F4D2E2E2E000D0A526561642025582030
:10203A0066726F6D20626C6F636B20256420616429
:10204A00647265737320307825580D0A000D0A45AD
:10205A006E746572204C434420726F772066726FEB
:10206A006D20302D333A003A20000D0A57726F74F2
:10207A006520746F204C4344210D0A000D0A4C431D
:10208A004420446973706C617920436C65617265A0
:10209A0064210D0A000D0A506572666F726D696ED1
:1020AA006720616E20454550524F4D20646174612E
:1020BA002064756D700D0A000D0A456E74657220F4
:1020CA00746865207374617274696E6720626C6FDC
:1020DA00636B20616E642061646472657373000DC2
:1020EA000A456E7465722074686520656E64696E4F
:1020FA006720626C6F636B20616E64206164647236
:10210A00657373000D0A496E76616C6964206164B7
:10211A00647265737365732E20456E64206164640E
:10212A0072657373206D75737420626520616674BD
:10213A00657220737461727420616464726573736A
:0D214A00000D0A0025783A200025782000BD
:100DC800E582900027F03099FD900027E0F599C260
:100DD800992210980280FBAA998A8222AA83E58226
:100DE800900028F0A3EAF0900035E4F0A3F090001A
:100DF80028E0FAA3E0FBC3740A9A74808BF063F0CE
:100E08008095F050197457C0E07421C0E07480C018
:100E1800E01213FF15811581158190FFFF229000C4
:100E280035E0FCA3E0FDC3EC9AED64808BF063F041
:100E38008095F04003020EECC002C003C004C00558
:100E4800120DDAAE82D005D004D003D0028E82C053
:100E580002C003C004C005C006120DC8D006D005E4
:100E6800D004D003D002BE0D03020EECBE0812EC73
:100E780024FFFFED34FFF8900035EFF0A3E8F08091
:100E88009DBE71028003BE510490FFFE228E82C077
:100E980002C003C004C005C0061211F0E582D006E6
:100EA800D005D004D003D002601AEC242AF582EDD4
:100EB8003400F583EEF090003574012CF0E43DA386
:100EC800F0020E26C002C0037489C0E07421C0E09D
:100ED8007480C0E01213FF158115811581D003D0ED
:100EE80002020E26900035E0FAA3E0FBEA242AF578
:100EF80082EB3400F583E4F090002A75F0000212CA
:100F08000D90003AE4F0A3F090003DE4F090003A30
:100F1800E0FAA3E0FBC3EA9402EB64809480400308
:100F2800021057C002C003120DDAAC82D003D002FF
:100F38008C82C002C003C004120DC8D004D003D0F4
:100F480002BC0D2CEA4B700C900038E4F09000398C
:100F5800F0021057BA0105BB000280030210579037
:100F68000038E0FD900039F0900038E4F0021057A6
:100F7800BC0813EA24FFFDEB34FFFE90003AEDF0C5
:100F8800A3EEF0020F158C82C002C003C004121138
:100F9800F0E582D004D003D002601AEA2438F58242
:100FA800EB3400F583ECF090003A74012AF0E43B4E
:100FB800A3F0020F158C82C004121396E582D004A8
:100FC800700D8C82C004121379E582D0046068C366
:100FD800EC648094C1400B74C68CF063F08095F08B
:100FE8005013C3EC648094E1404D74E68CF063F0D8
:100FF8008095F0404290003AE0FAA3E0FBEA2438FA
:10100800FAEB3400FB8C82C002C003C004121379CF
:10101800E582D004D003D002600674DF5CFD800254
:101028008C058A828B83EDF090003AE02401F0A3CE
:10103800E03400F0020F1574B3C0E07421C0E0740E
:1010480080C0E01213FF158115811581020F1590DC
:10105800003CE4F07A007B00C3EA9402EB648094DD
:1010680080400302111BEA2438F582EB3400F58333
:10107800E0FC900037F08C82C002C003C00412115B
:10108800F0E582D004D003D0026009EC24D09000AF
:101098003DF0803AC3EC648094E1401474E68CF02F
:1010A80063F08095F0400990003D74A92CF0801EF3
:1010B800900037E0FCC3648094C1401274C68CF081
:1010C80063F08095F0400790003D74C92CF07401DE
:1010D800C39AFCE49BFDCC25E0CC33CC25E0CC3393
:1010E800FD90003DE0FE8CF005F0AC067D0080062A
:1010F800EC2CFCED33FDD5F0F790003CE0FE7F00D2
:10110800EC2EFCED3FFD90003CECF00ABA00010B20
:1011180002106090003CE0F58222AAF0AB83E582E1
:10112800900040F0A3EBF0A3EAF0120DDAAA829047
:101138000043EAF08A82120DC890003EE0FAA3E06C
:10114800FB900040E0F508A3E0F509A3E0F50A7F6D
:10115800007800900043E0F9B90D02805DC3EF9A72
:10116800E864808BF063F08095F0504EC002C003B5
:10117800EF2508FAE83509FBAC0A8A828B838CF0E4
:10118800E9121340C003C007C000120DDAAA82D0CA
:1011980000D007D003900043EAF08A82C002C0035F
:1011A800C007C000120DC8D000D007D003D0020F6E
:1011B800BF000108D003D0028099900040E0FAA354
:1011C800E0FBA3E0FCEF2AFFE83BF88C058F828860
:1011D800838DF0E4021340759850758920758DFD54
:0811E800758BFDD28ED2992215
:1021570053657269616C5F676574496E746567651D
:102167007228293A204572726F722E204D61785F6E
:102177004C656E67746820746F6F206C6172676559
:102187002E000D0A496E76616C696420636861727E
:1021970061637465722E20456E746572206F6E6C74
:1021A70079206469676974732E0D0A000D0A496EF8
:1021B70076616C6964206368617261637465722E0D
:1021C70020456E746572206F6E6C79206865782083
:0E21D700636861726163746572732E0D0A0095
:06003200E478FFF6D8FDA2
:1011F000E582900044F0900044E0FABA30004009E3
:10120000EA24C640047582012275820022AAF0AB4E
:1012100083E582900045F0A3EBF0A3EAF07A007B2F
:1012200000900045E0FCA3E0FDA3E0FE8C828D83EE
:101230008EF0121C9EFF6039C374B98FF063F0808A
:1012400095F04007EF648094B050268C828D838E99
:10125000F0121C9EFFBF2D028017BF2B0280120CC4
:10126000BC00010D900045ECF0A3EDF0A3EEF08082
:10127000BB900045ECF0A3EDF0A3EEF08C828D83E3
:101280008EF0121C9EFFE4BF2D0104F8880170034C
:10129000BF2B0E90004574012CF0E43DA3F0A3EEAB
:1012A000F0900045E0FCA3E0FDA3E0FE8C828D837E
:1012B0008EF0121C9EFF6068C3EF648094B04060A3
:1012C00074B98FF063F08095F04055C001900049EB
:1012D000740AF0E4A3F08A828B83C004C005C006C0
:1012E000C007C00112135985820B85830CD001D031
:1012F00007D006D005D004EF3395E0F8EF24D0FFF7
:10130000E834FFF8EF250BFAE8350CFB0CBC0001C4
:101310000D900045ECF0A3EDF0A3EEF0D001808C31
:10132000900045ECF0A3EDF0A3EEF0E96009C3E412
:101330009AFCE49BFD80048A048B058C828D8322B9
:100010007901E94400601B7A019021F0787A75A09B
:1000200000E493F2A308B8000205A0D9F4DAF2754F
:02003000A0FF2F
:1013400020F71030F6118883A88220F507F6A883CD
:1013500075830022F280F7F022AA83AB828BF09093
:101360000049E0A4F8A9F08AF0E0A429F98BF0A3E1
:09137000E0A429F5838882222201
:100038007800E84400600A790075A000E4F309D864
:10004800FC787AE84400600C7901900000E4F0A3A1
:04005800D8FCD9FAFD
:10137900E58290004BF090004BE0FABA6100400919
:10138900EA248540047582012275820022E5829053
:10139900004CF090004CE0FABA41004009EA24A55B
:1013A90040047582012275820022C012858112AA29
:1013B90082120DC8D01222AAF0AB83E58290004EAA
:1013C900F0A3EBF0A3EAF090004EE0FAA3E0FBA350
:1013D900E0FC90004DE0FD900061E4F0A3F0A3F083
:1013E900900064EAF0A3EBF0A3ECF0900067EDF055
:1013F9009013B3021518C012858112E51224FBFA65
:10140900900061E4F0A3F0A3F0E51224FBF890004A
:1014190064E6F008A3E6F008A3E6F0900067EAF0B6
:101429009013B3121518AA82AB83D01222E58290C9
:10143900005DF090005DE0FA900053E0C0E0A3E0A9
:10144900C0E0A3E0C0E07464C0E07414C0E09000A0
:1014590051E0C0E0A3E0C0E08A8222158115811520
:101469008190005BE0FAA3E0FB90005B74012AF035
:10147900E43BA3F022E58290005EF090005EE0FA82
:1014890074302AFA24C6500A74072AFA3000034332
:1014990002208A82021436E58290005FF090005F94
:1014A900E0FAC4540FFBF582C00212147ED0025335
:1014B900020F8A8202147EE582900060F090005645
:1014C900E0FAA3E0FBA3E0FCA3E0FD90005AE0FEF4
:1014D900900060E0FF7820EE2EFEED235401F942E2
:1014E90006EA2AFAEB33FBEC33FCED33FDC3EE9F3E
:1014F9004007EEC39FFE430201D8DC900056EAF094
:10150900A3EBF0A3ECF0A3EDF090005AEEF022AAC1
:1015190083E582900068F0A3EAF0900068E0FAA3FE
:10152900E0FB900051EAF0A3EBF0900061E0FAA330
:10153900E0FBA3E0FC900053EAF0A3EBF0A3ECF08E
:1015490090005BE4F0A3F0900064E0FAA3E0FBA351
:10155900E0FC8A828B838CF0121C9EFD90006474DF
:10156900012AF0E43BA3F0A3ECF0ED7003021C3F69
:10157900BD25028003021C37C201C202C203C20494
:10158900C205C206C207C20890006AE4F090006B67
:10159900F090006C74FFF0900064E0FAA3E0FBA304
:1015A900E0FC8A828B838CF0121C9EFEA3AA82AB7C
:1015B90083900064EAF0A3EBF0A3ECF090006EEEE8
:1015C900F0BE25088E821214360215508E07BF30E0
:1015D9000040498E07EF24C6404290006CE0FFBFEF
:1015E900FF29C002C003C00490006BE0FA75F00A3D
:1015F900A4FAEE24D090006B2AF090006BE0FAD0A8
:1016090004D003D002709BD2028097EF75F00AA430
:10161900FFEE24D090006C2FF00215AB90006EE025
:10162900FEBE2E0890006CE4F00215AB8E82C0025B
:10163900C003C004C006121379E58224FF9200D0CA
:1016490006D004D003D00230000790006E74DF5E2C
:10165900F090006EE0FEBE20028055BE2B02804B4A
:10166900BE2D028041BE4202804BBE43028050BE65
:1016790044030218ACBE46030218CEBE4903021841
:10168900ACBE4C028034BE4F030218B6BE500302F2
:10169900180EBE53028042BE55030218BEBE58033F
:1016A9000218C60218D2D2010215ABD2030215AB39
:1016B900D2040215ABD2060215ABD2070215AB90C4
:1016C9000067E0FA24FEF8900067F08602088603B6
:1016D900188A821214360218DE900067E0FA24FD97
:1016E900F8900067F08602088603088604181890A7
:1016F9000056EAF0A3EBF0A3ECF0900056E0FAA351
:10170900E0FBA3E0FC8A828B838CF0121C4BAA823B
:10171900AB8390006CE0FBBBFF0590006CEAF02006
:10172900013890006BE0FBC3EA9B502E90006BEBF5
:10173900C39AF090006BE0FB8B041B90006BEBF0FD
:10174900BC00028010758220C002C003121436D07A
:1017590003D00280E390006BEBF090006CE0FDC0D9
:1017690002900056E0FCA3E0FFA3E0FA8C828F838D
:101779008AF0121C9ED00260538D041DC374808CA4
:10178900F063F08095F05044C002900056E0F50DEA
:10179900A3E0F50EA3E0F50F7401250DFBE4350E6A
:1017A900FAAC0F900056EBF0A3EAF0A3ECF0850D2C
:1017B90082850E83850FF0121C9EFAF582C002C045
:1017C90005121436D005D002D002809320010302FD
:1017D90018DE90006BE0FBC3EA9B40030218DE9021
:1017E900006BEBC39AF090006BE0FA8A031A900041
:1017F9006BEAF0BB00030218D9758220C0021214EB
:1018090036D00280E6900067E0FB24FDF89000677F
:10181900F086030886040886071818900056EBF02E
:10182900A3ECF0A3EFF0900058E0FB247F50089060
:10183900006E7443F08020EB249F500890006E7472
:1018490050F08013EB24BF500890006E7449F0806B
:101859000690006E7458F090006EE0FBF582C003AC
:10186900121436D00375823AC003121436D00375A8
:101879008230C003121436D003758278C003121463
:1018890036D003BB4902800FBB5002800A90005733
:10189900E0FBF5821214A0900056E0FBF5821214C9
:1018A900A08032D20590006A740AF0802890006AFC
:1018B9007408F0802090006A740AF0801890006A19
:1018C9007410F08010D208800C8E821214368005B4
:1018D90090006BEAF030086B900067E0FA24FCF89E
:1018E900900067F0860208860308860408860618B1
:1018F9001818900056EAF0A3EBF0A3ECF0A3EEF071
:1019090090005674E5F0A37421F0A37480F0900060
:1019190056E0FBA3E0FCA3E0FD74012BFEE43CFFD1
:101929008D02900056EEF0A3EFF0A3EAF08B828CC3
:10193900838DF0121C9EFA70030215508A821214CC
:101949003680CB90006AE0FABA0003021550900085
:10195900757474F0A37400F030064C900067E0FAD7
:1019690014F8900067F08602EA3395E0FBFCFE90DC
:101979000056EAF0A3EBF0A3ECF0A3EEF030050378
:10198900021A26900056E0FAA3E0FBA3E0FCA3E0CC
:10199900FE7B007C007E00900056EAF0A3EBF0A3EA
:1019A900ECF0A3EEF0807630072A900067E0FA2485
:1019B900FCF8900067F0860208860308860408860A
:1019C90006181818900056EAF0A3EBF0A3ECF0A360
:1019D900EEF08049900067E0FA24FEF8900067F085
:1019E900860208860318EB3395E0FCFE900056EA60
:1019F900F0A3EBF0A3ECF0A3EEF020052090005645
:101A0900E0FAA3E0FBA3E0FCA3E0FE7C007E0090EB
:101A19000056EAF0A3EBF0A3ECF0A3EEF030053E9C
:101A2900900056E0FAA3E0FBA3E0FCA3E0FE30E758
:101A39002B900056E0FAA3E0FBA3E0FCA3E0FEC371
:101A4900E49AFAE49BFBE49CFCE49EFE900056EACF
:101A5900F0A3EBF0A3ECF0A3EEF08002C205D209EB
:101A690090006AE0FC7510747511007D0090005AB1
:101A7900E4F08C82C004C0051214C0D005D0042043
:101A89000932C00490005AE0FFC4FF851082851115
:101A990083E0FA4207851082851183EFF0151074EF
:101AA900FFB510021511900075E510F0A3E511F0CE
:101AB900D004800C90005AE0FF851082851183F0D4
:101AC9000D90006DEDF0B209900056E0FFA3E0FA29
:101AD900A3E0FEA3E0FBEF4A4E4B7091900075E541
:101AE90010F0A3E511F090006DEDF090006BE0FAB5
:101AF900700690006B7401F0200227200124740104
:101B09002DFA90006BE0FBC3EA9B5011758220C04F
:101B190002C003121436D003D0021B80EA90006B76
:101B2900EBF030051275822D12143690006BE0FA35
:101B39001490006BF0802F90006DE0FA602830035C
:101B49001275822B12143690006BE0FA1490006B18
:101B5900F0801330041075822012143690006BE067
:101B6900FA1490006BF020012F90006DE0FA9000BC
:101B79006BE0FB8B041B90006BEBF0C3EA9C5036C7
:101B89003002047C3080027C208C82C002C00312A7
:101B99001436D003D00280DB90006BE0FA90006D20
:101BA900E0FCC39A500990006BEAC39CF0800C904A
:101BB900006BE4F0800590006BEBF0900075E0FAA3
:101BC900A3E0FB90006DE0FC8C061CEE6040B209BE
:101BD9002009150ABA00010B8A828B83E0FEC454DE
:101BE9000FFE90005AF0800E8A828B83E0FE530626
:101BF9000F90005AEEF090005AE0FEF582C002C044
:101C090003C00412147ED004D003D00280BA20018C
:101C19000302155090006BE0FA8A031AEB70030275
:101C29001550758220C002121436D00280EB8D82C5
:101C390012143602155090005BE0FAA3E08A82F58F
:021C49008322F4
:0B21E5003C4E4F20464C4F41543E0042
:101C4B00AAF0AB83E582900077F0A3EBF0A3EAF068
:101C5B007A007B00900077E0FCA3E0FDA3E0FE8C14
:101C6B00828D838EF0121C9EFFA3AC82AD839000FD
:101C7B0077ECF0A3EDF0A3EEF0EF60070ABA00DF0C
:101C8B000B80DC900077ECF0A3EDF0A3EEF08A82F2
:031C9B008B832216
:0D0003007581211204F5E58260030204F00E
:101C9E0020F71430F6148883A88220F507E6A8836F
:0C1CAE0075830022E280F7E49322E0221C
:00000001FF
