:07007600900000E4F07A00A5
:03007D00BA0800BE
:0A0080005023EA2400FBE43400FCE6
:0E008A008B828C83E0FD4305108B828C83ED0E
:0D009800F04305018B828C83EDF00A80D8C7
:0800A5009000137400F0A37435
:0C00AD0000F0A37400F075820002025AFB
:0E00B900E582900008F0900008E0FAF582025F
:0200C7000953DB
:0A00C900900009E4F090000AF090A6
:0800D300000BF090000CF0900E
:0900DB00000DE4F090000EF0901D
:0800E400000FF0900010F07411
:0A00EC0057C0E07435C0E07480C016
:0C00F600E0122C9C15811581158174749A
:0B010200C0E07435C0E07480C0E01263
:0E010D002C9C15811581158190000112216F27
:09011B00AA82AB83900011EAF006
:0C012400900011E0FA24F850267474C01A
:0C013000E07435C0E07480C0E0122C9C2C
:0E013C0015811581158190000112216FAA8294
:09014A00AB83900011EAF080D1B2
:0A0153007491C0E07435C0E07480C0
:0D015D00C0E0122C9C1581158115817A00DF
:03016A00BA0800D0
:05016D00400302022D19
:040172008A037C0080
:03017600BC0500C5
:0501790040030202102A
:0E017E00C002C003C004122165E582D004D087
:07018C0003D002900012F005
:0A019300900012E0FDBD3002801C58
:05019D00BD31028017D6
:0E01A200C002C003C004122165E582D004D063
:0901B00003D002900012F080DA85
:0E01B900900012E0FDF582C002C003C004C039
:0E01C70005122153D005D004D003D002BD3163
:0A01D50036EB2409FDE43400FE8D32
:0E01DF00828E83E0FF8C0079007404C398F8D0
:0D01ED00E499F988F005F0780179008006AA
:0601FA00E828F8E933F9E2
:0C020000D5F0F7E842078D828E83EFF006
:04020C000C02017669
:0A021000C00274C1C0E07435C0E004
:0E021A007480C0E0122C9C158115811581D0D6
:05022800020A02016A58
:0A022D0074C4C0E07435C0E07480B2
:0E023700C0E0122C9C158115811581900011DC
:0A024500E0FA9000137409F0A374AE
:0B024F0000F0A37400F08A8202025A43
:0E025A00E582900016F0900016E0FAC40354FE
:0E026800F8FA900016F0C2AF1208C7E58290B7
:0802760000D9F0D201D2AF1251
:0A027E000A44900016E0FAF582121F
:0E0288000824900013E0FAA3E0FBA3E0FC7D45
:010296000067
:03029700BD08009F
:0E029A00502AED2AFEE43BFF8C008E828F83FB
:0E02A80088F012353BFEF582C002C003C00490
:0E02B600C005120953D005D004D003D0020DAC
:0202C40080D1E7
:0B02C6009000D9E0FAF5821208421205
:0902D1000A3BC2AFC201D2AF2208
:0A02DA00900017E4F0900018F09077
:0802E4000019F090001AF090DF
:0902EC00001BE4F090001CF090EE
:0802F500001DF090001EF01244
:0602FD0008E41229DE9066
:0C0303000017741FF09000187410F090A8
:0C030F0000197410F090001A7410F090A7
:0C031B00001B7410F090001C7410F09097
:0C032700001D741FF090001E7410F09078
:0703330000137417F0A3741E
:0C033A0000F0A37400F075820012025A5B
:0E034600900031740AF075820012091C758255
:0B03540000120953900017741FF09076
:0C035F0000187404F09000197404F09071
:0C036B00001A7404F090001B7404F09061
:0C037700001C7404F090001D7418F0903D
:08038300001EE4F09000137469
:0A038B0017F0A37400F0A37400F053
:0E03950075820112025A900031740BF07582CD
:0B03A3000012091C7582011209539022
:0C03AE000017741FF09000187408F09005
:0C03BA0000197408F090001A7408F0900C
:0C03C600001B7408F090001C7408F090FC
:0B03D200001D7407F090001EE4F09086
:0703DD0000137417F0A37474
:0C03E40000F0A37400F075820212025AAF
:0E03F000900031740CF075820012091C7582A9
:0B03FE0002120953900017741FF090CA
:0C04090000187401F09000197401F090CC
:0C041500001A7401F090001B7401F090BC
:0C042100001C7401F090001D741FF0908E
:09042D00001E7401F0900013742C
:0A04360017F0A37400F0A37400F0A7
:0E04400075820312025A900031740DF075821D
:0B044E000012091C7582031209539074
:0C04590000177410F09000187410F09060
:0C0465000019741FF090001A7410F09041
:0C047100001B7410F090001C7410F09040
:0C047D00001D7410F090001E741FF09021
:0704890000137417F0A374C7
:0C04900000F0A37400F075820412025A00
:0E049C00900031740AF075820112091C7582FD
:0A04AA0004120953900017E4F090CB
:0A04B4000018F09000197418F09081
:0C04BE00001A7404F090001B7404F0900D
:0C04CA00001C7404F090001D7404F090FD
:0904D600001E741FF09000137465
:0A04DF0017F0A37400F0A37400F0FE
:0E04E90075820512025A900031740BF0758274
:0B04F7000112091C75820512095390C8
:090502000017E4F0900018F090DD
:0C050B0000197407F090001A7408F090BA
:0C051700001B7408F090001C7408F090A9
:0C052300001D7408F090001E741FF09082
:07052F0000137417F0A37420
:0C05360000F0A37400F075820612025A57
:0E054200900031740CF075820112091C758254
:0B055000061209539000177401F09090
:0C055B0000187401F0900019741FF0905B
:0C056700001A7401F090001B7401F09069
:0C057300001C7401F090001D7401F09059
:09057F00001E741FF090001374BB
:0A05880017F0A37400F0A37400F054
:0E05920075820712025A900031740DF07582C6
:0A05A0000112091C758207020953BD
:0E3557000D0A496E70757420612063757374DF
:0E3565006F6D206368617261637465720D0A98
:013573000057
:0E3574000D0A456E74657220616E20616464FC
:0E358200726573732066726F6D20302D373ABC
:01359000003A
:0E3591000D0A456E7465722074686520746FB3
:0E359F007020726F77202835206269747329BE
:0E35AD00207573696E6720317320616E642093
:0635BB0030733A0D0A0016
:0335C1000D0A00F0
:0E35C4000D0A446F6E6520656E746572696E47
:0935D2006720636F64650D0A00B7
:0D05AA00E582900020F09001187403F0909D
:0405B7000020E0FA46
:0E05BB00900118E0FB601890001FE0FB60113B
:0E05C9008A82C00212075CE582D00290001FF9
:0305D700F080E1D0
:0C05DA0090001FE0FA601774DBC0E074B2
:0C05E60035C0E07480C0E0122C9C158130
:0405F20015811581D9
:0205F60080FE85
:0105F80022E0
:0D05F900E582900022F090002374A0F090A5
:0C0606000021E0FA600690002374A1F0CF
:0E061200900022E0FA24F8501E8A037C00C0FB
:0A06200003C0047421C0E07436C06A
:0E062A00E07480C0E0122C9CE58124FBF58179
:01063800229F
:0E063900EA2AFA900023E0FB4AF012072C9008
:0E0647000023E0FAF582C00212075CAB82D0FD
:0B0655000290001FEBF08A820205AA51
:0C066000E582900026F0900025E0FA9062
:0A066C000021E4F08A821205F990E3
:0E0676000024E0FAF582C00212075CAB82D0CD
:0C0684000290001FEBF08A821205AA9081
:0E0690000026E0FAF582C00212075CAB82D0B1
:0C069E000290001FEBF08A821205AA02F5
:0206AA00073B0C
:0C06AC00E582900028F0900027E0FA9012
:0E06B8000021E4F08A82C0021205F9D00290FF
:0E06C6000028E0FBF582C002C00312075CAC06
:0E06D40082D003D00290001FECF08B82C00297
:0D06E2001205AAD002C002120731D002900A
:0B06EF0000217401F08A821205F9124C
:0E06FA0007A7AA82C002120751D002C0021246
:07070800073BD0028A8222A8
:03070F00020727B7
:0E35DB000D0A41636B206661696C65642033E4
:0E35E9002074696D65732E2053797374656DBF
:0E35F700207265736574207265717569726566
:0E360500642E20456E746572696E6720696ED2
:0E36130066696E697465206C6F6F700D0A0039
:0E3621000D0A496E76616C696420626C6F63FD
:0C362F006B206E756D62657220256400D2
:014327000095
:020712007A6FFC
:06071400EA60031A80FAFE
:01071A0022BC
:06071B00120712D2912228
:06072100120712C2912232
:05072700D29002071B47
:05072C00C2900207214C
:0A073100D29012071BC290020721AC
:0B073B00120721C29012071BD290226F
:0B074600C29012071B120721D2902264
:0B075100D29012071B120721D2902249
:08075C00E582900029F07A000B
:03076400BA0800D0
:0E076700502A900029E0FB20E704C290800297
:02077500D29020
:0E077700C00212071BD002C002120721D002DE
:0E078500900029E025E0FB900029F00A80D1C9
:0D079300D29012071BE4A29033FAC00212AC
:0707A0000721D0028A82222A
:0707A70090002AE4F07A0043
:0307AE00BA080086
:0D07B100502CC00212071BD002309008909F
:0707BE00002AE0FB4401F0FA
:0307C500BA070070
:0D07C800500B90002AE025E0FB90002AF085
:0A07D500C002120721D0020A80CFF3
:0707DF0090002AE0F58222E0
:0E07E600E58290002BF0C294C29590363BE461
:0E07F40093FA740193FB90002BE0FC8A828B39
:0308020083F0225E
:0E080500E58290002CF0C294D29590363BE430
:0E08130093FA740193FB90002CE0FC8A828B18
:0308210083F0223F
:0A082400E58290002DF01208AF905D
:0E082E00002DE0FA543FF090002DE0FA430256
:06083C00408A820207E67B
:0A084200E58290002EF01208AF903E
:0E084C00002EE0FA4480F090002EE0FAF582D3
:03085A000207E6AC
:0E085D001208AFD294D29590363BE493FA7411
:0B086B000193FB8A828B83E0F5822260
:0E087600E58290002FF090002FE0FA74F05A07
:0E088400FBC4540F25E0FB90367D93CBA3936D
:0E089200FC8B82C002120953D00253020FEAFF
:0D08A0002AFA90367D93CAA393FB8A820248
:0208AD000953ED
:0408AF00D294C29588
:0E08B30090363BE493FA740193FB8A828B83A8
:0608C100E0FA20E7ED2241
:0E08C7001208AFD294C29590363BE493FA74B7
:0E08D5000193FB8A828B83E0FA53027F8A82B2
:0108E30022F2
:0908E4001208AF7582010207E65B
:0E08ED00E582900030F0900030E0FA247F5059
:0208FB000122D8
:0E08FD00C0021208AFD002C294C29590363BE2
:0E090B00E493FB740193FC4302808B828C8387
:03091900EAF022DF
:0A091C00E582900032F01208AF905F
:0E0926000032E0FA24FC4009900031E0FB248E
:03093400F050017F
:01093700229D
:0A093800EAC454F0243DFAE434361A
:0E094200FCEB2AF582E43CF583E493FAF5829F
:030950000208EDAD
:0A095300E582900033F01208AF9027
:09095D000033E0FAF582020805FE
:0E096600AAF0AB83E582900034F0A3EBF0A37F
:0D097400EAF0900034E0FAA3E0FBA3E0FC01
:0D0981008A828B838CF012353BFD700122C1
:0E098E008D82C002C003C004120953D004D0F1
:08099C0003D0020ABA00010BAE
:0E09A400900034EAF0A3EBF0A3ECF0C002C028
:0E09B20003C0041208AFD004D003D002D294C8
:0E09C000C29590363BE493FD740193FE8D8248
:0C09CE008E83E0FD53057FBD1002800FFA
:0509DA00BD2402803481
:0509DF00BD5002801A6A
:0509E400BD649A803F94
:0E09E900758240C002C003C0041208EDD004A5
:0709F700D003D002020981C8
:0E09FE00758210C002C003C0041208EDD004C0
:070A0C00D003D002020981B2
:0E0A1300758250C002C003C0041208EDD0046A
:070A2100D003D0020209819D
:010A280022AB
:0A0A29001208AF7582381207E612BA
:080A330008AF75820F0207E60F
:090A3B001208AF75820F0207E6F4
:090A44001208AF7582080207E6F2
:0A0A4D001208AF7582011207E612CD
:0B0A570008AF900031E4F0758200123F
:090A6200091C90369D75F080021C
:020A6B0009661A
:02363B0000E0AD
:0E363D00000102030405060708090A0B0C0D24
:0E364B000E0F404142434445464748494A4B12
:0E3659004C4D4E4F1011121314151617181960
:0E3667001A1B1C1D1E1F50515253545556570E
:0836750058595A5B5C5D5E5F71
:0E367D003000310032003300340035003600DA
:0E368B0037003800390041004200430044007F
:0436990045004600A2
:0E369D006162636465666768696A6B6C6E6F74
:0E36AB00707172737475767778797A31323374
:0E36B900343536373839616263646566676898
:0E36C700696A6B6C6D6E6F70717273747576DC
:0E36D5007778797A31323334353637383938F0
:0836E300373635343332310073
:0400000002001632B2
:03000B00022605C5
:03001300021F5B6E
:02006F00C200CD
:03007300020A6D11
:050A6D00121D8C80FE4B
:070A7200438E0C90000022EE
:0E0A7900AAF0AB83E58290003AF0A3EBF0A365
:0A0A8700EAF074EBC0E07436C0E042
:0E0A91007480C0E0122C9C1581158115819097
:0E0A9F000037E0FAA3E0FBA3E0FC900001C0EA
:0E0AAD0002C003C00412216FAD82AE83D004DC
:0E0ABB00D003D0028A828B838CF0ED122BDDEB
:0E0AC9008A828B838CF012353BFD24F850435B
:0B0AD700C002C003C0047415C0E0742E
:0C0AE20037C0E07480C0E0122C9C15812D
:0E0AEE0015811581D004D003D002900001C004
:0E0AFC0002C003C00412216FAD82AE83D0048D
:0E0B0A00D003D0028A828B838CF0ED122BDD9B
:020B180080AFAC
:0A0B1A007448C0E07437C0E0748036
:0E0B2400C0E0122C9C15811581158190003ABD
:0E0B3200E0FAA3E0FBA3E0FCC002C003C00495
:0E0B400012229AAD82D004D003D0028A828B9A
:070B4E00838CF0ED022BDDAA
:0A0B5500746FC0E07437C0E07480D4
:0C0B5F00C0E0122C9C15811581158174DA
:0A0B6B008AC0E07437C0E07480C057
:0C0B7500E0122C9C158115811581749FE5
:0B0B8100C0E07437C0E07480C0E012D8
:0C0B8C002C9C15811581158174C4C0E0FB
:0C0B98007437C0E07480C0E0122C9C1583
:0A0BA400811581158174F6C0E0741C
:0C0BAE0037C0E07480C0E0122C9C158160
:0A0BBA0015811581741DC0E0743828
:0E0BC400C0E07480C0E0122C9C1581158115D4
:020BD20081227E
:0E0BD400E58290003DF090003DE0FABA480343
:030BE200020CA959
:050BE500BA4902805333
:050BEA00BA4F0280116A
:050BEF00BA5202806E05
:050BF400BA5302806607
:060BF900BA7203020CA118
:010BFF0022D3
:0A0C00007442C0E07438C0E0748054
:0E0C0A00C0E0122C9C1581158115819000010F
:0C0C180012216FAA82AB83BA011674701F
:0B0C2400C0E07438C0E07480C0E01233
:090C2F002C9C1581158115812210
:050C38008A820220A9E0
:0A0C3D00749DC0E07438C0E07480BC
:0E0C4700C0E0122C9C158115811581900001D2
:0A0C550012216FAA82AB830220CDAA
:030C5F00021FA3CE
:0A0C6200C2AF74D8C0E07438C0E0DF
:0E0C6C007480C0E0122C9C15811581158190BA
:0C0C7A000128E4F0900031F075820312B4
:0C0C8600091C900128E02430FAF58212CD
:0A0C92000953900128E0FAF58212E0
:050C9C0020F0D2AF22A0
:080CA100900119E4F0021C0FA0
:030CA900020B55E6
:0A0CAC00746FC0E07437C0E074807C
:0C0CB600C0E0122C9C1581158115817482
:0A0CC2008AC0E07437C0E07480C0FF
:0C0CCC00E0122C9C15811581158174EC40
:0B0CD800C0E07438C0E07480C0E0127F
:0C0CE3002C9C158115811581740FC0E058
:0C0CEF007439C0E07480C0E0122C9C1529
:0A0CFB0081158115817432C0E07488
:0C0D050039C0E07480C0E0122C9C158105
:0A0D110015811581745AC0E0743991
:0E0D1B00C0E07480C0E0122C9C15811581157B
:0A0D290081741DC0E07438C0E0744E
:0D0D330080C0E0122C9C15811581158122D5
:0E0D4000E58290003EF090003EE0FABA4603D5
:030D4E00020DF3A0
:060D5100BA4803020DFE8A
:050D5700BA4E028026E7
:050D5C00BA53028024DF
:050D6100BA54028007F6
:060D6600BA7203020DF653
:010D6C002264
:0D0D6D001200769000317403F075820012C0
:080D7A00091C758200020953F7
:030D82000200C9A3
:0A0D8500747CC0E07439C0E0748093
:0E0D8F00C0E0122C9C15811581158190000288
:0C0D9D0012216FAA82AB8390003FEAF0A5
:0C0DA90090003FE0FA24F85026747CC053
:0C0DB500E07439C0E07480C0E0122C9C97
:0E0DC10015811581158190000212216FAB8201
:090DCF00AC8390003FEBF080D1F1
:0A0DD8008A821200B97499C0E07419
:0C0DE20039C0E07480C0E0122C9C158128
:050DEE001581158122B2
:030DF3000202DA1F
:080DF600900119E4F0021C0F4A
:030DFE00020CAC38
:0A0E010074BBC0E07439C0E07480D7
:0C0E0B00C0E0122C9C158115811581742B
:0A0E17008AC0E07437C0E07480C0A8
:0C0E2100E0122C9C15811581158174C90C
:0B0E2D00C0E07439C0E07480C0E01227
:0C0E38002C9C15811581158174F7C0E019
:0C0E44007439C0E07480C0E0122C9C15D2
:0A0E500081158115817415C0E0744E
:0C0E5A003AC0E07480C0E0122C9C1581AE
:0A0E6600158115817430C0E0743A64
:0E0E7000C0E07480C0E0122C9C158115811525
:0A0E7E0081744BC0E0743AC0E074C8
:0D0E880080C0E0122C9C158115811581742D
:0A0E950066C0E0743AC0E07480C04B
:0C0E9F00E0122C9C158115811581748BCC
:0B0EAB00C0E0743AC0E07480C0E012A8
:0C0EB6002C9C15811581158174B5C0E0DD
:0C0EC200743AC0E07480C0E0122C9C1553
:0A0ECE008115811581741DC0E074C8
:0C0ED80038C0E07480C0E0122C9C158132
:050EE4001581158122BB
:0E0EE900E582900040F0900040E0FABA43032A
:030EF70002111FC6
:060EFA00BA470302138059
:060F0000BA48030214715F
:050F0600BA490280233E
:060F0B00BA590302114671
:060F1100BA630302107731
:050F1700BA6702802A08
:060F1C00BA720302146921
:060F2200BA73030210A5E2
:050F2800BA78028036DA
:010F2D0022A1
:0A0F2E0074DFC0E0743AC0E0748084
:0E0F3800C0E0122C9C158115811581020A293A
:0A0F460074F4C0E0743AC0E0748057
:0E0F5000C0E0122C9C15811581158112229A89
:050F5E00AA820208ED6B
:0A0F63007415C0E0743BC0E0748018
:0E0F6D00C0E0122C9C158115811581900003A7
:0E0F7B0012216FE5828583F0900041F0A3E51E
:020F8900F0F086
:0E0F8B00900041E0FAA3E0FBC374039A748067
:0C0F99008BF063F08095F0502A7415C0B6
:0C0FA500E0743BC0E07480C0E0122C9CA3
:0E0FB10015811581158190000312216FE582D4
:0D0FBF008583F0900041F0A3E5F0F080BFC5
:0A0FCC00742DC0E0743BC0E0748097
:0E0FD600C0E0122C9C1581158115819000033E
:0E0FE40012216FE5828583F0900043F0A3E5B3
:020FF200F0F01D
:0E0FF400900043E0FAA3E0FBC3740F9A7480F0
:0C1002008BF063F08095F0502A742DC034
:0C100E00E0743BC0E07480C0E0122C9C39
:0E101A0015811581158190000312216FE5826A
:0D1028008583F0900043F0A3E5F0F080BF59
:0E103500900041E0FCA3E0FD8C06900031EA43
:0E104300F08E82C002C003C004C00512091C5A
:0E105100D005D004D003D002C002C003C004FA
:0A105F00C0057446C0E0743BC0E019
:0E1069007480C0E0122C9CE58124F9F58122F0
:0A107700746FC0E0743BC0E07480A9
:0E108100C0E0122C9C1581158115811221658D
:0D108F00AA821209531208C7AA82C00212D9
:09109C0029DED0028A820208ED6F
:0A10A500749FC0E0743BC0E074804B
:0D10AF00C0E0122C9C1581158115817A007E
:0310BC00BA640013
:0A10BF005044EA2445FBE43400FC31
:0E10C900C002C003C004122165AD82D004D065
:0E10D70003D0028B828C83EDF08D82C002C0AC
:0E10E50003C004122153D004D003D0028B822A
:0E10F3008C83E0FDBD0D088B828C83E4F080C1
:0111010003EA
:031102000A80B7A9
:0A11050090004575F0001209661213
:0E110F0008C7AA82C0021229DED0028A82021C
:02111D0008EDDB
:07111F001208E41229DE9022
:0B1126000031E4F075820012091C7417
:0A113100B1C0E0743BC0E07480C060
:0B113B00E0122C9C158115811581220B
:0A11460074CAC0E0743BC0E074807E
:0E115000C0E0122C9C1581158115817480C0A1
:0A115E00E0E4C0E074CDC0E0743B93
:0E116800C0E07480C0E0122C9CE58124FBF5F1
:07117600817A807B007C10F0
:0E117D008A058D82C002C003C004120842D051
:0E118B0004D003D002C002C003C00412085DED
:0E119900AD82D004D003D0027E00C002C0039D
:0B11A700C004C005C00674D2C0E07494
:0C11B2003BC0E07480C0E0122C9CE58182
:0E11BE0024FBF581D004D003D0020ABA000150
:0111CC000B17
:0A11CD00DCAE74CAC0E0743BC0E061
:0E11D7007480C0E0122C9C1581158115817466
:0B11E500C0C0E0E4C0E074CDC0E074C6
:0C11F0003BC0E07480C0E0122C9CE58144
:0A11FC0024FBF5817AC07B007C1013
:0E1206008A058D82C002C003C004120842D0C7
:0E12140004D003D002C002C003C00412085D63
:0E122200AD82D004D003D0027E00C002C00313
:0B123000C004C005C00674D2C0E0740A
:0C123B003BC0E07480C0E0122C9CE581F8
:0E12470024FBF581D004D003D0020ABA0001C6
:011255000B8D
:0A125600DCAE74CAC0E0743BC0E0D7
:0E1260007480C0E0122C9C15811581158174DC
:0B126E0090C0E0E4C0E074CDC0E0746C
:0C1279003BC0E07480C0E0122C9CE581BA
:0A12850024FBF5817A907B007C10B9
:0E128F008A058D82C002C003C004120842D03E
:0E129D0004D003D002C002C003C00412085DDA
:0E12AB00AD82D004D003D0027E00C002C0038A
:0B12B900C004C005C00674D2C0E07481
:0C12C4003BC0E07480C0E0122C9CE5816F
:0E12D00024FBF581D004D003D0020ABA00013D
:0112DE000B04
:0A12DF00DCAE74CAC0E0743BC0E04E
:0E12E9007480C0E0122C9C1581158115817453
:0B12F700D0C0E0E4C0E074CDC0E074A3
:0C1302003BC0E07480C0E0122C9CE58130
:0A130E0024FBF5817AD07B007C10EF
:0E1318008A058D82C002C003C004120842D0B4
:0E13260004D003D002C002C003C00412085D50
:0E133400AD82D004D003D0027E00C002C00300
:0B134200C004C005C00674D2C0E074F7
:0C134D003BC0E07480C0E0122C9CE581E5
:0E13590024FBF581D004D003D0020ABA0001B3
:011367000B7A
:0A136800DCAE74CAC0E0743BC0E0C4
:0E1372007480C0E0122C9C158115811581221B
:0A13800074CAC0E0743BC0E0748042
:0E138A00C0E0122C9C158115811581C2AF1296
:0913980008C7E5829000D9F0D2EB
:0C13A10001D2AF9000A97440F0E4A3F06A
:0E13AD009000A9E0FAA3E0FBC3EA9480EB9461
:0613BB000040030214567D
:0C13C100C002C003C002C00374CDC0E035
:0C13CD00743BC0E07480C0E0122C9CE572
:0B13D9008124FBF581D003D0027C10C2
:0E13E4008A058D82C002C003C004120824D006
:0E13F20004D003D002C002C003C00412085D84
:0E140000AD82D004D003D0027E00C002C00333
:0B140E00C004C005C00674D2C0E0742A
:0C1419003BC0E07480C0E0122C9CE58118
:0E14250024FBF581D004D003D0020ABA0001E6
:011433000BAD
:0C143400DCAE9000A9EAF0A3EBF074CA53
:0B144000C0E0743BC0E07480C0E0120C
:0B144B002C9C1581158115810213AD4A
:0D1456009000D9E0FAF582120842C2AFC240
:0614630001D2AF0229DEF8
:08146900900119E4F0021C0FD0
:03147100020E0167
:0A14740074D6C0E0743BC0E0748041
:0C147E00C0E0122C9C15811581158174B2
:0A148A008AC0E07437C0E07480C02F
:0C149400E0122C9C15811581158174E775
:0B14A000C0E0743BC0E07480C0E012AC
:0C14AB002C9C158115811581740DC0E08A
:0C14B700743CC0E07480C0E0122C9C1556
:0A14C30081158115817434C0E074B6
:0C14CD003CC0E07480C0E0122C9C158133
:0A14D90015811581745EC0E0743CBB
:0E14E300C0E07480C0E0122C9C1581158115AC
:0A14F10081741DC0E07438C0E0747F
:0D14FB0080C0E0122C9C1581158115812206
:0E150800E5829000ABF09000ABE0FABA44032D
:031516000216E6D4
:06151900BA48030218C1EC
:06151F00BA4C0302163F66
:06152500BA52030215CCCE
:05152B00BA5702800721
:06153000BA72030218B9B3
:011536002292
:0A1537007485C0E0743CC0E07480CD
:0E154100C0E0122C9C15811581158190003799
:0A154F0074ACF0A37400F0A3740064
:0B155900F09000AE75F000120A7974EB
:0A1564009CC0E0743CC0E07480C03D
:0E156E00E0122C9C15811581158112229AAA7B
:0C157C00829000AEE0FB9000ACE0FC9020
:0E1588000024EBF0900025ECF08A82C00212E5
:0C1596000660D0029000AEE0FB7C0090EC
:0E15A20000ACE0FD7E007F00C003C004C00569
:0B15B000C006C002C00774C7C0E07492
:0C15BB003CC0E07480C0E0122C9CE58174
:0515C70024F7F581226C
:0A15CC0074F8C0E0743CC0E07480C5
:0E15D600C0E0122C9C15811581158190003704
:0A15E40074ACF0A37400F0A37400CF
:0B15EE00F09000AE75F000120A79903A
:0A15F90000AEE0FA9000ACE0FB90B9
:0B1603000027F08A821206ACAA829039
:0E160E0000AEE0FB7C009000ACE0FD7E007FB3
:0E161C0000C003C004C005C006C002C00774B1
:0A162A0011C0E0743DC0E07480C000
:0B163400E0122C9CE58124F7F58122D8
:08163F0090003774ACF0A374B5
:0C16470000F0A37400F09000AE75F000FD
:09165300120A799000AEE0FA9051
:0B165C0000ACE0FB900027F08A821237
:0B16670006ACAA82C0027438C0E07418
:0C1672003DC0E07480C0E0122C9C15818B
:0E167E0015811581D002900001C00212216F6B
:0E168C00AB82AC83D002900031E4F08B82C0C0
:0E169A000212091CD0029000ACE02430FBF5D7
:0E16A80082C002120953D0029000AEE0FBF5A2
:0E16B60082C002120876D002903D5275F0807C
:0D16C400C002120966D0028A8212087674F4
:0A16D10055C0E0743DC0E07480C015
:0B16DB00E0122C9C1581158115812266
:0A16E6007467C0E0743DC0E074803A
:0C16F000C0E0122C9C158115811581743E
:0A16FC008AC0E0743DC0E07480C0B5
:0E170600E0122C9C158115811581900037741E
:0A171400ACF0A37400F0A37400F021
:0A171E009000AE75F000120A797415
:0A172800B1C0E0743DC0E07480C061
:0E173200E0122C9C15811581158190003774F2
:0A174000ADF0A37400F0A37400F0F4
:0A174A009000AF75F000120A7990CC
:0E17540000ACE0FA8A037A009000AEE0FC7D63
:0E176200004202ED42039000B0EAF0A3EBF06B
:0E1770009000ADE0FC8C057C009000AFE0FE28
:0E177E007F004204EF42059000B2ECF0A3EDB4
:0C178C00F0C3EC9AED9B501674D6C0E040
:0C179800743DC0E07480C0E0122C9C1571
:0617A40081158115812270
:0A17AA0074CAC0E0743BC0E0748014
:0E17B400C0E0122C9C1581158115819000B2A9
:0917C200E0FAA3E0FB8A048B05A8
:0E17CB009000B0E0FEA3E0FFC3EC9EED9F5047
:0217D9000122EB
:0E17DB00C002C003C004C005C006C007C0069F
:0A17E900C00774CDC0E0743BC0E0FF
:0E17F3007480C0E0122C9CE58124FBF581D0AF
:0D18010007D006D005D004D003D002780037
:03180E00B810000F
:0E1811005076C004C0058E017C00900027EFC9
:0E181F00F08982C002C003C005C006C007C029
:0E182D00001206ACAC82D000D007D006D00569
:0E183B00D003D0027D00C002C003C004C0056F
:0C184900C006C007C000C004C00574D277
:0B185500C0E0743BC0E07480C0E012F3
:0E1860002C9CE58124FBF581D000D007D0063A
:0D186E00D005D004D003D0020EBE00010F43
:0E187B00C3EA9EEB9FD005D004400308808591
:0E1889009000B0EEF0A3EFF0C002C003C00468
:0A189700C00574CAC0E0743BC0E055
:0E18A1007480C0E0122C9C158115811581D039
:0A18AF0005D004D003D0020217CBCD
:0818B900900119E4F0021C0F7C
:0318C1000214749A
:0A18C4007413C0E0743EC0E07480AD
:0C18CE00C0E0122C9C158115811581745E
:0A18DA008AC0E07437C0E07480C0DB
:0C18E400E0122C9C1581158115817423E5
:0B18F000C0E0743EC0E07480C0E01255
:0C18FB002C9C1581158115817441C0E002
:0C190700743EC0E07480C0E0122C9C15FF
:0A19130081158115817466C0E0742F
:0C191D003EC0E07480C0E0122C9C1581DC
:0A19290015811581748AC0E0743E38
:0E193300C0E07480C0E0122C9C158115811557
:0A1941008174ACC0E0743EC0E07495
:0D194B0080C0E0122C9C158115811581745F
:0A195800D5C0E0743EC0E07480C00A
:0C196200E0122C9C15811581158174F594
:0B196E00C0E0743EC0E07480C0E012D6
:0C1979002C9C158115811581741DC0E0A7
:0C1985007438C0E07480C0E0122C9C1587
:0619910081158115812281
:0E199700E5829000B4F09000B4E0FABA430389
:0319A500021A3FE4
:0619A800BA4403021AE636
:0619AE00BA4503021B67AD
:0619B400BA4803021C0CFE
:0519BA00BA4E02805E40
:0519BF00BA4F02804157
:0519C400BA530280246B
:0519C900BA5402800782
:0619CE00BA7203021C04C2
:0119D40022F0
:0A19D5007416C0E0743FC0E0748097
:0E19DF00C0E0122C9C158115811581022A4151
:0A19ED00742BC0E0743FC0E074806A
:0E19F700C0E0122C9C158115811581022A4535
:0A1A05007440C0E0743FC0E074803C
:0E1A0F00C0E0122C9C158115811581022A4918
:0A1A1D007456C0E0743FC0E074800E
:0E1A2700C0E0122C9C158115811581900005E0
:0A1A350012216FAA82AB8302258103
:021A3F007A002B
:031A4100BA0300E5
:051A44004003021AD06E
:0A1A4900EA2425FBE43401FC8B8243
:0C1A53008C83E0603BEA75F002A424DA0A
:0C1A5F00F582740035F0F583E0FBA3E095
:0E1A6B00FC8A057E00C002C003C004C005C096
:0A1A7900067477C0E0743FC0E0740B
:0E1A830080C0E0122C9CE58124F9F581D00290
:021A910080399A
:0A1A9300EA75F002A424DAF582746B
:0C1A9D000035F0F583E0FBA3E0FC8A05B7
:0D1AA9007E00C002C003C004C005C006746A
:0A1AB60090C0E0743FC0E07480C0EF
:0C1AC000E0122C9CE58124F9F581D00295
:041ACC000A021A41AF
:0A1AD00074CAC0E0743BC0E07480EB
:0C1ADA00C0E0122C9C15811581158122A2
:0A1AE60074AAC0E0743FC0E07480F1
:0E1AF000C0E0122C9C1581158115819000011B
:0C1AFE0012216FAA82AB839000B5EAF0C1
:0C1B0A009000B5E0FA24FD502674AAC03B
:0C1B1600E0743FC0E07480C0E0122C9C22
:0E1B220015811581158190000112216FAB8293
:091B3000AC839000B5EBF080D10C
:0C1B39008A037C00C002C003C00474D703
:0B1B4500C0E0743FC0E07480C0E012FC
:0C1B50002C9CE58124FBF581D002EA24E6
:0A1B5C0025F582E43401F583E4F07E
:011B6600225C
:0A1B670074EDC0E0743FC0E074802C
:0E1B7100C0E0122C9C15811581158190000199
:0C1B7F0012216FAA82AB839000B5EAF03F
:0C1B8B009000B5E0FA24FD502674EDC077
:0C1B9700E0743FC0E07480C0E0122C9CA1
:0E1BA30015811581158190000112216FAB8212
:091BB100AC839000B5EBF080D18B
:0C1BBA008A037C00C002C003C004741940
:0B1BC600C0E07440C0E07480C0E0127A
:0E1BD1002C9CE58124FBF581D002EA75F00220
:0A1BDF00A424DAF582740035F0F555
:0D1BE90083E0FBA3E0FCBB0004BC00012274
:0A1BF600EA2425F582E43401F583AA
:041C00007401F02259
:081C0400900119E4F0021C0F2D
:031C0C000218C4F7
:0A1C0F00742EC0E07440C0E0748041
:0C1C1900C0E0122C9C158115811581740F
:0A1C250040C0E07440C0E07480C0CD
:0C1C2F00E0122C9C158115811581742E8B
:0B1C3B00C0E07440C0E07480C0E01204
:0C1C46002C9C158115811581744DC0E0A7
:0C1C52007440C0E07480C0E0122C9C15AF
:0A1C5E008115811581746FC0E074D8
:0C1C680040C0E07480C0E0122C9C15818C
:0A1C7400158115817495C0E07440DD
:0E1C7E00C0E07480C0E0122C9C158115811509
:0A1C8C008174BEC0E07440C0E07433
:0D1C960080C0E0122C9C1581158115817411
:0A1CA300E6C0E07440C0E07480C0A9
:0C1CAD00E0122C9C158115811581741427
:0B1CB900C0E07441C0E07480C0E01285
:091CC4002C9C158115811581226B
:0E1CCD00E5829000B6F09000B6E0FABA43024D
:021CDB00802E59
:051CDD00BA4502802061
:051CE200BA4702802D4D
:051CE700BA4802800A6A
:051CEC00BA4C02800863
:051CF100BA503280270B
:031CF600021C0FBE
:091CF9009001197401F0020E01C2
:091D02009001197402F00214743E
:091D0B009001197403F00218C4E0
:091D14009001197404F0020CACFA
:091D1D009001197405F0020B5548
:011D2600229A
:0E1D2700E5829000B7F0900119E0FA24FA402E
:081D350055EA2A2A901D3D73B6
:071D3D00021D4F021D5902B7
:061D44001D63021D6D028B
:051D4A001D77021D8160
:0A1D4F009000B7E0FAF582021CCD07
:0A1D59009000B7E0FAF582020EE9EF
:0A1D63009000B7E0FAF582021508BF
:0A1D6D009000B7E0FAF58202199722
:0A1D77009000B7E0FAF582020D407B
:0A1D81009000B7E0FAF582020BD4DF
:011D8B002235
:071D8C0012257012070F126F
:081D9300213B120A29D2931230
:081D9B002A62900119E4F090A6
:0A1DA3000031F075820012091C12D5
:021DAD001C0F09
:071DAF009000B8E4F07A0097
:031DB600BA03006D
:051DB9004003021EB909
:0A1DBE00EA241AFBE43401FC8B82D6
:081DC8008C83E07003021EB0E1
:0C1DD0008A037C00C003C0047449C0E01A
:0C1DDC007441C0E07480C0E0122C9CE553
:0E1DE8008124FBF581900031E4F07582001239
:091DF600091C90418275F0801275
:071DFF0009669000B8E0FB4B
:0E1E0600C003122165AC82D003BC4402803FB1
:0C1E14008B047D00C003C004C0057449AD
:0B1E2000C0E07441C0E07480C0E0121C
:0E1E2B002C9CE58124FBF581D003900031E46E
:0E1E3900F0758200C00312091CD00390418294
:0C1E470075F080C003120966D00380B360
:0E1E53009000B8E0FB8B047D00C003C004C00B
:0A1E6100057491C0E07441C0E07404
:0E1E6B0080C0E0122C9CE58124FBF581D003A1
:0E1E7900900031E4F0758200C00312091CD005
:0E1E8700039041A875F080C003120966D003D5
:0A1E9500EB2425F582E43401F58307
:0A1E9F00E4F0EB241AF582E43401AC
:071EA900F583E4F0021DAF18
:091EB0000A9000B8EAF0021DB628
:091EB900122165AA821000030247
:021EC2001F3DC2
:051EC400BA4402800396
:031EC900021DAF48
:021ECC007B0099
:031ECE00BB030053
:051ED1004003021DAFFB
:0A1ED600EB241AFCE43401FD8C82B9
:0E1EE0008D83E060558B047D00C003C004C0FC
:0A1EEE00057491C0E07441C0E07477
:0E1EF80080C0E0122C9CE58124FBF581D00314
:0E1F0600900031E4F0758200C00312091CD077
:0E1F1400039041A875F080C003120966D00347
:0A1F2200EB2425F582E43401F58379
:0A1F2C00E4F0EB241AF582E434011E
:041F3600F583E4F05B
:031F3A000B809188
:0D1F3D00BA0D0A75820AC002122153D002AB
:0E1F4A008A82C002122153D0028A82121D2701
:031F5800021DAFB8
:0E36EB000D0A456E74657220616E20454550D3
:0E36F900524F4D20626C6F636B206E756D62D8
:0E37070065722066726F6D20302D373A2000FB
:0E3715000D0A494E56414C49443A20456E7407
:0E372300657220616E20454550524F4D206268
:0E3731006C6F636B206E756D62657220667240
:09373F006F6D20302D373A200097
:0E3748000D0A456E74657220616E2045455075
:0E375600524F4D20576F72642061646472659B
:0B376400737320696E206865783A00DE
:0E376F000D0A496E20437573746F6D20436818
:0D377D0061726163746572204D6F646500B8
:0E378A000D0A50726573732027482720666F62
:07379800722068656C7000EF
:0E379F000D0A507265737320274F2720746F38
:0E37AD00207365742070696E20746F206F7534
:0937BB0074707574206C6F7700C6
:0E37C4000D0A50726573732027492720746F19
:0E37D200207365742070696E20746F20696E1C
:0E37E0007075742F6F75747075742076616C3F
:0837EE00756520686967680039
:0E37F6000D0A50726573732027532720746FDD
:0E380400207669657720737461747573206F88
:0B38120066207468652070696E73000A
:0E381D000D0A50726573732027722720746F96
:0E382B002072657475726E20746F206D616975
:093839006E206D656E750D0A002C
:0E3842000D0A456E74657220612070696E205B
:0E38500066726F6D20302D3720746F20736507
:0E385E0074206173206F7574707574206C6F28
:04386C00773A200087
:0E3870000D0A536F7272792C2063616E2774FB
:0E387E00206368616E67652070696E203120DE
:0E388C00746F206F7574707574206C6F772EDA
:03389A000D0A0014
:0E389D000D0A456E74657220612070696E2000
:0E38AB0066726F6D20302D3720746F207365AC
:0E38B9007420617320696E7075742F6F7574C2
:0E38C7007075742076616C756520686967689D
:0338D5003A200096
:0E38D8002F722F6E436F756E746572207265CD
:0638E6007365740D0A0079
:0E38EC000D0A50726573732027542720746FE5
:0E38FA00207465737420746F20637573746F8F
:073908006D20636F64650090
:0E390F000D0A507265737320274E2720746FC7
:0E391D00206164642061206E6577206368611C
:07392B007261637465720014
:0E3932000D0A50726573732027532720746F9F
:0E394000207072696E74206120637573746F5D
:0C394E006D206368617261637465720033
:0E395A000D0A50726573732027462720746F84
:0E3968002064726177206120666C61672074B4
:063976006F204C434400E9
:0E397C000D0A456E74657220616E20616464F0
:0E398A00726573732066726F6D20302D373AB0
:01399800002E
:0E3999000D0A57726F746520637573746F6D3D
:0E39A7002063686172616374657220746F2022
:0639B5004C43440D0A0022
:0E39BB000D0A496E204C4344204D6F64650098
:0E39C9000D0A50726573732027492720746F12
:0E39D70020496E6974204C43442E204D7573B8
:0E39E500742063616C6C2074686973206669DD
:0439F3007273740077
:0E39F7000D0A50726573732027672720746FC6
:0E3A05002073686F7720676F746F616464725E
:023A1300200091
:0E3A15000D0A50726573732027782720746F96
:0D3A23002073686F7720676F746F787900EB
:0E3A30000D0A50726573732027632720746F90
:0D3A3E002073686F77207075746368200036
:0E3A4B000D0A50726573732027732720746F65
:0D3A59002073686F772070757473747200AD
:0E3A66000D0A50726573732027432720746F7A
:0E3A740020636C65617220746865204C4344C9
:093A820020646973706C61790025
:0E3A8B000D0A50726573732027592720746F3F
:0E3A990020726561642074686520636F6E742E
:0E3AA700656E7473206F6620444452414D00DA
:0E3AB5000D0A50726573732027472720746F27
:0E3AC30020726561642074686520636F6E7404
:0E3AD100656E7473206F6620434752414D00AE
:0E3ADF000D0A496E697469616C697A696E67D7
:073AED00204C43440D0A00C8
:0E3AF4000D0A456E74657220612068657820A9
:0E3B02006164647265737320746F20676F20B6
:053B1000746F0D0A00B6
:0E3B15000D0A456E746572206120726F772074
:0A3B230066726F6D20302D333A00FA
:0E3B2D000D0A456E746572206120636F6C2076
:0B3B3B0066726F6D20302D31353A00AE
:0E3B46000D0A4D6F76656420637572736F72A1
:0E3B540020746F206E6577206C6F636174695A
:0D3B62006F6E202825642C2564290D0A00B3
:0E3B6F000D0A456E74657220612063686172F4
:0E3B7D00616374657220746F2070757420612E
:0E3B8B00742063757272656E742061646472DA
:063B99006573730D0A00C4
:0E3B9F000D456E746572206120737472696E3C
:043BAD00670D0A0096
:0E3BB1000D0A4C434420446973706C61792006
:0B3BBF00436C6561726564210D0A0013
:033BCA000D0A00E1
:053BCD0025783A2000FC
:043BD2002578200032
:0E3BD6000D0A496E20454550524F4D204D6F4F
:033BE40064650015
:0E3BE7000D0A50726573732027572720746FE4
:0E3BF500207772697465206120627974652002
:0A3C0300746F20454550524F4D00EC
:0E3C0D000D0A50726573732027522720746FC2
:0E3C1B00207265616420612062797465206604
:0B3C2900726F6D20454550524F4D005A
:0E3C34000D0A507265737320274C2720746FA1
:0E3C420020646973706C617920454550524FC3
:0E3C50004D2064617461206F6E204C4344006F
:0E3C5E000D0A50726573732027442720746F7F
:0E3C6C0020646F2061204865782044756D70DB
:0B3C7A00206F6620454550524F4D0062
:0E3C85000D0A57726974696E6720746F2045CE
:093C93004550524F4D2E2E2E001B
:0E3C9C000D0A456E74657220612062797465B0
:0E3CAA00206F66206461746120746F20777251
:0E3CB80069746520746F20454550524F4D3A97
:013CC60000FD
:0E3CC7000D0A57726F746520255820746F2007
:0E3CD500626C6F636B2025642061646472650D
:0E3CE3007373203078255820696E20454550B7
:073CF100524F4D210D0A00A6
:0E3CF8000D0A52656164696E672066726F6D19
:0B3D060020454550524F4D2E2E2E0040
:0E3D11000D0A526561642025582066726F6DA0
:0E3D1F0020626C6F636B202564206164647207
:0B3D2D0065737320307825580D0A00E4
:0E3D38000D0A456E746572204C434420726F74
:0C3D4600772066726F6D20302D333A003C
:033D52003A200014
:0E3D55000D0A57726F746520746F204C434442
:043D6300210D0A0024
:0E3D67000D0A506572666F726D696E6720619D
:0E3D75006E20454550524F4D20646174612010
:073D830064756D700D0A006C
:0E3D8A000D0A456E74657220746865207374AE
:0E3D9800617274696E6720626C6F636B2061EC
:0B3DA6006E642061646472657373003A
:0E3DB1000D0A456E7465722074686520656E9B
:0E3DBF0064696E6720626C6F636B20616E64D6
:093DCD00206164647265737300E7
:0E3DD6000D0A496E76616C6964206164647246
:0E3DE40065737365732E20456E642061646400
:0E3DF20072657373206D7573742062652061B5
:0E3E000066746572207374617274206164646C
:053E0E007265737300F2
:0E3E13000D0A496E20436C6F636B204D6F6487
:023E210065003A
:0E3E23000D0A50726573732027542720746FA8
:0E3E31002073746F702074686520636C6F637B
:023E3F006B0016
:0E3E41000D0A50726573732027532720746F8B
:0E3E4F002073746172742074686520636C6F58
:093E5D00636B20616761696E006E
:0E3E66000D0A507265737320274F2720746F6A
:0E3E74002072657365742074686520636C6F3E
:083E8200636B20746F20300017
:0E3E8A000D0A507265737320274E2720746F47
:0E3E9800206372656174652061206E6577207D
:063EA600616C61726D0009
:0E3EAC000D0A50726573732027432720746F30
:0E3EBA00207669657720636F756E7420666FE1
:0D3EC80072206561636820616C61726D009D
:0E3ED5000D0A50726573732027442720746F06
:0E3EE3002064697361626C6520616E20616C01
:043EF10061726D008D
:0E3EF5000D0A50726573732027452720746FE5
:0E3F0300207265656E61626C6520616E2061E2
:053F11006C61726D00FF
:0E3F16000D0A53746F7070696E6720746865D1
:073F240020636C6F636B006A
:0E3F2B000D0A5374617274696E6720746865C4
:073F390020636C6F636B0055
:0E3F40000D0A526573657474696E67207468AB
:083F4E006520636C6F636B00DA
:0E3F56000D0A456E74657220616C61726D20FB
:0E3F640074696D6520696E207365636F6E640D
:053F7200733A0D0A0086
:0E3F77000D0A416C61726D2025643A2025759B
:0B3F8500203C456E61626C65643E00EC
:0E3F90000D0A416C61726D2025643A20257582
:0C3F9E00203C44697361626C65643E0065
:0E3FAA000D0A456E74657220616E20616C61B7
:0E3FB800726D206E756D6265722066726F6D9F
:0E3FC60020302D3220746F2064697361626CAC
:033FD400653A004B
:0E3FD7000D0A416C61726D20256420646973CF
:083FE50061626C65640D0A00C5
:0E3FED000D0A456E74657220616E20616C6174
:0E3FFB00726D206E756D6265722066726F6D5C
:0E40090020302D3220746F20656E61626C6570
:024017003A006D
:0E4019000D0A416C61726D20256420656E6198
:07402700626C65640D0A00E4
:0E402E000D0A2A2A2A2A2A2A2A2A2A2A2A2A75
:04403C002A2A2A0002
:0D4040000D0A202020204D656E750D0A0030
:0E404D000D0A50726573732027482720746F88
:0E405B002073686F77207468652068656C704C
:06406900206D656E75007C
:0E406F000D0A507265737320274C2720746F62
:0E407D0020656E746572204C434420636F6EA4
:0A408B0074726F6C206D6F646500A5
:0E4095000D0A50726573732027452720746F43
:0E40A30020656E74657220454550524F4D20C9
:0D40B100636F6E74726F6C206D6F6465003C
:0E40BE000D0A50726573732027432720746F1C
:0E40CC0020656E74657220436C6F636B206319
:0C40DA006F6E74726F6C206D6F64650077
:0E40E6000D0A50726573732027472720746FF0
:0E40F40020656E74657220437573746F6D20C5
:0E410200436F646520636F6E74726F6C206D86
:044110006F64650073
:0E4114000D0A50726573732027502720746FB8
:0E41220020656E7465722050434620492F4F71
:0E41300020657870616E64657220636F6E7436
:0B413E00726F6C206D6F64650D0A004D
:0E4149000D0A416C61726D20256420676F695C
:0E4157006E67206F66662C20796F75206D757F
:0E4165007374207072657373202744272074D2
:0E4173006F2064697361626C652069740D0AC7
:01418100003D
:0E41820044697361626C6520416C61726D214D
:01419000002E
:0E4191000D0A416C61726D2025642064697313
:09419F0061626C6564210D0A00E7
:0E41A800202020202020202020202020202049
:0141B6000008
:014328000094
:0343290000000091
:0E1F5B00C0E0C082C08390011E7401F0D083EC
:051F6900D082D0E0323F
:0A1F6E0012072C75827112075C1235
:0E1F780007A7AA82C002120751D002C00212AF
:071F8600073BD0028A822212
:0A1F8D0012072C75827012075C9099
:0A1F9700011DE0FAF58212075C025A
:021FA100073BFC
:0E1FA300121F6EAA827B00C002C003C002C0E3
:0A1FB1000374B7C0E07441C0E0748F
:0E1FBB0080C0E0122C9CE58124FBF581D00350
:0B1FC900D002C002C00374C9C0E07465
:0C1FD40041C0E07480C0E0122C9C15811C
:0A1FE00015811581D003D0027C00AA
:031FEA00BC080030
:051FED004003022093F7
:081FF2008CF005F0740180027F
:021FFA0025E0E0
:0E1FFC00D5F0FBFD90011DE0FEED5E605D8CFA
:0D200A00057E008CF005F07F017800800657
:06201700EF2FFFE833F893
:0E201D00D5F0F7EA5207EB52008CF005F0E820
:05202B003392D2800891
:08203000A2D2E813F8EF13FF40
:0E203800D5F0F5C002C003C004C007C000C050
:0A20460005C00674EAC0E07441C052
:0E205000E07480C0E0122C9CE58124F9F5813B
:08205E00D004D003D002802958
:0E2066008C057E00C002C003C004C005C00689
:0A207400740BC0E07442C0E07480F9
:0E207E00C0E0122C9CE58124FBF581D004D03B
:03208C0003D0027C
:04208F000C021FEA36
:0A2093007425C0E07442C0E07480C0
:0C209D00C0E0122C9C15811581158122D9
:0E20A900E5829000B9F09000B9E0FA8AF005E7
:0520B700F0740180023D
:0220BC0025E01D
:0D20BE00D5F0FBF4FA90011DE0FB5AF00292
:0220CB001F8D67
:0E20CD00E5829000BAF09000BAE0FA8AF005C1
:0520DB00F07401800219
:0220E00025E0F9
:0E20E200D5F0FBFA90011DE0FB4AF0021F8DC5
:0D20F000E5829000BBF09000BBE0FA7B00A1
:0320FD00BB040021
:0A21000050388BF005F074018002E6
:02210A0025E0CE
:0E210C00D5F0FBFC5A601374042BFCF582C066
:0C211A0002C0031220CDD003D0028011BF
:0E21260074042BFCF582C002C0031220A9D065
:0321340003D002D3
:032137000B80C357
:01213A002282
:0C213B0012072790011DE4F075820012CD
:0C21470020CD7582011220CD43A8042297
:0E41B7000D0A526561642076616C75652025E5
:0441C500780D0A0067
:0E41C9000D0A5374617465206F662070696E74
:0E41D70073206F6E20492F4F20657870616E47
:0541E5006465723A0060
:0E41EA000D0A50696E2025643A20496E7075EA
:0E41F800742F4F75747075742076616C756548
:054206003A20256400D0
:0E420B000D0A50696E2025643A204F757470BC
:0C42190075742076616C75653A203000E9
:034225000D0A007F
:01432C000090
:01432D00008F
:06215300E5829000BCF0E3
:0C2159003099FD9000BCE0F599C299227D
:0521650010980280FB50
:05216A00AA998A8222FF
:0E216F00AA83E5829000BDF0A3EAF09000CABA
:0E217D00E4F0A3F09000BDE0FAA3E0FBC37411
:0E218B000A9A74808BF063F08095F0501974FE
:0A21990028C0E07442C0E07480C06A
:0E21A300E0122C9C15811581158190FFFF2202
:0E21B1009000CAE0FCA3E0FDC3EC9AED648050
:0C21BF008BF063F08095F0400302227D5D
:0E21CB00C002C003C004C005122165AE82D060
:0E21D90005D004D003D0028E82C002C003C025
:0E21E70004C005C006122153D006D005D00456
:0E21F500D003D002BE0D0975820A12215302DA
:02220300227D3A
:0E220500BE0812EC24FFFFED34FFF89000CA73
:07221300EFF0A3E8F0809753
:05221A00BE710280030B
:03221F00BE5104A9
:0422220090FFFE2209
:0D2226008E82C002C003C004C005C00612B5
:0E2233002A8DE582D006D005D004D003D0025B
:0A224100601AEC24BFF582ED3400B2
:0E224B00F583EEF09000CA74012CF0E43DA380
:04225900F00221B1BD
:0A225D00C002C003745AC0E07442CE
:0E226700C0E07480C0E0122C9C15811581151A
:0822750081D003D0020221B167
:0C227D009000CAE0FAA3E0FBEA24BFF5E1
:0C22890082EB3400F583E4F09000BF7598
:05229500F000022AAA7E
:0C229A009000CFE4F0A3F09000D2E4F03C
:0E22A6009000CFE0FAA3E0FBC3EA9402EB64E1
:0822B40080948040030223E83E
:0E22BC00C002C003122165AC82D003D0028C98
:0E22CA0082C002C003C004122153D004D0030E
:0E22D800D002BC0D2CEA4B700C9000CDE4F04F
:0722E6009000CEF00223E896
:0822ED00BA0105BB00028003E9
:0322F5000223E8D9
:0A22F8009000CDE0FD9000CEF090C4
:0723020000CDE4F00223E826
:0E230900BC0813EA24FFFDEB34FFFE9000CF6A
:08231700EDF0A3EEF00222A696
:0E231F008C82C002C003C004122A8DE582D059
:0C232D0004D003D002601AEA24CDF5822F
:0C233900EB3400F583ECF09000CF740151
:092345002AF0E43BA3F00222A6F9
:0E234E008C82C004122C33E582D004700D8CFA
:0C235C0082C004122C16E582D0046068D8
:0E236800C3EC648094C1400B74C68CF063F02B
:052376008095F05013FA
:0E237B00C3EC648094E1404D74E68CF063F096
:052389008095F04042C8
:0C238E009000CFE0FAA3E0FBEA24CDFAB7
:0C239A00EB3400FB8C82C002C003C004C6
:0E23A600122C16E582D004D003D0026006741B
:0523B400DF5CFD80026A
:0223B9008C0591
:0E23BB008A828B83EDF09000CFE02401F0A326
:0723C900E03400F00222A63F
:0A23D0007484C0E07442C0E0748021
:0E23DA00C0E0122C9C1581158115810222A6EF
:0923E8009000D1E4F07A007B00C2
:0E23F100C3EA9402EB6480948040030224ACA3
:0A23FF00EA24CDF582EB3400F583EB
:0E240900E0FC9000CCF08C82C002C003C00446
:0E241700122A8DE582D004D003D0026009ECB9
:0824250024D09000D2F0803AAF
:0E242D00C3EC648094E1401474E68CF063F01C
:0E243B008095F040099000D274A92CF0801E0C
:0E2449009000CCE0FCC3648094C1401274C6C5
:0E2457008CF063F08095F040079000D274C9BD
:022465002CF059
:0E2467007401C39AFCE49BFDCC25E0CC33CC81
:0E24750025E0CC33FD9000D2E0FE8CF005F0A7
:06248300AC067D0080069E
:06248900EC2CFCED33FD1C
:0E248F00D5F0F79000D1E0FE7F00EC2EFCEDC2
:0C249D003FFD9000D1ECF00ABA00010BEA
:0324A9000223F11A
:0724AC009000D1E0F582224F
:0E24B300AAF0AB83E5829000D5F0A3EBF0A376
:0E24C100EAF0122165AA829000D8EAF08A8221
:0C24CF001221539000D3E0FAA3E0FB9030
:0824DB0000D5E0F508A3E0F5CF
:0924E30009A3E0F50A7F0078006E
:0A24EC009000D8E0F9B90D02805D00
:0E24F600C3EF9AE864808BF063F08095F0509D
:0B2504004EC002C003EF2508FAE835C6
:0A250F0009FBAC0A8A828B838CF072
:0E251900E9122BDDC003C007C000122165AA25
:0E25270082D000D007D0039000D8EAF08A825C
:0E253500C002C003C007C000122153D000D066
:0A25430007D003D0020FBF0001080B
:06254D00D003D0028099CA
:0E2553009000D5E0FAA3E0FBA3E0FCEF2AFF26
:0D256100E83BF88C058F8288838DF0E40242
:02256E002BDD63
:0E257000759850758920758DFD758BFDD28E86
:03257E00D29922CD
:0E42280053657269616C5F676574496E7465F9
:0E42360067657228293A204572726F722E2039
:0E4244004D61785F4C656E67746820746F6F13
:08425200206C617267652E000B
:0E425A000D0A496E76616C69642063686172BA
:0E42680061637465722E20456E746572206F5E
:0E4276006E6C79206469676974732E0D0A00FE
:0E4284000D0A496E76616C6964206368617290
:0E42920061637465722E20456E746572206F34
:0E42A0006E6C792068657820636861726163D6
:0842AE00746572732E0D0A0005
:02007100C201CA
:0D258100AA83E5829000E0F0A3EAF07A0062
:03258E00BA03008D
:0A2591005012EA2425FBE43401FC9B
:0A259B008B828C83E060030A80E964
:0A25A500BA031674B6C0E07442C019
:0E25AF00E07480C0E0122C9C1581158115810E
:0125BD0022FB
:0A25BE00EA2425F582E43401F583D8
:0A25C8007401F0EA2A24DAFBE4347F
:0C25D20000FC9000E0E0FDA3E0FE8B8226
:0E25DE008C83EDF0A3EEF07B00C005C006C0BC
:0A25EC0002C00374E1C0E07442C0B5
:0E25F600E07480C0E0122C9CE58124F9F58190
:0126040022B3
:0E260500C0E0C0F0C082C083C002C003C004A9
:0E261300C005C006C007C000C001C0D075D011
:0B26210000C20290011FE0FABA0200A4
:0C262C00500A90011F74012AF002295589
:08263800B2922001030226DB2F
:0D264000900120E0FA90012074012AF09032
:09264D000120E0FABA0A02800340
:032656000228CC8B
:0B265900900120E4F0900121E0FA90D5
:09266400012174012AF0D2029058
:09266D000121E0FABA0A0280031F
:032676000228CC6B
:0B267900900121E4F0900122E0FA90B3
:0E268400012274012AF0900122E0FABA060247
:022692008003C3
:032694000228CC4D
:0B269700900122E4F0900123E0FA9093
:0E26A200012374012AF0900123E0FABA0A0223
:0226B0008003A5
:0326B2000228CC2F
:0B26B500900123E4F0900124E0FA9073
:0E26C000012474012AF0900124E0FABA0A0203
:0226CE00800387
:0326D0000228CC11
:0826D300900124E4F00228CC80
:0B26DB001208C7AA82900120E0FB90CB
:0E26E600012074012BF0900031740FF075820A
:0E26F40003C00212091CD002900120E0FB740A
:0D270200302BFBF582C002120953D002906B
:09270F000120E0FBBB0A0280037B
:032718000228C7CD
:0E271B00900120E4F0900031740FF0758203FD
:0E272900C00212091CD002900120E0FB7430A7
:0E2737002BFBF582C002120953D00290012143
:0C274500E0FB90012174012BF0D2029007
:0E2751000031740DF0758203C00212091CD015
:0E275F0002900121E0FB74302BFBF582C002DA
:0E276D00120953D002900121E0FBBB0A02804A
:01277B00035A
:03277C000228C769
:0E277F00900121E4F0900031740DF07582039A
:0E278D00C00212091CD002900121E0FB743042
:0E279B002BFBF582C002120953D002900122DE
:0E27A900E0FB90012274012BF0900031740CC3
:0E27B700F0758203C00212091CD002900122AC
:0E27C500E0FB74302BFBF582C002120953D0EA
:0B27D30002900122E0FBBB0602800325
:0327DE000228C707
:0E27E100900122E4F0900031740CF075820338
:0E27EF00C00212091CD002900122E0FB7430DF
:0E27FD002BFBF582C002120953D0029001237B
:0E280B00E0FB90012374012BF0900031740A61
:0E281900F0758203C00212091CD00290012348
:0E282700E0FB74302BFBF582C002120953D087
:0B28350002900123E0FBBB0A028003BD
:032840000228C7A4
:0E284300900123E4F0900031740AF0758203D6
:0E285100C00212091CD002900123E0FB74307B
:0E285F002BFBF582C002120953D00290012417
:0E286D00E0FB90012474012BF09000317409FF
:0E287B00F0758203C00212091CD002900124E5
:0E288900E0FB74302BFBF582C002120953D025
:0E28970002900124E0FBBB0A27900124E4F02C
:0E28A5009000317409F0758203C00212091C04
:0E28B300D002900124E0FB74302BFBF582C0B4
:0628C10002120953D002CF
:0528C7008A821208EDF9
:0928CC0090011FE4F02002030258
:0228D500295583
:0228D7007A0085
:0328D900BA03003F
:0528DC00400302295534
:0A28E100EA2425FBE43401FC8B829D
:0B28EB008C83E06061EA241AFBE434F7
:0C28F60001FC8B828C83E07052EA2A24E3
:0A290200DAFBE43400FC8B828C83C6
:0A290C00E0FDA3E0FE1DBDFF011E6B
:0E2916008B828C83EDF0A3EEF0ED4E702E2040
:0C292400011C900031E4F0758200C0023C
:0E29300012091CD00290430D75F080C00212F7
:04293E000966D00254
:0A294200EA241AF582E43401F5835B
:05294C007401F0D2004F
:042951000A0228D975
:0A29550090011EE0FA605EBA030074
:0B295F00500990011E74012AF0805006
:0D296A0090011EE4F0900031F07582031220
:08297700091C900128E0FA9010
:0E297F00012874012AF0900128E0FA24F0509B
:06298D0005900128E4F0B2
:0E299300900128E0FA24F6500B74372AFBF569
:0629A100821209538009B7
:0929A70074302AFAF5821209537A
:0A29B000900128E0FAF5821220F0F1
:0E29BA00758C87758AFF438810D0D0D001D06D
:0E29C80000D007D006D005D004D003D002D036
:0829D60083D082D0F0D0E03282
:0E29DE00C2AF9000317409F075820312091C1B
:0E29EC00900124E0FA74302AFAF582120953A1
:0E29FA00900123E0FA74302AFAF58212095394
:0E2A080075823A120953900122E0FA74302AC6
:0E2A1600FAF582120953900121E0FA74302A79
:0D2A2400FAF58212095375822E12095390A3
:0E2A31000120E0FA74302AFAF582120953D21D
:022A3F00AF22C4
:042A410053A8FD2277
:042A450043A88222FE
:0A2A4900900120E4F0900121F090CC
:082A53000122F0900123F09034
:072A5B000124E4F00229DE72
:0E2A6200438901758C87758AFF43A882C29252
:0A2A700090011FE4F0900128F0909F
:082A7A00011AF090011BF0901D
:0B2A8200011CE4F0122A4943881022D6
:0E42B6000D0A416C6C20616C61726D732062A8
:0E42C4007573792C2063616E6E6F74206372C7
:0E42D20065617465206E657720616C61726DA8
:0142E00000DD
:0E42E1000D0A437265617465642061206E658C
:0E42EF007720616C61726D2025642077697400
:0E42FD0068206475726174696F6E2025750DFE
:02430B000A00A6
:0E430D0044697361626C6520416C61726D21C0
:01431B0000A1
:01432E00008E
:01432F00008D
:01433000008C
:01433100008B
:01433200008A
:014333000089
:0343340000000086
:014337000085
:06004500E478FFF6D8FD8F
:0E2A8D00E5829000E2F09000E2E0FABA30003C
:0B2A9B004009EA24C6400475820122B5
:042AA6007582002213
:0E2AAA00AAF0AB83E5829000E3F0A3EBF0A36B
:0E2AB800EAF07A007B009000E3E0FCA3E0FD72
:032AC600A3E0FE8C
:0E2AC9008C828D838EF012353BFF6039C37412
:0E2AD700B98FF063F08095F04007EF648094B3
:032AE500B05026C8
:0E2AE8008C828D838EF012353BFFBF2D028055
:012AF60017C8
:052AF700BF2B0280125C
:052AFC000CBC00010DFF
:0D2B01009000E3ECF0A3EDF0A3EEF080BB3C
:0E2B0E009000E3ECF0A3EDF0A3EEF08C828DCE
:0C2B1C00838EF012353BFFE4BF2D010456
:082B2800F888017003BF2B0EB9
:0E2B30009000E374012CF0E43DA3F0A3EEF05E
:0B2B3E009000E3E0FCA3E0FDA3E0FE3C
:0E2B49008C828D838EF012353BFF6068C3EFE7
:0E2B5700648094B0406074B98FF063F0809594
:0E2B6500F04055C0019000E7740AF0E4A3F0C0
:0E2B73008A828B83C004C005C006C007C00163
:082B8100122BF685820B8583FF
:0C2B89000CD001D007D006D005D004EF1E
:0E2B95003395E0F8EF24D0FFE834FFF8EF2589
:0A2BA3000BFAE8350CFB0CBC000136
:012BAD000D1A
:0E2BAE009000E3ECF0A3EDF0A3EEF0D0018078
:012BBC008C8C
:0E2BBD009000E3ECF0A3EDF0A3EEF0E9600968
:092BCB00C3E49AFCE49BFD8004C4
:042BD4008A048B05DF
:052BD8008C828D8322B8
:080023007911E94400601B7A29
:05002B0001904327785D
:030030001875A0A0
:0A00330001E493F2A308B8000205EF
:08003D00A0D9F4DAF275A0FF6E
:0E2BDD0020F71030F6118883A88220F507F645
:052BEB00A883758300C2
:012BF00022C2
:032BF100F280F778
:022BF400F022CD
:0E2BF600AA83AB828BF09000E7E0A4F8A9F070
:0E2C04008AF0E0A429F98BF0A3E0A429F5835F
:042C12008882222270
:08004B007800E84400600A7926
:030053000075A095
:0600560000E4F309D8FCF0
:08005C007818E84401600C79FA
:0B00640002900000E4F0A3D8FCD9FAE1
:0E2C1600E5829000E9F09000E9E0FABA610072
:0B2C24004009EA24854004758201226B
:042C2F007582002288
:0E2C3300E5829000EAF09000EAE0FABA410073
:0B2C41004009EA24A54004758201222E
:042C4C00758200226B
:082C5000C012858112AA821254
:052C58002153D01222FF
:0E2C5D00AAF0AB83E5829000ECF0A3EBF0A3AD
:0E2C6B00EAF09000ECE0FAA3E0FBA3E0FC909E
:0E2C790000EBE0FD9000FFE4F0A3F0A3F0906C
:0E2C87000102EAF0A3EBF0A3ECF0900105EDE2
:072C9500F0902C50022DB558
:062C9C00C012858112E563
:0C2CA2001224FBFA9000FFE4F0A3F0A362
:0C2CAE00F0E51224FBF8900102E6F008AB
:0D2CBA00A3E6F008A3E6F0900105EAF09013
:0A2CC7002C50122DB5AA82AB83D069
:022CD1001222CD
:0C2CD300E5829000FBF09000FBE0FA901E
:0E2CDF0000F1E0C0E0A3E0C0E0A3E0C0E074BC
:082CED0001C0E0742DC0E0906D
:0C2CF50000EFE0C0E0A3E0C0E08A822213
:0E2D01001581158115819000F9E0FAA3E0FB21
:0C2D0F009000F974012AF0E43BA3F022CC
:0E2D1B00E5829000FCF09000FCE0FA74302A93
:0C2D2900FA24C6500A74072AFA3003038B
:032D350043022036
:052D38008A82022CD389
:0E2D3D00E5829000FDF09000FDE0FAC4540F16
:0E2D4B00FBF582C002122D1BD00253020F8A2C
:042D590082022D1BAA
:0E2D5D00E5829000FEF09000F4E0FAA3E0FBA7
:0E2D6B00A3E0FCA3E0FD9000F8E0FE9000FE67
:042D7900E0FF7820DF
:0E2D7D00EE2EFEED235401F94206EA2AFAEB8F
:0E2D8B0033FBEC33FCED33FDC3EE9F4007EE4F
:062D9900C39FFE4302018E
:0E2D9F00D8DC9000F4EAF0A3EBF0A3ECF0A374
:082DAD00EDF09000F8EEF022B9
:0E2DB500AA83E582900106F0A3EAF0900106E1
:0E2DC300E0FAA3E0FB9000EFEAF0A3EBF09043
:0E2DD10000FFE0FAA3E0FBA3E0FC9000F1EAB3
:0E2DDF00F0A3EBF0A3ECF09000F9E4F0A3F009
:0E2DED00900102E0FAA3E0FBA3E0FC8A828BD7
:0E2DFB00838CF012353BFD90010274012AF02A
:0D2E0900E43BA3F0A3ECF0ED70030234DC19
:052E1600BD2502800350
:032E1B000234D4AA
:052E1E00C204C205C260
:042E230006C207C21A
:042E270008C209C212
:042E2B000AC20B903C
:092E2F000108E4F0900109F090A3
:0E2E3800010A74FFF0900102E0FAA3E0FBA390
:022E4600E0FCAE
:0E2E48008A828B838CF012353BFEA3AA82ABEC
:0D2E560083900102EAF0A3EBF0A3ECF090F2
:0D2E6300010CEEF0BE25088E82122CD30269
:022E70002DED46
:052E72008E07BF3000D7
:0E2E770040498E07EF24C6404290010AE0FF5A
:0E2E8500BFFF29C002C003C004900109E0FA9B
:0E2E930075F00AA4FAEE24D09001092AF090FE
:0D2EA1000109E0FAD004D003D002709BD2EA
:032EAE0005809705
:0E2EB100EF75F00AA4FFEE24D090010A2FF076
:032EBF00022E4898
:0E2EC20090010CE0FEBE2E0890010AE4F00222
:022ED0002E488A
:0E2ED2008E82C002C003C004C006122C16E59A
:0C2EE0008224FF9203D006D004D003D05F
:0B2EEC000230030790010C74DF5EF061
:0A2EF70090010CE0FEBE20028055A1
:052F0100BE2B02804B15
:052F0600BE2D02804118
:052F0B00BE4202804BF4
:052F1000BE43028050E9
:062F1500BE440302314935
:062F1B00BE460302316B0B
:062F2100BE490302314924
:052F2700BE4C028034E5
:062F2C00BE4F0302315309
:062F3200BE50030230ABAB
:052F3800BE53028042BF
:062F3D00BE550302315BEA
:062F4300BE5803023163D9
:032F490002316FE3
:052F4C00D204022E4832
:052F5100D206022E482B
:052F5600D207022E4825
:052F5B00D209022E481E
:052F6000D20A022E4818
:0E2F6500900105E0FA24FEF8900105F08602C6
:0C2F7300088603188A82122CD302317BDE
:0E2F7F00900105E0FA24FDF8900105F08602AD
:0E2F8D0008860308860418189000F4EAF0A3E2
:0E2F9B00EBF0A3ECF09000F4E0FAA3E0FBA34F
:0E2FA900E0FC8A828B838CF01234E8AA82ABA3
:0E2FB7008390010AE0FBBBFF0590010AEAF0DF
:0C2FC500200438900109E0FBC3EA9B5097
:0D2FD1002E900109EBC39AF0900109E0FB7E
:0D2FDE008B041B900109EBF0BC0002801079
:0E2FEB00758220C002C003122CD3D003D00286
:022FF90080E373
:052FFB00900109EBF05C
:0530000090010AE0FD53
:0E300500C0029000F4E0FCA3E0FFA3E0FA8C10
:0E301300828F838AF012353BD00260538D0409
:0E3021001DC374808CF063F08095F05044C0A5
:0A302F00029000F4E0F50DA3E0F5B7
:083039000EA3E0F50F74012560
:073041000DFBE4350EFAACB3
:0C3048000F9000F4EBF0A3EAF0A3ECF012
:07305400850D82850E8385C6
:0C305B000FF012353BFAF582C002C005F0
:0B306700122CD3D005D002D0028093C1
:0630720020040302317B83
:0D307800900109E0FBC3EA9B400302317B9D
:0C308500900109EBC39AF0900109E0FAF9
:0E3091008A031A900109EAF0BB0003023176AF
:0C309F00758220C002122CD3D00280E603
:0E30AB00900105E0FB24FDF8900105F086037E
:0E30B90008860408860718189000F4EBF0A3B0
:0E30C700ECF0A3EFF09000F6E0FB247F500841
:0830D50090010C7443F080200F
:0D30DD00EB249F500890010C7450F08013FC
:0D30EA00EB24BF500890010C7449F08006E3
:0630F70090010C7458F07A
:0E30FD0090010CE0FBF582C003122CD3D0032F
:0E310B0075823AC003122CD3D003758230C0F7
:0E31190003122CD3D003758278C003122CD37E
:07312700D003BB4902800F39
:05312E00BB5002800A05
:0A3133009000F5E0FBF582122D3D3F
:0C313D009000F4E0FBF582122D3D803282
:0A314900D208900108740AF08028F3
:083153009001087408F08020CF
:08315B00900108740AF08018CD
:083163009001087410F08010C7
:04316B00D20B800CF7
:07316F008E82122CD38005B3
:05317600900109EAF0E0
:0C317B00300B6B900105E0FA24FCF8908A
:0E3187000105F0860208860308860408860605
:0E3195001818189000F4EAF0A3EBF0A3ECF089
:0B31A300A3EEF09000F4741CF0A37485
:0631AE0043F0A37480F061
:0E31B4009000F4E0FBA3E0FCA3E0FD74012B0F
:0E31C200FEE43CFF8D029000F4EEF0A3EFF06F
:0E31D000A3EAF08B828C838DF012353BFA70EF
:0431DE0003022DEDCE
:0731E2008A82122CD380CB7E
:0B31E900900108E0FABA0003022DED8F
:0831F4009001137412F0A374A2
:0631FC0001F030094C90C7
:0E3202000105E0FA14F8900105F08602EA33A7
:0E32100095E0FBFCFE9000F4EAF0A3EBF0A3C7
:0B321E00ECF0A3EEF03008030232C316
:0E3229009000F4E0FAA3E0FBA3E0FCA3E0FEBB
:0E3237007B007C007E009000F4EAF0A3EBF038
:08324500A3ECF0A3EEF080768B
:0C324D00300A2A900105E0FA24FCF890F9
:0E3259000105F0860208860308860408860632
:0E3267001818189000F4EAF0A3EBF0A3ECF0B6
:05327500A3EEF080490A
:0E327A00900105E0FA24FEF8900105F08602AE
:0E32880008860318EB3395E0FCFE9000F4EA94
:0C329600F0A3EBF0A3ECF0A3EEF0200896
:0E32A200209000F4E0FAA3E0FBA3E0FCA3E020
:0E32B000FE7C007E009000F4EAF0A3EBF0A399
:0532BE00ECF0A3EEF0AE
:0C32C30030083E9000F4E0FAA3E0FBA30A
:0E32CF00E0FCA3E0FE30E72B9000F4E0FAA351
:0E32DD00E0FBA3E0FCA3E0FEC3E49AFAE49B4E
:0E32EB00FBE49CFCE49EFE9000F4EAF0A3EBF2
:0932F900F0A3ECF0A3EEF080025A
:02330200C208FF
:08330400D20C900108E0FC75F9
:03330C0010127527
:04330F0011017D002B
:0E3313009000F8E4F08C82C004C005122D5D1D
:0C332100D005D004200C32C0049000F84D
:0A332D00E0FFC4FF851082851183C4
:0A333700E0FA420785108285118339
:0A334100EFF0151074FFB51002152F
:01334B001170
:08334C00900113E510F0A3E568
:0633540011F0D004800C12
:09335A009000F8E0FF8510828567
:033363001183F0E3
:093366000D90010BEDF0B20C908A
:0E336F0000F4E0FFA3E0FAA3E0FEA3E0FBEF12
:0C337D004A4E4B7091900113E510F0A334
:09338900E511F090010BEDF0904C
:0C3392000109E0FA70069001097401F0D6
:0A339E0020052720042474012DFAF5
:0533A800900109E0FBAB
:0D33AD00C3EA9B5011758220C002C00312BC
:0933BA002CD3D003D0021B80EAE1
:0533C300900109EBF090
:0A33C80030081275822D122CD390EC
:0B33D2000109E0FA14900109F0802FBF
:0C33DD0090010BE0FA60283006127582A7
:0B33E9002B122CD3900109E0FA149085
:0533F4000109F0801347
:0A33F900300710758220122CD390CB
:093403000109E0FA14900109F03E
:09340C0020042F90010BE0FA905E
:043415000109E0FBCE
:0E3419008B041B900109EBF0C3EA9C50363087
:0634270005047C30800268
:02342D007C2001
:0E342F008C82C002C003122CD3D003D00280C6
:01343D00DBB3
:0E343E00900109E0FA90010BE0FCC39A5009DE
:09344C00900109EAC39CF0800C18
:07345500900109E4F080057D
:05345C00900109EBF0F6
:0D346100900113E0FAA3E0FB90010BE0FCEA
:0A346E008C061CEE6040B20C200C2E
:06347800150ABA00010B69
:0E347E008A828B83E0FEC4540FFE9000F8F0AB
:02348C00800EB0
:0E348E008A828B83E0FE53060F9000F8EEF06A
:0E349C009000F8E0FEF582C002C003C00412EA
:0A34AA002D1BD004D003D00280BA1D
:0634B400200403022DEDCF
:0534BA00900109E0FA99
:0934BF008A031AEB7003022DEDE3
:0C34C800758220C002122CD3D00280EBD1
:0834D4008D82122CD3022DEDB4
:0C34DC009000F9E0FAA3E08A82F5832258
:0B431C003C4E4F20464C4F41543E00E9
:0E34E800AAF0AB83E582900115F0A3EBF0A3F0
:0E34F600EAF07A007B00900115E0FCA3E0FDF7
:03350400A3E0FE43
:0E3507008C828D838EF012353BFFA3AC82AD1B
:0E35150083900115ECF0A3EDF0A3EEF0EF6053
:08352300070ABA00DF0B80DC8F
:0E352B00900115ECF0A3EDF0A3EEF08A828B78
:023539008322EB
:03001600758121D0
:0A001900120A72E5826003020A6D0C
:0E353B0020F71430F6148883A88220F507E6E6
:06354900A8837583002237
:03354F00E280F720
:03355200E49322DD
:02355500E02272
:00000001FF
