:0D006E00E582900001F09000F17403F09025
:04007B000001E0FAA6
:0E007F009000F1E0FB6018900000E0FB6011C3
:0E008D008A82C002120220E582D0029000009A
:03009B00F080E111
:0C009E00900000E0FA60177471C0E0747C
:0C00AA002AC0E07480C0E01221B615816D
:0400B600158115811A
:0200BA0080FEC6
:0100BC002221
:0D00BD00E582900003F090000474A0F09024
:0C00CA000002E0FA600690000474A1F04F
:0E00D600900003E0FA24F8501E8A037C00C05C
:0A00E40003C00474B7C0E0742AC022
:0E00EE00E07480C0E01221B6E58124FBF581AC
:0100FC0022E1
:0E00FD00EA2AFA900004E0FB4AF01201F090AB
:0E010B000004E0FAF582C002120220AB82D09E
:0B01190002900000EBF08A8202006EF2
:0C012400E582900007F0900006E0FA90E1
:0A0130000002E4F08A821200BD9084
:0E013A000005E0FAF582C002120220AB82D06E
:0C01480002900000EBF08A8212006E9022
:0E0154000007E0FAF582C002120220AB82D052
:0C01620002900000EBF08A8212006E0296
:02016E0001FF8F
:0C017000E582900009F0900008E0FA9091
:0E017C000002E4F08A82C0021200BDD00290A0
:0E018A000009E0FBF582C002C003120220ACA7
:0E01980082D003D002900000ECF08B82C002F7
:0D01A60012006ED002C0021201F5D00290CE
:0B01B30000027401F08A821200BD12ED
:0E01BE00026BAA82C002120215D002C0021209
:0701CC0001FFD0028A82222C
:0301D3000201EB3B
:0E2A71000D0A41636B206661696C6564203359
:0E2A7F002074696D65732E2053797374656D34
:0E2A8D002072657365742072657175697265DB
:0E2A9B00642E20456E746572696E6720696E48
:0E2AA90066696E697465206C6F6F700D0A00AF
:0E2AB7000D0A496E76616C696420626C6F6373
:0C2AC5006B206E756D6265722025640048
:0134D90000F2
:0201D6007A6F3E
:0601D800EA60031A80FA40
:0101DE0022FE
:0601DF001201D6D29122AC
:0601E5001201D6C29122B6
:0501EB00D2900201DFCB
:0501F000C2900201E5D0
:0A01F500D2901201DFC2900201E572
:0B01FF001201E5C2901201DFD2902235
:0B020A00C2901201DF1201E5D2902229
:0B021500D2901201DF1201E5D290220E
:08022000E58290000AF07A006B
:03022800BA080011
:0E022B00502A90000AE0FB20E704C2908002F7
:02023900D29061
:0E023B00C0021201DFD002C0021201E5D002A3
:0E02490090000AE025E0FB90000AF00A80D148
:0D025700D2901201DFE4A29033FAC002122F
:0702640001E5D0028A8222AD
:07026B0090000BE4F07A00A3
:03027200BA0800C7
:0D027500502CC0021201DFD0023090089022
:07028200000BE0FB4401F05A
:03028900BA0700B1
:0D028C00500B90000BE025E0FB90000BF004
:0A029900C0021201E5D0020A80CF76
:0702A30090000BE0F5822240
:0E02AA00E58290000CF0C294C295902AD1E437
:0E02B80093FA740193FB90000CE0FC8A828B99
:0302C60083F022A0
:0E02C900E58290000DF0C294D295902AD1E407
:0E02D70093FA740193FB90000DE0FC8A828B79
:0302E50083F02281
:0A02E800E58290000EF012037390FF
:0E02F200000EE0FA54C0F090000EE0FA430255
:06030000408A820202AAFD
:0A030600E58290000FF012037390DF
:0E031000000FE0FA4480F090000FE0FAF58252
:03031E000202AA2E
:0E032100120373D294D295902AD1E493FA7409
:0B032F000193FB8A828B83E0F58222A1
:0E033A00E582900010F0900010E0FA74F05A86
:0E034800FBC4540F25E0FB902B1393CBA39323
:0E035600FC8B82C002120414D00253020FEA84
:0D0364002AFA902B1393CAA393FB8A8202FE
:02037100041472
:04037300D294C295C9
:0E037700902AD1E493FA740193FB8A828B835F
:06038500E0FA20E7ED2282
:0E038B00120373D294C295902AD1E493FA74AF
:0E0399000193FB8A828B83E0FA53027F8A82F3
:0103A7002233
:0903A8001203737582010202AA1E
:0E03B100E582900011F0900011E0FA247F50D8
:0203BF00012219
:0E03C100C002120373D002C294C295902AD1DA
:0E03CF00E493FB740193FC4302808B828C83C9
:0303DD00EAF02221
:0E03E000E582900013F0900013E0FA24FC4038
:0A03EE0009900012E0FB24F050011A
:0103F80022E2
:0A03F900EAC454F024D3FAE4342AD5
:0E040300FCEB2AF582E43CF583E493FAF582E3
:030411000203B132
:0A041400E582900014F012037390CB
:09041E000014E0FAF5820202C9A3
:0E042700AAF0AB83E582900015F0A3EBF0A3E2
:0D043500EAF0900015E0FAA3E0FBA3E0FC64
:0D0442008A828B838CF0122A55FD700122F6
:0E044F008D82C002C003C004120414D004D079
:08045D0003D0020ABA00010BF2
:0E046500900015EAF0A3EBF0A3ECF0C002C08B
:0E04730003C004120373D004D003D002D2944D
:0E048100C295902AD1E493FD740193FE8D8202
:0C048F008E83E0FD53057FBD1002800F3E
:05049B00BD24028034C5
:0504A000BD5002801AAE
:0504A500BD649A803FD8
:0E04AA00758240C002C003C0041203B1D0042A
:0704B800D003D00202044250
:0E04BF00758210C002C003C0041203B1D00445
:0704CD00D003D0020204423B
:0E04D400758250C002C003C0041203B1D004F0
:0704E200D003D00202044226
:0104E90022F0
:0A04EA001203737582381202AA1281
:0804F400037375820F0202AAD6
:0A04FC001203737582011202AA12A6
:0B0506000373900012E4F075820012F5
:0905110003E0902B3375F0800229
:02051A000427B4
:022AD10000E023
:0E2AD300000102030405060708090A0B0C0D9A
:0E2AE1000E0F404142434445464748494A4B88
:0E2AEF004C4D4E4F10111213141516171819D6
:0E2AFD001A1B1C1D1E1F505152535455565784
:082B0B0058595A5B5C5D5E5FE6
:0E2B130030003100320033003400350036004F
:0E2B21003700380039004100420043004400F4
:042B2F004500460017
:0E2B33006162636465666768696A6B6C6E6FE9
:0E2B4100707172737475767778797A313233E9
:0E2B4F0034353637383961626364656667680D
:0E2B5D00696A6B6C6D6E6F7071727374757651
:0E2B6B007778797A3132333435363738393865
:082B79003736353433323100E8
:0400000002000E32BA
:03000B00021B983D
:02006700C200D5
:03006B0002051C6F
:05051C0012152480FE11
:07052100438E0C9000002244
:0E052800AAF0AB83E58290001BF0A3EBF0A3DA
:0A053600EAF07481C0E0742BC0E00D
:0E0540007480C0E01221B615811581158190DE
:0E054E000018E0FAA3E0FBA3E0FC900001C05F
:0E055C0002C003C004121702AD82AE83D004A9
:0E056A00D003D0028A828B838CF0ED1220F732
:0E0578008A828B838CF0122A55FD24F85043A2
:0B058600C002C003C00474ABC0E074EE
:0C0591002BC0E07480C0E01221B6158180
:0E059D0015811581D004D003D002900001C05A
:0E05AB0002C003C004121702AD82AE83D0045A
:0E05B900D003D0028A828B838CF0ED1220F7E3
:0205C70080AF03
:0A05C90074DEC0E0742BC0E0748003
:0E05D300C0E01221B615811581158190001B24
:0E05E100E0FAA3E0FBA3E0FCC002C003C004EC
:0E05EF0012182DAD82D004D003D0028A828B68
:0705FD00838CF0ED0220F7F2
:0A0604007405C0E0742CC0E074809F
:0C060E00C0E01221B61581158115817421
:0A061A0013C0E0742CC0E07480C02F
:0C062400E01221B61581158115817428A3
:0B063000C0E0742CC0E07480C0E01239
:0C063B0021B61581158115817456C0E0B0
:0C064700742CC0E07480C0E01221B615D5
:0A06530081158115817474C0E074F4
:0C065D002CC0E07480C0E01221B61581B2
:0A06690015811581748FC0E0742C18
:0E067300C0E07480C0E01221B615811581151B
:0A0681008174AAC0E0742CC0E0747C
:0D068B0080C0E01221B61581158115817423
:0A069800C5C0E0742CC0E07480C0FF
:0C06A200E01221B615811581158174EA63
:0B06AE00C0E0742CC0E07480C0E012BB
:0C06B90021B61581158115817414C0E074
:0C06C500742DC0E07480C0E01221B61556
:0A06D1008115811581743EC0E074AC
:0C06DB002DC0E07480C0E01221B6158133
:0506E7001581158122C0
:0E06EC00E58290001EF090001EE0FABA430373
:0306FA00020916DC
:0606FD00BA480302093AAD
:05070300BA4902801D4F
:06070800BA630302086E53
:05070E00BA6702802A19
:06071300BA720302093274
:06071900BA730302089C04
:05071F00BA78028036EB
:0107240022B2
:0A0725007463C0E0742DC0E074801E
:0E072F00C0E01221B61581158115810204EA81
:0A073D007478C0E0742DC0E07480F1
:0E074700C0E01221B615811581158112182D02
:05075500AA820203B1BD
:0A075A007499C0E0742DC0E07480B3
:0E076400C0E01221B6158115811581900003A9
:0E077200121702E5828583F090001FF0A3E5C8
:02078000F0F097
:0E07820090001FE0FAA3E0FBC374039A74809A
:0C0790008BF063F08095F0502A7499C043
:0C079C00E0742DC0E07480C0E01221B6B3
:0E07A800158115811581900003121702E5825C
:0D07B6008583F090001FF0A3E5F0F080BFF8
:0A07C30074B1C0E0742DC0E0748032
:0E07CD00C0E01221B615811581158190000340
:0E07DB00121702E5828583F0900021F0A3E55D
:0207E900F0F02E
:0E07EB00900021E0FAA3E0FBC3740F9A748023
:0C07F9008BF063F08095F0502A74B1C0C2
:0C080500E0742DC0E07480C0E01221B649
:0E081100158115811581900003121702E582F2
:0D081F008583F0900021F0A3E5F0F080BF8C
:0E082C0090001FE0FCA3E0FD8C06900012EA95
:0E083A00F08E82C002C003C004C0051203E0AD
:0E084800D005D004D003D002C002C003C0040B
:0A085600C00574CAC0E0742DC0E0B4
:0E0860007480C0E01221B6E58124F9F58122F2
:0A086E0074F3C0E0742DC0E0748044
:0E087800C0E01221B61581158115811216F807
:0D088600AA8212041412038BAA82C002126F
:090893001F09D0028A820203B1A0
:0A089C007423C0E0742EC0E07480E5
:0D08A600C0E01221B61581158115817A0080
:0308B300BA640024
:0A08B6005044EA2423FBE43400FC64
:0E08C000C002C003C0041216F8AD82D004D0EE
:0E08CE0003D0028B828C83EDF08D82C002C0BD
:0E08DC0003C0041216E6D004D003D0028B82B3
:0E08EA008C83E0FDBD0D088B828C83E4F080D2
:0108F80003FC
:0308F9000A80B7BB
:0A08FC0090002375F000120427128B
:0E090600038BAA82C002121F09D0028A82024D
:0209140003B12D
:070916001203A8121F09746F
:0A091D0035C0E0742EC0E07480C005
:0B092700E01221B61581158115812218
:080932009000F2E4F00214074A
:03093A00020604AE
:0A093D00744EC0E0742EC0E0748018
:0C094700C0E01221B615811581158174E5
:0A09530013C0E0742CC0E07480C0F3
:0C095D00E01221B6158115811581745F30
:0B096900C0E0742EC0E07480C0E012FB
:0C09740021B61581158115817485C0E045
:0C098000742EC0E07480C0E01221B61597
:0A098C00811581158174ACC0E07480
:0C0996002EC0E07480C0E01221B6158174
:0A09A2001581158174D6C0E0742E93
:0E09AC00C0E07480C0E01221B61581158115DF
:0A09BA0081743EC0E0742DC0E074AB
:0D09C40080C0E01221B61581158115812239
:0E09D100E582900087F0900087E0FABA4403B8
:0309DF00020BBB4D
:0609E200BA4703020FC832
:0609E800BA48030210B939
:0609EE00BA4C03020B14D9
:0609F400BA5203020AA141
:0509FA00BA5702800D58
:0609FF00BA5903020D8E3F
:060A0500BA72030210B1F9
:010A0B0022C8
:0A0A0C0074FDC0E0742EC0E0748099
:0E0A1600C0E01221B6158115811581900018DF
:0A0A24007488F0A37400F0A37400BE
:0B0A2E00F090008A75F000120528749B
:0A0A390014C0E0742FC0E07480C008
:0E0A4300E01221B615811581158112182DAA19
:0C0A51008290008AE0FB900088E0FC909E
:0E0A5D000005EBF0900006ECF08A82C0021259
:0C0A6B000124D00290008AE0FB7C009087
:0E0A77000088E0FD7E007F00C003C004C005C3
:0B0A8500C006C002C007743FC0E07450
:0C0A90002FC0E07480C0E01221B6E581A8
:050A9C0024F7F58122A2
:0A0AA1007470C0E0742FC0E0748090
:0E0AAB00C0E01221B61581158115819000184A
:0A0AB9007488F0A37400F0A3740029
:0B0AC300F090008A75F00012052890EA
:0A0ACE00008AE0FA900088E0FB9037
:0B0AD8000008F08A82120170AA8290D0
:0E0AE300008AE0FB7C00900088E0FD7E007F32
:0E0AF10000C003C004C005C006C002C00774E8
:0A0AFF0089C0E0742FC0E07480C0CD
:0B0B0900E01221B6E58124F7F58122FF
:080B14009000187488F0A3742E
:0C0B1C0000F0A37400F090008A75F00057
:090B280012052890008AE0FA9001
:0B0B31000088E0FB900008F08A8212B0
:0B0B3C000170AA82C00274B0C0E07417
:0C0B47002FC0E07480C0E01221B61581C0
:0E0B530015811581D002900001C00212170218
:0E0B6100AB82AC83D002900012E4F08B82C015
:0E0B6F00021203E0D002900088E02430FBF573
:0E0B7D0082C002120414D00290008AE0FBF540
:0E0B8B0082C00212033AD002902FCA75F08089
:0D0B9900C002120427D0028A8212033A74AF
:0A0BA600CDC0E0742FC0E07480C0E1
:0B0BB000E01221B6158115811581228D
:0A0BBB0074DFC0E0742FC0E0748006
:0C0BC500C0E01221B61581158115817465
:0A0BD10002C0E07430C0E07480C080
:0E0BDB00E01221B61581158115819000187465
:0A0BE90088F0A37400F0A37400F07C
:0A0BF30090008A75F00012052874C6
:0A0BFD0029C0E07430C0E07480C02D
:0E0C0700E01221B61581158115819000187438
:0A0C150089F0A37400F0A37400F04E
:0A0C1F0090008B75F000120528907C
:0E0C29000088E0FA8A037A0090008AE0FC7DE1
:0E0C3700004202ED420390008CEAF0A3EBF0C5
:0E0C4500900089E0FC8C057C0090008BE0FEA6
:0E0C53007F004204EF420590008EECF0A3ED0E
:0C0C6100F0C3EC9AED9B5016744EC0E0FE
:0C0C6D007430C0E07480C0E01221B615A5
:060C7900811581158122A6
:0A0C7F00748BC0E07430C0E0748094
:0E0C8900C0E01221B615811581158190008EF4
:090C9700E0FAA3E0FB8A048B05DE
:0E0CA00090008CE0FEA3E0FFC3EC9EED9F50A1
:020CAE00012221
:0E0CB000C002C003C004C005C006C007C006D5
:0A0CBE00C007748EC0E07430C0E07F
:0E0CC8007480C0E01221B6E58124FBF581D0D6
:0D0CD60007D006D005D004D003D00278006E
:030CE300B8100046
:0E0CE6005076C004C0058E017C00900008EF1F
:0E0CF400F08982C002C003C005C006C007C060
:0E0D020000120170AC82D000D007D006D005E0
:0E0D1000D003D0027D00C002C003C004C005A5
:0C0D1E00C006C007C000C004C0057493EC
:0B0D2A00C0E07430C0E07480C0E01234
:0E0D350021B6E58124FBF581D000D007D00661
:0D0D4300D005D004D003D0020EBE00010F79
:0E0D5000C3EA9EEB9FD005D0044003088085C7
:0E0D5E0090008CEEF0A3EFF0C002C003C004C2
:0A0D6C00C005748BC0E07430C0E0D5
:0E0D76007480C0E01221B6158115811581D060
:0A0D840005D004D003D002020CA039
:0A0D8E00748BC0E07430C0E0748084
:0E0D9800C0E01221B61581158115817480C04E
:0A0DA600E0E4C0E0748EC0E0743099
:0E0DB000C0E07480C0E01221B6E58124FBF59E
:070DBE00817A807B007C10AC
:0E0DC5008A058D82C002C003C004120306D04E
:0E0DD30004D003D002C002C003C004120321EA
:0E0DE100AD82D004D003D0027E00C002C00359
:0B0DEF00C004C005C0067493C0E0748F
:0C0DFA0030C0E07480C0E01221B6E5813A
:0E0E060024FBF581D004D003D0020ABA00010B
:010E14000BD2
:0A0E1500DCAE748BC0E07430C0E066
:0E0E1F007480C0E01221B61581158115817412
:0B0E2D00C0C0E0E4C0E0748EC0E074C0
:0C0E380030C0E07480C0E01221B6E581FB
:0A0E440024FBF5817AC07B007C10CE
:0E0E4E008A058D82C002C003C004120306D0C4
:0E0E5C0004D003D002C002C003C00412032160
:0E0E6A00AD82D004D003D0027E00C002C003CF
:0B0E7800C004C005C0067493C0E07405
:0C0E830030C0E07480C0E01221B6E581B0
:0E0E8F0024FBF581D004D003D0020ABA000182
:010E9D000B49
:0A0E9E00DCAE748BC0E07430C0E0DD
:0E0EA8007480C0E01221B61581158115817489
:0B0EB60090C0E0E4C0E0748EC0E07467
:0C0EC10030C0E07480C0E01221B6E58172
:0A0ECD0024FBF5817A907B007C1075
:0E0ED7008A058D82C002C003C004120306D03B
:0E0EE50004D003D002C002C003C004120321D7
:0E0EF300AD82D004D003D0027E00C002C00346
:0B0F0100C004C005C0067493C0E0747B
:0C0F0C0030C0E07480C0E01221B6E58126
:0E0F180024FBF581D004D003D0020ABA0001F8
:010F26000BBF
:0A0F2700DCAE748BC0E07430C0E053
:0E0F31007480C0E01221B615811581158174FF
:0B0F3F00D0C0E0E4C0E0748EC0E0749D
:0C0F4A0030C0E07480C0E01221B6E581E8
:0A0F560024FBF5817AD07B007C10AB
:0E0F60008A058D82C002C003C004120306D0B1
:0E0F6E0004D003D002C002C003C0041203214D
:0E0F7C00AD82D004D003D0027E00C002C003BC
:0B0F8A00C004C005C0067493C0E074F2
:0C0F950030C0E07480C0E01221B6E5819D
:0E0FA10024FBF581D004D003D0020ABA00016F
:010FAF000B36
:0A0FB000DCAE748BC0E07430C0E0CA
:0E0FBA007480C0E01221B615811581158122C8
:0A0FC800748BC0E07430C0E0748048
:0E0FD200C0E01221B6158115811581C2AF1243
:090FE000038BE5829000B2F0D20F
:0C0FE90001D2AF90008C7440F0E4A3F043
:0E0FF50090008CE0FAA3E0FBC3EA9480EB943A
:0610030000400302109EF4
:0C100900C002C003C002C003748EC0E02F
:0C1015007430C0E07480C0E01221B6E529
:0B1021008124FBF581D003D0027C107D
:0E102C008A058D82C002C003C0041202E8D003
:0E103A0004D003D002C002C003C00412032180
:0E104800AD82D004D003D0027E00C002C003EF
:0B105600C004C005C0067493C0E07425
:0C10610030C0E07480C0E01221B6E581D0
:0E106D0024FBF581D004D003D0020ABA0001A2
:01107B000B69
:0C107C00DCAE90008CEAF0A3EBF0748B6B
:0B108800C0E07430C0E07480C0E012D3
:0B10930021B6158115811581020FF5B3
:0D109E009000B2E0FAF582120306C2AFC264
:0610AB0001D2AF021F0993
:0810B1009000F2E4F0021407C4
:0310B90002093DEC
:0A10BC007497C0E07430C0E0748047
:0C10C600C0E01221B6158115811581745F
:0A10D20013C0E0742CC0E07480C06D
:0C10DC00E01221B615811581158174A762
:0B10E800C0E07430C0E07480C0E01273
:0C10F30021B615811581158174C5C0E07F
:0C10FF007430C0E07480C0E01221B6150F
:0A110B00811581158174EAC0E074BB
:0C11150030C0E07480C0E01221B61581EB
:0A11210015811581740EC0E07431D1
:0E112B00C0E07480C0E01221B6158115811558
:0A113900817430C0E07431C0E0742E
:0D11430080C0E01221B61581158115817460
:0A11500059C0E07431C0E07480C0A3
:0C115A00E01221B6158115811581747911
:0B116600C0E07431C0E07480C0E012F3
:0C11710021B6158115811581743EC0E087
:0C117D00742DC0E07480C0E01221B61593
:0611890081158115812291
:0E118F00E582900090F0900090E0FABA4303E1
:03119D0002123704
:0611A000BA44030212DE56
:0611A600BA450302135FCD
:0611AC00BA48030214041E
:0511B200BA4E02805E50
:0511B700BA4F02804167
:0511BC00BA530280247B
:0511C100BA5402800792
:0611C600BA72030213FCE3
:0111CC002200
:0A11CD00749AC0E07431C0E0748031
:0E11D700C0E01221B6158115811581021F6C32
:0A11E50074AFC0E07431C0E0748004
:0E11EF00C0E01221B6158115811581021F7016
:0A11FD0074C4C0E07431C0E07480D7
:0E120700C0E01221B6158115811581021F74F9
:0A12150074DAC0E07431C0E07480A8
:0E121F00C0E01221B6158115811581900005E1
:0A122D00121702AA82AB83021B1401
:021237007A003B
:03123900BA0300F5
:05123C0040030212C88E
:0A124100EA24FCFBE43400FC8B827D
:0C124B008C83E0603BEA75F002A424B341
:0C125700F582740035F0F583E0FBA3E0A5
:0E126300FC8A057E00C002C003C004C005C0A6
:0A1271000674FBC0E07431C0E074A5
:0E127B0080C0E01221B6E58124F9F581D00291
:021289008039AA
:0A128B00EA75F002A424B3F58274A2
:0C1295000035F0F583E0FBA3E0FC8A05C7
:0D12A1007E00C002C003C004C005C006747A
:0A12AE0014C0E07432C0E07480C088
:0C12B800E01221B6E58124F9F581D00296
:0412C4000A021239CF
:0A12C800748BC0E07430C0E0748045
:0C12D200C0E01221B615811581158122A3
:0A12DE00742EC0E07432C0E074808A
:0E12E800C0E01221B61581158115819000011C
:0C12F600121702AA82AB83900091EAF06C
:0C130200900091E0FA24FD5026742EC0EB
:0C130E00E07432C0E07480C0E01221B630
:0E131A00158115811581900001121702AB821A
:09132800AC83900091EBF080D140
:0C1331008A037C00C002C003C004745B8F
:0B133D00C0E07432C0E07480C0E01219
:0C13480021B6E58124FBF581D002EA24E7
:0A135400FCF582E43400F583E4F0B8
:01135E00226C
:0A135F007471C0E07432C0E07480C5
:0E136900C0E01221B61581158115819000019A
:0C137700121702AA82AB83900091EAF0EA
:0C138300900091E0FA24FD50267471C027
:0C138F00E07432C0E07480C0E01221B6AF
:0E139B00158115811581900001121702AB8299
:0913A900AC83900091EBF080D1BF
:0C13B2008A037C00C002C003C004749DCC
:0B13BE00C0E07432C0E07480C0E01298
:0E13C90021B6E58124FBF581D002EA75F00221
:0A13D700A424B3F582740035F0F58C
:0D13E10083E0FBA3E0FCBB0004BC00012284
:0A13EE00EA24FCF582E43400F583E4
:0413F8007401F0226A
:0813FC009000F2E4F002140776
:031404000210BC17
:0A14070074B2C0E07432C0E07480DB
:0C141100C0E01221B61581158115817410
:0A141D00C4C0E07432C0E07480C067
:0C142700E01221B615811581158174B208
:0B143300C0E07432C0E07480C0E01222
:0C143E0021B615811581158174D1C0E024
:0C144A007432C0E07480C0E01221B615BE
:0A145600811581158174F3C0E07464
:0C14600032C0E07480C0E01221B615819B
:0A146C00158115817419C0E0743376
:0E147600C0E07480C0E01221B615811581150A
:0A148400817442C0E07433C0E074CC
:0D148E0080C0E01221B61581158115812264
:0E149B00E582900092F0900092E0FABA4302CF
:0214A90080249D
:0514AB00BA45028016A5
:0514B000BA48028005AE
:0514B500BA4C20800389
:0314BA0002140712
:0914BD009000F27401F002060433
:0914C6009000F27402F002093DED
:0914CF009000F27403F00210BC5D
:0114D80022F1
:0E14D900E582900093F09000F2E0FA24FC40CF
:0814E7003BEA2A2A9014EF737E
:0714EF000214FB02150502C7
:0514F600150F0215199D
:0A14FB00900093E0FAF58202149BC2
:0A150500900093E0FAF5820206EC74
:0A150F00900093E0FAF5820209D182
:0A151900900093E0FAF58202118FB2
:0115230022A5
:07152400121B031201D31298
:08152B0004EAD293121F8D9017
:0715330000F2E4F0121407BE
:07153A00900094E4F07A0038
:03154100BA0300EA
:05154400400302164403
:0A154900EA24F3FBE43400FC8B827B
:081553008C83E0700302163BDB
:0C155B008A037C00C003C004746CC0E074
:0C1567007433C0E07480C0E01221B6E5CF
:0E1573008124FBF581900012E4F075820012D5
:0915810003E09033A575F080121F
:07158A000427900094E0FB30
:0E159100C0031216F8AC82D003BC4402803FA7
:0C159F008B047D00C003C004C005746C08
:0B15AB00C0E07433C0E07480C0E012A8
:0E15B60021B6E58124FBF581D003900012E4FC
:0E15C400F0758200C0031203E0D0039033A53F
:0C15D20075F080C003120427D00380B322
:0E15DE00900094E0FB8B047D00C003C004C0AD
:0A15EC000574B4C0E07433C0E0746D
:0E15F60080C0E01221B6E58124FBF581D00310
:0E160400900012E4F0758200C0031203E0D0E3
:0E161200039033CB75F080C003120427D00381
:0A162000EB24FCF582E43400F583AE
:0A162A00E4F0EB24F3F582E4340051
:07163400F583E4F002153A12
:09163B000A900094EAF002154146
:091644001216F8AA82100003023C
:02164D0016C8BD
:05164F00BA4402800313
:0316540002153A42
:021657007B0016
:03165900BB0300D0
:05165C00400302153AF5
:0A166100EB24F3FCE43400FD8C825E
:0E166B008D83E060558B047D00C003C004C079
:0A1679000574B4C0E07433C0E074DF
:0E16830080C0E01221B6E58124FBF581D00382
:0E169100900012E4F0758200C0031203E0D056
:0E169F00039033CB75F080C003120427D003F4
:0A16AD00EB24FCF582E43400F58321
:0A16B700E4F0EB24F3F582E43400C4
:0416C100F583E4F0D9
:0316C5000B809106
:0D16C800BA0D0A75820AC0021216E6D002A1
:0E16D5008A82C0021216E6D0028A821214D94E
:0316E30002153AB3
:0E2B81000D0A456E74657220616E2045455048
:0E2B8F00524F4D20626C6F636B206E756D624D
:0E2B9D0065722066726F6D20302D373A200071
:0E2BAB000D0A494E56414C49443A20456E747D
:0E2BB900657220616E20454550524F4D2062DE
:0E2BC7006C6F636B206E756D626572206672B6
:092BD5006F6D20302D373A20000D
:0E2BDE000D0A456E74657220616E20454550EB
:0E2BEC00524F4D20576F726420616464726511
:0B2BFA00737320696E206865783A0054
:0E2C05000D0A496E204C4344204D6F6465005B
:0E2C13000D0A50726573732027482720666FE4
:072C2100722068656C700071
:0E2C28000D0A50726573732027492720746FC0
:0E2C360020496E6974204C43442E204D757366
:0E2C4400742063616C6C20746869732066698B
:042C52007273740025
:0E2C56000D0A50726573732027672720746F74
:0E2C64002073686F7720676F746F616464720D
:022C7200200040
:0E2C74000D0A50726573732027782720746F45
:0D2C82002073686F7720676F746F7879009A
:0E2C8F000D0A50726573732027632720746F3F
:0D2C9D002073686F772070757463682000E5
:0E2CAA000D0A50726573732027732720746F14
:0D2CB8002073686F7720707574737472005C
:0E2CC5000D0A50726573732027432720746F29
:0E2CD30020636C65617220746865204C434478
:092CE10020646973706C617900D4
:0E2CEA000D0A50726573732027592720746FEE
:0E2CF80020726561642074686520636F6E74DD
:0E2D0600656E7473206F6620444452414D0088
:0E2D14000D0A50726573732027472720746FD5
:0E2D220020726561642074686520636F6E74B2
:0E2D3000656E7473206F6620434752414D005C
:0E2D3E000D0A50726573732027722720746F80
:0E2D4C002072657475726E20746F206D61695F
:092D5A006E206D656E750D0A0016
:0E2D63000D0A496E697469616C697A696E6760
:072D7100204C43440D0A0051
:0E2D78000D0A456E7465722061206865782032
:0E2D86006164647265737320746F20676F2040
:052D9400746F0D0A0040
:0E2D99000D0A456E746572206120726F7720FE
:0A2DA70066726F6D20302D333A0084
:0E2DB1000D0A456E746572206120636F6C2000
:0B2DBF0066726F6D20302D31353A0038
:0E2DCA000D0A4D6F76656420637572736F722B
:0E2DD80020746F206E6577206C6F63617469E4
:0D2DE6006F6E202825642C2564290D0A003D
:0E2DF3000D0A456E746572206120636861727E
:0E2E0100616374657220746F207075742061B7
:0E2E0F00742063757272656E74206164647263
:062E1D006573730D0A004D
:0E2E23000D456E746572206120737472696EC5
:042E3100670D0A001F
:0E2E35000D0A4C434420446973706C6179208F
:0B2E4300436C6561726564210D0A009C
:0E2E4E000D0A496E20454550524F4D204D6FE4
:032E5C00646500AA
:0E2E5F000D0A50726573732027572720746F79
:0E2E6D00207772697465206120627974652097
:0A2E7B00746F20454550524F4D0082
:0E2E85000D0A50726573732027522720746F58
:0E2E930020726561642061206279746520669A
:0B2EA100726F6D20454550524F4D00F0
:0E2EAC000D0A507265737320274C2720746F37
:0E2EBA0020646973706C617920454550524F59
:0E2EC8004D2064617461206F6E204C43440005
:0E2ED6000D0A50726573732027442720746F15
:0E2EE40020646F2061204865782044756D7071
:0B2EF200206F6620454550524F4D00F8
:0E2EFD000D0A57726974696E6720746F204564
:092F0B004550524F4D2E2E2E00B0
:0E2F14000D0A456E7465722061206279746545
:0E2F2200206F66206461746120746F207772E6
:0E2F300069746520746F20454550524F4D3A2C
:012F3E000092
:0E2F3F000D0A57726F746520255820746F209C
:0E2F4D00626C6F636B202564206164647265A2
:0E2F5B007373203078255820696E204545504C
:072F6900524F4D210D0A003B
:0E2F70000D0A52656164696E672066726F6DAE
:0B2F7E0020454550524F4D2E2E2E00D6
:0E2F89000D0A526561642025582066726F6D36
:0E2F970020626C6F636B20256420616464729D
:0B2FA50065737320307825580D0A007A
:0E2FB0000D0A456E746572204C434420726F0A
:0C2FBE00772066726F6D20302D333A00D2
:032FCA003A2000AA
:0E2FCD000D0A57726F746520746F204C4344D8
:042FDB00210D0A00BA
:0E2FDF000D0A506572666F726D696E67206133
:0E2FED006E20454550524F4D206461746120A6
:072FFB0064756D700D0A0002
:0E3002000D0A456E7465722074686520737443
:0E301000617274696E6720626C6F636B206181
:0B301E006E64206164647265737300CF
:0E3029000D0A456E7465722074686520656E30
:0E30370064696E6720626C6F636B20616E646B
:093045002061646472657373007C
:0E304E000D0A496E76616C69642061646472DB
:0E305C0065737365732E20456E642061646495
:0E306A0072657373206D75737420626520614A
:0E307800667465722073746172742061646402
:05308600726573730088
:03308B000D0A002B
:05308E0025783A200046
:04309300257820007C
:0E3097000D0A496E20436C6F636B204D6F6411
:0230A5006500C4
:0E30A7000D0A50726573732027542720746F32
:0E30B5002073746F702074686520636C6F6305
:0230C3006B00A0
:0E30C5000D0A50726573732027532720746F15
:0E30D3002073746172742074686520636C6FE2
:0930E100636B20616761696E00F8
:0E30EA000D0A507265737320274F2720746FF4
:0E30F8002072657365742074686520636C6FC8
:08310600636B20746F203000A0
:0E310E000D0A507265737320274E2720746FD0
:0E311C00206372656174652061206E65772006
:06312A00616C61726D0092
:0E3130000D0A50726573732027432720746FB9
:0E313E00207669657720636F756E7420666F6A
:0D314C0072206561636820616C61726D0026
:0E3159000D0A50726573732027442720746F8F
:0E3167002064697361626C6520616E20616C8A
:0431750061726D0016
:0E3179000D0A50726573732027452720746F6E
:0E318700207265656E61626C6520616E20616C
:053195006C61726D0089
:0E319A000D0A53746F7070696E67207468655B
:0731A80020636C6F636B00F4
:0E31AF000D0A5374617274696E67207468654E
:0731BD0020636C6F636B00DF
:0E31C4000D0A526573657474696E6720746835
:0831D2006520636C6F636B0064
:0E31DA000D0A456E74657220616C61726D2085
:0E31E80074696D6520696E207365636F6E6497
:0531F600733A0D0A0010
:0E31FB000D0A416C61726D2025643A20257525
:0B320900203C456E61626C65643E0075
:0E3214000D0A416C61726D2025643A2025750B
:0C322200203C44697361626C65643E00EE
:0E322E000D0A456E74657220616E20616C6140
:0E323C00726D206E756D6265722066726F6D28
:0E324A0020302D3220746F2064697361626C35
:03325800653A00D4
:0E325B000D0A416C61726D2025642064697358
:0832690061626C65640D0A004E
:0E3271000D0A456E74657220616E20616C61FD
:0E327F00726D206E756D6265722066726F6DE5
:0E328D0020302D3220746F20656E61626C65FA
:02329B003A00F7
:0E329D000D0A416C61726D20256420656E6122
:0732AB00626C65640D0A006E
:0E32B2000D0A2A2A2A2A2A2A2A2A2A2A2A2AFF
:0432C0002A2A2A008C
:0D32C4000D0A202020204D656E750D0A00BA
:0E32D1000D0A50726573732027482720746F12
:0E32DF002073686F77207468652068656C70D6
:0632ED00206D656E750006
:0E32F3000D0A507265737320274C2720746FEC
:0E33010020656E746572204C434420636F6E2D
:0A330F0074726F6C206D6F6465002E
:0E3319000D0A50726573732027452720746FCC
:0E33270020656E74657220454550524F4D2052
:0D333500636F6E74726F6C206D6F646500C5
:0E3342000D0A50726573732027432720746FA5
:0E33500020656E74657220436C6F636B2063A2
:0E335E006F6E74726F6C206D6F64650D0A00E7
:0E336C000D0A416C61726D20256420676F6947
:0E337A006E67206F66662C20796F75206D756A
:0E3388007374207072657373202744272074BD
:0E3396006F2064697361626C652069740D0AB2
:0133A4000028
:0E33A50044697361626C6520416C61726D2138
:0133B3000019
:0E33B4000D0A416C61726D20256420646973FE
:0933C20061626C6564210D0A00D2
:0E33CB00202020202020202020202020202034
:0133D90000F3
:0134DA0000F1
:0334DB00000000EE
:0616E600E582900095F082
:0C16EC003099FD900095E0F599C299221C
:0516F80010980280FBC8
:0516FD00AA998A822277
:0E170200AA83E582900096F0A3EAF09000A37F
:0E171000E4F0A3F0900096E0FAA3E0FBC374AF
:0E171E000A9A74808BF063F08095F050197475
:0A172C00DAC0E07433C0E07480C03E
:0E173600E01221B615811581158190FFFF226A
:0E1744009000A3E0FCA3E0FDC3EC9AED6480EE
:0C1752008BF063F08095F040030218104B
:0E175E00C002C003C004C0051216F8AE82D04F
:0E176C0005D004D003D0028E82C002C003C09C
:0E177A0004C005C0061216E6D006D005D00445
:0E178800D003D002BE0D0975820A1216E602C9
:02179600181029
:0E179800BE0812EC24FFFFED34FFF89000A312
:0717A600EFF0A3E8F08097CB
:0517AD00BE7102800383
:0317B200BE510421
:0417B50090FFFE2281
:0D17B9008E82C002C003C004C005C006122D
:0E17C6001FA7E582D006D005D004D003D002C4
:0A17D400601AEC2498F582ED340051
:0E17DE00F583EEF09000A374012CF0E43DA31F
:0417EC00F0021744AC
:0A17F000C002C003740CC0E07434A2
:0E17FA00C0E07480C0E01221B6158115811583
:0818080081D003D00202174455
:0C1810009000A3E0FAA3E0FBEA2498F5A6
:0C181C0082EB3400F583E4F09000987536
:05182800F000021FC4E6
:0C182D009000A8E4F0A3F09000ABE4F001
:0E1839009000A8E0FAA3E0FBC3EA9402EB647F
:08184700809480400302197B2C
:0E184F00C002C0031216F8AC82D003D0028C87
:0E185D0082C002C003C0041216E6D004D003FD
:0E186B00D002BC0D2CEA4B700C9000A6E4F0ED
:071879009000A7F002197BAB
:08188000BA0105BB0002800360
:0318880002197BC7
:0A188B009000A6E0FD9000A7F09089
:0718950000A6E4F002197B3C
:0E189C00BC0813EA24FFFDEB34FFFE9000A809
:0818AA00EDF0A3EEF002183985
:0E18B2008C82C002C003C004121FA7E582D0C2
:0C18C00004D003D002601AEA24A6F582CE
:0C18CC00EB3400F583ECF09000A87401F0
:0918D8002AF0E43BA3F0021839E8
:0E18E1008C82C00412214DE582D004700D8C63
:0C18EF0082C004122130E582D004606841
:0E18FB00C3EC648094C1400B74C68CF063F0A3
:051909008095F0501371
:0E190E00C3EC648094E1404D74E68CF063F00D
:05191C008095F040423F
:0C1921009000A8E0FAA3E0FBEA24A6FA7C
:0C192D00EB3400FB8C82C002C003C0043D
:0E193900122130E582D004D003D00260067483
:05194700DF5CFD8002E1
:02194C008C0508
:0E194E008A828B83EDF09000A8E02401F0A3C4
:07195C00E03400F00218392D
:0A1963007436C0E07434C0E07480F4
:0E196D00C0E01221B6158115811581021839CE
:09197B009000AAE4F07A007B0060
:0E198400C3EA9402EB648094804003021A3F91
:0A199200EA24A6F582EB3400F58389
:0E199C00E0FC9000A5F08C82C002C003C004E5
:0E19AA00121FA7E582D004D003D0026009EC22
:0819B80024D09000ABF0803A4E
:0E19C000C3EC648094E1401474E68CF063F094
:0E19CE008095F040099000AB74A92CF0801EAB
:0E19DC009000A5E0FCC3648094C1401274C664
:0E19EA008CF063F08095F040079000AB74C95C
:0219F8002CF0D1
:0E19FA007401C39AFCE49BFDCC25E0CC33CCF9
:0E1A080025E0CC33FD9000ABE0FE8CF005F045
:061A1600AC067D00800615
:061A1C00EC2CFCED33FD93
:0E1A2200D5F0F79000AAE0FE7F00EC2EFCED60
:0C1A30003FFD9000AAECF00ABA00010B88
:031A3C0002198408
:071A3F009000AAE0F58222ED
:0E1A4600AAF0AB83E5829000AEF0A3EBF0A314
:0E1A5400EAF01216F8AA829000B1EAF08A8237
:0C1A62001216E69000ACE0FAA3E0FB9046
:081A6E0000AEE0F508A3E0F56D
:091A760009A3E0F50A7F007800E5
:0A1A7F009000B1E0F9B90D02805D9E
:0E1A8900C3EF9AE864808BF063F08095F05014
:0B1A97004EC002C003EF2508FAE8353E
:0A1AA20009FBAC0A8A828B838CF0EA
:0E1AAC00E91220F7C003C007C0001216F8AA06
:0E1ABA0082D000D007D0039000B1EAF08A82FB
:0E1AC800C002C003C007C0001216E6D000D056
:0A1AD60007D003D0020FBF00010883
:061AE000D003D002809942
:0E1AE6009000AEE0FAA3E0FBA3E0FCEF2AFFC5
:0D1AF400E83BF88C058F8288838DF0E402BA
:021B010020F7CB
:0E1B0300759850758920758DFD758BFDD28EFD
:031B1100D2992244
:0E33DA0053657269616C5F676574496E746556
:0E33E80067657228293A204572726F722E2096
:0E33F6004D61785F4C656E67746820746F6F70
:08340400206C617267652E0067
:0E340C000D0A496E76616C6964206368617216
:0E341A0061637465722E20456E746572206FBA
:0E3428006E6C79206469676974732E0D0A005A
:0E3436000D0A496E76616C69642063686172EC
:0E34440061637465722E20456E746572206F90
:0E3452006E6C79206865782063686172616332
:08346000746572732E0D0A0061
:02006900C201D2
:0D1B1400AA83E5829000B9F0A3EAF07A0000
:031B2100BA030004
:0A1B24005012EA24FCFBE43400FC3C
:0A1B2E008B828C83E060030A80E9DB
:0A1B3800BA03167468C0E07434C0EC
:0E1B4200E07480C0E01221B615811581158176
:011B50002272
:0A1B5100EA24FCF582E43400F58379
:0A1B5B007401F0EA2A24B3FBE4341D
:0C1B650000FC9000B9E0FDA3E0FE8B82C4
:0E1B71008C83EDF0A3EEF07B00C005C006C033
:0A1B7F0002C0037493C0E07434C088
:0E1B8900E07480C0E01221B6E58124F9F581F8
:011B9700222B
:0E1B9800C0E0C0F0C082C083C002C003C00421
:0E1BA600C005C006C007C000C001C0D075D089
:0B1BB40000C2029000F6E0FABA020046
:0C1BBF00500A9000F674012AF0021EE5A6
:081BCB00B292200103021C6E1E
:0D1BD3009000F7E0FA9000F774012AF090FE
:091BE00000F7E0FABA0A028003E2
:031BE900021E5F7A
:0B1BEC009000F7E4F09000F8E0FA90A1
:091BF70000F874012AF0D20290FA
:091C000000F8E0FABA0A028003C0
:031C0900021E5F59
:0B1C0C009000F8E4F09000F9E0FA907E
:0E1C170000F974012AF09000F9E0FABA060212
:021C250080033A
:031C2700021E5F3B
:0B1C2A009000F9E4F09000FAE0FA905E
:0E1C350000FA74012AF09000FAE0FABA0A02EE
:021C430080031C
:031C4500021E5F1D
:0B1C48009000FAE4F09000FBE0FA903E
:0E1C530000FB74012AF09000FBE0FABA0A02CE
:021C61008003FE
:031C6300021E5FFF
:081C66009000FBE4F0021E5F98
:0B1C6E0012038BAA829000F7E0FB90AD
:0E1C790000F774012BF0900012740FF07582CA
:0E1C870003C0021203E0D0029000F7E0FB74ED
:0D1C9500302BFBF582C002120414D0029027
:091CA20000F7E0FBBB0A0280031D
:031CAB00021E5ABC
:0E1CAE009000F7E4F0900012740FF0758203BE
:0E1CBC00C0021203E0D0029000F7E0FB74308B
:0E1CCA002BFBF582C002120414D0029000F829
:0C1CD800E0FB9000F874012BF0D20290A9
:0E1CE4000012740DF0758203C0021203E0D0EE
:0E1CF200029000F8E0FB74302BFBF582C0027C
:0E1D0000120414D0029000F8E0FBBB0A02802F
:011D0E0003D1
:031D0F00021E5A57
:0E1D12009000F8E4F0900012740DF07582035A
:0E1D2000C0021203E0D0029000F8E0FB743025
:0E1D2E002BFBF582C002120414D0029000F9C3
:0E1D3C00E0FB9000F974012BF0900012740C83
:0E1D4A00F0758203C0021203E0D0029000F98F
:0E1D5800E0FB74302BFBF582C002120414D0A5
:0B1D6600029000F9E0FBBB06028003C6
:031D7100021E5AF5
:0E1D74009000F9E4F0900012740CF0758203F8
:0E1D8200C0021203E0D0029000F9E0FB7430C2
:0E1D90002BFBF582C002120414D0029000FA60
:0E1D9E00E0FB9000FA74012BF0900012740A22
:0E1DAC00F0758203C0021203E0D0029000FA2C
:0E1DBA00E0FB74302BFBF582C002120414D043
:0B1DC800029000FAE0FBBB0A0280035F
:031DD300021E5A93
:0E1DD6009000FAE4F0900012740AF075820397
:0E1DE400C0021203E0D0029000FAE0FB74305F
:0E1DF2002BFBF582C002120414D0029000FBFD
:0E1E0000E0FB9000FB74012BF09000127409BF
:0E1E0E00F0758203C0021203E0D0029000FBC8
:0E1E1C00E0FB74302BFBF582C002120414D0E0
:0E1E2A00029000FBE0FBBB0A279000FBE4F0F7
:0E1E38009000127409F0758203C0021203E0DC
:0E1E4600D0029000FBE0FB74302BFBF582C055
:061E540002120414D0028A
:051E5A008A821203B1B1
:091E5F009000F6E4F020020302F9
:021E68001EE575
:021E6A007A00FC
:031E6C00BA0300B6
:051E6F004003021EE526
:0A1E7400EA24FCFBE43400FC8B823E
:0B1E7E008C83E0605EEA24F3FBE43498
:0C1E890000FC8B828C83E0704FEA2A245E
:0A1E9500B3FBE43400FC8B828C8365
:0A1E9F00E0FDA3E0FE1DBDFF011EE3
:0E1EA9008B828C83EDF0A3EEF0ED4E702B904B
:0E1EB7000012E4F0758200C0021203E0D002B7
:0E1EC5009034BF75F080C002120427D002EAEC
:0A1ED30024F3F582E43400F5837473
:041EDD0001F0D2003E
:041EE1000A021E6C67
:0E1EE500758C87758AFF438810D0D0D001D04D
:0E1EF30000D007D006D005D004D003D002D016
:081F010083D082D0F0D0E03261
:0E1F0900C2AF9000127409F07582031203E05B
:0E1F17009000FBE0FA74302AFAF582120414EE
:0E1F25009000FAE0FA74302AFAF582120414E1
:0E1F330075823A1204149000F9E0FA74302A14
:0E1F4100FAF5821204149000F8E0FA74302AC7
:0D1F4F00FAF58212041475822E120414900B
:0E1F5C0000F7E0FA74302AFAF582120414D26B
:021F6A00AF22A4
:041F6C0053A8FD2257
:041F700043A88222DE
:0A1F74009000F7E4F09000F8F09000
:081F7E0000F9F09000FAF09068
:071F860000FBE4F0021F095B
:0E1F8D00438901758C87758AFF43A882C29232
:0C1F9B009000F6E4F0121F74438810223E
:0E3468000D0A416C6C20616C61726D73206204
:0E3476007573792C2063616E6E6F7420637223
:0E34840065617465206E657720616C61726D04
:013492000039
:0E3493000D0A437265617465642061206E65E8
:0E34A1007720616C61726D202564207769745C
:0E34AF0068206475726174696F6E2025750D5A
:0234BD000A0003
:0E34BF0044697361626C6520416C61726D211D
:0134CD0000FE
:0134DE0000ED
:0134DF0000EC
:0134E00000EB
:0134E10000EA
:0134E20000E9
:0134E30000E8
:0334E400000000E5
:06003D00E478FFF6D8FD97
:0E1FA700E5829000BBF09000BBE0FABA30007B
:0B1FB5004009EA24C6400475820122A6
:041FC0007582002204
:0E1FC400AAF0AB83E5829000BCF0A3EBF0A383
:0E1FD200EAF07A007B009000BCE0FCA3E0FD8A
:031FE000A3E0FE7D
:0E1FE3008C828D838EF0122A55FF6039C374F4
:0E1FF100B98FF063F08095F04007EF648094A4
:031FFF00B05026B9
:0E2002008C828D838EF0122A55FFBF2D028036
:0120100017B8
:05201100BF2B0280124C
:052016000CBC00010DEF
:0D201B009000BCECF0A3EDF0A3EEF080BB54
:0E2028009000BCECF0A3EDF0A3EEF08C828DE6
:0C203600838EF0122A55FFE4BF2D010438
:08204200F888017003BF2B0EAA
:0E204A009000BC74012CF0E43DA3F0A3EEF076
:0B2058009000BCE0FCA3E0FDA3E0FE54
:0E2063008C828D838EF0122A55FF6068C3EFC9
:0E207100648094B0406074B98FF063F0809585
:0E207F00F04055C0019000C0740AF0E4A3F0D8
:0E208D008A828B83C004C005C006C007C00154
:08209B0012211085820B8583E0
:0C20A3000CD001D007D006D005D004EF0F
:0E20AF003395E0F8EF24D0FFE834FFF8EF257A
:0A20BD000BFAE8350CFB0CBC000127
:0120C7000D0B
:0E20C8009000BCECF0A3EDF0A3EEF0D0018090
:0120D6008C7D
:0E20D7009000BCECF0A3EDF0A3EEF0E9600980
:0920E500C3E49AFCE49BFD8004B5
:0420EE008A048B05D0
:0520F2008C828D8322A9
:08001B00790EE94400601B7A34
:05002300019034D978C2
:03002800F175A0CF
:0A002B0000E493F2A308B8000205F8
:08003500A0D9F4DAF275A0FF76
:0E20F70020F71030F6118883A88220F507F636
:05210500A883758300B2
:01210A0022B2
:03210B00F280F768
:02210E00F022BD
:0E211000AA83AB828BF09000C0E0A4F8A9F087
:0E211E008AF0E0A429F98BF0A3E0A429F58350
:04212C008882222261
:080043007800E84400600A792E
:03004B000075A09D
:06004E0000E4F309D8FCF8
:0800540078F1E84400600C792A
:0B005C0001900000E4F0A3D8FCD9FAEA
:0E213000E5829000C2F09000C2E0FABA6100B1
:0B213E004009EA24854004758201225C
:042149007582002279
:0E214D00E5829000C3F09000C3E0FABA4100B2
:0B215B004009EA24A54004758201221F
:04216600758200225C
:08216A00C012858112AA821245
:0521720016E6D0122268
:0E217700AAF0AB83E5829000C5F0A3EBF0A3C5
:0E218500EAF09000C5E0FAA3E0FBA3E0FC90B6
:0E21930000C4E0FD9000D8E4F0A3F0A3F090AB
:0E21A10000DBEAF0A3EBF0A3ECF09000DEED23
:0721AF00F090216A0222CF2B
:0621B600C012858112E554
:0C21BC001224FBFA9000D8E4F0A3F0A37A
:0C21C800F0E51224FBF89000DBE6F008C4
:0D21D400A3E6F008A3E6F09000DEEAF0902C
:0A21E100216A1222CFAA82AB83D03C
:0221EB001222BE
:0C21ED00E5829000D4F09000D4E0FA905D
:0E21F90000CAE0C0E0A3E0C0E0A3E0C0E074D4
:082207001BC0E07422C0E0904E
:0C220F0000C8E0C0E0A3E0C0E08A82222A
:0E221B001581158115819000D2E0FAA3E0FB39
:0C2229009000D274012AF0E43BA3F022E4
:0E223500E5829000D5F09000D5E0FA74302AD2
:0C224300FA24C6500A74072AFA3003037C
:03224F0043022027
:052252008A820221ED6B
:0E225700E5829000D6F09000D6E0FAC4540F55
:0E226500FBF582C002122235D00253020F8A0E
:04227300820222358C
:0E227700E5829000D7F09000CDE0FAA3E0FBE6
:0E228500A3E0FCA3E0FD9000D1E0FE9000D7A6
:04229300E0FF7820D0
:0E229700EE2EFEED235401F94206EA2AFAEB80
:0E22A50033FBEC33FCED33FDC3EE9F4007EE40
:0622B300C39FFE4302017F
:0E22B900D8DC9000CDEAF0A3EBF0A3ECF0A38C
:0822C700EDF09000D1EEF022D1
:0E22CF00AA83E5829000DFF0A3EAF09000DF22
:0E22DD00E0FAA3E0FB9000C8EAF0A3EBF0905B
:0E22EB0000D8E0FAA3E0FBA3E0FC9000CAEAF2
:0E22F900F0A3EBF0A3ECF09000D2E4F0A3F021
:0E2307009000DBE0FAA3E0FBA3E0FC8A828BEF
:0E231500838CF0122A55FD9000DB74012AF033
:0D232300E43BA3F0A3ECF0ED70030229F6FB
:05233000BD2502800341
:032335000229EE8C
:05233800C204C205C251
:04233D0006C207C20B
:0423410008C209C203
:042345000AC20B902D
:0923490000E1E4F09000E2F090E4
:0E23520000E374FFF09000DBE0FAA3E0FBA3D1
:02236000E0FC9F
:0E2362008A828B838CF0122A55FEA3AA82ABCE
:0D237000839000DBEAF0A3EBF0A3ECF0900B
:0D237D0000E5EEF0BE25088E821221ED0273
:02238A00230727
:05238C008E07BF3000C8
:0E23910040498E07EF24C640429000E3E0FF73
:0E239F00BFFF29C002C003C0049000E2E0FAB4
:0E23AD0075F00AA4FAEE24D09000E22AF09017
:0D23BB0000E2E0FAD004D003D002709BD203
:0323C800058097F6
:0E23CB00EF75F00AA4FFEE24D09000E32FF08F
:0323D9000223627A
:0E23DC009000E5E0FEBE2E089000E3E4F00263
:0223EA0023626C
:0E23EC008E82C002C003C004C006122130E57C
:0C23FA008224FF9203D006D004D003D050
:0B240600023003079000E574DF5EF079
:0A2411009000E5E0FEBE20028055B9
:05241B00BE2B02804B06
:05242000BE2D02804109
:05242500BE4202804BE5
:05242A00BE43028050DA
:06242F00BE440302266317
:06243500BE4603022685ED
:06243B00BE490302266306
:05244100BE4C028034D6
:06244600BE4F0302266DEB
:06244C00BE50030225C58D
:05245200BE53028042B0
:06245700BE5503022675CC
:06245D00BE580302267DBB
:03246300022689C5
:05246600D20402236214
:05246B00D2060223620D
:05247000D20702236207
:05247500D20902236200
:05247A00D20A022362FA
:0E247F009000DEE0FA24FEF89000DEF0860207
:0C248D00088603188A821221ED022695B1
:0E2499009000DEE0FA24FDF89000DEF08602EE
:0E24A70008860308860418189000CDEAF0A3FA
:0E24B500EBF0A3ECF09000CDE0FAA3E0FBA367
:0E24C300E0FC8A828B838CF0122A02AA82AB84
:0E24D100839000E3E0FBBBFF059000E3EAF020
:0C24DF002004389000E2E0FBC3EA9B50B0
:0D24EB002E9000E2EBC39AF09000E2E0FBBF
:0D24F8008B041B9000E2EBF0BC0002801092
:0E250500758220C002C0031221EDD003D00267
:0225130080E363
:052515009000E2EBF074
:05251A009000E3E0FD6C
:0E251F00C0029000CDE0FCA3E0FFA3E0FA8C28
:0E252D00828F838AF0122A55D00260538D04EB
:0E253B001DC374808CF063F08095F05044C096
:0A254900029000CDE0F50DA3E0F5CF
:082553000EA3E0F50F74012551
:07255B000DFBE4350EFAACA4
:0C2562000F9000CDEBF0A3EAF0A3ECF02A
:07256E00850D82850E8385B7
:0C2575000FF0122A55FAF582C002C005D2
:0B2581001221EDD005D002D0028093A3
:06258C0020040302269565
:0D2592009000E2E0FBC3EA9B4003022695A7
:0C259F009000E2EBC39AF09000E2E0FA3A
:0E25AB008A031A9000E2EAF0BB0003022690B9
:0C25B900758220C0021221EDD00280E6E5
:0E25C5009000DEE0FB24FDF89000DEF08603BF
:0E25D30008860408860718189000CDEBF0A3C8
:0E25E100ECF0A3EFF09000CFE0FB247F500859
:0825EF009000E57443F0802028
:0D25F700EB249F50089000E57450F0801315
:0D260400EB24BF50089000E57449F08006FB
:062611009000E57458F092
:0E2617009000E5E0FBF582C0031221EDD00338
:0E26250075823AC0031221EDD003758230C0D9
:0E263300031221EDD003758278C0031221ED51
:07264100D003BB4902800F2A
:05264800BB5002800AF6
:0A264D009000CEE0FBF58212225748
:0C2657009000CDE0FBF58212225780328B
:0A266300D2089000E1740AF080280C
:08266D009000E17408F08020E8
:082675009000E1740AF08018E6
:08267D009000E17410F08010E0
:04268500D20B800CE8
:072689008E821221ED800595
:052690009000E2EAF0F9
:0C269500300B6B9000DEE0FA24FCF890A3
:0E26A10000DEF086020886030886040886061E
:0E26AF001818189000CDEAF0A3EBF0A3ECF0A1
:0B26BD00A3EEF09000CD74CEF0A374EB
:0626C80034F0A37480F061
:0E26CE009000CDE0FBA3E0FCA3E0FD74012B27
:0E26DC00FEE43CFF8D029000CDEEF0A3EFF087
:0E26EA00A3EAF08B828C838DF0122A55FA70D1
:0426F80003022307AF
:0726FC008A821221ED80CB60
:0B2703009000E1E0FABA000302230797
:08270E009000EC74EBF0A374E1
:0627160000F030094C90B8
:0E271C0000DEE0FA14F89000DEF08602EA33E8
:0E272A0095E0FBFCFE9000CDEAF0A3EBF0A3DF
:0B273800ECF0A3EEF03008030227DDF8
:0E2743009000CDE0FAA3E0FBA3E0FCA3E0FED3
:0E2751007B007C007E009000CDEAF0A3EBF050
:08275F00A3ECF0A3EEF080767C
:0C276700300A2A9000DEE0FA24FCF89012
:0E27730000DEF086020886030886040886064B
:0E2781001818189000CDEAF0A3EBF0A3ECF0CE
:05278F00A3EEF08049FB
:0E2794009000DEE0FA24FEF89000DEF08602EF
:0E27A20008860318EB3395E0FCFE9000CDEAAC
:0C27B000F0A3EBF0A3ECF0A3EEF0200887
:0E27BC00209000CDE0FAA3E0FBA3E0FCA3E038
:0E27CA00FE7C007E009000CDEAF0A3EBF0A3B1
:0527D800ECF0A3EEF09F
:0C27DD0030083E9000CDE0FAA3E0FBA322
:0E27E900E0FCA3E0FE30E72B9000CDE0FAA369
:0E27F700E0FBA3E0FCA3E0FEC3E49AFAE49B3F
:0E280500FBE49CFCE49EFE9000CDEAF0A3EB09
:09281300F0A3ECF0A3EEF080024A
:02281C00C208F0
:08281E00D20C9000E1E0FC7512
:0328260010EB753F
:0428290011007D001D
:0E282D009000D1E4F08C82C004C00512227726
:0C283B00D005D004200C32C0049000D165
:0A284700E0FFC4FF851082851183B5
:0A285100E0FA42078510828511832A
:0A285B00EFF0151074FFB510021520
:012865001161
:082866009000ECE510F0A3E581
:06286E0011F0D004800C03
:092874009000D1E0FF851082857F
:03287D001183F0D4
:092880000D9000E4EDF0B20C90A3
:0E28890000CDE0FFA3E0FAA3E0FEA3E0FBEF2A
:0C2897004A4E4B70919000ECE510F0A34D
:0928A300E511F09000E4EDF09065
:0C28AC0000E2E0FA70069000E27401F017
:0A28B80020052720042474012DFAE6
:0528C2009000E2E0FBC4
:0D28C700C3EA9B5011758220C002C00312AD
:0928D40021EDD003D0021B80EAC3
:0528DD009000E2EBF0A9
:0A28E20030081275822D1221ED90CE
:0B28EC0000E2E0FA149000E2F0802F00
:0C28F7009000E4E0FA60283006127582C0
:0B2903002B1221ED9000E2E0FA14908E
:05290E0000E2F080135F
:0A2913003007107582201221ED90AC
:09291D0000E2E0FA149000E2F07F
:0929260020042F9000E4E0FA9077
:04292F0000E2E0FBE7
:0E2933008B041B9000E2EBF0C3EA9C503630A0
:0629410005047C30800259
:022947007C20F2
:0E2949008C82C002C0031221EDD003D00280A8
:01295700DBA4
:0E2958009000E2E0FA9000E4E0FCC39A50091F
:092966009000E2EAC39CF0800C31
:07296F009000E2E4F0800596
:052976009000E2EBF00F
:0D297B009000ECE0FAA3E0FB9000E4E0FC2B
:0A2988008C061CEE6040B20C200C1F
:06299200150ABA00010B5A
:0E2998008A828B83E0FEC4540FFE9000D1F0C3
:0229A600800EA1
:0E29A8008A828B83E0FE53060F9000D1EEF082
:0E29B6009000D1E0FEF582C002C003C0041202
:0A29C4002235D004D003D00280BAFF
:0629CE00200403022307B0
:0529D4009000E2E0FAB2
:0929D9008A031AEB7003022307C4
:0C29E200758220C0021221EDD00280EBB3
:0829EE008D821221ED02230786
:0C29F6009000D2E0FAA3E08A82F5832270
:0B34CE003C4E4F20464C4F41543E0046
:0E2A0200AAF0AB83E5829000EEF0A3EBF0A308
:0E2A1000EAF07A007B009000EEE0FCA3E0FD0F
:032A1E00A3E0FE34
:0E2A21008C828D838EF0122A55FFA3AC82ADFD
:0E2A2F00839000EEECF0A3EDF0A3EEF0EF606C
:082A3D00070ABA00DF0B80DC80
:0E2A45009000EEECF0A3EDF0A3EEF08A828B91
:022A53008322DC
:03000E00758121D8
:0A001100120521E582600302051CC0
:0E2A550020F71430F6148883A88220F507E6D7
:062A6300A8837583002228
:032A6900E280F711
:032A6C00E49322CE
:022A6F00E02263
:00000001FF
