:0D005F00E582900001F09000E27403F09043
:04006C000001E0FAB5
:0E0070009000E2E0FB6018900000E0FB6011E1
:0E007E008A82C002120211E582D002900000B8
:03008C00F080E120
:0C008F00900000E0FA6017740EC0E074EE
:0C009B001FC0E07480C0E01216531581F5
:0400A7001581158129
:0200AB0080FED5
:0100AD002230
:0D00AE00E582900003F090000474A0F09033
:0C00BB000002E0FA600690000474A1F05E
:0E00C700900003E0FA24F8501E8A037C00C06B
:0A00D50003C0047454C0E0741FC09F
:0E00DF00E07480C0E0121653E58124FBF58129
:0100ED0022F0
:0E00EE00EA2AFA900004E0FB4AF01201E190C9
:0E00FC000004E0FAF582C002120211AB82D0BD
:0B010A0002900000EBF08A8202005F10
:0C011500E582900007F0900006E0FA90F0
:0A0121000002E4F08A821200AE90A2
:0E012B000005E0FAF582C002120211AB82D08C
:0C01390002900000EBF08A8212005F9040
:0E0145000007E0FAF582C002120211AB82D070
:0C01530002900000EBF08A8212005F02B4
:02015F0001F0AD
:0C016100E582900009F0900008E0FA90A0
:0E016D000002E4F08A82C0021200AED00290BE
:0E017B000009E0FBF582C002C003120211ACC5
:0E01890082D003D002900000ECF08B82C00206
:0D01970012005FD002C0021201E6D00290FB
:0B01A40000027401F08A821200AE120B
:0E01AF00025CAA82C002120206D002C0021236
:0701BD0001F0D0028A82224A
:0301C4000201DC59
:0E1F0E000D0A41636B206661696C65642033C7
:0E1F1C002074696D65732E2053797374656DA2
:0E1F2A00207265736574207265717569726549
:0E1F3800642E20456E746572696E6720696EB6
:0E1F460066696E697465206C6F6F700D0A001D
:0E1F54000D0A496E76616C696420626C6F63E1
:0C1F62006B206E756D62657220256400B6
:01263A00009F
:0201C7007A6F4D
:0601C900EA60031A80FA4F
:0101CF00220D
:0601D0001201C7D29122CA
:0601D6001201C7C29122D4
:0501DC00D2900201D0E9
:0501E100C2900201D6EE
:0A01E600D2901201D0C2900201D69F
:0B01F0001201D6C2901201D0D2902262
:0B01FB00C2901201D01201D6D2902257
:0B020600D2901201D01201D6D290223B
:08021100E58290000AF07A007A
:03021900BA080020
:0E021C00502A90000AE0FB20E704C290800206
:02022A00D29070
:0E022C00C0021201D0D002C0021201D6D002D0
:0E023A0090000AE025E0FB90000AF00A80D157
:0D024800D2901201D0E4A29033FAC002124D
:0702550001D6D0028A8222CB
:07025C0090000BE4F07A00B2
:03026300BA0800D6
:0D026600502CC0021201D0D0023090089040
:07027300000BE0FB4401F069
:03027A00BA0700C0
:0D027D00500B90000BE025E0FB90000BF013
:0A028A00C0021201D6D0020A80CF94
:0702940090000BE0F582224F
:0E029B00E58290000CF0C294C295901F6EE4B4
:0E02A90093FA740193FB90000CE0FC8A828BA8
:0302B70083F022AF
:0E02BA00E58290000DF0C294D295901F6EE484
:0E02C80093FA740193FB90000DE0FC8A828B88
:0302D60083F02290
:0A02D900E58290000EF0120364901D
:0E02E300000EE0FA54C0F090000EE0FA430264
:0602F100408A8202029B1C
:0A02F700E58290000FF012036490FE
:0E030100000FE0FA4480F090000FE0FAF58261
:03030F0002029B4C
:0E031200120364D294D295901F6EE493FA7495
:0B0320000193FB8A828B83E0F58222B0
:0E032B00E582900010F0900010E0FA74F05A95
:0E033900FBC4540F25E0FB901FB093CBA393A1
:0E034700FC8B82C0021203E8D00253020FEAC0
:0D0355002AFA901FB093CAA393FB8A82027C
:0203620003E8AE
:04036400D294C295D8
:0E036800901F6EE493FA740193FB8A828B83DC
:06037600E0FA20E7ED2291
:09037C0012036475820102029B68
:0E038500E582900011F0900011E0FA247F5004
:02039300012245
:0E039500C002120364D002C294C295901F6E83
:0E03A300E493FB740193FC4302808B828C83F5
:0303B100EAF0224D
:0E03B400E582900013F0900013E0FA24FC4064
:0A03C20009900012E0FB24F0500146
:0103CC00220E
:0A03CD00EAC454F02470FAE4341F6F
:0E03D700FCEB2AF582E43CF583E493FAF58210
:0303E5000203858B
:0A03E800E582900014F01203649007
:0903F2000014E0FAF5820202BADF
:0E03FB00AAF0AB83E582900015F0A3EBF0A30F
:0D040900EAF0900015E0FAA3E0FBA3E0FC90
:0D0416008A828B838CF0121EF2FD70012291
:0E0423008D82C002C003C0041203E8D004D0D2
:0804310003D0020ABA00010B1E
:0E043900900015EAF0A3EBF0A3ECF0C002C0B7
:0E04470003C004120364D004D003D002D29488
:0E045500C295901F6EE493FD740193FE8D829C
:0C0463008E83E0FD53057FBD1002800F6A
:05046F00BD24028034F1
:05047400BD5002801ADA
:05047900BD649A803F04
:0E047E00758240C002C003C004120385D00482
:07048C00D003D002020416A8
:0E049300758210C002C003C004120385D0049D
:0704A100D003D00202041693
:0E04A800758250C002C003C004120385D00448
:0704B600D003D0020204167E
:0104BD00221C
:0A04BE0012036475823812029B12CB
:0804C800036475820F02029B20
:0A04D00012036475820112029B12F0
:0B04DA000364900012E4F07582001231
:0904E50003B4901FD075F08002F1
:0204EE0003FB0E
:021F6E0000E091
:0E1F7000000102030405060708090A0B0C0D08
:0E1F7E000E0F404142434445464748494A4BF6
:0E1F8C004C4D4E4F1011121314151617181944
:0E1F9A001A1B1C1D1E1F5051525354555657F2
:081FA80058595A5B5C5D5E5F55
:0E1FB0003000310032003300340035003600BE
:0E1FBE00370038003900410042004300440063
:041FCC004500460086
:0E1FD0006162636465666768696A6B6C6E6F58
:0E1FDE00707172737475767778797A31323358
:0E1FEC0034353637383961626364656667687C
:0E1FFA00696A6B6C6D6E6F70717273747576C0
:0E2008007778797A31323334353637383938D3
:08201600373635343332310056
:03000000020003F8
:03005C000204F0AB
:0504F000120FEC80FE7C
:0704F500438E0C9000002271
:0A04FC00741EC0E07420C0E074809C
:0C050600C0E01216531581158115817498
:0A05120030C0E07420C0E07480C027
:0C051C00E0121653158115811581741E24
:0B052800C0E07420C0E07480C0E0124E
:0C0533001653158115811581743DC0E040
:0C053F007420C0E07480C0E01216531558
:0A054B008115811581745BC0E07416
:0C05550020C0E07480C0E0121653158135
:0A056100158115817489C0E0742033
:0E056B00C0E07480C0E0121653158115811592
:0A0579008174D9C0E07420C0E07462
:0D05830080C0E0121653158115811581749A
:0A059000F5C0E07420C0E07480C0E4
:0C059A00E0121653158115811581744084
:0B05A600C0E07421C0E07480C0E012CF
:0C05B1001653158115811581747FC0E080
:0C05BD007421C0E07480C0E012165315D9
:0A05C900811581158174A5C0E0744E
:0C05D30021C0E07480C0E01216531581B6
:0A05DF001581158174CCC0E0742171
:0E05E900C0E07480C0E0121653158115811514
:0A05F7008174F6C0E07421C0E074C6
:0D06010080C0E0121653158115811581741B
:0A060E001BC0E07422C0E07480C03D
:0C061800E0121653158115811581744203
:0B062400C0E07422C0E07480C0E0124F
:0C062F001653158115811581746CC0E014
:0C063B007422C0E07480C0E01216531559
:06064700811581158122DE
:0E064D00AAF0AB83E58290001BF0A3EBF0A3B4
:0A065B00EAF07498C0E07422C0E0D9
:0E0665007480C0E01216531581158115819026
:0E0673000018E0FAA3E0FBA3E0FC900001C039
:0E06810002C003C004121038AD82AE83D00454
:0E068F00D003D0028A828B838CF0ED1215947A
:0E069D008A828B838CF0121EF2FD24F85043EB
:0B06AB00C002C003C00474C2C0E074B1
:0C06B60022C0E07480C0E01216531581D1
:0E06C20015811581D004D003D002900001C034
:0E06D00002C003C004121038AD82AE83D00405
:0E06DE00D003D0028A828B838CF0ED1215942B
:0206EC0080AFDD
:0A06EE0074F5C0E07422C0E07480CF
:0E06F800C0E012165315811581158190001B6C
:0E070600E0FAA3E0FBA3E0FCC002C003C004C5
:0E07140012115DAD82D004D003D0028A828B18
:07072200838CF0ED02159439
:0E072900E58290001EF090001EE0FABA430335
:03073700020AFEB5
:06073A00BA4403020B1794
:06074000BA4703020F247A
:06074600BA4803020FE9AE
:05074C00BA4902802FF4
:06075100BA4C03020A5736
:06075700BA52030209E49E
:06075D00BA570302094F28
:06076300BA5903020CEA82
:06076900BA63030208C997
:05076F00BA67028024BE
:06077400BA73030208E65F
:05077A00BA7802803690
:01077F002257
:0A078000741CC0E07423C0E0748014
:0E078A00C0E01216531581158115810204BEC0
:0A0798007431C0E07423C0E07480E7
:0E07A200C0E012165315811581158112115DEC
:0507B000AA820203858E
:0A07B5007452C0E07423C0E07480A9
:0E07BF00C0E0121653158115811581900003BC
:0E07CD00121038E5828583F0900022F0A3E53B
:0207DB00F0F03C
:0E07DD00900022E0FAA3E0FBC374039A74803C
:0C07EB008BF063F08095F0502A7452C02F
:0C07F700E07423C0E07480C0E0121653D0
:0E080300158115811581900003121038E582D1
:0D0811008583F0900022F0A3E5F0F080BF99
:0A081E00746AC0E07423C0E0748027
:0E082800C0E012165315811581158190000352
:0E083600121038E5828583F0900024F0A3E5CF
:02084400F0F0D2
:0E084600900024E0FAA3E0FBC3740F9A7480C4
:0C0854008BF063F08095F0502A746AC0AD
:0C086000E07423C0E07480C0E012165366
:0E086C00158115811581900003121038E58268
:0D087A008583F0900024F0A3E5F0F080BF2E
:0E088700900022E0FCA3E0FD8C06900012EA37
:0E089500F08E82C002C003C004C0051203B47E
:0E08A300D005D004D003D002C002C003C004B0
:0A08B100C0057483C0E07423C0E0AA
:0E08BB007480C0E0121653E58124F9F5812205
:0A08C90074ACC0E07423C0E074803A
:0E08D300C0E012165315811581158112102EEA
:0508E100AA820203E8F9
:0A08E60074DCC0E07423C0E07480ED
:0D08F000C0E01216531581158115817A00A4
:0308FD00BA6400DA
:0A0900005044EA2427FBE43400FC15
:0E090A00C002C003C00412102EAD82D004D073
:0E09180003D0028B828C83EDF08D82C002C072
:0E09260003C00412101CD004D003D0028B8238
:0E0934008C83E0FDBD0D088B828C83E4F08087
:0109420003B1
:030943000A80B770
:0909460090002775F0000203FB8C
:0A094F0074EEC0E07423C0E0748071
:0E095900C0E01216531581158115819000180B
:0A096700741FF0A37400F0A37400E5
:0B097100F090002675F00012064D7497
:0A097C0005C0E07424C0E07480C0E0
:0E098600E012165315811581158112115DAA1C
:0C09940082900026E0FB90001FE0FC9029
:0E09A0000005EBF0900006ECF08A82C0021217
:0C09AE000115D002900026E0FB7C0090B8
:0E09BA00001FE0FD7E007F00C003C004C005EA
:0B09C800C006C002C0077430C0E0741D
:0C09D30024C0E07480C0E0121653E581DF
:0509DF0024F7F5812260
:0A09E4007461C0E07424C0E0748068
:0E09EE00C0E012165315811581158190001876
:0A09FC00741FF0A37400F0A3740050
:0B0A0600F090002675F00012064D90E5
:0A0A11000026E0FA90001FE0FB90C1
:0B0A1B000008F08A82120161AA82909C
:0E0A26000026E0FB7C0090001FE0FD7E007FBC
:0E0A340000C003C004C005C006C002C00774A5
:0A0A42007AC0E07424C0E07480C0A4
:0B0A4C00E0121653E58124F7F581222B
:080A5700900018741FF0A37455
:0C0A5F0000F0A37400F090002675F00079
:090A6B0012064D900026E0FA90FD
:0B0A7400001FE0FB900008F08A8212D7
:0B0A7F000161AA82C00274A1C0E074F3
:0C0A8A0024C0E07480C0E01216531581F7
:0E0A960015811581D002900001C002121038A7
:0E0AA400AB82AC83D002900012E4F08B82C0D3
:0E0AB200021203B4D00290001FE02430FBF5C6
:0E0AC00082C0021203E8D002900026E0FBF58F
:0E0ACE0082C00212032BD0029024BB75F08070
:0D0ADC00C0021203FBD0028A8212032B74A9
:0A0AE900BEC0E07424C0E07480C0B9
:0B0AF300E012165315811581158122B9
:080AFE0012037C74D0C0E07407
:0C0B060024C0E07480C0E012165315817A
:050B1200158115812290
:0A0B170074E9C0E07424C0E07480AB
:0C0B2100C0E01216531581158115817477
:0A0B2D000CC0E07425C0E07480C025
:0E0B3700E01216531581158115819000187477
:0A0B45001FF0A37400F0A37400F089
:0A0B4F0090002675F00012064D74A8
:0A0B590033C0E07425C0E07480C0D2
:0E0B6300E0121653158115811581900018744B
:0A0B710020F0A37400F0A37400F05C
:0A0B7B0090002175F00012064D9065
:0E0B8500001FE0FA8A037A00900026E0FC7D53
:0E0B9300004202ED420390008BEAF0A3EBF06B
:0E0BA100900020E0FC8C057C00900021E0FE1E
:0E0BAF007F004204EF420590008DECF0A3EDB4
:0C0BBD00F0C3EC9AED9B50167458C0E099
:0C0BC9007425C0E07480C0E012165315C3
:060BD5008115811581224B
:0A0BDB007495C0E07425C0E074803A
:0E0BE500C0E012165315811581158190008D08
:090BF300E0FAA3E0FB8A048B0583
:0E0BFC0090008BE0FEA3E0FFC3EC9EED9F5047
:020C0A000122C5
:0E0C0C00C002C003C004C005C006C007C00679
:0A0C1A00C0077498C0E07425C0E024
:0E0C24007480C0E0121653E58124FBF581D0E8
:0D0C320007D006D005D004D003D002780012
:030C3F00B81000EA
:0E0C42005076C004C0058E017C00900008EFC3
:0E0C5000F08982C002C003C005C006C007C004
:0E0C5E0000120161AC82D000D007D006D00594
:0E0C6C00D003D0027D00C002C003C004C0054A
:0C0C7A00C006C007C000C004C005749D87
:0B0C8600C0E07425C0E07480C0E012E4
:0E0C91001653E58124FBF581D000D007D00674
:0D0C9F00D005D004D003D0020EBE00010F1E
:0E0CAC00C3EA9EEB9FD005D00440030880856C
:0E0CBA0090008BEEF0A3EFF0C002C003C00468
:0A0CC800C0057495C0E07425C0E07B
:0E0CD2007480C0E0121653158115811581D073
:0A0CE00005D004D003D002020BFC83
:0A0CEA007495C0E07425C0E074802A
:0E0CF400C0E01216531581158115817480C061
:0A0D0200E0E4C0E07498C0E074253E
:0E0D0C00C0E07480C0E0121653E58124FBF5B0
:070D1A00817A807B007C1050
:0E0D21008A058D82C002C003C0041202F7D002
:0E0D2F0004D003D002C002C003C0041203129D
:0E0D3D00AD82D004D003D0027E00C002C003FD
:0B0D4B00C004C005C006749DC0E07429
:0C0D560025C0E07480C0E0121653E58157
:0E0D620024FBF581D004D003D0020ABA0001B0
:010D70000B77
:0A0D7100DCAE7495C0E07425C0E00C
:0E0D7B007480C0E01216531581158115817425
:0B0D8900C0C0E0E4C0E07498C0E0745B
:0C0D940025C0E07480C0E0121653E58119
:0A0DA00024FBF5817AC07B007C1073
:0E0DAA008A058D82C002C003C0041202F7D079
:0E0DB80004D003D002C002C003C00412031214
:0E0DC600AD82D004D003D0027E00C002C00374
:0B0DD400C004C005C006749DC0E074A0
:0C0DDF0025C0E07480C0E0121653E581CE
:0E0DEB0024FBF581D004D003D0020ABA000127
:010DF9000BEE
:0A0DFA00DCAE7495C0E07425C0E083
:0E0E04007480C0E0121653158115811581749B
:0B0E120090C0E0E4C0E07498C0E07401
:0C0E1D0025C0E07480C0E0121653E5818F
:0A0E290024FBF5817A907B007C1019
:0E0E33008A058D82C002C003C0041202F7D0EF
:0E0E410004D003D002C002C003C0041203128A
:0E0E4F00AD82D004D003D0027E00C002C003EA
:0B0E5D00C004C005C006749DC0E07416
:0C0E680025C0E07480C0E0121653E58144
:0E0E740024FBF581D004D003D0020ABA00019D
:010E82000B64
:0A0E8300DCAE7495C0E07425C0E0F9
:0E0E8D007480C0E01216531581158115817412
:0B0E9B00D0C0E0E4C0E07498C0E07438
:0C0EA60025C0E07480C0E0121653E58106
:0A0EB20024FBF5817AD07B007C1050
:0E0EBC008A058D82C002C003C0041202F7D066
:0E0ECA0004D003D002C002C003C00412031201
:0E0ED800AD82D004D003D0027E00C002C00361
:0B0EE600C004C005C006749DC0E0748D
:0C0EF10025C0E07480C0E0121653E581BB
:0E0EFD0024FBF581D004D003D0020ABA000114
:010F0B000BDA
:0A0F0C00DCAE7495C0E07425C0E06F
:0E0F16007480C0E012165315811581158122DA
:0A0F24007495C0E07425C0E07480ED
:0E0F2E00C0E012165315811581158190008BBD
:060F3C007440F0E4A3F094
:0E0F420090008BE0FAA3E0FBC3EA9480EB94EE
:040F5000004001223A
:0C0F5400C002C003C002C0037498C0E0DB
:0C0F60007425C0E07480C0E0121653E558
:0B0F6C008124FBF581D003D0027C1033
:0E0F77008A058D82C002C003C0041202D9D0C8
:0E0F850004D003D002C002C003C00412031245
:0E0F9300AD82D004D003D0027E00C002C003A5
:0B0FA100C004C005C006749DC0E074D1
:0C0FAC0025C0E07480C0E0121653E581FF
:0E0FB80024FBF581D004D003D0020ABA000158
:010FC6000B1F
:0C0FC700DCAE90008BEAF0A3EBF0749518
:0B0FD300C0E07425C0E07480C0E01294
:0B0FDE001653158115811581020F428A
:030FE9000204FC03
:070FEC001214331201C412BC
:070FF30004BED2931204FCBE
:0E0FFA0012102EAA82BA0D0A75820AC00212C7
:04100800101CD002E6
:0E100C008A82C00212101CD0028A82120729AA
:02101A0080DE76
:0E201E000D0A2A2A2A2A2A2A2A2A2A2A2A2AA5
:04202C002A2A2A0032
:0D2030000D0A202020204D656E750D0A0060
:0E203D000D0A50726573732027482720746FB8
:0E204B002073686F772074686973206D656E6E
:02205900750010
:0E205B000D0A50726573732027492720746F99
:0E20690020496E6974204C43442E204D75733F
:0E207700742063616C6C207468697320666964
:0420850072737400FE
:0E2089000D0A50726573732027672720746F4D
:0E2097002073686F7720676F746F61646472E6
:0E20A5002E2057696C6C20676F20746F2061CD
:0E20B30064647265737320307834302C2077AB
:0E20C10068696368206973207374617274200B
:0A20CF006F66206C696E6520320018
:0E20D9000D0A50726573732027782720746FEC
:0E20E7002073686F7720676F746F78792E0012
:0E20F5000D0A50726573732027632720746FE5
:0E2103002073686F772070757463682E205704
:0E211100696C6C2064726177206120636861E4
:0E211F007261637465722061742074686520BB
:0E212D007374617274206F66206561636820B0
:05213B006C696E6500F7
:0E2140000D0A50726573732027732720746F89
:0E214E002073686F77207075747374722E2082
:0E215C0057696C6C2066696C6C20656E746946
:0E216A007265204C4344207769746820612020
:07217800737472696E6700C9
:0E217F000D0A50726573732027572720746F66
:0E218D00207772697465206120627974652084
:0A219B00746F20454550524F4D006F
:0E21A5000D0A50726573732027522720746F45
:0E21B300207265616420612062797465206687
:0B21C100726F6D20454550524F4D00DD
:0E21CC000D0A507265737320274C2720746F24
:0E21DA0020646973706C617920454550524F46
:0E21E8004D2064617461206F6E204C434400F2
:0E21F6000D0A50726573732027432720746F03
:0E22040020636C65617220746865204C434451
:0922120020646973706C617900AD
:0E221B000D0A50726573732027442720746FDC
:0E22290020646F2061204865782044756D7038
:0B223700206F6620454550524F4D00BF
:0E2242000D0A50726573732027592720746FA0
:0E22500020726561642074686520636F6E748F
:0E225E00656E7473206F6620444452414D003B
:0E226C000D0A50726573732027472720746F88
:0E227A0020726561642074686520636F6E7465
:0E228800656E7473206F6620434752414D0D02
:022296000A003C
:0E2298000D0A456E74657220616E204545503A
:0E22A600524F4D20626C6F636B206E756D623F
:0E22B40065722066726F6D20302D373A200063
:0E22C2000D0A494E56414C49443A20456E746F
:0E22D000657220616E20454550524F4D2062D0
:0E22DE006C6F636B206E756D626572206672A8
:0922EC006F6D20302D373A2000FF
:0E22F5000D0A456E74657220616E20454550DD
:0E230300524F4D20576F726420616464726502
:0B231100737320696E206865783A0045
:0E231C000D0A496E697469616C697A696E67B1
:07232A00204C43440D0A00A2
:0E2331000D0A456E7465722061206865782083
:0E233F006164647265737320746F20676F2091
:05234D00746F0D0A0091
:0E2352000D0A456E746572206120726F77204F
:0A23600066726F6D20302D333A00D5
:0E236A000D0A456E746572206120636F6C2051
:0B23780066726F6D20302D31353A0089
:0E2383000D0A4D6F76656420637572736F727C
:0E23910020746F206E6577206C6F6361746935
:0D239F006F6E202825642C2564290D0A008E
:0E23AC000D0A456E74657220612063686172CF
:0E23BA00616374657220746F20707574206109
:0E23C800742063757272656E742061646472B5
:0623D6006573730D0A009F
:0E23DC000D456E746572206120737472696E17
:0423EA00670D0A0071
:0E23EE000D0A57726974696E6720746F20457E
:0923FC004550524F4D2E2E2E00CB
:0E2405000D0A456E746572206120627974655F
:0E241300206F66206461746120746F20777200
:0E24210069746520746F20454550524F4D3A46
:01242F0000AC
:0E2430000D0A57726F746520255820746F20B6
:0E243E00626C6F636B202564206164647265BC
:0E244C007373203078255820696E2045455066
:07245A00524F4D210D0A0055
:0E2461000D0A52656164696E672066726F6DC8
:0B246F0020454550524F4D2E2E2E00F0
:0E247A000D0A526561642025582066726F6D50
:0E24880020626C6F636B2025642061646472B7
:0B24960065737320307825580D0A0094
:0E24A1000D0A456E746572204C434420726F24
:0C24AF00772066726F6D20302D333A00EC
:0324BB003A2000C4
:0E24BE000D0A57726F746520746F204C4344F2
:0424CC00210D0A00D4
:0E24D0000D0A4C434420446973706C617920FE
:0B24DE00436C6561726564210D0A000B
:0E24E9000D0A506572666F726D696E67206134
:0E24F7006E20454550524F4D206461746120A7
:0725050064756D700D0A0002
:0E250C000D0A456E7465722074686520737444
:0E251A00617274696E6720626C6F636B206182
:0B2528006E64206164647265737300D0
:0E2533000D0A456E7465722074686520656E31
:0E25410064696E6720626C6F636B20616E646C
:09254F002061646472657373007D
:0E2558000D0A496E76616C69642061646472DC
:0E25660065737365732E20456E642061646496
:0E25740072657373206D75737420626520614B
:0E258200667465722073746172742061646403
:05259000726573730089
:032595000D0A002C
:0525980025783A200047
:04259D00257820007D
:06101C00E58290008FF058
:0C1022003099FD90008FE0F599C29922F2
:05102E0010980280FB98
:05103300AA998A822247
:0E103800AA83E582900090F0A3EAF090009D5C
:0E104600E4F0A3F0900090E0FAA3E0FBC37486
:0E1054000A9A74808BF063F08095F050197446
:0A106200A1C0E07425C0E07480C056
:0E106C00E012165315811581158190FFFF22A9
:0E107A0090009DE0FCA3E0FDC3EC9AED6480C5
:0C1088008BF063F08095F04003021140F3
:0E109400C002C003C004C00512102EAE82D0F0
:0E10A20005D004D003D0028E82C002C003C06D
:0E10B00004C005C00612101CD006D005D004E6
:0A10BE00D003D002BE0D0302114062
:0E10C800BE0812EC24FFFFED34FFF890009DEF
:0710D600EFF0A3E8F0809D9C
:0510DD00BE710280035A
:0310E200BE5104F8
:0410E50090FFFE2258
:0D10E9008E82C002C003C004C005C0061204
:0E10F6001444E582D006D005D004D003D00209
:0A110400601AEC2492F582ED34002D
:0E110E00F583EEF090009D74012CF0E43DA3FB
:04111C00F002107A53
:0A112000C002C00374D3C0E07425C0
:0E112A00C0E07480C0E01216531581158115C7
:0811380081D003D00202107AFD
:0C11400090009DE0FAA3E0FBEA2492F589
:0C114C0082EB3400F583E4F09000927513
:05115800F0000214612B
:0C115D009000A2E4F0A3F09000A5E4F0E4
:0E1169009000A2E0FAA3E0FBC3EA9402EB645C
:0811770080948040030212ABDA
:0E117F00C002C00312102EAC82D003D0028C2E
:0E118D0082C002C003C00412101CD004D003A4
:0E119B00D002BC0D2CEA4B700C9000A0E4F0CA
:0711A9009000A1F00212AB5F
:0811B000BA0105BB0002800337
:0311B8000212AB75
:0A11BB009000A0E0FD9000A1F0906C
:0711C50000A0E4F00212ABF0
:0E11CC00BC0813EA24FFFDEB34FFFE9000A2E6
:0811DA00EDF0A3EEF002116933
:0E11E2008C82C002C003C004121444E582D007
:0C11F00004D003D002601AEA24A0F582AB
:0C11FC00EB3400F583ECF09000A27401CD
:091208002AF0E43BA3F002116995
:0E1211008C82C0041215EAE582D004700D8CA8
:0C121F0082C0041215CDE582D004606886
:0E122B00C3EC648094C1400B74C68CF063F079
:051239008095F0501348
:0E123E00C3EC648094E1404D74E68CF063F0E4
:05124C008095F0404216
:0C1251009000A2E0FAA3E0FBEA24A0FA5F
:0C125D00EB3400FB8C82C002C003C00414
:0E1269001215CDE582D004D003D002600674C9
:05127700DF5CFD8002B8
:02127C008C05DF
:0E127E008A828B83EDF09000A2E02401F0A3A1
:07128C00E03400F0021169DB
:0A12930074FDC0E07425C0E0748013
:0E129D00C0E0121653158115811581021169EA
:0912AB009000A4E4F07A007B003D
:0E12B400C3EA9402EB64809480400302136F3F
:0A12C200EA24A0F582EB3400F58366
:0E12CC00E0FC90009FF08C82C002C003C004C2
:0E12DA00121444E582D004D003D0026009EC67
:0812E80024D09000A5F0803A2B
:0E12F000C3EC648094E1401474E68CF063F06B
:0E12FE008095F040099000A574A92CF0801E88
:0E130C0090009FE0FCC3648094C1401274C640
:0E131A008CF063F08095F040079000A574C938
:021328002CF0A7
:0E132A007401C39AFCE49BFDCC25E0CC33CCCF
:0E13380025E0CC33FD9000A5E0FE8CF005F022
:06134600AC067D008006EC
:06134C00EC2CFCED33FD6A
:0E135200D5F0F79000A4E0FE7F00EC2EFCED3D
:0C1360003FFD9000A4ECF00ABA00010B65
:03136C000212B4B6
:07136F009000A4E0F58222CA
:0E137600AAF0AB83E5829000A8F0A3EBF0A3F1
:0E138400EAF012102EAA829000ABEAF08A82E4
:0C13920012101C9000A6E0FAA3E0FB90F3
:08139E0000A8E0F508A3E0F54A
:0913A60009A3E0F50A7F007800BC
:0A13AF009000ABE0F9B90D02805D7B
:0E13B900C3EF9AE864808BF063F08095F050EB
:0B13C7004EC002C003EF2508FAE83515
:0A13D20009FBAC0A8A828B838CF0C1
:0E13DC00E9121594C003C007C00012102EAA1B
:0E13EA0082D000D007D0039000ABEAF08A82D8
:0E13F800C002C003C007C00012101CD000D0FD
:0A14060007D003D0020FBF00010859
:06141000D003D002809918
:0E1416009000A8E0FAA3E0FBA3E0FCEF2AFFA1
:0D142400E83BF88C058F8288838DF0E40290
:02143100159410
:0E143300759850758920758DFD758BFDD28ED4
:03144100D299221B
:0E25A10053657269616C5F676574496E74659D
:0E25AF0067657228293A204572726F722E20DD
:0E25BD004D61785F4C656E67746820746F6FB7
:0825CB00206C617267652E00AF
:0E25D3000D0A496E76616C696420636861725E
:0E25E10061637465722E20456E746572206F02
:0E25EF006E6C79206469676974732E0D0A00A2
:0E25FD000D0A496E76616C6964206368617234
:0E260B0061637465722E20456E746572206FD7
:0E2619006E6C79206865782063686172616379
:08262700746572732E0D0A00A8
:06003200E478FFF6D8FDA2
:0E144400E5829000ACF09000ACE0FABA300007
:0B1452004009EA24C640047582012214
:04145D007582002272
:0E146100AAF0AB83E5829000ADF0A3EBF0A300
:0E146F00EAF07A007B009000ADE0FCA3E0FD07
:03147D00A3E0FEEB
:0E1480008C828D838EF0121EF2FF6039C374D1
:0E148E00B98FF063F08095F04007EF64809412
:03149C00B0502627
:0E149F008C828D838EF0121EF2FFBF2D028014
:0114AD001727
:0514AE00BF2B028012BB
:0514B3000CBC00010D5E
:0D14B8009000ADECF0A3EDF0A3EEF080BBD2
:0E14C5009000ADECF0A3EDF0A3EEF08C828D64
:0C14D300838EF0121EF2FFE4BF2D010416
:0814DF00F888017003BF2B0E19
:0E14E7009000AD74012CF0E43DA3F0A3EEF0F4
:0B14F5009000ADE0FCA3E0FDA3E0FED2
:0E1500008C828D838EF0121EF2FF6068C3EFA6
:0E150E00648094B0406074B98FF063F08095F3
:0E151C00F04055C0019000B1740AF0E4A3F055
:0E152A008A828B83C004C005C006C007C001C2
:081538001215AD85820B8583BD
:0C1540000CD001D007D006D005D004EF7D
:0E154C003395E0F8EF24D0FFE834FFF8EF25E8
:0A155A000BFAE8350CFB0CBC000195
:011564000D79
:0E1565009000ADECF0A3EDF0A3EEF0D001800D
:011573008CEB
:0E1574009000ADECF0A3EDF0A3EEF0E96009FD
:09158200C3E49AFCE49BFD800423
:04158B008A048B053E
:05158F008C828D832217
:080010007901E94400601B7A4C
:050018000190263A787A
:03001D00E275A0E9
:0A00200000E493F2A308B800020503
:08002A00A0D9F4DAF275A0FF81
:0E15940020F71030F6118883A88220F507F6A4
:0515A200A88375830021
:0115A7002221
:0315A800F280F7D7
:0215AB00F0222C
:0E15AD00AA83AB828BF09000B1E0A4F8A9F005
:0E15BB008AF0E0A429F98BF0A3E0A429F583BF
:0415C90088822222D0
:080038007800E84400600A7939
:030040000075A0A8
:0600430000E4F309D8FC03
:0800490078E2E84400600C7944
:0B00510001900000E4F0A3D8FCD9FAF5
:0E15CD00E5829000B3F09000B3E0FABA61003E
:0B15DB004009EA2485400475820122CB
:0415E60075820022E8
:0E15EA00E5829000B4F09000B4E0FABA41003F
:0B15F8004009EA24A54004758201228E
:0416030075820022CA
:08160700C012858112AA8212B3
:05160F00101CD01222A6
:0E161400AAF0AB83E5829000B6F0A3EBF0A342
:0E162200EAF09000B6E0FAA3E0FBA3E0FC9033
:0E16300000B5E0FD9000C9E4F0A3F0A3F09037
:0E163E0000CCEAF0A3EBF0A3ECF09000CFEDAF
:07164C00F090160702176C75
:06165300C012858112E5C2
:0C1659001224FBFA9000C9E4F0A3F0A3F7
:0C166500F0E51224FBF89000CCE6F00841
:0D167100A3E6F008A3E6F09000CFEAF090A9
:0A167E00160712176CAA82AB83D086
:0216880012222C
:0C168A00E5829000C5F09000C5E0FA90E9
:0E16960000BBE0C0E0A3E0C0E0A3E0C0E07451
:0816A400B8C0E07416C0E0902C
:0C16AC0000B9E0C0E0A3E0C0E08A8222A8
:0E16B8001581158115819000C3E0FAA3E0FBB7
:0C16C6009000C374012AF0E43BA3F02262
:0E16D200E5829000C6F09000C6E0FA74302A5F
:0C16E000FA24C6500A74072AFA300003EE
:0316EC0043022096
:0516EF008A8202168A48
:0E16F400E5829000C7F09000C7E0FAC4540FE2
:0E170200FBF582C0021216D2D00253020F8AEB
:04171000820216D269
:0E171400E5829000C8F09000BEE0FAA3E0FB72
:0E172200A3E0FCA3E0FD9000C2E0FE9000C832
:04173000E0FF78203E
:0E173400EE2EFEED235401F94206EA2AFAEBEE
:0E17420033FBEC33FCED33FDC3EE9F4007EEAE
:06175000C39FFE430201ED
:0E175600D8DC9000BEEAF0A3EBF0A3ECF0A309
:08176400EDF09000C2EEF0224E
:0E176C00AA83E5829000D0F0A3EAF09000D0AE
:0E177A00E0FAA3E0FB9000B9EAF0A3EBF090D8
:0E17880000C9E0FAA3E0FBA3E0FC9000BBEA7E
:0E179600F0A3EBF0A3ECF09000C3E4F0A3F09E
:0E17A4009000CCE0FAA3E0FBA3E0FC8A828B6D
:0E17B200838CF0121EF2FD9000CC74012AF020
:0D17C000E43BA3F0A3ECF0ED7003021E93D8
:0517CD00BD25028003B0
:0317D200021E8B69
:0517D500C201C202C2C6
:0417DA0003C204C280
:0417DE0005C206C278
:0417E20007C20890A2
:0917E60000D2E4F09000D3F09071
:0E17EF0000D474FFF09000CCE0FAA3E0FBA35E
:0217FD00E0FC0E
:0E17FF008A828B838CF0121EF2FEA3AA82ABAC
:0D180D00839000CCEAF0A3EBF0A3ECF09088
:0D181A0000D6EEF0BE25088E8212168A025E
:0218270017A404
:051829008E07BF300036
:0E182E0040498E07EF24C640429000D4E0FFF0
:0E183C00BFFF29C002C003C0049000D3E0FA31
:0E184A0075F00AA4FAEE24D09000D32AF09094
:0D18580000D3E0FAD004D003D002709BD280
:0318650002809767
:0E186800EF75F00AA4FFEE24D09000D42FF00C
:031876000217FF57
:0E1879009000D6E0FEBE2E089000D4E4F002EF
:0218870017FF49
:0E1889008E82C002C003C004C0061215CDE559
:0C1897008224FF9200D006D004D003D0C1
:0B18A300023000079000D674DF5EF0FA
:0A18AE009000D6E0FEBE2002805537
:0518B800BE2B02804B75
:0518BD00BE2D02804178
:0518C200BE4202804B54
:0518C700BE4302805049
:0618CC00BE4403021B00F4
:0618D200BE4603021B22CA
:0618D800BE4903021B00E3
:0518DE00BE4C02803445
:0618E300BE4F03021B0AC8
:0618E900BE5003021A626A
:0518EF00BE530280421F
:0618F400BE5503021B12A9
:0618FA00BE5803021B1A98
:03190000021B26A1
:05190300D2010217FFF4
:05190800D2030217FFED
:05190D00D2040217FFE7
:05191200D2060217FFE0
:05191700D2070217FFDA
:0E191C009000CFE0FA24FEF89000CFF0860293
:0C192A00088603188A8212168A021B32FB
:0E1936009000CFE0FA24FDF89000CFF086027A
:0E19440008860308860418189000BEEAF0A377
:0E195200EBF0A3ECF09000BEE0FAA3E0FBA3E4
:0E196000E0FC8A828B838CF0121E9FAA82AB61
:0E196E00839000D4E0FBBBFF059000D4EAF0AC
:0C197C002001389000D3E0FBC3EA9B5030
:0D1988002E9000D3EBC39AF09000D3E0FB4B
:0D1995008B041B9000D3EBF0BC000280100F
:0E19A200758220C002C00312168AD003D00244
:0219B00080E3D2
:0519B2009000D3EBF0F2
:0519B7009000D4E0FDEA
:0E19BC00C0029000BEE0FCA3E0FFA3E0FA8CA6
:0E19CA00828F838AF0121EF2D00260538D04C9
:0E19D8001DC374808CF063F08095F05044C005
:0A19E600029000BEE0F50DA3E0F54D
:0819F0000EA3E0F50F740125C0
:0719F8000DFBE4350EFAAC13
:0C19FF000F9000BEEBF0A3EAF0A3ECF0A8
:071A0B00850D82850E838525
:0C1A12000FF0121EF2FAF582C002C005AF
:0B1A1E0012168AD005D002D00280937F
:061A2900200103021B3244
:0D1A2F009000D3E0FBC3EA9B4003021B3292
:0C1A3C009000D3EBC39AF09000D3E0FAC6
:0E1A48008A031A9000D3EAF0BB0003021B2DA4
:0C1A5600758220C00212168AD00280E6C1
:0E1A62009000CFE0FB24FDF89000CFF086034B
:0E1A700008860408860718189000BEEBF0A345
:0E1A7E00ECF0A3EFF09000C0E0FB247F5008D6
:081A8C009000D67443F08020A5
:0D1A9400EB249F50089000D67450F0801392
:0D1AA100EB24BF50089000D67449F0800679
:061AAE009000D67458F010
:0E1AB4009000D6E0FBF582C00312168AD00324
:0E1AC20075823AC00312168AD003758230C0B6
:0E1AD0000312168AD003758278C00312168A9C
:071ADE00D003BB4902800F99
:051AE500BB5002800A65
:0A1AEA009000BFE0FBF5821216F435
:0C1AF4009000BEE0FBF5821216F4803278
:0A1B0000D2059000D2740AF080288C
:081B0A009000D27408F0802065
:081B12009000D2740AF0801863
:081B1A009000D27410F080105D
:041B2200D208800C59
:071B26008E8212168A800571
:051B2D009000D3EAF076
:0C1B320030086B9000CFE0FA24FCF89023
:0E1B3E0000CFF086020886030886040886069B
:0E1B4C001818189000BEEAF0A3EBF0A3ECF01E
:0B1B5A00A3EEF09000BE742FF0A37407
:061B650026F0A37480F0DD
:0E1B6B009000BEE0FBA3E0FCA3E0FD74012BA4
:0E1B7900FEE43CFF8D029000BEEEF0A3EFF004
:0E1B8700A3EAF08B828C838DF0121EF2FA70AE
:041B9500030217A48C
:071B99008A8212168A80CB3C
:0B1BA0009000D2E0FABA00030217A484
:081BAB009000DD74DCF0A3746E
:061BB30000F030064C902A
:0E1BB90000CFE0FA14F89000CFF08602EA3375
:0E1BC70095E0FBFCFE9000BEEAF0A3EBF0A35D
:0B1BD500ECF0A3EEF0300503021C7AD8
:0E1BE0009000BEE0FAA3E0FBA3E0FCA3E0FE51
:0E1BEE007B007C007E009000BEEAF0A3EBF0CE
:081BFC00A3ECF0A3EEF08076EB
:0C1C040030072A9000CFE0FA24FCF89092
:0E1C100000CFF08602088603088604088606C8
:0E1C1E001818189000BEEAF0A3EBF0A3ECF04B
:051C2C00A3EEF0804969
:0E1C31009000CFE0FA24FEF89000CFF086027B
:0E1C3F0008860318EB3395E0FCFE9000BEEA29
:0C1C4D00F0A3EBF0A3ECF0A3EEF02005F8
:0E1C5900209000BEE0FAA3E0FBA3E0FCA3E0B5
:0E1C6700FE7C007E009000BEEAF0A3EBF0A32E
:051C7500ECF0A3EEF00D
:0C1C7A0030053E9000BEE0FAA3E0FBA3A2
:0E1C8600E0FCA3E0FE30E72B9000BEE0FAA3E6
:0E1C9400E0FBA3E0FCA3E0FEC3E49AFAE49BAD
:0E1CA200FBE49CFCE49EFE9000BEEAF0A3EB87
:091CB000F0A3ECF0A3EEF08002B9
:021CB900C20562
:081CBB00D2099000D2E0FC7593
:031CC30010DC75BD
:041CC60011007D008C
:0E1CCA009000C2E4F08C82C004C00512171412
:0C1CD800D005D004200932C0049000C2E6
:0A1CE400E0FFC4FF85108285118324
:0A1CEE00E0FA420785108285118399
:0A1CF800EFF0151074FFB51002158F
:011D020011CF
:081D03009000DDE510F0A3E5FE
:061D0B0011F0D004800C71
:091D11009000C2E0FF85108285FC
:031D1A001183F042
:091D1D000D9000D5EDF0B2099023
:0E1D260000BEE0FFA3E0FAA3E0FEA3E0FBEFA7
:0C1D34004A4E4B70919000DDE510F0A3CA
:091D4000E511F09000D5EDF090E2
:0C1D490000D3E0FA70069000D37401F0A3
:0A1D550020022720012474012DFA5A
:051D5F009000D3E0FB41
:0D1D6400C3EA9B5011758220C002C003121B
:091D7100168AD003D0021B80EA9F
:051D7A009000D3EBF026
:0A1D7F0030051275822D12168A90AD
:0B1D890000D3E0FA149000D3F0802F8C
:0C1D94009000D5E0FA6028300312758240
:0B1DA0002B12168A9000D3E0FA14907A
:051DAB0000D3F08013DD
:0A1DB00030041075822012168A908C
:091DBA0000D3E0FA149000D3F00C
:091DC30020012F9000D5E0FA90F8
:041DCC0000D3E0FB65
:0E1DD0008B041B9000D3EBF0C3EA9C5036301E
:061DDE0002047C308002CB
:021DE4007C2061
:0E1DE6008C82C002C00312168AD003D0028085
:011DF400DB13
:0E1DF5009000D3E0FA9000D5E0FCC39A5009AC
:091E03009000D3EAC39CF0800CAE
:071E0C009000D3E4F0800513
:051E13009000D3EBF08C
:0D1E18009000DDE0FAA3E0FB9000D5E0FCB7
:0A1E25008C061CEE6040B209200993
:061E2F00150ABA00010BC8
:0E1E35008A828B83E0FEC4540FFE9000C2F040
:021E4300800E0F
:0E1E45008A828B83E0FE53060F9000C2EEF0FF
:0E1E53009000C2E0FEF582C002C003C004127F
:0A1E610016D2D004D003D00280BADC
:061E6B002001030217A490
:051E71009000D3E0FA2F
:091E76008A031AEB70030217A4A1
:0C1E7F00758220C00212168AD00280EB8F
:081E8B008D8212168A0217A4D1
:0C1E93009000C3E0FAA3E08A82F58322ED
:0B262F003C4E4F20464C4F41543E00F3
:0E1E9F00AAF0AB83E5829000DFF0A3EBF0A386
:0E1EAD00EAF07A007B009000DFE0FCA3E0FD8D
:031EBB00A3E0FEA3
:0E1EBE008C828D838EF0121EF2FFA3AC82ADDB
:0E1ECC00839000DFECF0A3EDF0A3EEF0EF60EA
:081EDA00070ABA00DF0B80DCEF
:0E1EE2009000DFECF0A3EDF0A3EEF08A828B0F
:021EF00083224B
:03000300758121E3
:0A0006001204F5E58260030204F025
:0E1EF20020F71430F6148883A88220F507E646
:061F0000A8837583002296
:031F0600E280F77F
:031F0900E493223C
:021F0C00E022D1
:00000001FF
