:10005F00E582900000F0C294C29590142CE493FABC
:10006F00740193FB900000E0FC8A828B83F022E501
:10007F0082900001F0C294D29590142CE493FA74FC
:10008F000193FB900001E0FC8A828B83F022D294D3
:10009F00C29590142CE493FA740193FB8A828B839C
:1000AF00E0FA20E7ED2212009D75820102005FE564
:1000BF0082900002F0900002E0FA247F500122C0EB
:1000CF000212009DD002C294C29590142CE493FBAF
:1000DF00740193FC4302808B828C83EAF022E582C9
:1000EF00900004F0900004E0FA24FC400990000313
:1000FF00E0FB24F0500122EAC454F0242EFAE43439
:10010F0014FCEB2AF582E43CF583E493FAF58202C2
:10011F0000BEE582900005F012009D900005E0FA08
:10012F00F58202007EAAF0AB83E582900006F0A371
:10013F00EBF0A3EAF0900006E0FAA3E0FBA3E0FCEB
:10014F008A828B838CF0121410FD7001228D82C075
:10015F0002C003C004120121D004D003D0020ABA96
:10016F0000010B900006EAF0A3EBF0A3ECF0C00245
:10017F00C003C00412009DD004D003D002D294C299
:10018F009590142CE493FD740193FE8D828E83E081
:10019F00FD53057FBD1002800FBD20028034BD507E
:1001AF0002801ABD609A803F758240C002C003C0B2
:1001BF00041200BED004D003D00202014F7582108A
:1001CF00C002C003C0041200BED004D003D002028C
:1001DF00014F758250C002C003C0041200BED0048C
:1001EF00D003D00202014F2212009D7582381200F7
:1001FF005F12009D75820F02005F12009D758201D4
:10020F0012005F12009D900003E4F075820012004F
:0A021F00ED90146E75F080020134BA
:10142C0000E0000102030405060708090A0B0C0D75
:10143C000E0F404142434445464748494A4B4C4DA8
:10144C004E4F101112131415161718191A1B1C1DB8
:10145C001E1F505152535455565758595A5B5C5D88
:10146C005E5F6162636465666768696A6B6C6E6F08
:10147C00707172737475767778797A31323334355A
:10148C00363738396162636465666768696A6B6CA4
:10149C006D6E6F707172737475767778797A31328C
:1014AC003334353637383938373635343332310012
:03000000020003F8
:03005C0002022974
:1002290012051080FE438E0C9000002274BCC0E0C1
:100239007414C0E07480C0E0120B7115811581152A
:100249008174CEC0E07414C0E07480C0E0120B71F8
:1002590015811581158174BCC0E07414C0E07480E7
:10026900C0E0120B7115811581158174DBC0E07432
:1002790014C0E07480C0E0120B71158115811581DD
:1002890074F9C0E07414C0E07480C0E0120B7115F9
:1002990081158115817427C0E07415C0E07480C090
:1002A900E0120B711581158115817477C0E0741501
:1002B900C0E07480C0E0120B71158115811581743D
:1002C90093C0E07415C0E07480C0E0120B71158111
:1002D9001581158174DEC0E07415C0E07480C0E03A
:1002E900120B71158115811581741DC0E07416C03A
:1002F900E07480C0E0120B7115811581158122E52A
:1003090082900009F0900009E0FABA480302050D4D
:10031900BA4902801DBA590302050ABA63030204E5
:1003290084BA67028024BA73030204A1BA780280EE
:100339003622743BC0E07416C0E07480C0E0120B32
:10034900711581158115810201F77450C0E0741689
:10035900C0E07480C0E0120B7115811581158112FE
:10036900067BAA820200BE7471C0E07416C0E074F4
:1003790080C0E0120B71158115811581900003125F
:100389000556E5828583F090000AF0A3E5F0F09028
:10039900000AE0FAA3E0FBC374039A74808BF0634C
:1003A900F08095F0502A7471C0E07416C0E0748032
:1003B900C0E0120B7115811581158190000312059A
:1003C90056E5828583F090000AF0A3E5F0F080BF3E
:1003D9007489C0E07416C0E07480C0E0120B711516
:1003E9008115811581900003120556E5828583F0F8
:1003F90090000CF0A3E5F0F090000CE0FAA3E0FB0C
:10040900C3740F9A74808BF063F08095F0502A744E
:1004190089C0E07416C0E07480C0E0120B711581C8
:1004290015811581900003120556E5828583F090A8
:10043900000CF0A3E5F0F080BF90000AE0FCA3E017
:10044900FD8C06900003EAF08E82C002C003C0044E
:10045900C0051200EDD005D004D003D002C002C0FF
:1004690003C004C00574A2C0E07416C0E07480C063
:10047900E0120B71E58124F9F5812274CBC0E07497
:1004890016C0E07480C0E0120B71158115811581C9
:1004990012054CAA8202012174FBC0E07416C0E067
:1004A9007480C0E0120B711581158115817A00BA2B
:1004B90064005044EA240EFBE43400FCC002C0038B
:1004C900C00412054CAD82D004D003D0028B828CBB
:1004D90083EDF08D82C002C003C00412053AD00436
:1004E900D003D0028B828C83E0FDBD0D088B828CFA
:1004F90083E4F080030A80B790000E75F0000201D2
:10050900340200B5020235120951D2931202351292
:10051900054CAA82BA0D0A75820AC00212053AD0A0
:10052900028A82C00212053AD0028A821203088026
:01053900DEE3
:1014BC000D0A2A2A2A2A2A2A2A2A2A2A2A2A2A2ABD
:1014CC002A000D0A202020204D656E750D0A000D96
:1014DC000A50726573732027482720746F20736835
:1014EC006F772074686973206D656E75000D0A50F6
:1014FC00726573732027492720746F20496E6974B5
:10150C00204C43442E204D7573742063616C6C2009
:10151C0074686973206669727374000D0A50726581
:10152C0073732027672720746F2073686F77206789
:10153C006F746F616464722E2057696C6C20676FD6
:10154C0020746F206164647265737320307834305A
:10155C002C207768696368206973207374617274D6
:10156C00206F66206C696E652032000D0A50726522
:10157C0073732027782720746F2073686F77206728
:10158C006F746F78792E000D0A5072657373202773
:10159C00632720746F2073686F772070757463688D
:1015AC002E2057696C6C206472617720612063680F
:1015BC006172616374657220617420746865207354
:1015CC0074617274206F662065616368206C696E4B
:1015DC0065000D0A50726573732027732720746F92
:1015EC002073686F77207075747374722E2057692E
:1015FC006C6C2066696C6C20656E74697265204C2D
:10160C0043442077697468206120737472696E6733
:10161C00000D0A50726573732027592720746F20B0
:10162C00636C6561722073637265656E0D0A000DE3
:10163C000A496E697469616C697A696E67204C43FA
:10164C00440D0A000D0A456E7465722061206865B0
:10165C0078206164647265737320746F20676F20E7
:10166C00746F0D0A000D0A456E746572206120724C
:10167C006F772066726F6D20302D333A000D0A455E
:10168C006E746572206120636F6C2066726F6D20C2
:10169C00302D31353A000D0A4D6F76656420637537
:1016AC0072736F7220746F206E6577206C6F63613C
:1016BC0074696F6E202825642C2564290D0A000D91
:1016CC000A456E746572206120636861726163748F
:1016DC00657220746F20707574206174206375724C
:1016EC0072656E7420616464726573730D0A000D0B
:1016FC00456E746572206120737472696E670D0A91
:01170C0000DC
:10053A00E582900072F03099FD900072E0F599C260
:10054A00992210980280FBAA998A8222AA83E582BC
:10055A00900073F0A3EAF0900080E4F0A3F090001A
:10056A0073E0FAA3E0FBC3740A9A74808BF063F019
:10057A008095F05019740DC0E07417C0E07480C003
:10058A00E0120B7115811581158190FFFF229000F1
:10059A0080E0FCA3E0FDC3EC9AED64808BF063F08D
:1005AA008095F0400302065EC002C003C004C00585
:1005BA0012054CAE82D005D004D003D0028E82C080
:1005CA0002C003C004C005C00612053AD006D00511
:1005DA00D004D003D002BE0D0302065EBE0812ECA0
:1005EA0024FFFFED34FFF8900080EFF0A3E8F080DD
:1005FA009DBE71028003BE510490FFFE228E82C00E
:10060A0002C003C004C005C006120962E582D00612
:10061A00D005D004D003D002601AEC2475F582ED1F
:10062A003400F583EEF090008074012CF0E43DA3D1
:10063A00F0020598C002C003743FC0E07417C0E01E
:10064A007480C0E0120B71158115811581D003D019
:10065A0002020598900080E0FAA3E0FBEA2475F50F
:10066A0082EB3400F583E4F090007575F00002091E
:10067A007F900085E4F0A3F0900088E4F090008574
:10068A00E0FAA3E0FBC3EA9402EB6480948040039F
:10069A000207C9C002C00312054CAC82D003D002C3
:1006AA008C82C002C003C00412053AD004D003D021
:1006BA0002BC0D2CEA4B700C900083E4F09000848D
:1006CA00F00207C9BA0105BB000280030207C990FC
:1006DA000083E0FD900084F0900083E4F00207C9F3
:1006EA00BC0813EA24FFFDEB34FFFE900085EDF011
:1006FA00A3EEF00206878C82C002C003C00412096E
:10070A0062E582D004D003D002601AEA2483F5821B
:10071A00EB3400F583ECF090008574012AF0E43B99
:10072A00A3F00206878C82C004120B08E582D0046B
:10073A00700D8C82C004120AEBE582D0046068C393
:10074A00EC648094C1400B74C68CF063F08095F021
:10075A005013C3EC648094E1404D74E68CF063F06E
:10076A008095F04042900085E0FAA3E0FBEA2483FA
:10077A00FAEB3400FB8C82C002C003C004120AEBFD
:10078A00E582D004D003D002600674DF5CFD8002EB
:10079A008C058A828B83EDF0900085E02401F0A31A
:1007AA00E03400F00206877469C0E07417C0E07490
:1007BA0080C0E0120B7115811581158102068790A0
:1007CA000087E4F07A007B00C3EA9402EB64809429
:1007DA0080400302088DEA2483F582EB3400F58316
:1007EA00E0FC900082F08C82C002C003C0041209AF
:1007FA0062E582D004D003D0026009EC24D09000D4
:10080A0088F0803AC3EC648094E1401474E68CF07A
:10081A0063F08095F0400990008874A92CF0801E3E
:10082A00900082E0FCC3648094C1401274C68CF0CC
:10083A0063F08095F0400790008874C92CF0740129
:10084A00C39AFCE49BFDCC25E0CC33CC25E0CC3329
:10085A00FD900088E0FE8CF005F0AC067D00800675
:10086A00EC2CFCED33FDD5F0F7900087E0FE7F001D
:10087A00EC2EFCED3FFD900087ECF00ABA00010B6C
:10088A000207D2900087E0F58222AAF0AB83E582C4
:10089A0090008BF0A3EBF0A3EAF012054CAA829029
:1008AA00008EEAF08A8212053A900089E0FAA3E003
:1008BA00FB90008BE0F508A3E0F509A3E0F50A7FB9
:1008CA0000780090008EE0F9B90D02805DC3EF9ABE
:1008DA00E864808BF063F08095F0504EC002C0034C
:1008EA00EF2508FAE83509FBAC0A8A828B838CF07B
:1008FA00E9120AB2C003C007C00012054CAA82D08E
:10090A0000D007D00390008EEAF08A82C002C003AA
:10091A00C007C00012053AD000D007D003D0020F9A
:10092A00BF000108D003D002809990008BE0FAA39F
:10093A00E0FBA3E0FCEF2AFFE83BF88C058F8288F6
:10094A00838DF0E4020AB2759850758920758DFD81
:08095A00758BFDD28ED29922AB
:10170D0053657269616C5F676574496E7465676571
:10171D007228293A204572726F722E204D61785FC2
:10172D004C656E67746820746F6F206C61726765AD
:10173D002E000D0A496E76616C69642063686172D2
:10174D0061637465722E20456E746572206F6E6CC8
:10175D0079206469676974732E0D0A000D0A496E4C
:10176D0076616C6964206368617261637465722E61
:10177D0020456E746572206F6E6C792068657820D7
:0E178D00636861726163746572732E0D0A00E9
:06003200E478FFF6D8FDA2
:10096200E58290008FF090008FE0FABA30004009E3
:10097200EA24C640047582012275820022AAF0ABE5
:1009820083E582900090F0A3EBF0A3EAF07A007B7B
:1009920000900090E0FCA3E0FDA3E0FE8C828D833A
:1009A2008EF0121410FF6039C374B98FF063F080B7
:1009B20095F04007EF648094B050268C828D838E30
:1009C200F0121410FFBF2D028017BF2B0280120CF1
:1009D200BC00010D900090ECF0A3EDF0A3EEF080CE
:1009E200BB900090ECF0A3EDF0A3EEF08C828D832F
:1009F2008EF0121410FFE4BF2D0104F88801700379
:100A0200BF2B0E90009074012CF0E43DA3F0A3EEF6
:100A1200F0900090E0FCA3E0FDA3E0FE8C828D83C9
:100A22008EF0121410FF6068C3EF648094B04060CF
:100A320074B98FF063F08095F04055C00190009436
:100A4200740AF0E4A3F08A828B83C004C005C00656
:100A5200C007C001120ACB85820B85830CD001D05E
:100A620007D006D005D004EF3395E0F8EF24D0FF8D
:100A7200E834FFF8EF250BFAE8350CFB0CBC00015B
:100A82000D900090ECF0A3EDF0A3EEF0D001808C7D
:100A9200900090ECF0A3EDF0A3EEF0E96009C3E45E
:100AA2009AFCE49BFD80048A048B058C828D832250
:100010007900E94400601B7A009017A678C575A0A6
:1000200000E493F2A308B8000205A0D9F4DAF2754F
:02003000A0FF2F
:100AB20020F71030F6118883A88220F507F6A88364
:100AC20075830022F280F7F022AA83AB828BF0902A
:100AD2000094E0A4F8A9F08AF0E0A429F98BF0A32D
:090AE200E0A429F5838882222298
:100038007800E84400600A790075A000E4F309D864
:10004800FC78C5E84400600C7901900000E4F0A356
:04005800D8FCD9FAFD
:100AEB00E582900096F0900096E0FABA610040091A
:100AFB00EA248540047582012275820022E58290EA
:100B0B000097F0900097E0FABA41004009EA24A55B
:100B1B0040047582012275820022C012858112AABF
:100B2B008212053AD01222AAF0AB83E5829000998B
:100B3B00F0A3EBF0A3EAF0900099E0FAA3E0FBA39B
:100B4B00E0FC900098E0FD9000ACE4F0A3F0A3F083
:100B5B009000AFEAF0A3EBF0A3ECF09000B2EDF055
:100B6B00900B25020C8AC012858112E51224FBFA28
:100B7B009000ACE4F0A3F0A3F0E51224FBF8900096
:100B8B00AFE6F008A3E6F008A3E6F09000B2EAF0B7
:100B9B00900B25120C8AAA82AB83D01222E582908D
:100BAB0000A8F09000A8E0FA90009EE0C0E0A3E05F
:100BBB00C0E0A3E0C0E074D6C0E0740BC0E09000CE
:100BCB009CE0C0E0A3E0C0E08A822215811581156C
:100BDB00819000A6E0FAA3E0FB9000A674012AF036
:100BEB00E43BA3F022E5829000A9F09000A9E0FA83
:100BFB0074302AFA24C6500A74072AFA30000343C9
:100C0B0002208A82020BA8E5829000AAF09000AA2B
:100C1B00E0FAC4540FFBF582C002120BF0D0025362
:100C2B00020F8A82020BF0E5829000ABF09000A1DC
:100C3B00E0FAA3E0FBA3E0FCA3E0FD9000A5E0FE3F
:100C4B009000ABE0FF7820EE2EFEED235401F9422D
:100C5B0006EA2AFAEB33FBEC33FCED33FDC3EE9FD4
:100C6B004007EEC39FFE430201D8DC9000A1EAF0DF
:100C7B00A3EBF0A3ECF0A3EDF09000A5EEF022AA0D
:100C8B0083E5829000B3F0A3EAF09000B3E0FAA3FF
:100C9B00E0FB90009CEAF0A3EBF09000ACE0FAA331
:100CAB00E0FBA3E0FC90009EEAF0A3EBF0A3ECF0DA
:100CBB009000A6E4F0A3F09000AFE0FAA3E0FBA352
:100CCB00E0FC8A828B838CF0121410FD9000AF74C1
:100CDB00012AF0E43BA3F0A3ECF0ED70030213B197
:100CEB00BD250280030213A9C201C202C203C204C2
:100CFB00C205C206C207C2089000B5E4F09000B668
:100D0B00F09000B774FFF09000AFE0FAA3E0FBA304
:100D1B00E0FC8A828B838CF0121410FEA3AA82ABA8
:100D2B00839000AFEAF0A3EBF0A3ECF09000B9EEE8
:100D3B00F0BE25088E82120BA8020CC28E07BF30A4
:100D4B000040498E07EF24C640429000B7E0FFBF3A
:100D5B00FF29C002C003C0049000B6E0FA75F00A88
:100D6B00A4FAEE24D09000B62AF09000B6E0FAD0A8
:100D7B0004D003D002709BD2028097EF75F00AA4C7
:100D8B00FFEE24D09000B72FF0020D1D9000B9E0BC
:100D9B00FEBE2E089000B7E4F0020D1D8E82C0023D
:100DAB00C003C004C006120AEBE58224FF9200D0F8
:100DBB0006D004D003D0023000079000B974DF5E78
:100DCB00F09000B9E0FEBE20028055BE2B02804B96
:100DDB00BE2D028041BE4202804BBE43028050BEFC
:100DEB00440302101EBE4603021040BE490302100C
:100DFB001EBE4C028034BE4F03021028BE500302AD
:100E0B000F80BE53028042BE5503021030BE580302
:100E1B00021038021044D201020D1DD203020D1D27
:100E2B00D204020D1DD206020D1DD207020D1D901C
:100E3B0000B2E0FA24FEF89000B2F08602088603B6
:100E4B00188A82120BA80210509000B2E0FA24FD0F
:100E5B00F89000B2F08602088603088604181890F2
:100E6B0000A1EAF0A3EBF0A3ECF09000A1E0FAA351
:100E7B00E0FBA3E0FC8A828B838CF01213BDAA8269
:100E8B00AB839000B7E0FBBBFF059000B7EAF02007
:100E9B0001389000B6E0FBC3EA9B502E9000B6EBF6
:100EAB00C39AF09000B6E0FB8B041B9000B6EBF0FE
:100EBB00BC00028010758220C002C003120BA8D0A8
:100ECB0003D00280E39000B6EBF09000B7E0FDC0DA
:100EDB00029000A1E0FCA3E0FFA3E0FA8C828F83D9
:100EEB008AF0121410D00260538D041DC374808CD1
:100EFB00F063F08095F05044C0029000A1E0F50D36
:100F0B00A3E0F50EA3E0F50F7401250DFBE4350E00
:100F1B00FAAC0F9000A1EBF0A3EAF0A3ECF0850D77
:100F2B0082850E83850FF0121410FAF582C002C071
:100F3B0005120BA8D005D002D0028093200103022A
:100F4B0010509000B6E0FBC3EA9B40030210509098
:100F5B0000B6EBC39AF09000B6E0FA8A031A900041
:100F6B00B6EAF0BB000302104B758220C002120BD5
:100F7B00A8D00280E69000B2E0FB24FDF89000B20E
:100F8B00F0860308860408860718189000A1EBF07A
:100F9B00A3ECF0A3EFF09000A3E0FB247F500890AC
:100FAB0000B97443F08020EB249F50089000B97473
:100FBB0050F08013EB24BF50089000B97449F080B7
:100FCB00069000B97458F09000B9E0FBF582C003AD
:100FDB00120BA8D00375823AC003120BA8D003756D
:100FEB008230C003120BA8D003758278C003120B9A
:100FFB00A8D003BB4902800FBB5002800A9000A20D
:10100B00E0FBF582120C129000A1E0FBF582120CB2
:10101B00128032D2059000B5740AF080289000B58A
:10102B007408F080209000B5740AF080189000B519
:10103B007410F08010D208800C8E82120BA88005E1
:10104B009000B6EAF030086B9000B2E0FA24FCF89E
:10105B009000B2F0860208860308860408860618FC
:10106B0018189000A1EAF0A3EBF0A3ECF0A3EEF0BC
:10107B009000A1749BF0A37417F0A37480F0900000
:10108B00A1E0FBA3E0FCA3E0FD74012BFEE43CFF1D
:10109B008D029000A1EEF0A3EFF0A3EAF08B828C0F
:1010AB00838DF0121410FA7003020CC28A82120B99
:1010BB00A880CB9000B5E0FABA0003020CC29000F6
:1010CB00C074BFF0A37400F030064C9000B2E0FA8D
:1010DB0014F89000B2F08602EA3395E0FBFCFE9028
:1010EB0000A1EAF0A3EBF0A3ECF0A3EEF0300503C4
:1010FB000211989000A1E0FAA3E0FBA3E0FCA3E0AF
:10110B00FE7B007C007E009000A1EAF0A3EBF0A335
:10111B00ECF0A3EEF0807630072A9000B2E0FA24D0
:10112B00FCF89000B2F08602088603088604088655
:10113B00061818189000A1EAF0A3EBF0A3ECF0A3AB
:10114B00EEF080499000B2E0FA24FEF89000B2F085
:10115B00860208860318EB3395E0FCFE9000A1EAAB
:10116B00F0A3EBF0A3ECF0A3EEF02005209000A190
:10117B00E0FAA3E0FBA3E0FCA3E0FE7C007E009082
:10118B0000A1EAF0A3EBF0A3ECF0A3EEF030053EE8
:10119B009000A1E0FAA3E0FBA3E0FCA3E0FE30E7A4
:1011AB002B9000A1E0FAA3E0FBA3E0FCA3E0FEC3BD
:1011BB00E49AFAE49BFBE49CFCE49EFE9000A1EA1B
:1011CB00F0A3EBF0A3ECF0A3EEF08002C205D20982
:1011DB009000B5E0FC7510BF7511007D009000A567
:1011EB00E4F08C82C004C005120C32D005D0042070
:1011FB000932C0049000A5E0FFC4FF851082851161
:10120B0083E0FA4207851082851183EFF015107485
:10121B00FFB5100215119000C0E510F0A3E511F019
:10122B00D004800C9000A5E0FF851082851183F01F
:10123B000D9000B8EDF0B2099000A1E0FFA3E0FA29
:10124B00A3E0FEA3E0FBEF4A4E4B70919000C0E58C
:10125B0010F0A3E511F09000B8EDF09000B6E0FAB5
:10126B0070069000B67401F020022720012474014F
:10127B002DFA9000B6E0FBC3EA9B5011758220C09B
:10128B0002C003120BA8D003D0021B80EA9000B659
:10129B00EBF030051275822D120BA89000B6E0FA18
:1012AB00149000B6F0802F9000B8E0FA602830035D
:1012BB001275822B120BA89000B6E0FA149000B6B0
:1012CB00F08013300410758220120BA89000B6E04A
:1012DB00FA149000B6F020012F9000B8E0FA9000BD
:1012EB00B6E0FB8B041B9000B6EBF0C3EA9C5036C8
:1012FB003002047C3080027C208C82C002C003123E
:10130B000BA8D003D00280DB9000B6E0FA9000B8B7
:10131B00E0FCC39A50099000B6EAC39CF0800C9095
:10132B0000B6E4F080059000B6EBF09000C0E0FA58
:10133B00A3E0FB9000B8E0FC8C061CEE6040B20909
:10134B002009150ABA00010B8A828B83E0FEC45474
:10135B000FFE9000A5F0800E8A828B83E0FE530671
:10136B000F9000A5EEF09000A5E0FEF582C002C044
:10137B0003C004120BF0D004D003D00280BA2001BA
:10138B0003020CC29000B6E0FA8A031AEB70030258
:10139B000CC2758220C002120BA8D00280EB8D828A
:1013AB00120BA8020CC29000A6E0FAA3E08A82F509
:0213BB0083228B
:0B179B003C4E4F20464C4F41543E0096
:1013BD00AAF0AB83E5829000C2F0A3EBF0A3EAF0B4
:1013CD007A007B009000C2E0FCA3E0FDA3E0FE8C60
:1013DD00828D838EF0121410FFA3AC82AD8390002A
:1013ED00C2ECF0A3EDF0A3EEF0EF60070ABA00DF58
:1013FD000B80DC9000C2ECF0A3EDF0A3EEF08A823E
:03140D008B8322AC
:0D00030075812112022EE5826003020229A0
:1014100020F71430F6148883A88220F507E6A88305
:0C14200075830022E280F7E49322E022B2
:00000001FF
