:10005F00E582900000F0C294C2959011C4E493FA27
:10006F00740193FB900000E0FC8A828B83F022E501
:10007F0082900001F0C294D2959011C4E493FA7467
:10008F000193FB900001E0FC8A828B83F022D294D3
:10009F00C2959011C4E493FA740193FB8A828B8307
:1000AF00E0FA30E704B29380E92212009D758201D5
:1000BF0002005FE582900002F0900002E0FA247FD8
:1000CF00500122C00212009DD002C294C29590111D
:1000DF00C4E493FB740193FC4302808B828C83EA0C
:1000EF00F022E582900004F0900004E0FA24FC4036
:1000FF0009900003E0FB24F0500122EAC454F024DD
:10010F00C6FAE43411FCEB2AF582E43CF583E49360
:10011F00FAF5820200C2E582900005F012009D9070
:10012F000005E0FAF58202007EAAF0AB83E582902B
:10013F000006F0A3EBF0A3EAF0900006E0FAA3E0CC
:10014F00FBA3E0FC8A828B838CF012118BFD700174
:10015F00228D82C002C003C004120125D004D00337
:10016F00D0020ABA00010B900006EAF0A3EBF0A34D
:10017F00ECF0C002C003C00412009DD004D003D025
:10018F0002D294C2959011C4E493FD740193FE8D35
:10019F00828E83E0FD53057FBD1002800FBD2402C8
:1001AF008034BD5002801ABD649A803F758240C072
:1001BF0002C003C0041200C2D004D003D002020157
:1001CF0053758210C002C003C0041200C2D004D005
:1001DF0003D002020153758250C002C003C0041243
:1001EF0000C2D004D003D0020201532212009D7529
:1001FF00823812005F12009D75820F02005F12009D
:10020F009D75820112005F12009D900003E4F0754E
:0E021F0082001200F190120675F08002013884
:1011C40000E0000102030405060708090A0B0C0DE0
:1011D4000E0F404142434445464748494A4B4C4D13
:1011E4004E4F101112131415161718191A1B1C1D23
:1011F4001E1F505152535455565758595A5B5C5DF3
:101204005E5F6162636465666768696A6B6C6E6F72
:10121400707172737475767778797A3132333435C4
:10122400363738396162636465666768696A6B6C0E
:101234006D6E6F707172737475767778797A3132F6
:10124400333435363738393837363534333231007C
:03000000020003F8
:03005C0002022D70
:10022D001204E580FE438E0C900000227454C0E051
:10023D007412C0E07480C0E01208EC1581158115B0
:10024D00817466C0E07412C0E07480C0E01208ECE6
:10025D001581158115817454C0E07412C0E074804D
:10026D00C0E01208EC1581158115817473C0E0741E
:10027D0012C0E07480C0E01208EC15811581158163
:10028D007491C0E07412C0E07480C0E01208EC15E7
:10029D00811581158174BFC0E07412C0E07480C0F7
:1002AD00E01208EC158115811581740FC0E07413EF
:1002BD00C0E07480C0E01208EC15811581158174C1
:1002CD002BC0E07413C0E07480C0E01208EC1581FF
:1002DD00158115817476C0E07413C0E07480C0E0A0
:1002ED001208EC15811581158122E582900009F027
:1002FD00900009E0FABA48030204E2BA49028017F5
:10030D00BA6303020479BA67028024BA7303020444
:10031D00C1BA780280372274B7C0E07413C0E0749C
:10032D0080C0E01208EC1581158115810201FB7466
:10033D00CCC0E07413C0E07480C0E01208EC1581ED
:10034D00158115811200B97582400200C274F0C08A
:10035D00E07413C0E07480C0E01208EC15811581C3
:10036D00158190000312052BE5828583F090000A1C
:10037D00F0A3E5F0F090000AE0FAA3E0FBC37403EC
:10038D009A74808BF063F08095F0502A74F0C0E081
:10039D007413C0E07480C0E01208EC15811581154E
:1003AD008190000312052BE5828583F090000AF001
:1003BD00A3E5F0F080BF7408C0E07414C0E0748051
:1003CD00C0E01208EC15811581158190000312050E
:1003DD002BE5828583F090000CF0A3E5F0F0900002
:1003ED000CE0FAA3E0FBC3740F9A74808BF063F0FA
:1003FD008095F0502A7408C0E07414C0E07480C079
:10040D00E01208EC15811581158190000312052B62
:10041D00E5828583F090000CF0A3E5F0F080BFC07D
:10042D0002C0031200B9D003D00290000AE0FCA371
:10043D00E0FD8C06900003EAF08E82C002C003C07E
:10044D0004C0051200F1D005D004D003D002C002C3
:10045D00C003C004C0057421C0E07414C0E07480F2
:10046D00C0E01208ECE58124F9F58122744AC0E060
:10047D007414C0E07480C0E01208EC15811581156C
:10048D00811200B97582001200C2758241120125D8
:10049D007582401200C275824212012575821012BA
:1004AD0000C27582431201257582501200C27582F9
:1004BD00440201257474C0E07414C0E07480C0E07F
:1004CD001208EC1581158115811200B990148F75E4
:1004DD00F080020138020239120706D29312023956
:1004ED00120521AA82BA0D0A75820AC00212050FE1
:1004FD00D0028A82C00212050FD0028A821202F740
:02050D0080DE8E
:101254000D0A2A2A2A2A2A2A2A2A2A2A2A2A2A2A27
:101264002A000D0A202020204D656E750D0A000D00
:101274000A50726573732027482720746F2073689F
:101284006F772074686973206D656E75000D0A5060
:10129400726573732027492720746F20496E69741F
:1012A400204C43442E204D7573742063616C6C2074
:1012B40074686973206669727374000D0A507265EC
:1012C40073732027672720746F2073686F772067F4
:1012D4006F746F616464722E2057696C6C20676F41
:1012E40020746F20616464726573732030783430C5
:1012F4002C20776869636820697320737461727441
:10130400206F66206C696E652032000D0A5072658C
:1013140073732027782720746F2073686F77206792
:101324006F746F78792E000D0A50726573732027DD
:10133400632720746F2073686F77207075746368F7
:101344002E2057696C6C2064726177206120636879
:1013540061726163746572206174207468652073BE
:1013640074617274206F662065616368206C696EB5
:1013740065000D0A50726573732027732720746FFC
:101384002073686F77207075747374722E20576998
:101394006C6C2066696C6C20656E74697265204C97
:1013A40043442077697468206120737472696E679E
:1013B4000D0A000D0A496E697469616C697A696E77
:1013C40067204C43440D0A000D0A4D6F7665642076
:1013D400637572736F7220746F20737461727420FA
:1013E4006F66206C696E6520320D0A000D0A456E29
:1013F400746572206120726F772066726F6D203081
:101404002D333A000D0A456E746572206120636FB6
:101414006C2066726F6D20302D31353A000D0A4D07
:101424006F76656420637572736F7220746F206EBB
:101434006577206C6F636174696F6E202825642C56
:101444002564290D0A000D0A5570646174696E677C
:101454002066697273742063686172616374657273
:10146400206F662065616368206C696E650D0A00F3
:101474000D57726974696E67206120737472696EA6
:101484006720746F204C43440D0A006162636465F5
:10149400666768696A6B6C6E6F7071727374757667
:1014A4007778797A31323334353637383961626353
:1014B4006465666768696A6B6C6D6E6F7071727370
:1014C4007475767778797A313233343536373839FA
:0914D4003837363534333231006B
:10050F00E58290000EF03099FD90000EE0F599C253
:10051F00992210980280FBAA998A8222AA83E582E7
:10052F0090000FF0A3EAF090001CE4F0A3F090000D
:10053F000FE0FAA3E0FBC3740A9A74808BF063F0A8
:10054F008095F0501974DDC0E07414C0E07480C061
:10055F00E01208EC15811581158190FFFF229000A4
:10056F001CE0FCA3E0FDC3EC9AED64808BF063F01C
:10057F008095F0400302062CC002C003C004C005E2
:10058F00120521AE82D005D004D003D0028E82C0D6
:10059F0002C003C004C005C00612050FD006D00567
:1005AF00D004D003D002BE0D0302062CBE0812ECFD
:1005BF0024FFFFED34FFF890001CEFF0A3E8F0806C
:1005CF009DBE71028003BE510490FFFE228E82C039
:1005DF0002C003C004C005C006120717E582D0068B
:1005EF00D005D004D003D002601AEC2411F582EDAF
:1005FF003400F583EEF090001C74012CF0E43DA361
:10060F00F002056D740FC0E07415C0E07480C0E097
:10061F001208EC15811581158190FFFF2290001CA7
:10062F00E0FAA3E0FBEA2411F582EB3400F583E452
:10063F00F090001175F000020734AAF0AB83E58249
:10064F00900020F0A3EBF0A3EAF0120521AA82900C
:10065F000023EAF08A8212050F90001EE0FAA3E051
:10066F00FB900020E0F508A3E0F509A3E0F50A7F71
:10067F00007800900023E0F9B90D02805DC3EF9A76
:10068F00E864808BF063F08095F0504EC002C00399
:10069F00EF2508FAE83509FBAC0A8A828B838CF0C8
:1006AF00E9120867C003C007C000120521AA82D053
:1006BF0000D007D003900023EAF08A82C002C00363
:1006CF00C007C00012050FD000D007D003D0020F13
:1006DF00BF000108D003D0028099900020E0FAA358
:1006EF00E0FBA3E0FCEF2AFFE83BF88C058F828844
:1006FF00838DF0E4020867759850758920758DFD1C
:08070F00758BFDD28ED29922F8
:1014DD0053657269616C5F676574496E74656765A4
:1014ED007228293A204572726F722E204D61785FF5
:1014FD004C656E67746820746F6F206C61726765E0
:10150D002E000D0A496E76616C6964206368617204
:10151D0061637465722E20456E746572206F6E6CFA
:0A152D0079206469676974732E0069
:06003200E478FFF6D8FDA2
:10071700E582900024F0900024E0FABA3000400906
:10072700EA24C640047582012275820022AAF0AB32
:1007370083E582900025F0A3EBF0A3EAF07A007B33
:1007470000900025E0FCA3E0FDA3E0FE8C828D83F2
:100757008EF012118BFF6039C374B98FF063F0808C
:1007670095F04007EF648094B050268C828D838E7D
:10077700F012118BFFBF2D028017BF2B0280120CC6
:10078700BC00010D900025ECF0A3EDF0A3EEF08086
:10079700BB900025ECF0A3EDF0A3EEF08C828D83E7
:1007A7008EF012118BFFE4BF2D0104F8880170034E
:1007B700BF2B0E90002574012CF0E43DA3F0A3EEAF
:1007C700F0900025E0FCA3E0FDA3E0FE8C828D8382
:1007D7008EF012118BFF6068C3EF648094B04060A5
:1007E70074B98FF063F08095F04055C001900029EF
:1007F700740AF0E4A3F08A828B83C004C005C006A4
:10080700C007C00112088085820B85830CD001D0F8
:1008170007D006D005D004EF3395E0F8EF24D0FFDA
:10082700E834FFF8EF250BFAE8350CFB0CBC0001A8
:100837000D900025ECF0A3EDF0A3EEF0D001808C35
:10084700900025ECF0A3EDF0A3EEF0E96009C3E416
:100857009AFCE49BFD80048A048B058C828D83229D
:100010007900E94400601B7A00901542785975A078
:1000200000E493F2A308B8000205A0D9F4DAF2754F
:02003000A0FF2F
:1008670020F71030F6118883A88220F507F6A883B1
:1008770075830022F280F7F022AA83AB828BF09077
:100887000029E0A4F8A9F08AF0E0A429F98BF0A3E5
:09089700E0A429F58388822222E5
:100038007800E84400600A790075A000E4F309D864
:10004800FC7859E84400600C7901900000E4F0A3C2
:04005800D8FCD9FAFD
:1008A000C012858112AA8212050FD01222AAF0ABC3
:1008B00083E58290002CF0A3EBF0A3EAF090002CEB
:1008C000E0FAA3E0FBA3E0FC90002BE0FD90003FEA
:1008D000E4F0A3F0A3F0900042EAF0A3EBF0A3EC65
:1008E000F0900045EDF09008A0020A05C012858145
:1008F00012E51224FBFA90003FE4F0A3F0A3F0E528
:100900001224FBF8900042E6F008A3E6F008A3E604
:10091000F0900045EAF09008A0120A05AA82AB8385
:10092000D01222E58290003BF090003BE0FA90006C
:1009300031E0C0E0A3E0C0E0A3E0C0E07451C0E05B
:100940007409C0E090002FE0C0E0A3E0C0E08A821C
:1009500022158115811581900039E0FAA3E0FB9002
:10096000003974012AF0E43BA3F022E58290003CB8
:10097000F090003CE0FA74302AFA24C6500A74075A
:100980002AFA3000034302208A82020923E582907A
:10099000003DF090003DE0FAC4540FFBF582C00228
:1009A00012096BD00253020F8A8202096BE5829012
:1009B000003EF0900034E0FAA3E0FBA3E0FCA3E0EB
:1009C000FD900038E0FE90003EE0FF7820EE2EFE25
:1009D000ED235401F94206EA2AFAEB33FBEC33FC2F
:1009E000ED33FDC3EE9F4007EEC39FFE430201D8E7
:1009F000DC900034EAF0A3EBF0A3ECF0A3EDF09070
:100A00000038EEF022AA83E582900046F0A3EAF0D7
:100A1000900046E0FAA3E0FB90002FEAF0A3EBF091
:100A200090003FE0FAA3E0FBA3E0FC900031EAF085
:100A3000A3EBF0A3ECF0900039E4F0A3F0900042B7
:100A4000E0FAA3E0FBA3E0FC8A828B838CF0121116
:100A50008BFD90004274012AF0E43BA3F0A3ECF07C
:100A6000ED700302112CBD25028003021124C20186
:100A7000C202C203C204C205C206C207C208900075
:100A800048E4F0900049F090004A74FFF090004272
:100A9000E0FAA3E0FBA3E0FC8A828B838CF01211C6
:100AA0008BFEA3AA82AB83900042EAF0A3EBF0A3F3
:100AB000ECF090004CEEF0BE25088E821209230265
:100AC0000A3D8E07BF300040498E07EF24C64042E2
:100AD00090004AE0FFBFFF29C002C003C00490009D
:100AE00049E0FA75F00AA4FAEE24D09000492AF001
:100AF000900049E0FAD004D003D002709BD202806B
:100B000097EF75F00AA4FFEE24D090004A2FF00270
:100B10000A9890004CE0FEBE2E0890004AE4F002D5
:100B20000A988E82C002C003C004C0061211A7E555
:100B30008224FF9200D006D004D003D002300007F8
:100B400090004C74DF5EF090004CE0FEBE2002800E
:100B500055BE2B02804BBE2D028041BE4202804B0F
:100B6000BE43028050BE4403020D99BE4603020DEF
:100B7000BBBE4903020D99BE4C028034BE4F030236
:100B80000DA3BE5003020CFBBE53028042BE5503B0
:100B9000020DABBE5803020DB3020DBFD201020A13
:100BA00098D203020A98D204020A98D206020A983E
:100BB000D207020A98900045E0FA24FEF89000451A
:100BC000F08602088603188A82120923020DCB9050
:100BD0000045E0FA24FDF8900045F08602088603FF
:100BE0000886041818900034EAF0A3EBF0A3ECF0A8
:100BF000900034E0FAA3E0FBA3E0FC8A828B838CB4
:100C0000F0121138AA82AB8390004AE0FBBBFF05CB
:100C100090004AEAF0200138900049E0FBC3EA9BCB
:100C2000502E900049EBC39AF0900049E0FB8B04F2
:100C30001B900049EBF0BC00028010758220C002BE
:100C4000C003120923D003D00280E3900049EBF0E7
:100C500090004AE0FDC002900034E0FCA3E0FFA356
:100C6000E0FA8C828F838AF012118BD00260538D50
:100C7000041DC374808CF063F08095F05044C00272
:100C8000900034E0F50DA3E0F50EA3E0F50F74013C
:100C9000250DFBE4350EFAAC0F900034EBF0A3EA1F
:100CA000F0A3ECF0850D82850E83850FF012118B79
:100CB000FAF582C002C005120923D005D002D00285
:100CC0008093200103020DCB900049E0FBC3EA9B17
:100CD0004003020DCB900049EBC39AF0900049E02D
:100CE000FA8A031A900049EAF0BB0003020DC675A8
:100CF0008220C002120923D00280E6900045E0FB6A
:100D000024FDF8900045F08603088604088607183D
:100D100018900034EBF0A3ECF0A3EFF0900036E075
:100D2000FB247F500890004C7443F08020EB249FFC
:100D3000500890004C7450F08013EB24BF50089082
:100D4000004C7449F0800690004C7458F090004CB0
:100D5000E0FBF582C003120923D00375823AC00379
:100D6000120923D003758230C003120923D0037502
:100D70008278C003120923D003BB4902800FBB5005
:100D800002800A900035E0FBF58212098D90003454
:100D9000E0FBF58212098D8032D205900048740A7A
:100DA000F080289000487408F08020900048740A71
:100DB000F080189000487410F08010D208800C8EDB
:100DC000821209238005900049EAF030086B9000F8
:100DD00045E0FA24FCF8900045F0860208860308F6
:100DE0008604088606181818900034EAF0A3EBF081
:100DF000A3ECF0A3EEF09000347437F0A37415F078
:100E0000A37480F0900034E0FBA3E0FCA3E0FD7449
:100E1000012BFEE43CFF8D02900034EEF0A3EFF0D6
:100E2000A3EAF08B828C838DF012118BFA7003028F
:100E30000A3D8A8212092380CB900048E0FABA006A
:100E400003020A3D9000537452F0A37400F0300680
:100E50004C900045E0FA14F8900045F08602EA3321
:100E600095E0FBFCFE900034EAF0A3EBF0A3ECF07D
:100E7000A3EEF0300503020F13900034E0FAA3E074
:100E8000FBA3E0FCA3E0FE7B007C007E009000342E
:100E9000EAF0A3EBF0A3ECF0A3EEF0807630072AA3
:100EA000900045E0FA24FCF8900045F086020886A0
:100EB00003088604088606181818900034EAF0A380
:100EC000EBF0A3ECF0A3EEF08049900045E0FA24AB
:100ED000FEF8900045F0860208860318EB3395E093
:100EE000FCFE900034EAF0A3EBF0A3ECF0A3EEF0EC
:100EF000200520900034E0FAA3E0FBA3E0FCA3E08F
:100F0000FE7C007E00900034EAF0A3EBF0A3ECF04E
:100F1000A3EEF030053E900034E0FAA3E0FBA3E03E
:100F2000FCA3E0FE30E72B900034E0FAA3E0FBA343
:100F3000E0FCA3E0FEC3E49AFAE49BFBE49CFCE43F
:100F40009EFE900034EAF0A3EBF0A3ECF0A3EEF0E9
:100F50008002C205D209900048E0FC75105275115C
:100F6000007D00900038E4F08C82C004C0051209B6
:100F7000ADD005D004200932C004900038E0FFC491
:100F8000FF851082851183E0FA4207851082851162
:100F900083EFF0151074FFB510021511900053E5A2
:100FA00010F0A3E511F0D004800C900038E0FF852C
:100FB0001082851183F00D90004BEDF0B209900086
:100FC00034E0FFA3E0FAA3E0FEA3E0FBEF4A4E4BC0
:100FD0007091900053E510F0A3E511F090004BEDF7
:100FE000F0900049E0FA70069000497401F0200288
:100FF0002720012474012DFA900049E0FBC3EA9BED
:101000005011758220C002C003120923D003D00200
:101010001B80EA900049EBF030051275822D120911
:1010200023900049E0FA14900049F0802F90004B83
:10103000E0FA602830031275822B120923900049D0
:10104000E0FA14900049F0801330041075822012E9
:101050000923900049E0FA14900049F020012F90F4
:10106000004BE0FA900049E0FB8B041B900049EB39
:10107000F0C3EA9C50363002047C3080027C208C25
:1010800082C002C003120923D003D00280DB90008B
:1010900049E0FA90004BE0FCC39A5009900049EAFD
:1010A000C39CF0800C900049E4F08005900049EB6F
:1010B000F0900053E0FAA3E0FB90004BE0FC8C06BC
:1010C0001CEE6040B2092009150ABA00010B8A82A1
:1010D0008B83E0FEC4540FFE900038F0800E8A82AD
:1010E0008B83E0FE53060F900038EEF0900038E05E
:1010F000FEF582C002C003C00412096BD004D00305
:10110000D00280BA200103020A3D900049E0FA8A29
:10111000031AEB7003020A3D758220C002120923F4
:10112000D00280EB8D82120923020A3D900039E043
:08113000FAA3E08A82F5832294
:0B1537003C4E4F20464C4F41543E00FC
:10113800AAF0AB83E582900055F0A3EBF0A3EAF0A8
:101148007A007B00900055E0FCA3E0FDA3E0FE8C54
:10115800828D838EF012118BFFA3AC82AD83900039
:1011680055ECF0A3EDF0A3EEF0EF60070ABA00DF4C
:101178000B80DC900055ECF0A3EDF0A3EEF08A8232
:031188008B832234
:0D000300758121120232E582600302022D98
:10118B0020F71430F6148883A88220F507E6A8838D
:10119B0075830022E280F7E49322E022E58290003F
:1011AB0058F0900058E0FABA61004009EA248540F3
:0911BB00047582012275820022F4
:00000001FF
