:10005F00E582900000F0C294C295900253E493FAA7
:10006F00740193FB900000E0FC8A828B83F022E501
:10007F0082900001F0C294D295900253E493FA74E7
:10008F000193FB900001E0FC8A828B83F022D294D3
:10009F00C295900253E493FA740193FB8A828B8387
:1000AF00E0FA30E704B29380E922E582900002F093
:1000BF00900002E0FA247F500122C00212009DD06E
:1000CF0002C294C295900253E493FB740193FC43D4
:1000DF0002808B828C83EAF022E582900004F090FC
:1000EF000004E0FA24FC4009900003E0FB24F050E8
:1000FF000122EAC454F02455FAE43402FCEB2AF549
:10010F0082E43CF583E493FAF5820200B9E582902C
:10011F000005F012009D900005E0FAF58202007EC6
:10012F00AAF0AB83E582900006F0A3EBF0A3EAF010
:10013F00900006E0FAA3E0FBA3E0FC8A828B838C9D
:10014F00F0120233FD7001228D82C002C003C00481
:10015F0012011CD004D003D0020ABA00010B900088
:10016F0006EAF0A3EBF0A3ECF0C002C003C0041248
:10017F00009DD004D003D002D294C295900253E4D4
:10018F0093FD740193FE8D828E83E0FD53057FBD39
:10019F001002800FBD24028034BD5002801ABD644E
:1001AF009A803F758240C002C003C0041200B9D0CC
:1001BF0004D003D00202014A758210C002C003C0EE
:1001CF00041200B9D004D003D00202014A75825044
:1001DF00C002C003C0041200B9D004D003D0020281
:1001EF00014A2212009D75823812005F12009D7520
:1001FF00820F02005F12009D75820112005F1200D4
:10020F009D900003E4F07582001200E8900295754E
:05021F00F08002012F38
:1002530000E0000102030405060708090A0B0C0D60
:100263000E0F404142434445464748494A4B4C4D93
:100273004E4F101112131415161718191A1B1C1DA3
:100283001E1F505152535455565758595A5B5C5D73
:100293005E5F6162636465666768696A6B6C6E6FF3
:1002A300707172737475767778797A313233343545
:1002B300363738396162636465666768696A6B6C8F
:1002C3006D6E6F707172737475767778797A313277
:1002D30033343536373839383736353433323100FD
:03000000020003F8
:03005C0002022479
:0F02240012022980FED2931201F212020480FE10
:06003200E478FFF6D8FDA2
:100010007900E94400601B7A009002E3780975A03A
:1000200000E493F2A308B8000205A0D9F4DAF2754F
:02003000A0FF2F
:100038007800E84400600A790075A000E4F309D864
:10004800FC7809E84400600C7901900000E4F0A312
:04005800D8FCD9FAFD
:0D00030075810712024FE58260030202249E
:1002330020F71430F6148883A88220F507E6A883F4
:1002430075830022E280F7E49322E0227582002284
:00000001FF
