:10005F00E582900000F0C294C2959011C0E493FA2B
:10006F00740193FB900000E0FC8A828B83F022E501
:10007F0082900001F0C294D2959011C0E493FA746B
:10008F000193FB900001E0FC8A828B83F022D294D3
:10009F00C2959011C0E493FA740193FB8A828B830B
:1000AF00E0FA20E7ED2212009D75820102005FE564
:1000BF0082900002F0900002E0FA247F500122C0EB
:1000CF000212009DD002C294C2959011C0E493FB1E
:1000DF00740193FC4302808B828C83EAF022E582C9
:1000EF00900004F0900004E0FA24FC400990000313
:1000FF00E0FB24F0500122EAC454F024C2FAE434A5
:10010F0011FCEB2AF582E43CF583E493FAF58202C5
:10011F0000BEE582900005F012009D900005E0FA08
:10012F00F58202007EAAF0AB83E582900006F0A371
:10013F00EBF0A3EAF0900006E0FAA3E0FBA3E0FCEB
:10014F008A828B838CF0121187FD7001228D82C001
:10015F0002C003C004120121D004D003D0020ABA96
:10016F0000010B900006EAF0A3EBF0A3ECF0C00245
:10017F00C003C00412009DD004D003D002D294C299
:10018F00959011C0E493FD740193FE8D828E83E0F0
:10019F00FD53057FBD1002800FBD24028034BD507A
:1001AF0002801ABD649A803F758240C002C003C0AE
:1001BF00041200BED004D003D00202014F7582108A
:1001CF00C002C003C0041200BED004D003D002028C
:1001DF00014F758250C002C003C0041200BED0048C
:1001EF00D003D00202014F2212009D7582381200F7
:1001FF005F12009D75820F02005F12009D758201D4
:10020F0012005F12009D900003E4F075820012004F
:0A021F00ED90120275F08002013428
:1011C00000E0000102030405060708090A0B0C0DE4
:1011D0000E0F404142434445464748494A4B4C4D17
:1011E0004E4F101112131415161718191A1B1C1D27
:1011F0001E1F505152535455565758595A5B5C5DF7
:101200005E5F6162636465666768696A6B6C6E6F76
:10121000707172737475767778797A3132333435C8
:10122000363738396162636465666768696A6B6C12
:101230006D6E6F707172737475767778797A3132FA
:101240003334353637383938373635343332310080
:03000000020003F8
:03005C0002022974
:100229001204E180FE438E0C900000227450C0E05D
:100239007412C0E07480C0E01208E81581158115B8
:10024900817462C0E07412C0E07480C0E01208E8F2
:100259001581158115817450C0E07412C0E0748055
:10026900C0E01208E8158115811581746FC0E0742A
:1002790012C0E07480C0E01208E81581158115816B
:10028900748DC0E07412C0E07480C0E01208E815F3
:10029900811581158174BBC0E07412C0E07480C0FF
:1002A900E01208E8158115811581740BC0E07413FB
:1002B900C0E07480C0E01208E815811581158174C9
:1002C90027C0E07413C0E07480C0E01208E815810B
:1002D900158115817472C0E07413C0E07480C0E0A8
:1002E9001208E815811581158122E582900009F02F
:1002F900900009E0FABA48030204DEBA49028017FD
:10030900BA6303020475BA67028024BA730302044C
:10031900BDBA780280372274B3C0E07413C0E074A8
:1003290080C0E01208E81581158115810201F77472
:10033900C8C0E07413C0E07480C0E01208E81581F9
:10034900158115811200B57582400200BE74ECC09A
:10035900E07413C0E07480C0E01208E815811581CB
:100369001581900003120527E5828583F090000A24
:10037900F0A3E5F0F090000AE0FAA3E0FBC37403F0
:100389009A74808BF063F08095F0502A74ECC0E089
:100399007413C0E07480C0E01208E8158115811556
:1003A90081900003120527E5828583F090000AF009
:1003B900A3E5F0F080BF7404C0E07414C0E0748059
:1003C900C0E01208E8158115811581900003120516
:1003D90027E5828583F090000CF0A3E5F0F090000A
:1003E9000CE0FAA3E0FBC3740F9A74808BF063F0FE
:1003F9008095F0502A7404C0E07414C0E07480C081
:10040900E01208E81581158115819000031205276E
:10041900E5828583F090000CF0A3E5F0F080BFC081
:1004290002C0031200B5D003D00290000AE0FCA379
:10043900E0FD8C06900003EAF08E82C002C003C082
:1004490004C0051200EDD005D004D003D002C002CB
:10045900C003C004C005741DC0E07414C0E07480FA
:10046900C0E01208E8E58124F9F581227446C0E06C
:100479007414C0E07480C0E01208E8158115811574
:10048900811200B57582001200BE758241120121E8
:100499007582401200BE75824212012175821012C6
:1004A90000BE7582431201217582501200BE758209
:1004B900440201217470C0E07414C0E07480C0E08B
:1004C9001208E81581158115811200B590148B75F4
:1004D900F080020134020235120702D2931202356A
:1004E90012051DAA82BA0D0A75820AC00212050BED
:1004F900D0028A82C00212050BD0028A821202F34C
:0205090080DE92
:101250000D0A2A2A2A2A2A2A2A2A2A2A2A2A2A2A2B
:101260002A000D0A202020204D656E750D0A000D04
:101270000A50726573732027482720746F207368A3
:101280006F772074686973206D656E75000D0A5064
:10129000726573732027492720746F20496E697423
:1012A000204C43442E204D7573742063616C6C2078
:1012B00074686973206669727374000D0A507265F0
:1012C00073732027672720746F2073686F772067F8
:1012D0006F746F616464722E2057696C6C20676F45
:1012E00020746F20616464726573732030783430C9
:1012F0002C20776869636820697320737461727445
:10130000206F66206C696E652032000D0A50726590
:1013100073732027782720746F2073686F77206796
:101320006F746F78792E000D0A50726573732027E1
:10133000632720746F2073686F77207075746368FB
:101340002E2057696C6C206472617720612063687D
:1013500061726163746572206174207468652073C2
:1013600074617274206F662065616368206C696EB9
:1013700065000D0A50726573732027732720746F00
:101380002073686F77207075747374722E2057699C
:101390006C6C2066696C6C20656E74697265204C9B
:1013A00043442077697468206120737472696E67A2
:1013B0000D0A000D0A496E697469616C697A696E7B
:1013C00067204C43440D0A000D0A4D6F766564207A
:1013D000637572736F7220746F20737461727420FE
:1013E0006F66206C696E6520320D0A000D0A456E2D
:1013F000746572206120726F772066726F6D203085
:101400002D333A000D0A456E746572206120636FBA
:101410006C2066726F6D20302D31353A000D0A4D0B
:101420006F76656420637572736F7220746F206EBF
:101430006577206C6F636174696F6E202825642C5A
:101440002564290D0A000D0A5570646174696E6780
:101450002066697273742063686172616374657277
:10146000206F662065616368206C696E650D0A00F7
:101470000D57726974696E67206120737472696EAA
:101480006720746F204C43440D0A006162636465F9
:10149000666768696A6B6C6E6F707172737475766B
:1014A0007778797A31323334353637383961626357
:1014B0006465666768696A6B6C6D6E6F7071727374
:1014C0007475767778797A313233343536373839FE
:0914D0003837363534333231006F
:10050B00E58290000EF03099FD90000EE0F599C257
:10051B00992210980280FBAA998A8222AA83E582EB
:10052B0090000FF0A3EAF090001CE4F0A3F0900011
:10053B000FE0FAA3E0FBC3740A9A74808BF063F0AC
:10054B008095F0501974D9C0E07414C0E07480C069
:10055B00E01208E815811581158190FFFF229000AC
:10056B001CE0FCA3E0FDC3EC9AED64808BF063F020
:10057B008095F04003020628C002C003C004C005EA
:10058B0012051DAE82D005D004D003D0028E82C0DE
:10059B0002C003C004C005C00612050BD006D0056F
:1005AB00D004D003D002BE0D03020628BE0812EC05
:1005BB0024FFFFED34FFF890001CEFF0A3E8F08070
:1005CB009DBE71028003BE510490FFFE228E82C03D
:1005DB0002C003C004C005C006120713E582D00693
:1005EB00D005D004D003D002601AEC2411F582EDB3
:1005FB003400F583EEF090001C74012CF0E43DA365
:10060B00F0020569740BC0E07415C0E07480C0E0A3
:10061B001208E815811581158190FFFF2290001CAF
:10062B00E0FAA3E0FBEA2411F582EB3400F583E456
:10063B00F090001175F000020730AAF0AB83E58251
:10064B00900020F0A3EBF0A3EAF012051DAA829014
:10065B000023EAF08A8212050B90001EE0FAA3E059
:10066B00FB900020E0F508A3E0F509A3E0F50A7F75
:10067B00007800900023E0F9B90D02805DC3EF9A7A
:10068B00E864808BF063F08095F0504EC002C0039D
:10069B00EF2508FAE83509FBAC0A8A828B838CF0CC
:1006AB00E9120863C003C007C00012051DAA82D05F
:1006BB0000D007D003900023EAF08A82C002C00367
:1006CB00C007C00012050BD000D007D003D0020F1B
:1006DB00BF000108D003D0028099900020E0FAA35C
:1006EB00E0FBA3E0FCEF2AFFE83BF88C058F828848
:1006FB00838DF0E4020863759850758920758DFD24
:08070B00758BFDD28ED29922FC
:1014D90053657269616C5F676574496E74656765A8
:1014E9007228293A204572726F722E204D61785FF9
:1014F9004C656E67746820746F6F206C61726765E4
:101509002E000D0A496E76616C6964206368617208
:1015190061637465722E20456E746572206F6E6CFE
:0A15290079206469676974732E006D
:06003200E478FFF6D8FDA2
:10071300E582900024F0900024E0FABA300040090A
:10072300EA24C640047582012275820022AAF0AB36
:1007330083E582900025F0A3EBF0A3EAF07A007B37
:1007430000900025E0FCA3E0FDA3E0FE8C828D83F6
:100753008EF0121187FF6039C374B98FF063F08094
:1007630095F04007EF648094B050268C828D838E81
:10077300F0121187FFBF2D028017BF2B0280120CCE
:10078300BC00010D900025ECF0A3EDF0A3EEF0808A
:10079300BB900025ECF0A3EDF0A3EEF08C828D83EB
:1007A3008EF0121187FFE4BF2D0104F88801700356
:1007B300BF2B0E90002574012CF0E43DA3F0A3EEB3
:1007C300F0900025E0FCA3E0FDA3E0FE8C828D8386
:1007D3008EF0121187FF6068C3EF648094B04060AD
:1007E30074B98FF063F08095F04055C001900029F3
:1007F300740AF0E4A3F08A828B83C004C005C006A8
:10080300C007C00112087C85820B85830CD001D000
:1008130007D006D005D004EF3395E0F8EF24D0FFDE
:10082300E834FFF8EF250BFAE8350CFB0CBC0001AC
:100833000D900025ECF0A3EDF0A3EEF0D001808C39
:10084300900025ECF0A3EDF0A3EEF0E96009C3E41A
:100853009AFCE49BFD80048A048B058C828D8322A1
:100010007900E94400601B7A0090153E785975A07C
:1000200000E493F2A308B8000205A0D9F4DAF2754F
:02003000A0FF2F
:1008630020F71030F6118883A88220F507F6A883B5
:1008730075830022F280F7F022AA83AB828BF0907B
:100883000029E0A4F8A9F08AF0E0A429F98BF0A3E9
:09089300E0A429F58388822222E9
:100038007800E84400600A790075A000E4F309D864
:10004800FC7859E84400600C7901900000E4F0A3C2
:04005800D8FCD9FAFD
:10089C00C012858112AA8212050BD01222AAF0ABCB
:1008AC0083E58290002CF0A3EBF0A3EAF090002CEF
:1008BC00E0FAA3E0FBA3E0FC90002BE0FD90003FEE
:1008CC00E4F0A3F0A3F0900042EAF0A3EBF0A3EC69
:1008DC00F0900045EDF090089C020A01C012858151
:1008EC0012E51224FBFA90003FE4F0A3F0A3F0E52C
:1008FC001224FBF8900042E6F008A3E6F008A3E609
:10090C00F0900045EAF090089C120A01AA82AB8391
:10091C00D01222E58290003BF090003BE0FA900070
:10092C0031E0C0E0A3E0C0E0A3E0C0E0744DC0E063
:10093C007409C0E090002FE0C0E0A3E0C0E08A8220
:10094C0022158115811581900039E0FAA3E0FB9006
:10095C00003974012AF0E43BA3F022E58290003CBC
:10096C00F090003CE0FA74302AFA24C6500A74075E
:10097C002AFA3000034302208A8202091FE5829082
:10098C00003DF090003DE0FAC4540FFBF582C0022C
:10099C00120967D00253020F8A82020967E582901E
:1009AC00003EF0900034E0FAA3E0FBA3E0FCA3E0EF
:1009BC00FD900038E0FE90003EE0FF7820EE2EFE29
:1009CC00ED235401F94206EA2AFAEB33FBEC33FC33
:1009DC00ED33FDC3EE9F4007EEC39FFE430201D8EB
:1009EC00DC900034EAF0A3EBF0A3ECF0A3EDF09074
:1009FC000038EEF022AA83E582900046F0A3EAF0DC
:100A0C00900046E0FAA3E0FB90002FEAF0A3EBF095
:100A1C0090003FE0FAA3E0FBA3E0FC900031EAF089
:100A2C00A3EBF0A3ECF0900039E4F0A3F0900042BB
:100A3C00E0FAA3E0FBA3E0FC8A828B838CF012111A
:100A4C0087FD90004274012AF0E43BA3F0A3ECF084
:100A5C00ED7003021128BD25028003021120C20192
:100A6C00C202C203C204C205C206C207C208900079
:100A7C0048E4F0900049F090004A74FFF090004276
:100A8C00E0FAA3E0FBA3E0FC8A828B838CF01211CA
:100A9C0087FEA3AA82AB83900042EAF0A3EBF0A3FB
:100AAC00ECF090004CEEF0BE25088E8212091F026D
:100ABC000A398E07BF300040498E07EF24C64042EA
:100ACC0090004AE0FFBFFF29C002C003C0049000A1
:100ADC0049E0FA75F00AA4FAEE24D09000492AF005
:100AEC00900049E0FAD004D003D002709BD202806F
:100AFC0097EF75F00AA4FFEE24D090004A2FF00275
:100B0C000A9490004CE0FEBE2E0890004AE4F002DD
:100B1C000A948E82C002C003C004C0061211A3E561
:100B2C008224FF9200D006D004D003D002300007FC
:100B3C0090004C74DF5EF090004CE0FEBE20028012
:100B4C0055BE2B02804BBE2D028041BE4202804B13
:100B5C00BE43028050BE4403020D95BE4603020DF7
:100B6C00B7BE4903020D95BE4C028034BE4F030242
:100B7C000D9FBE5003020CF7BE53028042BE5503BC
:100B8C00020DA7BE5803020DAF020DBBD201020A23
:100B9C0094D203020A94D204020A94D206020A9452
:100BAC00D207020A94900045E0FA24FEF890004522
:100BBC00F08602088603188A8212091F020DC7905C
:100BCC000045E0FA24FDF8900045F0860208860303
:100BDC000886041818900034EAF0A3EBF0A3ECF0AC
:100BEC00900034E0FAA3E0FBA3E0FC8A828B838CB8
:100BFC00F0121134AA82AB8390004AE0FBBBFF05D4
:100C0C0090004AEAF0200138900049E0FBC3EA9BCF
:100C1C00502E900049EBC39AF0900049E0FB8B04F6
:100C2C001B900049EBF0BC00028010758220C002C2
:100C3C00C00312091FD003D00280E3900049EBF0EF
:100C4C0090004AE0FDC002900034E0FCA3E0FFA35A
:100C5C00E0FA8C828F838AF0121187D00260538D58
:100C6C00041DC374808CF063F08095F05044C00276
:100C7C00900034E0F50DA3E0F50EA3E0F50F740140
:100C8C00250DFBE4350EFAAC0F900034EBF0A3EA23
:100C9C00F0A3ECF0850D82850E83850FF012118781
:100CAC00FAF582C002C00512091FD005D002D0028D
:100CBC008093200103020DC7900049E0FBC3EA9B1F
:100CCC004003020DC7900049EBC39AF0900049E035
:100CDC00FA8A031A900049EAF0BB0003020DC275B0
:100CEC008220C00212091FD00280E6900045E0FB72
:100CFC0024FDF8900045F086030886040886071842
:100D0C0018900034EBF0A3ECF0A3EFF0900036E079
:100D1C00FB247F500890004C7443F08020EB249F00
:100D2C00500890004C7450F08013EB24BF50089086
:100D3C00004C7449F0800690004C7458F090004CB4
:100D4C00E0FBF582C00312091FD00375823AC00381
:100D5C0012091FD003758230C00312091FD003750E
:100D6C008278C00312091FD003BB4902800FBB500D
:100D7C0002800A900035E0FBF5821209899000345C
:100D8C00E0FBF5821209898032D205900048740A82
:100D9C00F080289000487408F08020900048740A75
:100DAC00F080189000487410F08010D208800C8EDF
:100DBC008212091F8005900049EAF030086B900000
:100DCC0045E0FA24FCF8900045F0860208860308FA
:100DDC008604088606181818900034EAF0A3EBF085
:100DEC00A3ECF0A3EEF09000347433F0A37415F080
:100DFC00A37480F0900034E0FBA3E0FCA3E0FD744E
:100E0C00012BFEE43CFF8D02900034EEF0A3EFF0DA
:100E1C00A3EAF08B828C838DF0121187FA70030297
:100E2C000A398A8212091F80CB900048E0FABA0076
:100E3C0003020A399000537452F0A37400F0300688
:100E4C004C900045E0FA14F8900045F08602EA3325
:100E5C0095E0FBFCFE900034EAF0A3EBF0A3ECF081
:100E6C00A3EEF0300503020F0F900034E0FAA3E07C
:100E7C00FBA3E0FCA3E0FE7B007C007E0090003432
:100E8C00EAF0A3EBF0A3ECF0A3EEF0807630072AA7
:100E9C00900045E0FA24FCF8900045F086020886A4
:100EAC0003088604088606181818900034EAF0A384
:100EBC00EBF0A3ECF0A3EEF08049900045E0FA24AF
:100ECC00FEF8900045F0860208860318EB3395E097
:100EDC00FCFE900034EAF0A3EBF0A3ECF0A3EEF0F0
:100EEC00200520900034E0FAA3E0FBA3E0FCA3E093
:100EFC00FE7C007E00900034EAF0A3EBF0A3ECF053
:100F0C00A3EEF030053E900034E0FAA3E0FBA3E042
:100F1C00FCA3E0FE30E72B900034E0FAA3E0FBA347
:100F2C00E0FCA3E0FEC3E49AFAE49BFBE49CFCE443
:100F3C009EFE900034EAF0A3EBF0A3ECF0A3EEF0ED
:100F4C008002C205D209900048E0FC751052751160
:100F5C00007D00900038E4F08C82C004C0051209BA
:100F6C00A9D005D004200932C004900038E0FFC499
:100F7C00FF851082851183E0FA4207851082851166
:100F8C0083EFF0151074FFB510021511900053E5A6
:100F9C0010F0A3E511F0D004800C900038E0FF8530
:100FAC001082851183F00D90004BEDF0B20990008A
:100FBC0034E0FFA3E0FAA3E0FEA3E0FBEF4A4E4BC4
:100FCC007091900053E510F0A3E511F090004BEDFB
:100FDC00F0900049E0FA70069000497401F020028C
:100FEC002720012474012DFA900049E0FBC3EA9BF1
:100FFC005011758220C002C00312091FD003D00209
:10100C001B80EA900049EBF030051275822D120915
:10101C001F900049E0FA14900049F0802F90004B8B
:10102C00E0FA602830031275822B12091F900049D8
:10103C00E0FA14900049F0801330041075822012ED
:10104C00091F900049E0FA14900049F020012F90FC
:10105C00004BE0FA900049E0FB8B041B900049EB3D
:10106C00F0C3EA9C50363002047C3080027C208C29
:10107C0082C002C00312091FD003D00280DB900093
:10108C0049E0FA90004BE0FCC39A5009900049EA01
:10109C00C39CF0800C900049E4F08005900049EB73
:1010AC00F0900053E0FAA3E0FB90004BE0FC8C06C0
:1010BC001CEE6040B2092009150ABA00010B8A82A5
:1010CC008B83E0FEC4540FFE900038F0800E8A82B1
:1010DC008B83E0FE53060F900038EEF0900038E062
:1010EC00FEF582C002C003C004120967D004D0030D
:1010FC00D00280BA200103020A39900049E0FA8A32
:10110C00031AEB7003020A39758220C00212091F00
:10111C00D00280EB8D8212091F020A39900039E04F
:08112C00FAA3E08A82F5832298
:0B1533003C4E4F20464C4F41543E0000
:10113400AAF0AB83E582900055F0A3EBF0A3EAF0AC
:101144007A007B00900055E0FCA3E0FDA3E0FE8C58
:10115400828D838EF0121187FFA3AC82AD83900041
:1011640055ECF0A3EDF0A3EEF0EF60070ABA00DF50
:101174000B80DC900055ECF0A3EDF0A3EEF08A8236
:031184008B832238
:0D00030075812112022EE5826003020229A0
:1011870020F71430F6148883A88220F507E6A88391
:1011970075830022E280F7E49322E022E582900043
:1011A70058F0900058E0FABA61004009EA248540F7
:0911B700047582012275820022F8
:00000001FF
